{
  "_format": "hh-sol-artifact-1",
  "contractName": "Results",
  "sourceName": "contracts/Results.sol",
  "abi": [
    {
      "inputs": [
        {
          "internalType": "address",
          "name": "_votingContractAddress",
          "type": "address"
        }
      ],
      "stateMutability": "nonpayable",
      "type": "constructor"
    },
    {
      "anonymous": false,
      "inputs": [
        {
          "indexed": true,
          "internalType": "uint256",
          "name": "electionId",
          "type": "uint256"
        },
        {
          "indexed": true,
          "internalType": "address",
          "name": "accessor",
          "type": "address"
        }
      ],
      "name": "RealTimeResultsAccessed",
      "type": "event"
    },
    {
      "anonymous": false,
      "inputs": [
        {
          "indexed": true,
          "internalType": "uint256",
          "name": "electionId",
          "type": "uint256"
        },
        {
          "indexed": true,
          "internalType": "address",
          "name": "accessor",
          "type": "address"
        }
      ],
      "name": "ResultsAccessed",
      "type": "event"
    },
    {
      "inputs": [
        {
          "internalType": "uint256",
          "name": "_electionId",
          "type": "uint256"
        },
        {
          "internalType": "address",
          "name": "_address",
          "type": "address"
        }
      ],
      "name": "canAccessResults",
      "outputs": [
        {
          "internalType": "bool",
          "name": "",
          "type": "bool"
        }
      ],
      "stateMutability": "view",
      "type": "function"
    },
    {
      "inputs": [
        {
          "internalType": "uint256",
          "name": "_electionId1",
          "type": "uint256"
        },
        {
          "internalType": "uint256",
          "name": "_electionId2",
          "type": "uint256"
        }
      ],
      "name": "compareElections",
      "outputs": [
        {
          "internalType": "string",
          "name": "title1",
          "type": "string"
        },
        {
          "internalType": "string",
          "name": "title2",
          "type": "string"
        },
        {
          "internalType": "uint256",
          "name": "totalVotes1",
          "type": "uint256"
        },
        {
          "internalType": "uint256",
          "name": "totalVotes2",
          "type": "uint256"
        },
        {
          "internalType": "uint256",
          "name": "turnoutPercentage1",
          "type": "uint256"
        },
        {
          "internalType": "uint256",
          "name": "turnoutPercentage2",
          "type": "uint256"
        },
        {
          "internalType": "enum IVoting.Status",
          "name": "status1",
          "type": "uint8"
        },
        {
          "internalType": "enum IVoting.Status",
          "name": "status2",
          "type": "uint8"
        }
      ],
      "stateMutability": "view",
      "type": "function"
    },
    {
      "inputs": [
        {
          "internalType": "uint256",
          "name": "_electionId",
          "type": "uint256"
        }
      ],
      "name": "getCompleteElectionResult",
      "outputs": [
        {
          "components": [
            {
              "internalType": "uint256",
              "name": "electionId",
              "type": "uint256"
            },
            {
              "internalType": "string",
              "name": "title",
              "type": "string"
            },
            {
              "internalType": "string[]",
              "name": "candidates",
              "type": "string[]"
            },
            {
              "internalType": "uint256[]",
              "name": "voteCounts",
              "type": "uint256[]"
            },
            {
              "internalType": "uint256",
              "name": "totalVotes",
              "type": "uint256"
            },
            {
              "internalType": "uint256",
              "name": "totalVoters",
              "type": "uint256"
            },
            {
              "internalType": "uint256",
              "name": "votedCount",
              "type": "uint256"
            },
            {
              "internalType": "uint256",
              "name": "turnoutPercentage",
              "type": "uint256"
            },
            {
              "internalType": "enum IVoting.Status",
              "name": "status",
              "type": "uint8"
            },
            {
              "internalType": "bool",
              "name": "isFinalized",
              "type": "bool"
            },
            {
              "internalType": "uint256",
              "name": "endDate",
              "type": "uint256"
            }
          ],
          "internalType": "struct Results.ElectionResult",
          "name": "result",
          "type": "tuple"
        }
      ],
      "stateMutability": "view",
      "type": "function"
    },
    {
      "inputs": [
        {
          "internalType": "uint256",
          "name": "_electionId",
          "type": "uint256"
        }
      ],
      "name": "getElectionResults",
      "outputs": [
        {
          "internalType": "string[]",
          "name": "candidates",
          "type": "string[]"
        },
        {
          "internalType": "uint256[]",
          "name": "voteCounts",
          "type": "uint256[]"
        },
        {
          "internalType": "uint256",
          "name": "totalVotes",
          "type": "uint256"
        },
        {
          "internalType": "uint256",
          "name": "totalVoters",
          "type": "uint256"
        },
        {
          "internalType": "uint256",
          "name": "votedCount",
          "type": "uint256"
        },
        {
          "internalType": "uint256",
          "name": "turnoutPercentage",
          "type": "uint256"
        }
      ],
      "stateMutability": "view",
      "type": "function"
    },
    {
      "inputs": [
        {
          "internalType": "uint256",
          "name": "_electionId",
          "type": "uint256"
        }
      ],
      "name": "getElectionStatus",
      "outputs": [
        {
          "internalType": "enum IVoting.Status",
          "name": "",
          "type": "uint8"
        }
      ],
      "stateMutability": "view",
      "type": "function"
    },
    {
      "inputs": [
        {
          "internalType": "uint256",
          "name": "_electionId",
          "type": "uint256"
        }
      ],
      "name": "getElectionSummary",
      "outputs": [
        {
          "internalType": "string",
          "name": "title",
          "type": "string"
        },
        {
          "internalType": "enum IVoting.Status",
          "name": "status",
          "type": "uint8"
        },
        {
          "internalType": "bool",
          "name": "isFinalized",
          "type": "bool"
        },
        {
          "internalType": "uint256",
          "name": "totalVotes",
          "type": "uint256"
        },
        {
          "internalType": "uint256",
          "name": "totalVoters",
          "type": "uint256"
        },
        {
          "internalType": "uint256",
          "name": "votedCount",
          "type": "uint256"
        }
      ],
      "stateMutability": "view",
      "type": "function"
    },
    {
      "inputs": [
        {
          "internalType": "uint256",
          "name": "_electionId",
          "type": "uint256"
        }
      ],
      "name": "getElectionWinner",
      "outputs": [
        {
          "components": [
            {
              "internalType": "string",
              "name": "winner",
              "type": "string"
            },
            {
              "internalType": "uint256",
              "name": "voteCount",
              "type": "uint256"
            },
            {
              "internalType": "bool",
              "name": "isTie",
              "type": "bool"
            },
            {
              "internalType": "string[]",
              "name": "tiedCandidates",
              "type": "string[]"
            }
          ],
          "internalType": "struct Results.ElectionWinner",
          "name": "winner",
          "type": "tuple"
        }
      ],
      "stateMutability": "view",
      "type": "function"
    },
    {
      "inputs": [
        {
          "internalType": "uint256",
          "name": "_electionId",
          "type": "uint256"
        }
      ],
      "name": "getRealTimeResults",
      "outputs": [
        {
          "internalType": "string[]",
          "name": "candidates",
          "type": "string[]"
        },
        {
          "internalType": "uint256[]",
          "name": "voteCounts",
          "type": "uint256[]"
        },
        {
          "internalType": "uint256",
          "name": "totalVotes",
          "type": "uint256"
        },
        {
          "internalType": "uint256",
          "name": "totalVoters",
          "type": "uint256"
        },
        {
          "internalType": "uint256",
          "name": "votedCount",
          "type": "uint256"
        },
        {
          "internalType": "uint256",
          "name": "turnoutPercentage",
          "type": "uint256"
        }
      ],
      "stateMutability": "nonpayable",
      "type": "function"
    },
    {
      "inputs": [
        {
          "internalType": "uint256",
          "name": "_electionId",
          "type": "uint256"
        }
      ],
      "name": "getTotalVotes",
      "outputs": [
        {
          "internalType": "uint256",
          "name": "",
          "type": "uint256"
        }
      ],
      "stateMutability": "view",
      "type": "function"
    },
    {
      "inputs": [
        {
          "internalType": "uint256",
          "name": "_electionId",
          "type": "uint256"
        }
      ],
      "name": "getVoterStatistics",
      "outputs": [
        {
          "internalType": "uint256",
          "name": "totalVoters",
          "type": "uint256"
        },
        {
          "internalType": "uint256",
          "name": "voted",
          "type": "uint256"
        },
        {
          "internalType": "uint256",
          "name": "turnoutPercentage",
          "type": "uint256"
        }
      ],
      "stateMutability": "view",
      "type": "function"
    },
    {
      "inputs": [
        {
          "internalType": "uint256",
          "name": "_electionId",
          "type": "uint256"
        }
      ],
      "name": "hasElectionEnded",
      "outputs": [
        {
          "internalType": "bool",
          "name": "",
          "type": "bool"
        }
      ],
      "stateMutability": "view",
      "type": "function"
    },
    {
      "inputs": [
        {
          "internalType": "uint256",
          "name": "_electionId",
          "type": "uint256"
        }
      ],
      "name": "isElectionFinalized",
      "outputs": [
        {
          "internalType": "bool",
          "name": "",
          "type": "bool"
        }
      ],
      "stateMutability": "view",
      "type": "function"
    },
    {
      "inputs": [],
      "name": "votingContract",
      "outputs": [
        {
          "internalType": "contract IVoting",
          "name": "",
          "type": "address"
        }
      ],
      "stateMutability": "view",
      "type": "function"
    }
  ],
  "bytecode": "0x60803460ba57601f611ee538819003918201601f19168301916001600160401b0383118484101760bf5780849260209460405283398101031260ba57516001600160a01b0381169081900360ba578015607557600080546001600160a01b031916919091179055604051611e0f90816100d68239f35b60405162461bcd60e51b815260206004820152601f60248201527f496e76616c696420766f74696e6720636f6e74726163742061646472657373006044820152606490fd5b600080fd5b634e487b7160e01b600052604160045260246000fdfe608080604052600436101561001357600080fd5b60003560e01c90816324785b9e14610e72575080632ce35e1114610d7f5780633f6037f814610ab15780634f4f3cc514610a7f5780635439931c1461098a578063aeac16d114610728578063c1fc006a146106ff578063c9635e1b146105b0578063cadc68e914610588578063d9148f731461043b578063dc2771f314610376578063e62c6ac51461030c5763e8ededa6146100ae57600080fd5b346101d45760203660031901126101d45760043560018060a01b036000541690604051633b9f03c760e11b8152816004820152602081602481865afa80156101e1576000906102d1575b6101029150611156565b604051633d81264960e21b815260048101829052600081602481865afa80156101e15760009182916102a4575b501561025f576005811015610249576002811490811561023e575b50156101ed5760209161015c82611ca2565b93909261016881611988565b9390926024604051809781936390b536e360e01b835260048301525afa80156101e1576000906101a8575b6101a494506040519687968761104c565b0390f35b506020843d6020116101d9575b816101c260209383611127565b810103126101d4576101a49351610193565b600080fd5b3d91506101b5565b6040513d6000823e3d90fd5b60405162461bcd60e51b815260206004820152602360248201527f456c656374696f6e206d75737420626520656e646564206f722066696e616c696044820152621e995960ea1b6064820152608490fd5b60049150143861014a565b634e487b7160e01b600052602160045260246000fd5b60405162461bcd60e51b815260206004820152601960248201527f526573756c7473206e6f742066696e616c697a656420796574000000000000006044820152606490fd5b90506102c1913d8091833e6102b98183611127565b81019061120f565b505095509350505050903861012f565b506020813d602011610304575b816102eb60209383611127565b810103126101d4576102ff61010291611149565b6100f8565b3d91506102de565b346101d45760203660031901126101d4576101a461032b60043561163b565b60405191829160208352606061034d82516080602087015260a0860190610f9a565b916020810151604086015260408101511515828601520151601f19848303016080850152610fbf565b346101d45760203660031901126101d457600435610392611b73565b600054604051633b9f03c760e11b81526004810183905290602090829060249082906001600160a01b03165afa9081156101e1576000916103f5575b60606103e2846103dd85611156565b611988565b9060405192835260208301526040820152f35b90506020813d602011610433575b8161041060209383611127565b810103126101d4576060916103dd61042a6103e293611149565b925050916103ce565b3d9150610403565b346101d45760203660031901126101d457600054604051633b9f03c760e11b815260048035908201819052916001600160a01b031690602081602481855afa9081156101e157600091610543575b50602491610498600092611156565b60405192838092633d81264960e21b82528660048301525afa9182156101e1576104ef92600092839284918593610514575b506104d490611988565b509290916104fa60405197889760c0895260c0890190610f9a565b956020880190610f6a565b151560408601526060850152608084015260a08301520390f35b9150925061053091506104d4933d8091833e6102b98183611127565b5096989197909550935091506104ca9050565b90506020813d602011610580575b8161055e60209383611127565b810103126101d457602491610498610577600093611149565b92505091610489565b3d9150610551565b346101d45760203660031901126101d45760206105a66004356114ac565b6040519015158152f35b346101d45760203660031901126101d4576004356105cc611b73565b600054604051633b9f03c760e11b8152600481018390526001600160a01b039091169190602081602481865afa80156101e1576000906106c4575b6106119150611156565b602461061c82611ca2565b9093602061062985611988565b9491929093604051968780926390b536e360e01b82528a60048301525afa9081156101e15760009161068e575b6101a4955060405197889733907ff709c59ccf15481d1600980d3351c6b774cf54eae4d8baee1f87794d5f869534600080a38761104c565b90506020853d6020116106bc575b816106a960209383611127565b810103126101d4576101a4945190610656565b3d915061069c565b506020813d6020116106f7575b816106de60209383611127565b810103126101d4576106f261061191611149565b610607565b3d91506106d1565b346101d45760003660031901126101d4576000546040516001600160a01b039091168152602090f35b346101d45760203660031901126101d457600435600061014060405161074d816110d8565b82815260606020820152606060408201526060808201528260808201528260a08201528260c08201528260e082015282610100820152826101208201520152610794611b73565b600054604051633b9f03c760e11b8152600481018390526001600160a01b039091169190602081602481865afa9081156101e157600091610945575b506024926107df600092611156565b60405193848092633d81264960e21b82528560048301525afa80156101e1576000928390848591869461091a575b5061081785611988565b9161082188611ca2565b906040519961082f8b6110d8565b8a5260208a019a8b5260408a0190815260608a0191825260808a0198895260a08a0192835260c08a0193845260e08a019485526101008a019560058110156102495786526101208a0196151587526101408a019788526040519a8b9a60208c525160208c01525160408b0161016090526101808b016108ad91610f9a565b90518a8203601f190160608c01526108c59190610fbf565b9051898203601f190160808b01526108dd9190611018565b965160a08901525160c08801525160e08701525161010086015251610120850161090691610f6a565b511515610140840152516101608301520390f35b935050505061093391923d8091833e6102b98183611127565b5096979695509193509091508661080d565b90506020813d602011610982575b8161096060209383611127565b810103126101d4576024926107df610979600093611149565b925050926107d0565b3d9150610953565b346101d45760203660031901126101d457600054604051633b9f03c760e11b8152600480359082018190526001600160a01b0390921691602082602481865afa9182156101e157600092610a3f575b506109e5600092611156565b602460405180948193633d81264960e21b835260048301525afa80156101e157602091600091610a1b575b506040519015158152f35b610a3091503d806000833e6102b98183611127565b50509550505050505082610a10565b91506020823d602011610a77575b81610a5a60209383611127565b810103126101d4576109e5610a70600093611149565b92506109d9565b3d9150610a4d565b346101d45760403660031901126101d4576024356001600160a01b03811681036101d4576105a660209160043561133b565b346101d45760403660031901126101d45760043560243560018060a01b036000541690604051633b9f03c760e11b8152836004820152602081602481865afa9081156101e157600091610d45575b5015610d0057604051633b9f03c760e11b815260048101829052602081602481865afa9081156101e157600091610cc6575b5015610c8157604051633d81264960e21b81526004810184905290600082602481865afa9182156101e157600093600091600094610c4f575b50600060249160405192838092633d81264960e21b82528760048301525afa9182156101e157610bde966101a494600091600094600096610c15575b5094610bec610bc4610bbb610c0b9798611988565b95915050611988565b959150506040519b8c9b6101008d526101008d0190610f9a565b908b820360208d0152610f9a565b9760408a01526060890152608088015260a087015260c0860190610f6a565b60e0840190610f6a565b610bc49650610c0b9550610bbb9350610c3b610bec913d806000833e6102b98183611127565b509d50909b50949850610ba6945050505050565b60009550610c6c919450602492503d8087833e6102b98183611127565b50979694505098935050509592949150610b6a565b60405162461bcd60e51b815260206004820152601e60248201527f5365636f6e6420656c656374696f6e20646f6573206e6f7420657869737400006044820152606490fd5b90506020813d602011610cf8575b81610ce160209383611127565b810103126101d457610cf290611149565b84610b31565b3d9150610cd4565b60405162461bcd60e51b815260206004820152601d60248201527f466972737420656c656374696f6e20646f6573206e6f742065786973740000006044820152606490fd5b90506020813d602011610d77575b81610d6060209383611127565b810103126101d457610d7190611149565b84610aff565b3d9150610d53565b346101d45760203660031901126101d457600054604051633b9f03c760e11b8152600480359082018190526001600160a01b0390921691602082602481865afa9182156101e157600092610e32575b50610dda600092611156565b602460405180948193633d81264960e21b835260048301525afa80156101e157602091600091610e0e575b50604051908152f35b610e2391503d806000833e6102b98183611127565b50965050505050505082610e05565b91506020823d602011610e6a575b81610e4d60209383611127565b810103126101d457610dda610e63600093611149565b9250610dce565b3d9150610e40565b346101d45760203660031901126101d457600054633b9f03c760e11b8252600480359083018190526001600160a01b039091169190602082602481865afa9182156101e157600092610f2a575b50610ecb600092611156565b602460405180948193633d81264960e21b835260048301525afa80156101e157602091600091610f06575b50610f046040518092610f6a565bf35b610f1b91503d806000833e6102b98183611127565b50505094505050505082610ef6565b91506020823d602011610f62575b81610f4560209383611127565b810103126101d457610ecb610f5b600093611149565b9250610ebf565b3d9150610f38565b9060058210156102495752565b60005b838110610f8a5750506000910152565b8181015183820152602001610f7a565b90602091610fb381518092818552858086019101610f77565b601f01601f1916010190565b9080602083519182815201916020808360051b8301019401926000915b838310610feb57505050505090565b9091929394602080611009600193601f198682030187528951610f9a565b97019301930191939290610fdc565b906020808351928381520192019060005b8181106110365750505090565b8251845260209384019390920191600101611029565b9295939096949160c0840160c08552885180915260e0850190602060e08260051b8801019a01916000905b8282106110ad575050505087611099918560a09798999a036020870152611018565b966040840152606083015260808201520152565b9091929a6020806110ca6001938f60df198d830301875251610f9a565b9d0192019201909291611077565b610160810190811067ffffffffffffffff8211176110f557604052565b634e487b7160e01b600052604160045260246000fd5b6080810190811067ffffffffffffffff8211176110f557604052565b90601f8019910116810190811067ffffffffffffffff8211176110f557604052565b519081151582036101d457565b1561115d57565b60405162461bcd60e51b815260206004820152601760248201527f456c656374696f6e20646f6573206e6f742065786973740000000000000000006044820152606490fd5b81601f820112156101d457805167ffffffffffffffff81116110f557604051926111d6601f8301601f191660200185611127565b818452602082840101116101d4576111f49160208085019101610f77565b90565b67ffffffffffffffff81116110f55760051b60200190565b91610120838303126101d457825167ffffffffffffffff81116101d457826112389185016111a2565b92602081015167ffffffffffffffff81116101d457836112599183016111a2565b92604082015167ffffffffffffffff81116101d45782019080601f830112156101d4578151611287816111f7565b926112956040519485611127565b81845260208085019260051b820101918383116101d45760208201905b8382106112f55750505050509160608201519160808101519160a082015160058110156101d457916112e660c08201611149565b9161010060e083015192015190565b815167ffffffffffffffff81116101d457602091611318878480948801016111a2565b8152019101906112b2565b908160209103126101d4575160038110156101d45790565b600054604051633b9f03c760e11b815260048101929092526001600160a01b03169190602081602481865afa9081156101e157600091611472575b501561146b57604051634427673360e01b81526001600160a01b0390911660048201819052602082602481865afa9182156101e157600092611439575b506020906024604051809581936349b9055760e01b835260048301525afa9182156101e1576000926113fd575b506003811015610249576002149081156113f8575090565b905090565b9091506020813d602011611431575b8161141960209383611127565b810103126101d45761142a90611149565b90386113e0565b3d915061140c565b602091925061145d90823d8411611464575b6114558183611127565b810190611323565b91906113b3565b503d61144b565b5050600090565b90506020813d6020116114a4575b8161148d60209383611127565b810103126101d45761149e90611149565b38611376565b3d9150611480565b600054604051633b9f03c760e11b8152600481018390526001600160a01b039091169190602081602481865afa9081156101e15760009161157e575b501561146b57600090602460405180948193633d81264960e21b835260048301525afa9081156101e157600090600092611558575b504211908115611543575b8115611532575090565b905060058110156102495760041490565b90506005811015610249576002811490611528565b905061156f91503d806000833e6102b98183611127565b5050509450925050503861151d565b90506020813d6020116115b0575b8161159960209383611127565b810103126101d4576115aa90611149565b386114e8565b3d915061158c565b80518210156115cc5760209160051b010190565b634e487b7160e01b600052603260045260246000fd5b60001981146115f15760010190565b634e487b7160e01b600052601160045260246000fd5b60405190611616602083611127565b600080835282815b82811061162a57505050565b80606060208093850101520161161e565b6040516116478161110b565b6060815260006020820152600060408201526060808201525060018060a01b0360005416604051633b9f03c760e11b8152826004820152602081602481855afa9081156101e157600091611943575b506024916116a5600092611156565b60405192838092633d81264960e21b82528660048301525afa9081156101e15760009161191f575b50156118e1576116dc90611ca2565b9190600090818080805b875186101561176d57816116fa878a6115b8565b511115611727575050505061170f82856115b8565b51908293600094600180955b019491959293906116e6565b90939295919484611738828a6115b8565b511480611764575b61174d575b60019061171b565b949550600161175c81976115e2565b959050611745565b50841515611740565b93969192909450841561189b576117b957505061178b9192936115b8565b5190611795611607565b90604051926117a38461110b565b8352602083015260006040830152606082015290565b915091936117c6836111f7565b926117d46040519485611127565b8084526117e3601f19916111f7565b0160005b81811061188a57505060009160005b825181101561184e578661180a82846115b8565b5114611819575b6001016117f6565b9261184660019161182a86866115b8565b5161183582896115b8565b5261184081886115b8565b506115e2565b939050611811565b50505050919091604051916118628361110b565b604051611870602082611127565b600081528352602083015260016040830152606082015290565b8060606020809388010152016117e7565b505050505090506118aa611607565b604051906118b78261110b565b6040516118c5602082611127565b6000815282526000602083015260006040830152606082015290565b60405162461bcd60e51b8152602060048201526016602482015275115b1958dd1a5bdb881b9bdd08199a5b985b1a5e995960521b6044820152606490fd5b61193491503d806000833e6102b98183611127565b505095505050505050386116cd565b90506020813d602011611980575b8161195e60209383611127565b810103126101d4576024916116a5611977600093611149565b92505091611696565b3d9150611951565b6000805460405163f452130b60e01b8152600481018490526001600160a01b039091169392909182602481875afa9182156101e157600092611ac7575b50600091825b8151811015611a78576001600160a01b036119e682846115b8565b516040516328365bc360e21b815260048101869052911660248201526020816044818a5afa9081156101e157600091611a3c575b50611a28575b6001016119cb565b92611a346001916115e2565b939050611a20565b906020823d8211611a70575b81611a5560209383611127565b81010312611a6d5750611a6790611149565b38611a1a565b80fd5b3d9150611a48565b505191935090919050811580611abe576064840290848204606414851517156115f157611aa85782900491929190565b634e487b7160e01b600052601260045260246000fd5b50600091929190565b90913d8082843e611ad88184611127565b820191602081840312611b6f5780519067ffffffffffffffff8211611b6b57019180601f84011215611b6f57825191611b10836111f7565b93611b1e6040519586611127565b83855260208086019460051b820101928311611b6f57602001925b828410611b4b575050505090386119c5565b83516001600160a01b0381168103611b6b57815260209384019301611b39565b8280fd5b5080fd5b600054604051634427673360e01b8152336004820152906001600160a01b0316602082602481845afa9081156101e157602492600092611c80575b50602090604051938480926349b9055760e01b82523360048301525afa9182156101e157600092611c44575b50600381101561024957600214908115611c3c575b5015611bf757565b60405162461bcd60e51b815260206004820152601e60248201527f52657175697265732061646d696e206f722061756469746f7220726f6c6500006044820152606490fd5b905038611bef565b9091506020813d602011611c78575b81611c6060209383611127565b810103126101d457611c7190611149565b9038611bda565b3d9150611c53565b6020919250611c9b90823d8411611464576114558183611127565b9190611bae565b60008054604051633d81264960e21b81526004810184905293926001600160a01b039091169184602481855afa9384156101e157600094611db5575b50835191611ceb836111f7565b92611cf96040519485611127565b808452611d08601f19916111f7565b0136602085013760005b8551811015611daf57611d536020611d2a83896115b8565b51604051809381926329a4fdd160e21b8352886004840152604060248401526044830190610f9a565b0381865afa9081156101e157600091611d7d575b5090600191611d7682876115b8565b5201611d12565b906020823d8211611da7575b81611d9660209383611127565b81010312611a6d5750516001611d67565b3d9150611d89565b50505090565b611dc991943d8091833e6102b98183611127565b5050505050509150509238611cde56fea2646970667358221220ad7ef54663279121eb268ac2b58a2146ff8bebe8785ce23ce3a0363cc25eb05b64736f6c634300081c0033",
  "linkReferences": {},
  "deployedLinkReferences": {}
}