{
  "contracts/Voting.sol": {
    "Voting": {
      "abi": [
        {
          "inputs": [
            {
              "internalType": "address",
              "name": "owner",
              "type": "address"
            }
          ],
          "name": "OwnableInvalidOwner",
          "type": "error"
        },
        {
          "inputs": [
            {
              "internalType": "address",
              "name": "account",
              "type": "address"
            }
          ],
          "name": "OwnableUnauthorizedAccount",
          "type": "error"
        },
        {
          "anonymous": false,
          "inputs": [
            {
              "indexed": true,
              "internalType": "address",
              "name": "admin",
              "type": "address"
            }
          ],
          "name": "AdminAdded",
          "type": "event"
        },
        {
          "anonymous": false,
          "inputs": [
            {
              "indexed": true,
              "internalType": "address",
              "name": "admin",
              "type": "address"
            }
          ],
          "name": "AdminRemoved",
          "type": "event"
        },
        {
          "anonymous": false,
          "inputs": [
            {
              "indexed": true,
              "internalType": "address",
              "name": "auditor",
              "type": "address"
            }
          ],
          "name": "AuditorAdded",
          "type": "event"
        },
        {
          "anonymous": false,
          "inputs": [
            {
              "indexed": true,
              "internalType": "address",
              "name": "auditor",
              "type": "address"
            }
          ],
          "name": "AuditorRemoved",
          "type": "event"
        },
        {
          "anonymous": false,
          "inputs": [
            {
              "indexed": true,
              "internalType": "uint256",
              "name": "electionId",
              "type": "uint256"
            },
            {
              "indexed": false,
              "internalType": "string",
              "name": "title",
              "type": "string"
            },
            {
              "indexed": false,
              "internalType": "uint256",
              "name": "startDate",
              "type": "uint256"
            },
            {
              "indexed": false,
              "internalType": "uint256",
              "name": "endDate",
              "type": "uint256"
            }
          ],
          "name": "ElectionCreated",
          "type": "event"
        },
        {
          "anonymous": false,
          "inputs": [
            {
              "indexed": true,
              "internalType": "uint256",
              "name": "electionId",
              "type": "uint256"
            },
            {
              "indexed": false,
              "internalType": "string[]",
              "name": "candidates",
              "type": "string[]"
            },
            {
              "indexed": false,
              "internalType": "uint256[]",
              "name": "voteCounts",
              "type": "uint256[]"
            }
          ],
          "name": "ElectionFinalized",
          "type": "event"
        },
        {
          "anonymous": false,
          "inputs": [
            {
              "indexed": true,
              "internalType": "uint256",
              "name": "electionId",
              "type": "uint256"
            },
            {
              "indexed": false,
              "internalType": "enum Voting.Status",
              "name": "status",
              "type": "uint8"
            }
          ],
          "name": "ElectionStatusChanged",
          "type": "event"
        },
        {
          "anonymous": false,
          "inputs": [
            {
              "indexed": true,
              "internalType": "uint256",
              "name": "electionId",
              "type": "uint256"
            },
            {
              "indexed": false,
              "internalType": "string",
              "name": "title",
              "type": "string"
            },
            {
              "indexed": false,
              "internalType": "uint256",
              "name": "startDate",
              "type": "uint256"
            },
            {
              "indexed": false,
              "internalType": "uint256",
              "name": "endDate",
              "type": "uint256"
            }
          ],
          "name": "ElectionUpdated",
          "type": "event"
        },
        {
          "anonymous": false,
          "inputs": [
            {
              "indexed": false,
              "internalType": "bytes32",
              "name": "newKey",
              "type": "bytes32"
            }
          ],
          "name": "EncryptionKeyUpdated",
          "type": "event"
        },
        {
          "anonymous": false,
          "inputs": [
            {
              "indexed": true,
              "internalType": "uint256",
              "name": "electionId",
              "type": "uint256"
            },
            {
              "indexed": false,
              "internalType": "bytes32",
              "name": "merkleRoot",
              "type": "bytes32"
            }
          ],
          "name": "MerkleRootUpdated",
          "type": "event"
        },
        {
          "anonymous": false,
          "inputs": [
            {
              "indexed": true,
              "internalType": "address",
              "name": "previousOwner",
              "type": "address"
            },
            {
              "indexed": true,
              "internalType": "address",
              "name": "newOwner",
              "type": "address"
            }
          ],
          "name": "OwnershipTransferred",
          "type": "event"
        },
        {
          "anonymous": false,
          "inputs": [
            {
              "indexed": true,
              "internalType": "uint256",
              "name": "electionId",
              "type": "uint256"
            },
            {
              "indexed": true,
              "internalType": "address",
              "name": "voter",
              "type": "address"
            }
          ],
          "name": "RegistrationRequested",
          "type": "event"
        },
        {
          "anonymous": false,
          "inputs": [
            {
              "indexed": true,
              "internalType": "address",
              "name": "user",
              "type": "address"
            },
            {
              "indexed": false,
              "internalType": "enum AccessControl.Role",
              "name": "role",
              "type": "uint8"
            }
          ],
          "name": "RoleAssigned",
          "type": "event"
        },
        {
          "anonymous": false,
          "inputs": [
            {
              "indexed": true,
              "internalType": "uint256",
              "name": "electionId",
              "type": "uint256"
            },
            {
              "indexed": false,
              "internalType": "address",
              "name": "voter",
              "type": "address"
            },
            {
              "indexed": false,
              "internalType": "string",
              "name": "candidate",
              "type": "string"
            },
            {
              "indexed": false,
              "internalType": "bytes32",
              "name": "voteHash",
              "type": "bytes32"
            }
          ],
          "name": "VoteCast",
          "type": "event"
        },
        {
          "anonymous": false,
          "inputs": [
            {
              "indexed": true,
              "internalType": "uint256",
              "name": "electionId",
              "type": "uint256"
            },
            {
              "indexed": true,
              "internalType": "address",
              "name": "voter",
              "type": "address"
            },
            {
              "indexed": false,
              "internalType": "bool",
              "name": "isEligible",
              "type": "bool"
            }
          ],
          "name": "VoterEligibilitySet",
          "type": "event"
        },
        {
          "anonymous": false,
          "inputs": [
            {
              "indexed": true,
              "internalType": "uint256",
              "name": "electionId",
              "type": "uint256"
            },
            {
              "indexed": false,
              "internalType": "address",
              "name": "voter",
              "type": "address"
            }
          ],
          "name": "VoterRegistered",
          "type": "event"
        },
        {
          "inputs": [
            {
              "internalType": "address",
              "name": "",
              "type": "address"
            }
          ],
          "name": "adminIndex",
          "outputs": [
            {
              "internalType": "uint256",
              "name": "",
              "type": "uint256"
            }
          ],
          "stateMutability": "view",
          "type": "function"
        },
        {
          "inputs": [
            {
              "internalType": "uint256",
              "name": "_electionId",
              "type": "uint256"
            },
            {
              "internalType": "address",
              "name": "_voter",
              "type": "address"
            }
          ],
          "name": "adminRegisterVoter",
          "outputs": [],
          "stateMutability": "nonpayable",
          "type": "function"
        },
        {
          "inputs": [
            {
              "internalType": "uint256",
              "name": "",
              "type": "uint256"
            }
          ],
          "name": "admins",
          "outputs": [
            {
              "internalType": "address",
              "name": "",
              "type": "address"
            }
          ],
          "stateMutability": "view",
          "type": "function"
        },
        {
          "inputs": [
            {
              "internalType": "address",
              "name": "_user",
              "type": "address"
            },
            {
              "internalType": "enum AccessControl.Role",
              "name": "_role",
              "type": "uint8"
            }
          ],
          "name": "assignRole",
          "outputs": [],
          "stateMutability": "nonpayable",
          "type": "function"
        },
        {
          "inputs": [
            {
              "internalType": "address",
              "name": "",
              "type": "address"
            }
          ],
          "name": "auditorIndex",
          "outputs": [
            {
              "internalType": "uint256",
              "name": "",
              "type": "uint256"
            }
          ],
          "stateMutability": "view",
          "type": "function"
        },
        {
          "inputs": [
            {
              "internalType": "uint256",
              "name": "",
              "type": "uint256"
            }
          ],
          "name": "auditors",
          "outputs": [
            {
              "internalType": "address",
              "name": "",
              "type": "address"
            }
          ],
          "stateMutability": "view",
          "type": "function"
        },
        {
          "inputs": [
            {
              "internalType": "address[]",
              "name": "_users",
              "type": "address[]"
            },
            {
              "internalType": "enum AccessControl.Role[]",
              "name": "_roles",
              "type": "uint8[]"
            }
          ],
          "name": "batchAssignRoles",
          "outputs": [],
          "stateMutability": "nonpayable",
          "type": "function"
        },
        {
          "inputs": [
            {
              "internalType": "address[]",
              "name": "_admins",
              "type": "address[]"
            }
          ],
          "name": "batchRemoveAdmins",
          "outputs": [],
          "stateMutability": "nonpayable",
          "type": "function"
        },
        {
          "inputs": [
            {
              "internalType": "address[]",
              "name": "_auditors",
              "type": "address[]"
            }
          ],
          "name": "batchRemoveAuditors",
          "outputs": [],
          "stateMutability": "nonpayable",
          "type": "function"
        },
        {
          "inputs": [
            {
              "internalType": "uint256",
              "name": "_electionId",
              "type": "uint256"
            }
          ],
          "name": "cancelElection",
          "outputs": [],
          "stateMutability": "nonpayable",
          "type": "function"
        },
        {
          "inputs": [
            {
              "internalType": "uint256",
              "name": "_electionId",
              "type": "uint256"
            },
            {
              "internalType": "string",
              "name": "_candidate",
              "type": "string"
            },
            {
              "internalType": "bytes32",
              "name": "_encryptedVote",
              "type": "bytes32"
            },
            {
              "internalType": "uint256",
              "name": "_nonce",
              "type": "uint256"
            }
          ],
          "name": "castVote",
          "outputs": [],
          "stateMutability": "nonpayable",
          "type": "function"
        },
        {
          "inputs": [
            {
              "internalType": "string",
              "name": "_title",
              "type": "string"
            },
            {
              "internalType": "string",
              "name": "_description",
              "type": "string"
            },
            {
              "internalType": "string[]",
              "name": "_candidates",
              "type": "string[]"
            },
            {
              "internalType": "uint256",
              "name": "_startDate",
              "type": "uint256"
            },
            {
              "internalType": "uint256",
              "name": "_endDate",
              "type": "uint256"
            },
            {
              "internalType": "bytes32",
              "name": "_merkleRoot",
              "type": "bytes32"
            }
          ],
          "name": "createElection",
          "outputs": [],
          "stateMutability": "nonpayable",
          "type": "function"
        },
        {
          "inputs": [],
          "name": "electionCount",
          "outputs": [
            {
              "internalType": "uint256",
              "name": "",
              "type": "uint256"
            }
          ],
          "stateMutability": "view",
          "type": "function"
        },
        {
          "inputs": [
            {
              "internalType": "uint256",
              "name": "_electionId",
              "type": "uint256"
            }
          ],
          "name": "electionExists",
          "outputs": [
            {
              "internalType": "bool",
              "name": "",
              "type": "bool"
            }
          ],
          "stateMutability": "view",
          "type": "function"
        },
        {
          "inputs": [
            {
              "internalType": "uint256",
              "name": "",
              "type": "uint256"
            }
          ],
          "name": "elections",
          "outputs": [
            {
              "internalType": "uint256",
              "name": "id",
              "type": "uint256"
            },
            {
              "internalType": "string",
              "name": "title",
              "type": "string"
            },
            {
              "internalType": "string",
              "name": "description",
              "type": "string"
            },
            {
              "internalType": "uint256",
              "name": "startDate",
              "type": "uint256"
            },
            {
              "internalType": "uint256",
              "name": "endDate",
              "type": "uint256"
            },
            {
              "internalType": "bytes32",
              "name": "merkleRoot",
              "type": "bytes32"
            },
            {
              "internalType": "enum Voting.Status",
              "name": "status",
              "type": "uint8"
            },
            {
              "internalType": "bool",
              "name": "isFinalized",
              "type": "bool"
            }
          ],
          "stateMutability": "view",
          "type": "function"
        },
        {
          "inputs": [],
          "name": "encryptionKey",
          "outputs": [
            {
              "internalType": "bytes32",
              "name": "",
              "type": "bytes32"
            }
          ],
          "stateMutability": "view",
          "type": "function"
        },
        {
          "inputs": [
            {
              "internalType": "uint256",
              "name": "_electionId",
              "type": "uint256"
            }
          ],
          "name": "finalizeElection",
          "outputs": [],
          "stateMutability": "nonpayable",
          "type": "function"
        },
        {
          "inputs": [
            {
              "internalType": "uint256",
              "name": "_index",
              "type": "uint256"
            }
          ],
          "name": "getAdminAtIndex",
          "outputs": [
            {
              "internalType": "address",
              "name": "",
              "type": "address"
            }
          ],
          "stateMutability": "view",
          "type": "function"
        },
        {
          "inputs": [],
          "name": "getAdminCount",
          "outputs": [
            {
              "internalType": "uint256",
              "name": "",
              "type": "uint256"
            }
          ],
          "stateMutability": "view",
          "type": "function"
        },
        {
          "inputs": [
            {
              "internalType": "address",
              "name": "_admin",
              "type": "address"
            }
          ],
          "name": "getAdminIndex",
          "outputs": [
            {
              "internalType": "uint256",
              "name": "",
              "type": "uint256"
            }
          ],
          "stateMutability": "view",
          "type": "function"
        },
        {
          "inputs": [],
          "name": "getAdmins",
          "outputs": [
            {
              "internalType": "address[]",
              "name": "",
              "type": "address[]"
            }
          ],
          "stateMutability": "view",
          "type": "function"
        },
        {
          "inputs": [
            {
              "internalType": "uint256",
              "name": "_electionId",
              "type": "uint256"
            }
          ],
          "name": "getApprovedVoters",
          "outputs": [
            {
              "internalType": "address[]",
              "name": "",
              "type": "address[]"
            }
          ],
          "stateMutability": "view",
          "type": "function"
        },
        {
          "inputs": [
            {
              "internalType": "uint256",
              "name": "_index",
              "type": "uint256"
            }
          ],
          "name": "getAuditorAtIndex",
          "outputs": [
            {
              "internalType": "address",
              "name": "",
              "type": "address"
            }
          ],
          "stateMutability": "view",
          "type": "function"
        },
        {
          "inputs": [],
          "name": "getAuditorCount",
          "outputs": [
            {
              "internalType": "uint256",
              "name": "",
              "type": "uint256"
            }
          ],
          "stateMutability": "view",
          "type": "function"
        },
        {
          "inputs": [
            {
              "internalType": "address",
              "name": "_auditor",
              "type": "address"
            }
          ],
          "name": "getAuditorIndex",
          "outputs": [
            {
              "internalType": "uint256",
              "name": "",
              "type": "uint256"
            }
          ],
          "stateMutability": "view",
          "type": "function"
        },
        {
          "inputs": [],
          "name": "getAuditors",
          "outputs": [
            {
              "internalType": "address[]",
              "name": "",
              "type": "address[]"
            }
          ],
          "stateMutability": "view",
          "type": "function"
        },
        {
          "inputs": [
            {
              "internalType": "uint256",
              "name": "_electionId",
              "type": "uint256"
            },
            {
              "internalType": "string",
              "name": "_candidate",
              "type": "string"
            }
          ],
          "name": "getCandidateVotes",
          "outputs": [
            {
              "internalType": "uint256",
              "name": "",
              "type": "uint256"
            }
          ],
          "stateMutability": "view",
          "type": "function"
        },
        {
          "inputs": [],
          "name": "getElectionCount",
          "outputs": [
            {
              "internalType": "uint256",
              "name": "",
              "type": "uint256"
            }
          ],
          "stateMutability": "view",
          "type": "function"
        },
        {
          "inputs": [
            {
              "internalType": "uint256",
              "name": "_electionId",
              "type": "uint256"
            }
          ],
          "name": "getElectionDetails",
          "outputs": [
            {
              "internalType": "string",
              "name": "title",
              "type": "string"
            },
            {
              "internalType": "string",
              "name": "description",
              "type": "string"
            },
            {
              "internalType": "string[]",
              "name": "candidates",
              "type": "string[]"
            },
            {
              "internalType": "uint256",
              "name": "startDate",
              "type": "uint256"
            },
            {
              "internalType": "uint256",
              "name": "endDate",
              "type": "uint256"
            },
            {
              "internalType": "enum Voting.Status",
              "name": "status",
              "type": "uint8"
            },
            {
              "internalType": "bool",
              "name": "isFinalized",
              "type": "bool"
            },
            {
              "internalType": "uint256",
              "name": "totalVotes",
              "type": "uint256"
            },
            {
              "internalType": "bytes32",
              "name": "merkleRoot",
              "type": "bytes32"
            }
          ],
          "stateMutability": "view",
          "type": "function"
        },
        {
          "inputs": [],
          "name": "getHardcodedAdmins",
          "outputs": [
            {
              "internalType": "address[]",
              "name": "",
              "type": "address[]"
            }
          ],
          "stateMutability": "view",
          "type": "function"
        },
        {
          "inputs": [],
          "name": "getHardcodedAuditors",
          "outputs": [
            {
              "internalType": "address[]",
              "name": "",
              "type": "address[]"
            }
          ],
          "stateMutability": "view",
          "type": "function"
        },
        {
          "inputs": [
            {
              "internalType": "uint256",
              "name": "_electionId",
              "type": "uint256"
            }
          ],
          "name": "getRegistrationRequests",
          "outputs": [
            {
              "internalType": "address[]",
              "name": "",
              "type": "address[]"
            }
          ],
          "stateMutability": "view",
          "type": "function"
        },
        {
          "inputs": [
            {
              "internalType": "address",
              "name": "_address",
              "type": "address"
            }
          ],
          "name": "getRole",
          "outputs": [
            {
              "internalType": "enum AccessControl.Role",
              "name": "",
              "type": "uint8"
            }
          ],
          "stateMutability": "view",
          "type": "function"
        },
        {
          "inputs": [
            {
              "internalType": "uint256",
              "name": "_electionId",
              "type": "uint256"
            }
          ],
          "name": "getVoterTurnout",
          "outputs": [
            {
              "internalType": "uint256",
              "name": "",
              "type": "uint256"
            }
          ],
          "stateMutability": "view",
          "type": "function"
        },
        {
          "inputs": [
            {
              "internalType": "uint256",
              "name": "",
              "type": "uint256"
            },
            {
              "internalType": "address",
              "name": "",
              "type": "address"
            }
          ],
          "name": "hasRequestedRegistration",
          "outputs": [
            {
              "internalType": "bool",
              "name": "",
              "type": "bool"
            }
          ],
          "stateMutability": "view",
          "type": "function"
        },
        {
          "inputs": [
            {
              "internalType": "address",
              "name": "_address",
              "type": "address"
            },
            {
              "internalType": "enum AccessControl.Role",
              "name": "_role",
              "type": "uint8"
            }
          ],
          "name": "hasRole",
          "outputs": [
            {
              "internalType": "bool",
              "name": "",
              "type": "bool"
            }
          ],
          "stateMutability": "view",
          "type": "function"
        },
        {
          "inputs": [
            {
              "internalType": "uint256",
              "name": "",
              "type": "uint256"
            },
            {
              "internalType": "address",
              "name": "",
              "type": "address"
            }
          ],
          "name": "hasVoted",
          "outputs": [
            {
              "internalType": "bool",
              "name": "",
              "type": "bool"
            }
          ],
          "stateMutability": "view",
          "type": "function"
        },
        {
          "inputs": [
            {
              "internalType": "uint256",
              "name": "_electionId",
              "type": "uint256"
            },
            {
              "internalType": "address",
              "name": "_voter",
              "type": "address"
            }
          ],
          "name": "hasVoterVoted",
          "outputs": [
            {
              "internalType": "bool",
              "name": "",
              "type": "bool"
            }
          ],
          "stateMutability": "view",
          "type": "function"
        },
        {
          "inputs": [
            {
              "internalType": "address",
              "name": "_address",
              "type": "address"
            }
          ],
          "name": "isAdmin",
          "outputs": [
            {
              "internalType": "bool",
              "name": "",
              "type": "bool"
            }
          ],
          "stateMutability": "view",
          "type": "function"
        },
        {
          "inputs": [
            {
              "internalType": "address",
              "name": "",
              "type": "address"
            }
          ],
          "name": "isAdminMap",
          "outputs": [
            {
              "internalType": "bool",
              "name": "",
              "type": "bool"
            }
          ],
          "stateMutability": "view",
          "type": "function"
        },
        {
          "inputs": [
            {
              "internalType": "address",
              "name": "_address",
              "type": "address"
            }
          ],
          "name": "isAuditor",
          "outputs": [
            {
              "internalType": "bool",
              "name": "",
              "type": "bool"
            }
          ],
          "stateMutability": "view",
          "type": "function"
        },
        {
          "inputs": [
            {
              "internalType": "address",
              "name": "",
              "type": "address"
            }
          ],
          "name": "isAuditorMap",
          "outputs": [
            {
              "internalType": "bool",
              "name": "",
              "type": "bool"
            }
          ],
          "stateMutability": "view",
          "type": "function"
        },
        {
          "inputs": [
            {
              "internalType": "address",
              "name": "_address",
              "type": "address"
            }
          ],
          "name": "isHardcodedAdmin",
          "outputs": [
            {
              "internalType": "bool",
              "name": "",
              "type": "bool"
            }
          ],
          "stateMutability": "view",
          "type": "function"
        },
        {
          "inputs": [
            {
              "internalType": "address",
              "name": "_address",
              "type": "address"
            }
          ],
          "name": "isHardcodedAuditor",
          "outputs": [
            {
              "internalType": "bool",
              "name": "",
              "type": "bool"
            }
          ],
          "stateMutability": "view",
          "type": "function"
        },
        {
          "inputs": [
            {
              "internalType": "uint256",
              "name": "_electionId",
              "type": "uint256"
            },
            {
              "internalType": "string",
              "name": "_candidate",
              "type": "string"
            }
          ],
          "name": "isValidCandidate",
          "outputs": [
            {
              "internalType": "bool",
              "name": "",
              "type": "bool"
            }
          ],
          "stateMutability": "view",
          "type": "function"
        },
        {
          "inputs": [
            {
              "internalType": "uint256",
              "name": "_electionId",
              "type": "uint256"
            },
            {
              "internalType": "address",
              "name": "_voter",
              "type": "address"
            }
          ],
          "name": "isVoterRegistered",
          "outputs": [
            {
              "internalType": "bool",
              "name": "",
              "type": "bool"
            }
          ],
          "stateMutability": "view",
          "type": "function"
        },
        {
          "inputs": [],
          "name": "owner",
          "outputs": [
            {
              "internalType": "address",
              "name": "",
              "type": "address"
            }
          ],
          "stateMutability": "view",
          "type": "function"
        },
        {
          "inputs": [
            {
              "internalType": "uint256",
              "name": "_electionId",
              "type": "uint256"
            },
            {
              "internalType": "bytes32[]",
              "name": "_merkleProof",
              "type": "bytes32[]"
            }
          ],
          "name": "registerVoter",
          "outputs": [],
          "stateMutability": "nonpayable",
          "type": "function"
        },
        {
          "inputs": [
            {
              "internalType": "uint256",
              "name": "",
              "type": "uint256"
            },
            {
              "internalType": "address",
              "name": "",
              "type": "address"
            }
          ],
          "name": "registeredVoters",
          "outputs": [
            {
              "internalType": "bool",
              "name": "",
              "type": "bool"
            }
          ],
          "stateMutability": "view",
          "type": "function"
        },
        {
          "inputs": [
            {
              "internalType": "uint256",
              "name": "",
              "type": "uint256"
            },
            {
              "internalType": "address",
              "name": "",
              "type": "address"
            }
          ],
          "name": "registrationRequestIndex",
          "outputs": [
            {
              "internalType": "uint256",
              "name": "",
              "type": "uint256"
            }
          ],
          "stateMutability": "view",
          "type": "function"
        },
        {
          "inputs": [
            {
              "internalType": "address",
              "name": "_admin",
              "type": "address"
            }
          ],
          "name": "removeAdmin",
          "outputs": [],
          "stateMutability": "nonpayable",
          "type": "function"
        },
        {
          "inputs": [
            {
              "internalType": "address",
              "name": "_auditor",
              "type": "address"
            }
          ],
          "name": "removeAuditor",
          "outputs": [],
          "stateMutability": "nonpayable",
          "type": "function"
        },
        {
          "inputs": [],
          "name": "renounceOwnership",
          "outputs": [],
          "stateMutability": "nonpayable",
          "type": "function"
        },
        {
          "inputs": [
            {
              "internalType": "uint256",
              "name": "_electionId",
              "type": "uint256"
            },
            {
              "internalType": "address",
              "name": "_voter",
              "type": "address"
            },
            {
              "internalType": "bool",
              "name": "_isEligible",
              "type": "bool"
            }
          ],
          "name": "setVoterEligibility",
          "outputs": [],
          "stateMutability": "nonpayable",
          "type": "function"
        },
        {
          "inputs": [
            {
              "internalType": "string",
              "name": "_identity",
              "type": "string"
            }
          ],
          "name": "setVoterIdentity",
          "outputs": [],
          "stateMutability": "nonpayable",
          "type": "function"
        },
        {
          "inputs": [
            {
              "internalType": "address",
              "name": "newOwner",
              "type": "address"
            }
          ],
          "name": "transferOwnership",
          "outputs": [],
          "stateMutability": "nonpayable",
          "type": "function"
        },
        {
          "inputs": [
            {
              "internalType": "uint256",
              "name": "_electionId",
              "type": "uint256"
            },
            {
              "internalType": "string",
              "name": "_title",
              "type": "string"
            },
            {
              "internalType": "string",
              "name": "_description",
              "type": "string"
            },
            {
              "internalType": "string[]",
              "name": "_candidates",
              "type": "string[]"
            },
            {
              "internalType": "uint256",
              "name": "_startDate",
              "type": "uint256"
            },
            {
              "internalType": "uint256",
              "name": "_endDate",
              "type": "uint256"
            }
          ],
          "name": "updateElection",
          "outputs": [],
          "stateMutability": "nonpayable",
          "type": "function"
        },
        {
          "inputs": [
            {
              "internalType": "bytes32",
              "name": "_newKey",
              "type": "bytes32"
            }
          ],
          "name": "updateEncryptionKey",
          "outputs": [],
          "stateMutability": "nonpayable",
          "type": "function"
        },
        {
          "inputs": [
            {
              "internalType": "uint256",
              "name": "_electionId",
              "type": "uint256"
            },
            {
              "internalType": "bytes32",
              "name": "_merkleRoot",
              "type": "bytes32"
            }
          ],
          "name": "updateMerkleRoot",
          "outputs": [],
          "stateMutability": "nonpayable",
          "type": "function"
        },
        {
          "inputs": [
            {
              "internalType": "address",
              "name": "",
              "type": "address"
            }
          ],
          "name": "userRoles",
          "outputs": [
            {
              "internalType": "enum AccessControl.Role",
              "name": "",
              "type": "uint8"
            }
          ],
          "stateMutability": "view",
          "type": "function"
        },
        {
          "inputs": [
            {
              "internalType": "uint256",
              "name": "_electionId",
              "type": "uint256"
            },
            {
              "internalType": "address",
              "name": "_voter",
              "type": "address"
            },
            {
              "internalType": "string",
              "name": "_candidate",
              "type": "string"
            },
            {
              "internalType": "bytes32",
              "name": "_encryptedVote",
              "type": "bytes32"
            },
            {
              "internalType": "uint256",
              "name": "_nonce",
              "type": "uint256"
            },
            {
              "internalType": "bytes32",
              "name": "_previousBlockHash",
              "type": "bytes32"
            }
          ],
          "name": "verifyVote",
          "outputs": [
            {
              "internalType": "bool",
              "name": "",
              "type": "bool"
            }
          ],
          "stateMutability": "view",
          "type": "function"
        },
        {
          "inputs": [
            {
              "internalType": "uint256",
              "name": "",
              "type": "uint256"
            },
            {
              "internalType": "address",
              "name": "",
              "type": "address"
            }
          ],
          "name": "voteHashes",
          "outputs": [
            {
              "internalType": "bytes32",
              "name": "",
              "type": "bytes32"
            }
          ],
          "stateMutability": "view",
          "type": "function"
        },
        {
          "inputs": [
            {
              "internalType": "address",
              "name": "",
              "type": "address"
            }
          ],
          "name": "voterIdentities",
          "outputs": [
            {
              "internalType": "string",
              "name": "",
              "type": "string"
            }
          ],
          "stateMutability": "view",
          "type": "function"
        },
        {
          "inputs": [
            {
              "internalType": "uint256",
              "name": "",
              "type": "uint256"
            },
            {
              "internalType": "string",
              "name": "",
              "type": "string"
            }
          ],
          "name": "votes",
          "outputs": [
            {
              "internalType": "uint256",
              "name": "",
              "type": "uint256"
            }
          ],
          "stateMutability": "view",
          "type": "function"
        }
      ],
      "evm": {
        "bytecode": {
          "linkReferences": {},
          "object": "6080604052346104ee5733156104d85760008054336001600160a01b0319821681178355916001600160a01b03909116907f8be0079c531659141344cd1fd0a4f28419497f9722a3daafe3b4186f6b6457e09080a361005c6104f3565b73ae428d52d40f4028ff54d3de45643bece675b6058152600854600160085580600110610476575b50600860005260206000209060005b60018110610459576100a36104f3565b739359c6a8aaa407923aaf421d92a8eec48e7c872281526009546001600955806001106103f7575b50600960005260206000209060005b600181106103da573360005260016020526040600020600260ff1982541617905561010433610576565b604051600281526000805160206147e883398151915260203392a2336000805160206147c8833981519152600080a260005b60085481101561023b578061014c600192610512565b838060a01b0391549060031b1c16151580610219575b61016d575b01610136565b61017681610512565b838060a01b0391549060031b1c16600052816020526040600020600260ff198254161790556101ba6101a782610512565b848060a01b0391549060031b1c16610576565b6101c381610512565b838060a01b0391549060031b1c166000805160206147e8833981519152602060405160028152a26101f381610512565b838060a01b0391549060031b1c166000805160206147c8833981519152600080a2610167565b5061022381610512565b903391848060a01b0391549060031b1c161415610162565b60005b6009548110156103cb5761025181610543565b905460039190911b1c6001600160a01b0316610270575b60010161023e565b61027981610543565b60018060a01b0391549060031b1c1660005260016020526040600020600160ff198254161790556102a981610543565b60018060a01b0391549060031b1c169081600052600560205260ff6040600020541615610347575b600191506102de81610543565b838060a01b0391549060031b1c166000805160206147e88339815191526020604051858152a261030d81610543565b838060a01b0391549060031b1c167f2c31044378cc14466459f09320dd4057d7ad6e99b194c0800c78227383a25296600080a29050610268565b60035491680100000000000000008310156103b55761036f836001809501600355600361055e565b81549060031b9083821b91868060a01b03901b1916179055600354816000526007602052604060002055600052600560205260406000208260ff198254161790556102d1565b634e487b7160e01b600052604160045260246000fd5b6040516141c390816106058239f35b81516001600160a01b0316818401556020909101906001016100da565b60096000527f6e1540171b6c0c960b71a7020d9f60077f6af931a8bbf590da0223dacf75c7af017f6e1540171b6c0c960b71a7020d9f60077f6af931a8bbf590da0223dacf75c7b05b81811061044d57506100cb565b60008155600101610440565b81516001600160a01b031681840155602090910190600101610093565b60086000527ff3f7a9fe364faab93b216da50a3214154f22a0a2b415b23a84c8169e8b636ee3017ff3f7a9fe364faab93b216da50a3214154f22a0a2b415b23a84c8169e8b636ee45b8181106104cc5750610084565b600081556001016104bf565b631e4fbdf760e01b600052600060045260246000fd5b600080fd5b60405190602082016001600160401b038111838210176103b557604052565b60085481101561052d57600860005260206000200190600090565b634e487b7160e01b600052603260045260246000fd5b60095481101561052d57600960005260206000200190600090565b805482101561052d5760005260206000200190600090565b6001600160a01b031660008181526004602052604090205460ff16156105995750565b600254680100000000000000008110156103b5578060016105bf9201600255600261055e565b81549060031b9083821b9160018060a01b03901b191617905560025481600052600660205260406000205560005260046020526040600020600160ff1982541617905556fe6080604052600436101561001257600080fd5b60003560e01c806307314a3f14612ffb5780630dd709b914612cda57806314bfd6d014612cb157806314f3f349146117e65780631537052e146129dc5780631785f53c1461289e5780631b8b444c146128755780631e7bbd861461225b578063213785a01461189c57806324d7806c1461197057806331ae450b146121f8578063394eaa8f1461164f5780633e599eb614611f4857806341260c8514611efb578063438596321461184f5780634427673314611b4657806344bfd12d14611ec1578063478f161b14611e5557806349b905571461045457806352738d9a14611e3757806357de4a6e14611dd45780635e6fef0114611d23578063630a195b14611ce3578063662d6ce514611be1578063715018a614611b8857806374d5e10014611b46578063773e078e14611b18578063889a988214611a7c5780638978ae3914611a595780638b7bf3eb14611a3b5780638c89a8a1146119d85780638da5cb5b146119af5780638e9a4c341461197057806390b536e31461190357806395a8c58d146118ba578063997d28301461189c578063a0d96f0c1461184f578063a20b147d14611815578063a693f744146117e6578063adb2d96b1461169c578063b83ed4c81461164f578063bee6bf1a146115ee578063bf66f9a9146115a0578063bf8c61121461153f578063c41331ec14611512578063c9875d7b14611392578063c9be0cf71461135b578063cb1c87271461132c578063ce7318bd14610d2f578063d8fe0c2a14610be7578063dd94505f14610b9f578063de2f0d6f14610b3c578063e03a919114610b1e578063e6116cfd14610a3d578063e93dea23146108d4578063ed3e846114610669578063ef2d65c31461063e578063f1c4132e146105fa578063f1e331151461055b578063f2fde38b146104d2578063f452130b14610493578063f575afad14610454578063f6049924146103295763f84e6f74146102dc57600080fd5b34610324576040366003190112610324576102f56132ce565b600435600052600e60205260406000209060018060a01b03166000526020526020604060002054604051908152f35b600080fd5b346103245760203660031901126103245760043580600052600a602052604060002061035781541515613623565b600091600090600383019182545b80821061041a57505050816103ca9360ff60048301549360058401546103e66007860154926103d86103b36103ad60026103a6600160068d01549c01613409565b9c01613409565b92613716565b916040519b8c9b6101208d526101208d01906134ad565b908b820360208d01526134ad565b9089820360408b015261350e565b956060880152608087015261040060a087018383166134d2565b60081c16151560c085015260e08401526101008301520390f35b90919461044b60019187600052600d602052610444604060002061043e87896131ae565b5061385c565b5490613d65565b95920190610365565b34610324576020366003190112610324576001600160a01b036104756132b8565b166000526005602052602060ff604060002054166040519015158152f35b3461032457602036600319011261032457600435600052600a6020526104ce6104c26008604060002001613953565b60405191829182613379565b0390f35b34610324576020366003190112610324576104eb6132b8565b6104f3614124565b6001600160a01b0316801561054557600080546001600160a01b03198116831782556001600160a01b0316907f8be0079c531659141344cd1fd0a4f28419497f9722a3daafe3b4186f6b6457e09080a3005b631e4fbdf760e01b600052600060045260246000fd5b346103245760403660031901126103245760043560243533600052600160205260ff6040600020541660038110156105e4577f9ff79792a92b66fee090acb66e07837a2edb31ee6b9780fa551fd04b79dffcd2916105bd600260209314613567565b83600052600a825280600660406000206105d981541515613623565b0155604051908152a2005b634e487b7160e01b600052602160045260246000fd5b346103245760203660031901126103245760206106256004356106206002548210613daf565b613162565b905460405160039290921b1c6001600160a01b03168152f35b346103245760203660031901126103245760206106256004356106646003548210613daf565b613193565b34610324576060366003190112610324576004356106856132ce565b9060443591821515928381036103245733600052600160205260ff6040600020541660038110156105e45760026106bc9114613567565b82600052600a6020526040600020906106d782541515613623565b83600052600b602052604060002060018060a01b038416600052602052604060002060ff1981541660ff87161790556000146107835760008051602061416e8339815191529181600b602093019060018060a01b03831660005281845260406000205415610756575b50505b6040519485526001600160a01b031693a3005b60080161076383826136f3565b546001600160a01b03831660009081529184526040909120558580610740565b600b810160018060a01b0383166000528060205260406000205491826107be575b505050602060008051602061416e83398151915291610743565b6008018054909391929060001981019081116108be576107de90856131ae565b905460039190911b1c6001600160a01b031660001982018281116108be578161080a61082e92886131ae565b81546001600160a01b0393841660039290921b91821b9390911b1916919091179055565b6001600160a01b031660009081526020849052604090205582549182156108a85760008051602061416e83398151915293602093600019019061088961087483836131ae565b81549060018060a01b039060031b1b19169055565b556001600160a01b0382166000908152908352604081205591856107a4565b634e487b7160e01b600052603160045260246000fd5b634e487b7160e01b600052601160045260246000fd5b34610324576020366003190112610324576004356001600160401b03811161032457610904903690600401613132565b9033600052600160205260ff6040600020541660038110156105e457600261092c9114613567565b60005b82811061093857005b61094b6109468285856135b3565b6135c3565b6001600160a01b03811660008181526001602052604090205491929160ff1660038110156105e457600114610986575b50600191500161092f565b61098f83613f99565b6109f8576109b36001938260005284602052604060002060ff198154169055613ffd565b60008051602061414e8339815191526020604051837fd3e803f2dfdacd206b7d19aa46d847206386d84e3dc6b8de0926e54affa6fddc600080a260008152a28461097b565b60405162461bcd60e51b815260206004820152601f60248201527f43616e6e6f742072656d6f76652068617264636f6465642061756469746f72006044820152606490fd5b3461032457602036600319011261032457610a566132b8565b33600052600160205260ff6040600020541660038110156105e4576002610a7d9114613567565b6001600160a01b03811660008181526001602052604090205490919060ff1660038110156105e4576001610ab19114613d72565b610aba81613f99565b6109f857610add90826000526001602052604060002060ff198154169055613ffd565b60008051602061414e8339815191526020604051837fd3e803f2dfdacd206b7d19aa46d847206386d84e3dc6b8de0926e54affa6fddc600080a260008152a2005b34610324576000366003190112610324576020601354604051908152f35b34610324576000366003190112610324576040516009548082526020820190600960005260206000209060005b818110610b80576104ce856104c2818703826131c6565b82546001600160a01b0316845260209093019260019283019201610b69565b3461032457604036600319011261032457610bb86132ce565b600435600052601060205260406000209060018060a01b03166000526020526020604060002054604051908152f35b346103245760203660031901126103245760043533600052600160205260ff6040600020541660038110156105e4576002610c229114613567565b80600052600a60205260076040600020610c3e81541515613623565b019060ff8254169160058310156105e45760048314610cdf57600360009314610c9a57600360ff198254161790557ffc109e0cb0828ec465b9741a17f547df3009f4e626af452175fbdbf0b1b50fef602060405160038152a280f35b60405162461bcd60e51b815260206004820152601c60248201527f456c656374696f6e20697320616c72656164792063616e63656c6564000000006044820152606490fd5b60405162461bcd60e51b815260206004820152602260248201527f43616e6e6f742063616e63656c20612066696e616c697a656420656c6563746960448201526137b760f11b6064820152608490fd5b346103245760c0366003190112610324576004356001600160401b03811161032457610d5f9036906004016131e7565b6024356001600160401b03811161032457610d7e9036906004016131e7565b6044356001600160401b03811161032457610d9d9036906004016132fb565b606435926084359360a4359033600052600160205260ff6040600020541660038110156105e4576002610dd09114613567565b610ddb8682106137bd565b804210156112e857610df16002855110156137f9565b610dfc6012546139a7565b928360125583600052600a6020526040600020958487556001870182516001600160401b03811161110f57610e3182546133cf565b601f81116112b6575b506020601f8211600114611252579080610e6a92600091611247575b508160011b916000199060031b1c19161790565b90555b805160028801916001600160401b03821161110f57610e8c83546133cf565b601f8111611215575b50602090601f83116001146111ae57610ec79291600091836111a3575b50508160011b916000199060031b1c19161790565b90555b600386018551600160401b811161110f578154818355808210611125575b5060208799989901916000526020600020916000905b828210610fe6575050505060048701829055600587018690556006870183905560078701805461ffff19169055600a9096019560005b8551811015610f7a5780610f56610f4d6001938961376e565b515115156138e5565b610f6a89610f64838a61376e565b51613292565b805460ff19168317905501610f34565b5083917fe7a0aae5d733e07e246dea86213a1ac1b0aa8554bde889bb75c12752f44e53d991610faf8860405193849384613931565b0390a280610fb957005b60207f9ff79792a92b66fee090acb66e07837a2edb31ee6b9780fa551fd04b79dffcd291604051908152a2005b809a999a518051906001600160401b03821161110f5761100686546133cf565b601f81116110d2575b50602090601f831160011461106557926110488360019594602094879660009261105a5750508160011b916000199060031b1c19161790565b87555b01940191019092999899610efe565b015190503880610eb2565b90601f1983169187600052816000209260005b8181106110ba57509360209360019693879693838895106110a1575b505050811b01875561104b565b015160001960f88460031b161c19169055388080611094565b92936020600181928786015181550195019301611078565b6110ff90876000526020600020601f850160051c81019160208610611105575b601f0160051c0190613845565b8d61100f565b90915081906110f2565b634e487b7160e01b600052604160045260246000fd5b8260005281602060002091820191015b8181106111425750610ee8565b8061114f600192546133cf565b8061115c575b5001611135565b601f811183146111725750600081555b8c611155565b611190908260005283601f6020600020920160051c82019101613845565b806000526000602081208183555561116c565b015190508b80610eb2565b90601f1983169184600052816000209260005b8181106111fd57509084600195949392106111e4575b505050811b019055610eca565b015160001960f88460031b161c191690558a80806111d7565b929360206001819287860151815501950193016111c1565b61124190846000526020600020601f850160051c8101916020861061110557601f0160051c0190613845565b8a610e95565b90508501518c610e56565b601f1982169083600052806000209160005b81811061129e57509083600194939210611285575b5050811b019055610e6d565b86015160001960f88460031b161c191690558b80611279565b9192602060018192868b015181550194019201611264565b6112e290836000526020600020601f840160051c8101916020851061110557601f0160051c0190613845565b8a610e3a565b606460405162461bcd60e51b815260206004820152602060248201527f53746172742064617465206d75737420626520696e20746865206675747572656044820152fd5b3461032457602036600319011261032457600435600052600a6020526104ce6104c26009604060002001613953565b3461032457602060ff6113866113703661323d565b90600052600a8452600a60406000200190613292565b54166040519015158152f35b34610324576020366003190112610324576004356001600160401b038111610324576113c29036906004016131e7565b8051156114cd57336000526011602052604060002081516001600160401b03811161110f576113f182546133cf565b601f811161149b575b50602092601f821160011461143b5761142c929382916000926114305750508160011b916000199060031b1c19161790565b9055005b015190508480610eb2565b601f1982169383600052806000209160005b868110611483575083600195961061146a575b505050811b019055005b015160001960f88460031b161c19169055838080611460565b9192602060018192868501518155019401920161144d565b6114c790836000526020600020601f840160051c8101916020851061110557601f0160051c0190613845565b836113fa565b60405162461bcd60e51b815260206004820152601860248201527f4964656e746974792063616e6e6f7420626520656d70747900000000000000006044820152606490fd5b346103245760203660031901126103245760206115356115306132b8565b613df1565b6040519015158152f35b34610324576020366003190112610324576001600160a01b036115606132b8565b1680600052600460205261157b60ff60406000205416613782565b600052600660205260406000205460001981019081116108be57602090604051908152f35b34610324576020366003190112610324576001600160a01b036115c16132b8565b1660005260116020526104ce6115da6040600020613409565b6040519182916020835260208301906134ad565b34610324576020366003190112610324576001600160a01b0361160f6132b8565b1680600052600560205261162a60ff60406000205416613d72565b600052600760205260406000205460001981019081116108be57602090604051908152f35b34610324576040366003190112610324576116686132ce565b600435600052600b60205260406000209060018060a01b0316600052602052602060ff604060002054166040519015158152f35b34610324576040366003190112610324576004356116b86132ce565b9033600052600160205260ff6040600020541660038110156105e45760026116e09114613567565b80600052600a60205260406000206116fa81541515613623565b81600052600b602052604060002060018060a01b03841660005260205261172960ff60406000205416156136b2565b6000828152600b602081815260408084206001600160a01b03881685528252808420805460ff1916600117905591840190819052912054909190156117bb575b5050807ff45b8429c36d478f9a6d081c4811a819b98aa5b608588bed9d406405cf28247360206040519460018060a01b031694858152a260008051602061416e833981519152602060405160018152a3005b6008016117c884826136f3565b549060018060a01b0384166000526020526040600020558280611769565b3461032457602061180c6117f93661323d565b90600052600d8352604060002090613292565b54604051908152f35b34610324576020366003190112610324576001600160a01b036118366132b8565b1660005260066020526020604060002054604051908152f35b34610324576040366003190112610324576118686132ce565b600435600052600c60205260406000209060018060a01b0316600052602052602060ff604060002054166040519015158152f35b34610324576000366003190112610324576020601254604051908152f35b34610324576118c8366134df565b6001600160a01b0390911660009081526001602052604090205460ff1660038210156105e45760038110156105e45760209160405191148152f35b3461032457602036600319011261032457600435600090808252600a60205261193160036040842001613716565b825b81518410156119655761195d60019184600052600d6020526104446040600020610f64888761376e565b930192611933565b602090604051908152f35b34610324576020366003190112610324576001600160a01b036119916132b8565b166000526004602052602060ff604060002054166040519015158152f35b34610324576000366003190112610324576000546040516001600160a01b039091168152602090f35b34610324576000366003190112610324576040516008548082526020820190600860005260206000209060005b818110611a1c576104ce856104c2818703826131c6565b82546001600160a01b0316845260209093019260019283019201611a05565b34610324576000366003190112610324576020600254604051908152f35b34610324576020366003190112610324576020611535611a776132b8565b613f99565b346103245760c036600319011261032457600435611a986132ce565b90604435916001600160401b03831161032457611abb60209336906004016131e7565b604051611aeb81611add8782019460a435906084359060643590898b8a6139b6565b03601f1981018352826131c6565b51902091600052600e835260406000209060018060a01b0316600052825260406000205414604051908152f35b3461032457602036600319011261032457600435600052600a60205260206040600020541515604051908152f35b34610324576020366003190112610324576001600160a01b03611b676132b8565b1660005260016020526104ce60ff60406000205416604051918291826133bc565b3461032457600036600319011261032457611ba1614124565b600080546001600160a01b0319811682556001600160a01b03167f8be0079c531659141344cd1fd0a4f28419497f9722a3daafe3b4186f6b6457e08280a3005b34610324576040366003190112610324576004356001600160401b03811161032457611c11903690600401613132565b906024356001600160401b03811161032457611c31903690600401613132565b91909233600052600160205260ff6040600020541660038110156105e4576002611c5b9114613567565b828103611ca55760005b818110611c6e57005b611c7c6109468284866135b3565b90611c888186886135b3565b3591600383101561032457600192611c9f91613a02565b01611c65565b60405162461bcd60e51b8152602060048201526016602482015275082e4e4c2f2e640d8cadccee8d040dad2e6dac2e8c6d60531b6044820152606490fd5b3461032457611cf1366134df565b33600052600160205260ff604060002054169160038310156105e457611d1c6002611d219414613567565b613a02565b005b3461032457602036600319011261032457600435600052600a60205260406000208054611d5260018301613409565b9160ff611d6160028301613409565b6004830154926005810154611da66007600684015493015493611d98604051998a998a5261010060208b01526101008a01906134ad565b9088820360408a01526134ad565b946060870152608086015260a0850152611dc560c085018383166134d2565b60081c16151560e08301520390f35b34610324576000366003190112610324576040516003548082526020820190600360005260206000209060005b818110611e18576104ce856104c2818703826131c6565b82546001600160a01b0316845260209093019260019283019201611e01565b34610324576000366003190112610324576020600354604051908152f35b346103245760203660031901126103245760043533600052600160205260ff6040600020541660038110156105e4577ff0c30b033a2b46ef251f9c587ced38e24c05aa0ffe36c196a426c6a7bd6b61ea91611eb4600260209314613567565b80601355604051908152a1005b34610324576020366003190112610324576001600160a01b03611ee26132b8565b1660005260076020526020604060002054604051908152f35b3461032457604036600319011261032457611f146132ce565b600435600052600f60205260406000209060018060a01b0316600052602052602060ff604060002054166040519015158152f35b34610324576080366003190112610324576004356024356001600160401b03811161032457611f7b9036906004016131e7565b81600052600a6020526040600020611f9581541515613623565b60ff60078201541660058110156105e4576003611fb391141561366f565b6004810154421015806121ea575b156121ae576000838152600b6020908152604080832033845290915290205460ff1615612172576000838152600c6020908152604080832033845290915290205460ff1661213d57612018600a60ff920183613292565b5416156121045781600052600d602052612036604060002082613292565b61204081546139a7565b90556000828152600c602090815260408083203384529091529020805460ff191660011790554360001981019081116108be577f05ae5af2d5611b1c3f6be5d5bf7673732d331e1418b5b6f8cdc893d1c9aa458f916120f9916040516120b881611add60208201944060643560443588338d8a6139b6565b51902084600052600e602052604060002060018060a01b033316600052602052806040600020556040519283923384526060602085015260608401906134ad565b9060408301520390a2005b60405162461bcd60e51b8152602060048201526011602482015270496e76616c69642063616e64696461746560781b6044820152606490fd5b60405162461bcd60e51b815260206004820152600d60248201526c105b1c9958591e481d9bdd1959609a1b6044820152606490fd5b60405162461bcd60e51b8152602060048201526014602482015273159bdd195c881b9bdd081c9959da5cdd195c995960621b6044820152606490fd5b60405162461bcd60e51b8152602060048201526014602482015273139bdd081a5b881d9bdd1a5b99c81c195c9a5bd960621b6044820152606490fd5b506005810154421115611fc1565b34610324576000366003190112610324576040516002548082526020820190600260005260206000209060005b81811061223c576104ce856104c2818703826131c6565b82546001600160a01b0316845260209093019260019283019201612225565b346103245760c0366003190112610324576004356024356001600160401b0381116103245761228e9036906004016131e7565b906044356001600160401b038111610324576122ae9036906004016131e7565b6064356001600160401b038111610324576122cd9036906004016132fb565b916084359260a4359133600052600160205260ff6040600020541660038110156105e45760026122fd9114613567565b80600052600a60205260406000209361231885541515613623565b600485018054421015612817576123308588106137bd565b864210156127c6576123466002855110156137f9565b6001860188516001600160401b03811161110f5761236482546133cf565b601f8111612794575b506020601f821160011461272e57908061239c9260009161272357508160011b916000199060031b1c19161790565b90555b6002860182516001600160401b03811161110f5788936123bf83546133cf565b601f81116126f1575b50602090601f8311600114612680576123f99291600091836126755750508160011b916000199060031b1c19161790565b90559695965b55826005850155600095600a600386019501965b855481101561243b578061242d8961043e6001948a6131ae565b805460ff1916905501612413565b508587958451600160401b811161110f5781548183558082106125f7575b5060208601916000526020600020916000905b8282106124ea575050505060005b84518110156124b15780612493610f4d6001938861376e565b6124a188610f64838961376e565b805460ff1916831790550161247a565b50907f01776e5bb56f2f683aad361e08c5b3dbecd5e34e3d0fe6bc1d7f5c001c5f49d3916124e58660405193849384613931565b0390a2005b80518051906001600160401b03821161110f5761250786546133cf565b601f81116125c5575b50602090601f831160011461255857926125498360019594602094879660009261105a5750508160011b916000199060031b1c19161790565b87555b0194019101909261246c565b90601f1983169187600052816000209260005b8181106125ad5750936020936001969387969383889510612594575b505050811b01875561254c565b015160001960f88460031b161c191690558f8080612587565b9293602060018192878601518155019501930161256b565b6125f190876000526020600020601f850160051c8101916020861061110557601f0160051c0190613845565b8c612510565b8260005281602060002091820191015b8181106126145750612459565b80612621600192546133cf565b8061262e575b5001612607565b601f811183146126445750600081555b8b612627565b612662908260005283601f6020600020920160051c82019101613845565b806000526000602081208183555561263e565b015190508c80610eb2565b601f9594939291951982169583600052806000209160005b8881106126d6575083600195969798106126bd575b505050811b0190559695966123ff565b015160001960f88460031b161c191690558b80806126ad565b8183015184558d975060019093019260209283019201612698565b61271d90846000526020600020601f850160051c8101916020861061110557601f0160051c0190613845565b8b6123c8565b90508b01518c610e56565b601f1982169083600052806000209160005b8d82821061277c5750509083600194939210612763575b5050811b01905561239f565b8c015160001960f88460031b161c191690558b80612757565b60018495602093958493015181550194019201612740565b6127c090836000526020600020601f840160051c8101916020851061110557601f0160051c0190613845565b8a61236d565b60405162461bcd60e51b8152602060048201526024808201527f4e65772073746172742064617465206d75737420626520696e207468652066756044820152637475726560e01b6064820152608490fd5b60405162461bcd60e51b815260206004820152603060248201527f43616e6e6f74206564697420616e20656c656374696f6e20746861742068617360448201526f08185b1c9958591e481cdd185c9d195960821b6064820152608490fd5b346103245760203660031901126103245760043560035481101561032457610625602091613193565b34610324576020366003190112610324576128b76132b8565b33600052600160205260ff6040600020541660038110156105e45760026128de9114613567565b6001600160a01b03811660008181526001602052604090205490919060ff1660038110156105e45760026129129114613782565b60005461292a906001600160a01b03168314156135d7565b61293381613df1565b6129975761295690826000526001602052604060002060ff198154169055613e72565b60008051602061414e8339815191526020604051837fa3b62bc36326052d97ea62d63c3d60308ed4c3ea8ac079dd8499f1e9c4f80c0f600080a260008152a2005b60405162461bcd60e51b815260206004820152601d60248201527f43616e6e6f742072656d6f76652068617264636f6465642061646d696e0000006044820152606490fd5b346103245760203660031901126103245760043533600052600160205260ff6040600020541660038110156105e4576002612a179114613567565b80600052600a602052604060002090612a3282541515613623565b6005820154421115612c6c576007820191825460ff8160081c16612c275760ff169260058410156105e45760038414612bd657612a8a91600391600260009603612b9a575b805461ffff191661010417905501613716565b805190612aaf612a99836132e4565b92612aa760405194856131c6565b8084526132e4565b602083019390601f1901368537845b8251811015612af557600190828752600d602052612ae360408820610f64838761376e565b54612aee828761376e565b5201612abe565b509283926020612b106040519460408652604086019061350e565b91848303828601525191828152019190865b818110612b815750505090807fb7d23392edc644174e5adcb55c16e661d669333e04bef69eebe8609806531aa6920390a27ffc109e0cb0828ec465b9741a17f547df3009f4e626af452175fbdbf0b1b50fef602060405160048152a280f35b8251845286955060209384019390920191600101612b22565b600260ff19825416178155847ffc109e0cb0828ec465b9741a17f547df3009f4e626af452175fbdbf0b1b50fef602060405160028152a2612a77565b60405162461bcd60e51b815260206004820152602360248201527f43616e6e6f742066696e616c697a6520612063616e63656c656420656c65637460448201526234b7b760e91b6064820152608490fd5b60405162461bcd60e51b815260206004820152601a60248201527f456c656374696f6e20616c72656164792066696e616c697a65640000000000006044820152606490fd5b60405162461bcd60e51b815260206004820152601a60248201527f456c656374696f6e20686173206e6f7420656e646564207965740000000000006044820152606490fd5b346103245760203660031901126103245760043560025481101561032457610625602091613162565b34610324576040366003190112610324576004356024356001600160401b03811161032457612d0d903690600401613132565b9082600052600a602052604060002091612d2983541515613623565b60ff60078401541660058110156105e4576003612d4791141561366f565b6005830154421015612fb6576000848152600b60209081526040808320338452909152902054612d7a9060ff16156136b2565b60068301549182612ead575b5050506000828152600f6020908152604080832033845290915290205460ff1615612e37575b6000828152600b602081815260408084203385528252808420805460ff191660011790559184019081905291205490919015612e10575b827ff45b8429c36d478f9a6d081c4811a819b98aa5b608588bed9d406405cf2824736020604051338152a2005b600801612e1d33826136f3565b543360009081526020929092526040909120558180612de3565b60098101612e4533826136f3565b5460008381526010602090815260408083203380855290835281842094909455858352600f82528083208484529091528120805460ff1916600117905583907f6526c95da41447a0d82e1c1e5011e1870c45710da085ee1e52e342dde015a1ae9080a3612dac565b604094919293945160208101903360601b825260148152612ecf6034826131c6565b51902090612edc846132e4565b93612eea60405195866131c6565b808552602085019060051b82019136831161032457905b828210612fa657505050936000945b8351861015612f5757612f23868561376e565b5190600082821015612f465750600052602052600160406000205b950194612f10565b604091600193825260205220612f3e565b91945092915003612f6a57828080612d86565b60405162461bcd60e51b815260206004820152601460248201527324b73b30b634b21026b2b935b63290383937b7b360611b6044820152606490fd5b8135815260209182019101612f01565b60405162461bcd60e51b815260206004820152601d60248201527f526567697374726174696f6e20706572696f642068617320656e6465640000006044820152606490fd5b34610324576020366003190112610324576004356001600160401b0381116103245761302b903690600401613132565b9033600052600160205260ff6040600020541660038110156105e45760026130539114613567565b60005b82811061305f57005b61306d6109468285856135b3565b6001600160a01b03811660008181526001602052604090205491929160ff1660038110156105e4576002146130a8575b506001915001613056565b6000546130c0906001600160a01b03168214156135d7565b6130c983613df1565b612997576130ed6001938260005284602052604060002060ff198154169055613e72565b60008051602061414e8339815191526020604051837fa3b62bc36326052d97ea62d63c3d60308ed4c3ea8ac079dd8499f1e9c4f80c0f600080a260008152a28461309d565b9181601f84011215610324578235916001600160401b038311610324576020808501948460051b01011161032457565b60025481101561317d57600260005260206000200190600090565b634e487b7160e01b600052603260045260246000fd5b60035481101561317d57600360005260206000200190600090565b805482101561317d5760005260206000200190600090565b90601f801991011681019081106001600160401b0382111761110f57604052565b81601f82011215610324578035906001600160401b03821161110f576040519261321b601f8401601f1916602001856131c6565b8284526020838301011161032457816000926020809301838601378301015290565b9060406003198301126103245760043591602435906001600160401b0382116103245761326c916004016131e7565b90565b60005b8381106132825750506000910152565b8181015183820152602001613272565b6020906132ac92826040519483868095519384920161326f565b82019081520301902090565b600435906001600160a01b038216820361032457565b602435906001600160a01b038216820361032457565b6001600160401b03811161110f5760051b60200190565b9080601f83011215610324578135613312816132e4565b9261332060405194856131c6565b81845260208085019260051b820101918383116103245760208201905b83821061334c57505050505090565b81356001600160401b0381116103245760209161336e878480948801016131e7565b81520191019061333d565b602060408183019282815284518094520192019060005b81811061339d5750505090565b82516001600160a01b0316845260209384019390920191600101613390565b9190602083019260038210156105e45752565b90600182811c921680156133ff575b60208310146133e957565b634e487b7160e01b600052602260045260246000fd5b91607f16916133de565b906040519182600082549261341d846133cf565b808452936001811690811561348b5750600114613444575b50613442925003836131c6565b565b90506000929192526020600020906000915b81831061346f5750509060206134429282010138613435565b6020919350806001915483858901015201910190918492613456565b90506020925061344294915060ff191682840152151560051b82010138613435565b906020916134c68151809281855285808601910161326f565b601f01601f1916010190565b9060058210156105e45752565b6040906003190112610324576004356001600160a01b0381168103610324579060243560038110156103245790565b9080602083519182815201916020808360051b8301019401926000915b83831061353a57505050505090565b9091929394602080613558600193601f1986820301875289516134ad565b9701930193019193929061352b565b1561356e57565b60405162461bcd60e51b815260206004820152601760248201527f496e73756666696369656e742070726976696c656765730000000000000000006044820152606490fd5b919081101561317d5760051b0190565b356001600160a01b03811681036103245790565b156135de57565b60405162461bcd60e51b815260206004820152601c60248201527f43616e6e6f742072656d6f766520636f6e7472616374206f776e6572000000006044820152606490fd5b1561362a57565b60405162461bcd60e51b815260206004820152601760248201527f456c656374696f6e20646f6573206e6f742065786973740000000000000000006044820152606490fd5b1561367657565b60405162461bcd60e51b8152602060048201526014602482015273115b1958dd1a5bdb881a5cc818d85b98d95b195960621b6044820152606490fd5b156136b957565b60405162461bcd60e51b8152602060048201526012602482015271105b1c9958591e481c9959da5cdd195c995960721b6044820152606490fd5b90815491600160401b83101561110f578261080a916001613442950181556131ae565b908154613722816132e4565b9261373060405194856131c6565b818452602084019060005260206000206000915b8383106137515750505050565b60016020819261376085613409565b815201920192019190613744565b805182101561317d5760209160051b010190565b1561378957565b60405162461bcd60e51b815260206004820152600c60248201526b2737ba1030b71030b236b4b760a11b6044820152606490fd5b156137c457565b60405162461bcd60e51b815260206004820152600d60248201526c496e76616c696420646174657360981b6044820152606490fd5b1561380057565b60405162461bcd60e51b815260206004820152601a60248201527f4e656564206174206c6561737420322063616e646964617465730000000000006044820152606490fd5b818110613850575050565b60008155600101613845565b906040518092600090805490613871826133cf565b91600181169081156138cd5750600114613894575b505060209281520301902090565b90915060005260206000206000905b8282106138b65750508101602038613886565b8054828701528593506020909101906001016138a3565b60ff1916855250508015150282019050602038613886565b156138ec57565b60405162461bcd60e51b815260206004820152601e60248201527f43616e646964617465206e616d652063616e6e6f7420626520656d70747900006044820152606490fd5b613949604092959493956060835260608301906134ad565b9460208201520152565b906040519182815491828252602082019060005260206000209260005b818110613985575050613442925003836131c6565b84546001600160a01b0316835260019485019487945060209093019201613970565b60001981146108be5760010190565b90916094969495939282526bffffffffffffffffffffffff199060601b1660208201526139ed82518093602060348501910161326f565b01926034840152605483015260748201520190565b6001600160a01b03811691908215613d2e57613a1d81613df1565b80613d1a575b613cc757613a3081613f99565b80613cb3575b613c5e5782600052600160205260ff6040600020541660038110156105e45760028103613c495750613a6781613e72565b826000526001602052604060002060038310156105e45760ff1981541660ff841617905560028214600014613b645782600052600460205260ff6040600020541615613afa575b50613af560008051602061414e83398151915291837f44d6d25963f097ad14f29f06854a01f575648a1ef82f30e562ccd3889717e339600080a25b604051918291826133bc565b0390a2565b60025491600160401b83101561110f57613b32613af59261080a85600160008051602061414e833981519152970160025560026131ae565b6002548460005260066020526040600020558360005260046020526040600020600160ff198254161790559150613aae565b60018214613b86575b50613af560008051602061414e83398151915291613ae9565b82600052600560205260ff6040600020541615613bdf575b50613af560008051602061414e83398151915291837f2c31044378cc14466459f09320dd4057d7ad6e99b194c0800c78227383a25296600080a29150613b6d565b60035491600160401b83101561110f57613c17613af59261080a85600160008051602061414e833981519152970160035560036131ae565b6003548460005260076020526040600020558360005260056020526040600020600160ff198254161790559150613b9e565b600103613a6757613c5981613ffd565b613a67565b60405162461bcd60e51b815260206004820152602760248201527f43616e6e6f74206368616e676520726f6c65206f662068617264636f6465642060448201526630bab234ba37b960c91b6064820152608490fd5b5060038210156105e4576001821415613a36565b60405162461bcd60e51b815260206004820152602560248201527f43616e6e6f74206368616e676520726f6c65206f662068617264636f6465642060448201526430b236b4b760d91b6064820152608490fd5b5060038210156105e4576002821415613a23565b60405162461bcd60e51b815260206004820152600f60248201526e496e76616c6964206164647265737360881b6044820152606490fd5b919082018092116108be57565b15613d7957565b60405162461bcd60e51b815260206004820152600e60248201526d2737ba1030b71030bab234ba37b960911b6044820152606490fd5b15613db657565b60405162461bcd60e51b8152602060048201526013602482015272496e646578206f7574206f6620626f756e647360681b6044820152606490fd5b600854908160005b838110613e095750505050600090565b600082821015613e5e57600890527ff3f7a9fe364faab93b216da50a3214154f22a0a2b415b23a84c8169e8b636ee38101546001600160a01b03848116911614613e5557600101613df9565b50505050600190565b634e487b7160e01b81526032600452602490fd5b6001600160a01b031660008181526004602052604090205460ff16613e945750565b8060005260066020526040600020548015613f545760001981018181116108be5760025460001981019081116108be57808210613f14575b50505060025480156108a85760001901613eea6108748260026131ae565b600255806000526006602052600060408120556000526004602052604060002060ff198154169055565b61080a91613f24613f3e92613162565b905460039190911b1c6001600160a01b0316928391613162565b6000526006602052604060002055388080613ecc565b60405162461bcd60e51b815260206004820152601860248201527f41646d696e206e6f7420666f756e6420696e20617272617900000000000000006044820152606490fd5b600954908160005b838110613fb15750505050600090565b600082821015613e5e57600990527f6e1540171b6c0c960b71a7020d9f60077f6af931a8bbf590da0223dacf75c7af8101546001600160a01b03848116911614613e5557600101613fa1565b6001600160a01b031660008181526005602052604090205460ff1661401f5750565b80600052600760205260406000205480156140df5760001981018181116108be5760035460001981019081116108be5780821061409f575b50505060035480156108a857600019016140756108748260036131ae565b600355806000526007602052600060408120556000526005602052604060002060ff198154169055565b61080a916140af6140c992613193565b905460039190911b1c6001600160a01b0316928391613193565b6000526007602052604060002055388080614057565b60405162461bcd60e51b815260206004820152601a60248201527f41756469746f72206e6f7420666f756e6420696e2061727261790000000000006044820152606490fd5b6000546001600160a01b0316330361413857565b63118cdaa760e01b6000523360045260246000fdfe4ac36fa53f167ceb85964be512e01de2a3b8bdb9862f917da079deeeff689b38dcc4eddb88499d375de93e416c98f27776cb27e7fb5c61f8c78ad13d64a8a3bca264697066735822122027410be7966135581b3263e348952841d48c73bede550cbfb850bfaf0f4ddbee64736f6c634300081c003344d6d25963f097ad14f29f06854a01f575648a1ef82f30e562ccd3889717e3394ac36fa53f167ceb85964be512e01de2a3b8bdb9862f917da079deeeff689b38",
          "opcodes": "PUSH1 0x80 PUSH1 0x40 MSTORE CALLVALUE PUSH2 0x4EE JUMPI CALLER ISZERO PUSH2 0x4D8 JUMPI PUSH1 0x0 DUP1 SLOAD CALLER PUSH1 0x1 PUSH1 0x1 PUSH1 0xA0 SHL SUB NOT DUP3 AND DUP2 OR DUP4 SSTORE SWAP2 PUSH1 0x1 PUSH1 0x1 PUSH1 0xA0 SHL SUB SWAP1 SWAP2 AND SWAP1 PUSH32 0x8BE0079C531659141344CD1FD0A4F28419497F9722A3DAAFE3B4186F6B6457E0 SWAP1 DUP1 LOG3 PUSH2 0x5C PUSH2 0x4F3 JUMP JUMPDEST PUSH20 0xAE428D52D40F4028FF54D3DE45643BECE675B605 DUP2 MSTORE PUSH1 0x8 SLOAD PUSH1 0x1 PUSH1 0x8 SSTORE DUP1 PUSH1 0x1 LT PUSH2 0x476 JUMPI JUMPDEST POP PUSH1 0x8 PUSH1 0x0 MSTORE PUSH1 0x20 PUSH1 0x0 KECCAK256 SWAP1 PUSH1 0x0 JUMPDEST PUSH1 0x1 DUP2 LT PUSH2 0x459 JUMPI PUSH2 0xA3 PUSH2 0x4F3 JUMP JUMPDEST PUSH20 0x9359C6A8AAA407923AAF421D92A8EEC48E7C8722 DUP2 MSTORE PUSH1 0x9 SLOAD PUSH1 0x1 PUSH1 0x9 SSTORE DUP1 PUSH1 0x1 LT PUSH2 0x3F7 JUMPI JUMPDEST POP PUSH1 0x9 PUSH1 0x0 MSTORE PUSH1 0x20 PUSH1 0x0 KECCAK256 SWAP1 PUSH1 0x0 JUMPDEST PUSH1 0x1 DUP2 LT PUSH2 0x3DA JUMPI CALLER PUSH1 0x0 MSTORE PUSH1 0x1 PUSH1 0x20 MSTORE PUSH1 0x40 PUSH1 0x0 KECCAK256 PUSH1 0x2 PUSH1 0xFF NOT DUP3 SLOAD AND OR SWAP1 SSTORE PUSH2 0x104 CALLER PUSH2 0x576 JUMP JUMPDEST PUSH1 0x40 MLOAD PUSH1 0x2 DUP2 MSTORE PUSH1 0x0 DUP1 MLOAD PUSH1 0x20 PUSH2 0x47E8 DUP4 CODECOPY DUP2 MLOAD SWAP2 MSTORE PUSH1 0x20 CALLER SWAP3 LOG2 CALLER PUSH1 0x0 DUP1 MLOAD PUSH1 0x20 PUSH2 0x47C8 DUP4 CODECOPY DUP2 MLOAD SWAP2 MSTORE PUSH1 0x0 DUP1 LOG2 PUSH1 0x0 JUMPDEST PUSH1 0x8 SLOAD DUP2 LT ISZERO PUSH2 0x23B JUMPI DUP1 PUSH2 0x14C PUSH1 0x1 SWAP3 PUSH2 0x512 JUMP JUMPDEST DUP4 DUP1 PUSH1 0xA0 SHL SUB SWAP2 SLOAD SWAP1 PUSH1 0x3 SHL SHR AND ISZERO ISZERO DUP1 PUSH2 0x219 JUMPI JUMPDEST PUSH2 0x16D JUMPI JUMPDEST ADD PUSH2 0x136 JUMP JUMPDEST PUSH2 0x176 DUP2 PUSH2 0x512 JUMP JUMPDEST DUP4 DUP1 PUSH1 0xA0 SHL SUB SWAP2 SLOAD SWAP1 PUSH1 0x3 SHL SHR AND PUSH1 0x0 MSTORE DUP2 PUSH1 0x20 MSTORE PUSH1 0x40 PUSH1 0x0 KECCAK256 PUSH1 0x2 PUSH1 0xFF NOT DUP3 SLOAD AND OR SWAP1 SSTORE PUSH2 0x1BA PUSH2 0x1A7 DUP3 PUSH2 0x512 JUMP JUMPDEST DUP5 DUP1 PUSH1 0xA0 SHL SUB SWAP2 SLOAD SWAP1 PUSH1 0x3 SHL SHR AND PUSH2 0x576 JUMP JUMPDEST PUSH2 0x1C3 DUP2 PUSH2 0x512 JUMP JUMPDEST DUP4 DUP1 PUSH1 0xA0 SHL SUB SWAP2 SLOAD SWAP1 PUSH1 0x3 SHL SHR AND PUSH1 0x0 DUP1 MLOAD PUSH1 0x20 PUSH2 0x47E8 DUP4 CODECOPY DUP2 MLOAD SWAP2 MSTORE PUSH1 0x20 PUSH1 0x40 MLOAD PUSH1 0x2 DUP2 MSTORE LOG2 PUSH2 0x1F3 DUP2 PUSH2 0x512 JUMP JUMPDEST DUP4 DUP1 PUSH1 0xA0 SHL SUB SWAP2 SLOAD SWAP1 PUSH1 0x3 SHL SHR AND PUSH1 0x0 DUP1 MLOAD PUSH1 0x20 PUSH2 0x47C8 DUP4 CODECOPY DUP2 MLOAD SWAP2 MSTORE PUSH1 0x0 DUP1 LOG2 PUSH2 0x167 JUMP JUMPDEST POP PUSH2 0x223 DUP2 PUSH2 0x512 JUMP JUMPDEST SWAP1 CALLER SWAP2 DUP5 DUP1 PUSH1 0xA0 SHL SUB SWAP2 SLOAD SWAP1 PUSH1 0x3 SHL SHR AND EQ ISZERO PUSH2 0x162 JUMP JUMPDEST PUSH1 0x0 JUMPDEST PUSH1 0x9 SLOAD DUP2 LT ISZERO PUSH2 0x3CB JUMPI PUSH2 0x251 DUP2 PUSH2 0x543 JUMP JUMPDEST SWAP1 SLOAD PUSH1 0x3 SWAP2 SWAP1 SWAP2 SHL SHR PUSH1 0x1 PUSH1 0x1 PUSH1 0xA0 SHL SUB AND PUSH2 0x270 JUMPI JUMPDEST PUSH1 0x1 ADD PUSH2 0x23E JUMP JUMPDEST PUSH2 0x279 DUP2 PUSH2 0x543 JUMP JUMPDEST PUSH1 0x1 DUP1 PUSH1 0xA0 SHL SUB SWAP2 SLOAD SWAP1 PUSH1 0x3 SHL SHR AND PUSH1 0x0 MSTORE PUSH1 0x1 PUSH1 0x20 MSTORE PUSH1 0x40 PUSH1 0x0 KECCAK256 PUSH1 0x1 PUSH1 0xFF NOT DUP3 SLOAD AND OR SWAP1 SSTORE PUSH2 0x2A9 DUP2 PUSH2 0x543 JUMP JUMPDEST PUSH1 0x1 DUP1 PUSH1 0xA0 SHL SUB SWAP2 SLOAD SWAP1 PUSH1 0x3 SHL SHR AND SWAP1 DUP2 PUSH1 0x0 MSTORE PUSH1 0x5 PUSH1 0x20 MSTORE PUSH1 0xFF PUSH1 0x40 PUSH1 0x0 KECCAK256 SLOAD AND ISZERO PUSH2 0x347 JUMPI JUMPDEST PUSH1 0x1 SWAP2 POP PUSH2 0x2DE DUP2 PUSH2 0x543 JUMP JUMPDEST DUP4 DUP1 PUSH1 0xA0 SHL SUB SWAP2 SLOAD SWAP1 PUSH1 0x3 SHL SHR AND PUSH1 0x0 DUP1 MLOAD PUSH1 0x20 PUSH2 0x47E8 DUP4 CODECOPY DUP2 MLOAD SWAP2 MSTORE PUSH1 0x20 PUSH1 0x40 MLOAD DUP6 DUP2 MSTORE LOG2 PUSH2 0x30D DUP2 PUSH2 0x543 JUMP JUMPDEST DUP4 DUP1 PUSH1 0xA0 SHL SUB SWAP2 SLOAD SWAP1 PUSH1 0x3 SHL SHR AND PUSH32 0x2C31044378CC14466459F09320DD4057D7AD6E99B194C0800C78227383A25296 PUSH1 0x0 DUP1 LOG2 SWAP1 POP PUSH2 0x268 JUMP JUMPDEST PUSH1 0x3 SLOAD SWAP2 PUSH9 0x10000000000000000 DUP4 LT ISZERO PUSH2 0x3B5 JUMPI PUSH2 0x36F DUP4 PUSH1 0x1 DUP1 SWAP6 ADD PUSH1 0x3 SSTORE PUSH1 0x3 PUSH2 0x55E JUMP JUMPDEST DUP2 SLOAD SWAP1 PUSH1 0x3 SHL SWAP1 DUP4 DUP3 SHL SWAP2 DUP7 DUP1 PUSH1 0xA0 SHL SUB SWAP1 SHL NOT AND OR SWAP1 SSTORE PUSH1 0x3 SLOAD DUP2 PUSH1 0x0 MSTORE PUSH1 0x7 PUSH1 0x20 MSTORE PUSH1 0x40 PUSH1 0x0 KECCAK256 SSTORE PUSH1 0x0 MSTORE PUSH1 0x5 PUSH1 0x20 MSTORE PUSH1 0x40 PUSH1 0x0 KECCAK256 DUP3 PUSH1 0xFF NOT DUP3 SLOAD AND OR SWAP1 SSTORE PUSH2 0x2D1 JUMP JUMPDEST PUSH4 0x4E487B71 PUSH1 0xE0 SHL PUSH1 0x0 MSTORE PUSH1 0x41 PUSH1 0x4 MSTORE PUSH1 0x24 PUSH1 0x0 REVERT JUMPDEST PUSH1 0x40 MLOAD PUSH2 0x41C3 SWAP1 DUP2 PUSH2 0x605 DUP3 CODECOPY RETURN JUMPDEST DUP2 MLOAD PUSH1 0x1 PUSH1 0x1 PUSH1 0xA0 SHL SUB AND DUP2 DUP5 ADD SSTORE PUSH1 0x20 SWAP1 SWAP2 ADD SWAP1 PUSH1 0x1 ADD PUSH2 0xDA JUMP JUMPDEST PUSH1 0x9 PUSH1 0x0 MSTORE PUSH32 0x6E1540171B6C0C960B71A7020D9F60077F6AF931A8BBF590DA0223DACF75C7AF ADD PUSH32 0x6E1540171B6C0C960B71A7020D9F60077F6AF931A8BBF590DA0223DACF75C7B0 JUMPDEST DUP2 DUP2 LT PUSH2 0x44D JUMPI POP PUSH2 0xCB JUMP JUMPDEST PUSH1 0x0 DUP2 SSTORE PUSH1 0x1 ADD PUSH2 0x440 JUMP JUMPDEST DUP2 MLOAD PUSH1 0x1 PUSH1 0x1 PUSH1 0xA0 SHL SUB AND DUP2 DUP5 ADD SSTORE PUSH1 0x20 SWAP1 SWAP2 ADD SWAP1 PUSH1 0x1 ADD PUSH2 0x93 JUMP JUMPDEST PUSH1 0x8 PUSH1 0x0 MSTORE PUSH32 0xF3F7A9FE364FAAB93B216DA50A3214154F22A0A2B415B23A84C8169E8B636EE3 ADD PUSH32 0xF3F7A9FE364FAAB93B216DA50A3214154F22A0A2B415B23A84C8169E8B636EE4 JUMPDEST DUP2 DUP2 LT PUSH2 0x4CC JUMPI POP PUSH2 0x84 JUMP JUMPDEST PUSH1 0x0 DUP2 SSTORE PUSH1 0x1 ADD PUSH2 0x4BF JUMP JUMPDEST PUSH4 0x1E4FBDF7 PUSH1 0xE0 SHL PUSH1 0x0 MSTORE PUSH1 0x0 PUSH1 0x4 MSTORE PUSH1 0x24 PUSH1 0x0 REVERT JUMPDEST PUSH1 0x0 DUP1 REVERT JUMPDEST PUSH1 0x40 MLOAD SWAP1 PUSH1 0x20 DUP3 ADD PUSH1 0x1 PUSH1 0x1 PUSH1 0x40 SHL SUB DUP2 GT DUP4 DUP3 LT OR PUSH2 0x3B5 JUMPI PUSH1 0x40 MSTORE JUMP JUMPDEST PUSH1 0x8 SLOAD DUP2 LT ISZERO PUSH2 0x52D JUMPI PUSH1 0x8 PUSH1 0x0 MSTORE PUSH1 0x20 PUSH1 0x0 KECCAK256 ADD SWAP1 PUSH1 0x0 SWAP1 JUMP JUMPDEST PUSH4 0x4E487B71 PUSH1 0xE0 SHL PUSH1 0x0 MSTORE PUSH1 0x32 PUSH1 0x4 MSTORE PUSH1 0x24 PUSH1 0x0 REVERT JUMPDEST PUSH1 0x9 SLOAD DUP2 LT ISZERO PUSH2 0x52D JUMPI PUSH1 0x9 PUSH1 0x0 MSTORE PUSH1 0x20 PUSH1 0x0 KECCAK256 ADD SWAP1 PUSH1 0x0 SWAP1 JUMP JUMPDEST DUP1 SLOAD DUP3 LT ISZERO PUSH2 0x52D JUMPI PUSH1 0x0 MSTORE PUSH1 0x20 PUSH1 0x0 KECCAK256 ADD SWAP1 PUSH1 0x0 SWAP1 JUMP JUMPDEST PUSH1 0x1 PUSH1 0x1 PUSH1 0xA0 SHL SUB AND PUSH1 0x0 DUP2 DUP2 MSTORE PUSH1 0x4 PUSH1 0x20 MSTORE PUSH1 0x40 SWAP1 KECCAK256 SLOAD PUSH1 0xFF AND ISZERO PUSH2 0x599 JUMPI POP JUMP JUMPDEST PUSH1 0x2 SLOAD PUSH9 0x10000000000000000 DUP2 LT ISZERO PUSH2 0x3B5 JUMPI DUP1 PUSH1 0x1 PUSH2 0x5BF SWAP3 ADD PUSH1 0x2 SSTORE PUSH1 0x2 PUSH2 0x55E JUMP JUMPDEST DUP2 SLOAD SWAP1 PUSH1 0x3 SHL SWAP1 DUP4 DUP3 SHL SWAP2 PUSH1 0x1 DUP1 PUSH1 0xA0 SHL SUB SWAP1 SHL NOT AND OR SWAP1 SSTORE PUSH1 0x2 SLOAD DUP2 PUSH1 0x0 MSTORE PUSH1 0x6 PUSH1 0x20 MSTORE PUSH1 0x40 PUSH1 0x0 KECCAK256 SSTORE PUSH1 0x0 MSTORE PUSH1 0x4 PUSH1 0x20 MSTORE PUSH1 0x40 PUSH1 0x0 KECCAK256 PUSH1 0x1 PUSH1 0xFF NOT DUP3 SLOAD AND OR SWAP1 SSTORE JUMP INVALID PUSH1 0x80 PUSH1 0x40 MSTORE PUSH1 0x4 CALLDATASIZE LT ISZERO PUSH2 0x12 JUMPI PUSH1 0x0 DUP1 REVERT JUMPDEST PUSH1 0x0 CALLDATALOAD PUSH1 0xE0 SHR DUP1 PUSH4 0x7314A3F EQ PUSH2 0x2FFB JUMPI DUP1 PUSH4 0xDD709B9 EQ PUSH2 0x2CDA JUMPI DUP1 PUSH4 0x14BFD6D0 EQ PUSH2 0x2CB1 JUMPI DUP1 PUSH4 0x14F3F349 EQ PUSH2 0x17E6 JUMPI DUP1 PUSH4 0x1537052E EQ PUSH2 0x29DC JUMPI DUP1 PUSH4 0x1785F53C EQ PUSH2 0x289E JUMPI DUP1 PUSH4 0x1B8B444C EQ PUSH2 0x2875 JUMPI DUP1 PUSH4 0x1E7BBD86 EQ PUSH2 0x225B JUMPI DUP1 PUSH4 0x213785A0 EQ PUSH2 0x189C JUMPI DUP1 PUSH4 0x24D7806C EQ PUSH2 0x1970 JUMPI DUP1 PUSH4 0x31AE450B EQ PUSH2 0x21F8 JUMPI DUP1 PUSH4 0x394EAA8F EQ PUSH2 0x164F JUMPI DUP1 PUSH4 0x3E599EB6 EQ PUSH2 0x1F48 JUMPI DUP1 PUSH4 0x41260C85 EQ PUSH2 0x1EFB JUMPI DUP1 PUSH4 0x43859632 EQ PUSH2 0x184F JUMPI DUP1 PUSH4 0x44276733 EQ PUSH2 0x1B46 JUMPI DUP1 PUSH4 0x44BFD12D EQ PUSH2 0x1EC1 JUMPI DUP1 PUSH4 0x478F161B EQ PUSH2 0x1E55 JUMPI DUP1 PUSH4 0x49B90557 EQ PUSH2 0x454 JUMPI DUP1 PUSH4 0x52738D9A EQ PUSH2 0x1E37 JUMPI DUP1 PUSH4 0x57DE4A6E EQ PUSH2 0x1DD4 JUMPI DUP1 PUSH4 0x5E6FEF01 EQ PUSH2 0x1D23 JUMPI DUP1 PUSH4 0x630A195B EQ PUSH2 0x1CE3 JUMPI DUP1 PUSH4 0x662D6CE5 EQ PUSH2 0x1BE1 JUMPI DUP1 PUSH4 0x715018A6 EQ PUSH2 0x1B88 JUMPI DUP1 PUSH4 0x74D5E100 EQ PUSH2 0x1B46 JUMPI DUP1 PUSH4 0x773E078E EQ PUSH2 0x1B18 JUMPI DUP1 PUSH4 0x889A9882 EQ PUSH2 0x1A7C JUMPI DUP1 PUSH4 0x8978AE39 EQ PUSH2 0x1A59 JUMPI DUP1 PUSH4 0x8B7BF3EB EQ PUSH2 0x1A3B JUMPI DUP1 PUSH4 0x8C89A8A1 EQ PUSH2 0x19D8 JUMPI DUP1 PUSH4 0x8DA5CB5B EQ PUSH2 0x19AF JUMPI DUP1 PUSH4 0x8E9A4C34 EQ PUSH2 0x1970 JUMPI DUP1 PUSH4 0x90B536E3 EQ PUSH2 0x1903 JUMPI DUP1 PUSH4 0x95A8C58D EQ PUSH2 0x18BA JUMPI DUP1 PUSH4 0x997D2830 EQ PUSH2 0x189C JUMPI DUP1 PUSH4 0xA0D96F0C EQ PUSH2 0x184F JUMPI DUP1 PUSH4 0xA20B147D EQ PUSH2 0x1815 JUMPI DUP1 PUSH4 0xA693F744 EQ PUSH2 0x17E6 JUMPI DUP1 PUSH4 0xADB2D96B EQ PUSH2 0x169C JUMPI DUP1 PUSH4 0xB83ED4C8 EQ PUSH2 0x164F JUMPI DUP1 PUSH4 0xBEE6BF1A EQ PUSH2 0x15EE JUMPI DUP1 PUSH4 0xBF66F9A9 EQ PUSH2 0x15A0 JUMPI DUP1 PUSH4 0xBF8C6112 EQ PUSH2 0x153F JUMPI DUP1 PUSH4 0xC41331EC EQ PUSH2 0x1512 JUMPI DUP1 PUSH4 0xC9875D7B EQ PUSH2 0x1392 JUMPI DUP1 PUSH4 0xC9BE0CF7 EQ PUSH2 0x135B JUMPI DUP1 PUSH4 0xCB1C8727 EQ PUSH2 0x132C JUMPI DUP1 PUSH4 0xCE7318BD EQ PUSH2 0xD2F JUMPI DUP1 PUSH4 0xD8FE0C2A EQ PUSH2 0xBE7 JUMPI DUP1 PUSH4 0xDD94505F EQ PUSH2 0xB9F JUMPI DUP1 PUSH4 0xDE2F0D6F EQ PUSH2 0xB3C JUMPI DUP1 PUSH4 0xE03A9191 EQ PUSH2 0xB1E JUMPI DUP1 PUSH4 0xE6116CFD EQ PUSH2 0xA3D JUMPI DUP1 PUSH4 0xE93DEA23 EQ PUSH2 0x8D4 JUMPI DUP1 PUSH4 0xED3E8461 EQ PUSH2 0x669 JUMPI DUP1 PUSH4 0xEF2D65C3 EQ PUSH2 0x63E JUMPI DUP1 PUSH4 0xF1C4132E EQ PUSH2 0x5FA JUMPI DUP1 PUSH4 0xF1E33115 EQ PUSH2 0x55B JUMPI DUP1 PUSH4 0xF2FDE38B EQ PUSH2 0x4D2 JUMPI DUP1 PUSH4 0xF452130B EQ PUSH2 0x493 JUMPI DUP1 PUSH4 0xF575AFAD EQ PUSH2 0x454 JUMPI DUP1 PUSH4 0xF6049924 EQ PUSH2 0x329 JUMPI PUSH4 0xF84E6F74 EQ PUSH2 0x2DC JUMPI PUSH1 0x0 DUP1 REVERT JUMPDEST CALLVALUE PUSH2 0x324 JUMPI PUSH1 0x40 CALLDATASIZE PUSH1 0x3 NOT ADD SLT PUSH2 0x324 JUMPI PUSH2 0x2F5 PUSH2 0x32CE JUMP JUMPDEST PUSH1 0x4 CALLDATALOAD PUSH1 0x0 MSTORE PUSH1 0xE PUSH1 0x20 MSTORE PUSH1 0x40 PUSH1 0x0 KECCAK256 SWAP1 PUSH1 0x1 DUP1 PUSH1 0xA0 SHL SUB AND PUSH1 0x0 MSTORE PUSH1 0x20 MSTORE PUSH1 0x20 PUSH1 0x40 PUSH1 0x0 KECCAK256 SLOAD PUSH1 0x40 MLOAD SWAP1 DUP2 MSTORE RETURN JUMPDEST PUSH1 0x0 DUP1 REVERT JUMPDEST CALLVALUE PUSH2 0x324 JUMPI PUSH1 0x20 CALLDATASIZE PUSH1 0x3 NOT ADD SLT PUSH2 0x324 JUMPI PUSH1 0x4 CALLDATALOAD DUP1 PUSH1 0x0 MSTORE PUSH1 0xA PUSH1 0x20 MSTORE PUSH1 0x40 PUSH1 0x0 KECCAK256 PUSH2 0x357 DUP2 SLOAD ISZERO ISZERO PUSH2 0x3623 JUMP JUMPDEST PUSH1 0x0 SWAP2 PUSH1 0x0 SWAP1 PUSH1 0x3 DUP4 ADD SWAP2 DUP3 SLOAD JUMPDEST DUP1 DUP3 LT PUSH2 0x41A JUMPI POP POP POP DUP2 PUSH2 0x3CA SWAP4 PUSH1 0xFF PUSH1 0x4 DUP4 ADD SLOAD SWAP4 PUSH1 0x5 DUP5 ADD SLOAD PUSH2 0x3E6 PUSH1 0x7 DUP7 ADD SLOAD SWAP3 PUSH2 0x3D8 PUSH2 0x3B3 PUSH2 0x3AD PUSH1 0x2 PUSH2 0x3A6 PUSH1 0x1 PUSH1 0x6 DUP14 ADD SLOAD SWAP13 ADD PUSH2 0x3409 JUMP JUMPDEST SWAP13 ADD PUSH2 0x3409 JUMP JUMPDEST SWAP3 PUSH2 0x3716 JUMP JUMPDEST SWAP2 PUSH1 0x40 MLOAD SWAP12 DUP13 SWAP12 PUSH2 0x120 DUP14 MSTORE PUSH2 0x120 DUP14 ADD SWAP1 PUSH2 0x34AD JUMP JUMPDEST SWAP1 DUP12 DUP3 SUB PUSH1 0x20 DUP14 ADD MSTORE PUSH2 0x34AD JUMP JUMPDEST SWAP1 DUP10 DUP3 SUB PUSH1 0x40 DUP12 ADD MSTORE PUSH2 0x350E JUMP JUMPDEST SWAP6 PUSH1 0x60 DUP9 ADD MSTORE PUSH1 0x80 DUP8 ADD MSTORE PUSH2 0x400 PUSH1 0xA0 DUP8 ADD DUP4 DUP4 AND PUSH2 0x34D2 JUMP JUMPDEST PUSH1 0x8 SHR AND ISZERO ISZERO PUSH1 0xC0 DUP6 ADD MSTORE PUSH1 0xE0 DUP5 ADD MSTORE PUSH2 0x100 DUP4 ADD MSTORE SUB SWAP1 RETURN JUMPDEST SWAP1 SWAP2 SWAP5 PUSH2 0x44B PUSH1 0x1 SWAP2 DUP8 PUSH1 0x0 MSTORE PUSH1 0xD PUSH1 0x20 MSTORE PUSH2 0x444 PUSH1 0x40 PUSH1 0x0 KECCAK256 PUSH2 0x43E DUP8 DUP10 PUSH2 0x31AE JUMP JUMPDEST POP PUSH2 0x385C JUMP JUMPDEST SLOAD SWAP1 PUSH2 0x3D65 JUMP JUMPDEST SWAP6 SWAP3 ADD SWAP1 PUSH2 0x365 JUMP JUMPDEST CALLVALUE PUSH2 0x324 JUMPI PUSH1 0x20 CALLDATASIZE PUSH1 0x3 NOT ADD SLT PUSH2 0x324 JUMPI PUSH1 0x1 PUSH1 0x1 PUSH1 0xA0 SHL SUB PUSH2 0x475 PUSH2 0x32B8 JUMP JUMPDEST AND PUSH1 0x0 MSTORE PUSH1 0x5 PUSH1 0x20 MSTORE PUSH1 0x20 PUSH1 0xFF PUSH1 0x40 PUSH1 0x0 KECCAK256 SLOAD AND PUSH1 0x40 MLOAD SWAP1 ISZERO ISZERO DUP2 MSTORE RETURN JUMPDEST CALLVALUE PUSH2 0x324 JUMPI PUSH1 0x20 CALLDATASIZE PUSH1 0x3 NOT ADD SLT PUSH2 0x324 JUMPI PUSH1 0x4 CALLDATALOAD PUSH1 0x0 MSTORE PUSH1 0xA PUSH1 0x20 MSTORE PUSH2 0x4CE PUSH2 0x4C2 PUSH1 0x8 PUSH1 0x40 PUSH1 0x0 KECCAK256 ADD PUSH2 0x3953 JUMP JUMPDEST PUSH1 0x40 MLOAD SWAP2 DUP3 SWAP2 DUP3 PUSH2 0x3379 JUMP JUMPDEST SUB SWAP1 RETURN JUMPDEST CALLVALUE PUSH2 0x324 JUMPI PUSH1 0x20 CALLDATASIZE PUSH1 0x3 NOT ADD SLT PUSH2 0x324 JUMPI PUSH2 0x4EB PUSH2 0x32B8 JUMP JUMPDEST PUSH2 0x4F3 PUSH2 0x4124 JUMP JUMPDEST PUSH1 0x1 PUSH1 0x1 PUSH1 0xA0 SHL SUB AND DUP1 ISZERO PUSH2 0x545 JUMPI PUSH1 0x0 DUP1 SLOAD PUSH1 0x1 PUSH1 0x1 PUSH1 0xA0 SHL SUB NOT DUP2 AND DUP4 OR DUP3 SSTORE PUSH1 0x1 PUSH1 0x1 PUSH1 0xA0 SHL SUB AND SWAP1 PUSH32 0x8BE0079C531659141344CD1FD0A4F28419497F9722A3DAAFE3B4186F6B6457E0 SWAP1 DUP1 LOG3 STOP JUMPDEST PUSH4 0x1E4FBDF7 PUSH1 0xE0 SHL PUSH1 0x0 MSTORE PUSH1 0x0 PUSH1 0x4 MSTORE PUSH1 0x24 PUSH1 0x0 REVERT JUMPDEST CALLVALUE PUSH2 0x324 JUMPI PUSH1 0x40 CALLDATASIZE PUSH1 0x3 NOT ADD SLT PUSH2 0x324 JUMPI PUSH1 0x4 CALLDATALOAD PUSH1 0x24 CALLDATALOAD CALLER PUSH1 0x0 MSTORE PUSH1 0x1 PUSH1 0x20 MSTORE PUSH1 0xFF PUSH1 0x40 PUSH1 0x0 KECCAK256 SLOAD AND PUSH1 0x3 DUP2 LT ISZERO PUSH2 0x5E4 JUMPI PUSH32 0x9FF79792A92B66FEE090ACB66E07837A2EDB31EE6B9780FA551FD04B79DFFCD2 SWAP2 PUSH2 0x5BD PUSH1 0x2 PUSH1 0x20 SWAP4 EQ PUSH2 0x3567 JUMP JUMPDEST DUP4 PUSH1 0x0 MSTORE PUSH1 0xA DUP3 MSTORE DUP1 PUSH1 0x6 PUSH1 0x40 PUSH1 0x0 KECCAK256 PUSH2 0x5D9 DUP2 SLOAD ISZERO ISZERO PUSH2 0x3623 JUMP JUMPDEST ADD SSTORE PUSH1 0x40 MLOAD SWAP1 DUP2 MSTORE LOG2 STOP JUMPDEST PUSH4 0x4E487B71 PUSH1 0xE0 SHL PUSH1 0x0 MSTORE PUSH1 0x21 PUSH1 0x4 MSTORE PUSH1 0x24 PUSH1 0x0 REVERT JUMPDEST CALLVALUE PUSH2 0x324 JUMPI PUSH1 0x20 CALLDATASIZE PUSH1 0x3 NOT ADD SLT PUSH2 0x324 JUMPI PUSH1 0x20 PUSH2 0x625 PUSH1 0x4 CALLDATALOAD PUSH2 0x620 PUSH1 0x2 SLOAD DUP3 LT PUSH2 0x3DAF JUMP JUMPDEST PUSH2 0x3162 JUMP JUMPDEST SWAP1 SLOAD PUSH1 0x40 MLOAD PUSH1 0x3 SWAP3 SWAP1 SWAP3 SHL SHR PUSH1 0x1 PUSH1 0x1 PUSH1 0xA0 SHL SUB AND DUP2 MSTORE RETURN JUMPDEST CALLVALUE PUSH2 0x324 JUMPI PUSH1 0x20 CALLDATASIZE PUSH1 0x3 NOT ADD SLT PUSH2 0x324 JUMPI PUSH1 0x20 PUSH2 0x625 PUSH1 0x4 CALLDATALOAD PUSH2 0x664 PUSH1 0x3 SLOAD DUP3 LT PUSH2 0x3DAF JUMP JUMPDEST PUSH2 0x3193 JUMP JUMPDEST CALLVALUE PUSH2 0x324 JUMPI PUSH1 0x60 CALLDATASIZE PUSH1 0x3 NOT ADD SLT PUSH2 0x324 JUMPI PUSH1 0x4 CALLDATALOAD PUSH2 0x685 PUSH2 0x32CE JUMP JUMPDEST SWAP1 PUSH1 0x44 CALLDATALOAD SWAP2 DUP3 ISZERO ISZERO SWAP3 DUP4 DUP2 SUB PUSH2 0x324 JUMPI CALLER PUSH1 0x0 MSTORE PUSH1 0x1 PUSH1 0x20 MSTORE PUSH1 0xFF PUSH1 0x40 PUSH1 0x0 KECCAK256 SLOAD AND PUSH1 0x3 DUP2 LT ISZERO PUSH2 0x5E4 JUMPI PUSH1 0x2 PUSH2 0x6BC SWAP2 EQ PUSH2 0x3567 JUMP JUMPDEST DUP3 PUSH1 0x0 MSTORE PUSH1 0xA PUSH1 0x20 MSTORE PUSH1 0x40 PUSH1 0x0 KECCAK256 SWAP1 PUSH2 0x6D7 DUP3 SLOAD ISZERO ISZERO PUSH2 0x3623 JUMP JUMPDEST DUP4 PUSH1 0x0 MSTORE PUSH1 0xB PUSH1 0x20 MSTORE PUSH1 0x40 PUSH1 0x0 KECCAK256 PUSH1 0x1 DUP1 PUSH1 0xA0 SHL SUB DUP5 AND PUSH1 0x0 MSTORE PUSH1 0x20 MSTORE PUSH1 0x40 PUSH1 0x0 KECCAK256 PUSH1 0xFF NOT DUP2 SLOAD AND PUSH1 0xFF DUP8 AND OR SWAP1 SSTORE PUSH1 0x0 EQ PUSH2 0x783 JUMPI PUSH1 0x0 DUP1 MLOAD PUSH1 0x20 PUSH2 0x416E DUP4 CODECOPY DUP2 MLOAD SWAP2 MSTORE SWAP2 DUP2 PUSH1 0xB PUSH1 0x20 SWAP4 ADD SWAP1 PUSH1 0x1 DUP1 PUSH1 0xA0 SHL SUB DUP4 AND PUSH1 0x0 MSTORE DUP2 DUP5 MSTORE PUSH1 0x40 PUSH1 0x0 KECCAK256 SLOAD ISZERO PUSH2 0x756 JUMPI JUMPDEST POP POP JUMPDEST PUSH1 0x40 MLOAD SWAP5 DUP6 MSTORE PUSH1 0x1 PUSH1 0x1 PUSH1 0xA0 SHL SUB AND SWAP4 LOG3 STOP JUMPDEST PUSH1 0x8 ADD PUSH2 0x763 DUP4 DUP3 PUSH2 0x36F3 JUMP JUMPDEST SLOAD PUSH1 0x1 PUSH1 0x1 PUSH1 0xA0 SHL SUB DUP4 AND PUSH1 0x0 SWAP1 DUP2 MSTORE SWAP2 DUP5 MSTORE PUSH1 0x40 SWAP1 SWAP2 KECCAK256 SSTORE DUP6 DUP1 PUSH2 0x740 JUMP JUMPDEST PUSH1 0xB DUP2 ADD PUSH1 0x1 DUP1 PUSH1 0xA0 SHL SUB DUP4 AND PUSH1 0x0 MSTORE DUP1 PUSH1 0x20 MSTORE PUSH1 0x40 PUSH1 0x0 KECCAK256 SLOAD SWAP2 DUP3 PUSH2 0x7BE JUMPI JUMPDEST POP POP POP PUSH1 0x20 PUSH1 0x0 DUP1 MLOAD PUSH1 0x20 PUSH2 0x416E DUP4 CODECOPY DUP2 MLOAD SWAP2 MSTORE SWAP2 PUSH2 0x743 JUMP JUMPDEST PUSH1 0x8 ADD DUP1 SLOAD SWAP1 SWAP4 SWAP2 SWAP3 SWAP1 PUSH1 0x0 NOT DUP2 ADD SWAP1 DUP2 GT PUSH2 0x8BE JUMPI PUSH2 0x7DE SWAP1 DUP6 PUSH2 0x31AE JUMP JUMPDEST SWAP1 SLOAD PUSH1 0x3 SWAP2 SWAP1 SWAP2 SHL SHR PUSH1 0x1 PUSH1 0x1 PUSH1 0xA0 SHL SUB AND PUSH1 0x0 NOT DUP3 ADD DUP3 DUP2 GT PUSH2 0x8BE JUMPI DUP2 PUSH2 0x80A PUSH2 0x82E SWAP3 DUP9 PUSH2 0x31AE JUMP JUMPDEST DUP2 SLOAD PUSH1 0x1 PUSH1 0x1 PUSH1 0xA0 SHL SUB SWAP4 DUP5 AND PUSH1 0x3 SWAP3 SWAP1 SWAP3 SHL SWAP2 DUP3 SHL SWAP4 SWAP1 SWAP2 SHL NOT AND SWAP2 SWAP1 SWAP2 OR SWAP1 SSTORE JUMP JUMPDEST PUSH1 0x1 PUSH1 0x1 PUSH1 0xA0 SHL SUB AND PUSH1 0x0 SWAP1 DUP2 MSTORE PUSH1 0x20 DUP5 SWAP1 MSTORE PUSH1 0x40 SWAP1 KECCAK256 SSTORE DUP3 SLOAD SWAP2 DUP3 ISZERO PUSH2 0x8A8 JUMPI PUSH1 0x0 DUP1 MLOAD PUSH1 0x20 PUSH2 0x416E DUP4 CODECOPY DUP2 MLOAD SWAP2 MSTORE SWAP4 PUSH1 0x20 SWAP4 PUSH1 0x0 NOT ADD SWAP1 PUSH2 0x889 PUSH2 0x874 DUP4 DUP4 PUSH2 0x31AE JUMP JUMPDEST DUP2 SLOAD SWAP1 PUSH1 0x1 DUP1 PUSH1 0xA0 SHL SUB SWAP1 PUSH1 0x3 SHL SHL NOT AND SWAP1 SSTORE JUMP JUMPDEST SSTORE PUSH1 0x1 PUSH1 0x1 PUSH1 0xA0 SHL SUB DUP3 AND PUSH1 0x0 SWAP1 DUP2 MSTORE SWAP1 DUP4 MSTORE PUSH1 0x40 DUP2 KECCAK256 SSTORE SWAP2 DUP6 PUSH2 0x7A4 JUMP JUMPDEST PUSH4 0x4E487B71 PUSH1 0xE0 SHL PUSH1 0x0 MSTORE PUSH1 0x31 PUSH1 0x4 MSTORE PUSH1 0x24 PUSH1 0x0 REVERT JUMPDEST PUSH4 0x4E487B71 PUSH1 0xE0 SHL PUSH1 0x0 MSTORE PUSH1 0x11 PUSH1 0x4 MSTORE PUSH1 0x24 PUSH1 0x0 REVERT JUMPDEST CALLVALUE PUSH2 0x324 JUMPI PUSH1 0x20 CALLDATASIZE PUSH1 0x3 NOT ADD SLT PUSH2 0x324 JUMPI PUSH1 0x4 CALLDATALOAD PUSH1 0x1 PUSH1 0x1 PUSH1 0x40 SHL SUB DUP2 GT PUSH2 0x324 JUMPI PUSH2 0x904 SWAP1 CALLDATASIZE SWAP1 PUSH1 0x4 ADD PUSH2 0x3132 JUMP JUMPDEST SWAP1 CALLER PUSH1 0x0 MSTORE PUSH1 0x1 PUSH1 0x20 MSTORE PUSH1 0xFF PUSH1 0x40 PUSH1 0x0 KECCAK256 SLOAD AND PUSH1 0x3 DUP2 LT ISZERO PUSH2 0x5E4 JUMPI PUSH1 0x2 PUSH2 0x92C SWAP2 EQ PUSH2 0x3567 JUMP JUMPDEST PUSH1 0x0 JUMPDEST DUP3 DUP2 LT PUSH2 0x938 JUMPI STOP JUMPDEST PUSH2 0x94B PUSH2 0x946 DUP3 DUP6 DUP6 PUSH2 0x35B3 JUMP JUMPDEST PUSH2 0x35C3 JUMP JUMPDEST PUSH1 0x1 PUSH1 0x1 PUSH1 0xA0 SHL SUB DUP2 AND PUSH1 0x0 DUP2 DUP2 MSTORE PUSH1 0x1 PUSH1 0x20 MSTORE PUSH1 0x40 SWAP1 KECCAK256 SLOAD SWAP2 SWAP3 SWAP2 PUSH1 0xFF AND PUSH1 0x3 DUP2 LT ISZERO PUSH2 0x5E4 JUMPI PUSH1 0x1 EQ PUSH2 0x986 JUMPI JUMPDEST POP PUSH1 0x1 SWAP2 POP ADD PUSH2 0x92F JUMP JUMPDEST PUSH2 0x98F DUP4 PUSH2 0x3F99 JUMP JUMPDEST PUSH2 0x9F8 JUMPI PUSH2 0x9B3 PUSH1 0x1 SWAP4 DUP3 PUSH1 0x0 MSTORE DUP5 PUSH1 0x20 MSTORE PUSH1 0x40 PUSH1 0x0 KECCAK256 PUSH1 0xFF NOT DUP2 SLOAD AND SWAP1 SSTORE PUSH2 0x3FFD JUMP JUMPDEST PUSH1 0x0 DUP1 MLOAD PUSH1 0x20 PUSH2 0x414E DUP4 CODECOPY DUP2 MLOAD SWAP2 MSTORE PUSH1 0x20 PUSH1 0x40 MLOAD DUP4 PUSH32 0xD3E803F2DFDACD206B7D19AA46D847206386D84E3DC6B8DE0926E54AFFA6FDDC PUSH1 0x0 DUP1 LOG2 PUSH1 0x0 DUP2 MSTORE LOG2 DUP5 PUSH2 0x97B JUMP JUMPDEST PUSH1 0x40 MLOAD PUSH3 0x461BCD PUSH1 0xE5 SHL DUP2 MSTORE PUSH1 0x20 PUSH1 0x4 DUP3 ADD MSTORE PUSH1 0x1F PUSH1 0x24 DUP3 ADD MSTORE PUSH32 0x43616E6E6F742072656D6F76652068617264636F6465642061756469746F7200 PUSH1 0x44 DUP3 ADD MSTORE PUSH1 0x64 SWAP1 REVERT JUMPDEST CALLVALUE PUSH2 0x324 JUMPI PUSH1 0x20 CALLDATASIZE PUSH1 0x3 NOT ADD SLT PUSH2 0x324 JUMPI PUSH2 0xA56 PUSH2 0x32B8 JUMP JUMPDEST CALLER PUSH1 0x0 MSTORE PUSH1 0x1 PUSH1 0x20 MSTORE PUSH1 0xFF PUSH1 0x40 PUSH1 0x0 KECCAK256 SLOAD AND PUSH1 0x3 DUP2 LT ISZERO PUSH2 0x5E4 JUMPI PUSH1 0x2 PUSH2 0xA7D SWAP2 EQ PUSH2 0x3567 JUMP JUMPDEST PUSH1 0x1 PUSH1 0x1 PUSH1 0xA0 SHL SUB DUP2 AND PUSH1 0x0 DUP2 DUP2 MSTORE PUSH1 0x1 PUSH1 0x20 MSTORE PUSH1 0x40 SWAP1 KECCAK256 SLOAD SWAP1 SWAP2 SWAP1 PUSH1 0xFF AND PUSH1 0x3 DUP2 LT ISZERO PUSH2 0x5E4 JUMPI PUSH1 0x1 PUSH2 0xAB1 SWAP2 EQ PUSH2 0x3D72 JUMP JUMPDEST PUSH2 0xABA DUP2 PUSH2 0x3F99 JUMP JUMPDEST PUSH2 0x9F8 JUMPI PUSH2 0xADD SWAP1 DUP3 PUSH1 0x0 MSTORE PUSH1 0x1 PUSH1 0x20 MSTORE PUSH1 0x40 PUSH1 0x0 KECCAK256 PUSH1 0xFF NOT DUP2 SLOAD AND SWAP1 SSTORE PUSH2 0x3FFD JUMP JUMPDEST PUSH1 0x0 DUP1 MLOAD PUSH1 0x20 PUSH2 0x414E DUP4 CODECOPY DUP2 MLOAD SWAP2 MSTORE PUSH1 0x20 PUSH1 0x40 MLOAD DUP4 PUSH32 0xD3E803F2DFDACD206B7D19AA46D847206386D84E3DC6B8DE0926E54AFFA6FDDC PUSH1 0x0 DUP1 LOG2 PUSH1 0x0 DUP2 MSTORE LOG2 STOP JUMPDEST CALLVALUE PUSH2 0x324 JUMPI PUSH1 0x0 CALLDATASIZE PUSH1 0x3 NOT ADD SLT PUSH2 0x324 JUMPI PUSH1 0x20 PUSH1 0x13 SLOAD PUSH1 0x40 MLOAD SWAP1 DUP2 MSTORE RETURN JUMPDEST CALLVALUE PUSH2 0x324 JUMPI PUSH1 0x0 CALLDATASIZE PUSH1 0x3 NOT ADD SLT PUSH2 0x324 JUMPI PUSH1 0x40 MLOAD PUSH1 0x9 SLOAD DUP1 DUP3 MSTORE PUSH1 0x20 DUP3 ADD SWAP1 PUSH1 0x9 PUSH1 0x0 MSTORE PUSH1 0x20 PUSH1 0x0 KECCAK256 SWAP1 PUSH1 0x0 JUMPDEST DUP2 DUP2 LT PUSH2 0xB80 JUMPI PUSH2 0x4CE DUP6 PUSH2 0x4C2 DUP2 DUP8 SUB DUP3 PUSH2 0x31C6 JUMP JUMPDEST DUP3 SLOAD PUSH1 0x1 PUSH1 0x1 PUSH1 0xA0 SHL SUB AND DUP5 MSTORE PUSH1 0x20 SWAP1 SWAP4 ADD SWAP3 PUSH1 0x1 SWAP3 DUP4 ADD SWAP3 ADD PUSH2 0xB69 JUMP JUMPDEST CALLVALUE PUSH2 0x324 JUMPI PUSH1 0x40 CALLDATASIZE PUSH1 0x3 NOT ADD SLT PUSH2 0x324 JUMPI PUSH2 0xBB8 PUSH2 0x32CE JUMP JUMPDEST PUSH1 0x4 CALLDATALOAD PUSH1 0x0 MSTORE PUSH1 0x10 PUSH1 0x20 MSTORE PUSH1 0x40 PUSH1 0x0 KECCAK256 SWAP1 PUSH1 0x1 DUP1 PUSH1 0xA0 SHL SUB AND PUSH1 0x0 MSTORE PUSH1 0x20 MSTORE PUSH1 0x20 PUSH1 0x40 PUSH1 0x0 KECCAK256 SLOAD PUSH1 0x40 MLOAD SWAP1 DUP2 MSTORE RETURN JUMPDEST CALLVALUE PUSH2 0x324 JUMPI PUSH1 0x20 CALLDATASIZE PUSH1 0x3 NOT ADD SLT PUSH2 0x324 JUMPI PUSH1 0x4 CALLDATALOAD CALLER PUSH1 0x0 MSTORE PUSH1 0x1 PUSH1 0x20 MSTORE PUSH1 0xFF PUSH1 0x40 PUSH1 0x0 KECCAK256 SLOAD AND PUSH1 0x3 DUP2 LT ISZERO PUSH2 0x5E4 JUMPI PUSH1 0x2 PUSH2 0xC22 SWAP2 EQ PUSH2 0x3567 JUMP JUMPDEST DUP1 PUSH1 0x0 MSTORE PUSH1 0xA PUSH1 0x20 MSTORE PUSH1 0x7 PUSH1 0x40 PUSH1 0x0 KECCAK256 PUSH2 0xC3E DUP2 SLOAD ISZERO ISZERO PUSH2 0x3623 JUMP JUMPDEST ADD SWAP1 PUSH1 0xFF DUP3 SLOAD AND SWAP2 PUSH1 0x5 DUP4 LT ISZERO PUSH2 0x5E4 JUMPI PUSH1 0x4 DUP4 EQ PUSH2 0xCDF JUMPI PUSH1 0x3 PUSH1 0x0 SWAP4 EQ PUSH2 0xC9A JUMPI PUSH1 0x3 PUSH1 0xFF NOT DUP3 SLOAD AND OR SWAP1 SSTORE PUSH32 0xFC109E0CB0828EC465B9741A17F547DF3009F4E626AF452175FBDBF0B1B50FEF PUSH1 0x20 PUSH1 0x40 MLOAD PUSH1 0x3 DUP2 MSTORE LOG2 DUP1 RETURN JUMPDEST PUSH1 0x40 MLOAD PUSH3 0x461BCD PUSH1 0xE5 SHL DUP2 MSTORE PUSH1 0x20 PUSH1 0x4 DUP3 ADD MSTORE PUSH1 0x1C PUSH1 0x24 DUP3 ADD MSTORE PUSH32 0x456C656374696F6E20697320616C72656164792063616E63656C656400000000 PUSH1 0x44 DUP3 ADD MSTORE PUSH1 0x64 SWAP1 REVERT JUMPDEST PUSH1 0x40 MLOAD PUSH3 0x461BCD PUSH1 0xE5 SHL DUP2 MSTORE PUSH1 0x20 PUSH1 0x4 DUP3 ADD MSTORE PUSH1 0x22 PUSH1 0x24 DUP3 ADD MSTORE PUSH32 0x43616E6E6F742063616E63656C20612066696E616C697A656420656C65637469 PUSH1 0x44 DUP3 ADD MSTORE PUSH2 0x37B7 PUSH1 0xF1 SHL PUSH1 0x64 DUP3 ADD MSTORE PUSH1 0x84 SWAP1 REVERT JUMPDEST CALLVALUE PUSH2 0x324 JUMPI PUSH1 0xC0 CALLDATASIZE PUSH1 0x3 NOT ADD SLT PUSH2 0x324 JUMPI PUSH1 0x4 CALLDATALOAD PUSH1 0x1 PUSH1 0x1 PUSH1 0x40 SHL SUB DUP2 GT PUSH2 0x324 JUMPI PUSH2 0xD5F SWAP1 CALLDATASIZE SWAP1 PUSH1 0x4 ADD PUSH2 0x31E7 JUMP JUMPDEST PUSH1 0x24 CALLDATALOAD PUSH1 0x1 PUSH1 0x1 PUSH1 0x40 SHL SUB DUP2 GT PUSH2 0x324 JUMPI PUSH2 0xD7E SWAP1 CALLDATASIZE SWAP1 PUSH1 0x4 ADD PUSH2 0x31E7 JUMP JUMPDEST PUSH1 0x44 CALLDATALOAD PUSH1 0x1 PUSH1 0x1 PUSH1 0x40 SHL SUB DUP2 GT PUSH2 0x324 JUMPI PUSH2 0xD9D SWAP1 CALLDATASIZE SWAP1 PUSH1 0x4 ADD PUSH2 0x32FB JUMP JUMPDEST PUSH1 0x64 CALLDATALOAD SWAP3 PUSH1 0x84 CALLDATALOAD SWAP4 PUSH1 0xA4 CALLDATALOAD SWAP1 CALLER PUSH1 0x0 MSTORE PUSH1 0x1 PUSH1 0x20 MSTORE PUSH1 0xFF PUSH1 0x40 PUSH1 0x0 KECCAK256 SLOAD AND PUSH1 0x3 DUP2 LT ISZERO PUSH2 0x5E4 JUMPI PUSH1 0x2 PUSH2 0xDD0 SWAP2 EQ PUSH2 0x3567 JUMP JUMPDEST PUSH2 0xDDB DUP7 DUP3 LT PUSH2 0x37BD JUMP JUMPDEST DUP1 TIMESTAMP LT ISZERO PUSH2 0x12E8 JUMPI PUSH2 0xDF1 PUSH1 0x2 DUP6 MLOAD LT ISZERO PUSH2 0x37F9 JUMP JUMPDEST PUSH2 0xDFC PUSH1 0x12 SLOAD PUSH2 0x39A7 JUMP JUMPDEST SWAP3 DUP4 PUSH1 0x12 SSTORE DUP4 PUSH1 0x0 MSTORE PUSH1 0xA PUSH1 0x20 MSTORE PUSH1 0x40 PUSH1 0x0 KECCAK256 SWAP6 DUP5 DUP8 SSTORE PUSH1 0x1 DUP8 ADD DUP3 MLOAD PUSH1 0x1 PUSH1 0x1 PUSH1 0x40 SHL SUB DUP2 GT PUSH2 0x110F JUMPI PUSH2 0xE31 DUP3 SLOAD PUSH2 0x33CF JUMP JUMPDEST PUSH1 0x1F DUP2 GT PUSH2 0x12B6 JUMPI JUMPDEST POP PUSH1 0x20 PUSH1 0x1F DUP3 GT PUSH1 0x1 EQ PUSH2 0x1252 JUMPI SWAP1 DUP1 PUSH2 0xE6A SWAP3 PUSH1 0x0 SWAP2 PUSH2 0x1247 JUMPI JUMPDEST POP DUP2 PUSH1 0x1 SHL SWAP2 PUSH1 0x0 NOT SWAP1 PUSH1 0x3 SHL SHR NOT AND OR SWAP1 JUMP JUMPDEST SWAP1 SSTORE JUMPDEST DUP1 MLOAD PUSH1 0x2 DUP9 ADD SWAP2 PUSH1 0x1 PUSH1 0x1 PUSH1 0x40 SHL SUB DUP3 GT PUSH2 0x110F JUMPI PUSH2 0xE8C DUP4 SLOAD PUSH2 0x33CF JUMP JUMPDEST PUSH1 0x1F DUP2 GT PUSH2 0x1215 JUMPI JUMPDEST POP PUSH1 0x20 SWAP1 PUSH1 0x1F DUP4 GT PUSH1 0x1 EQ PUSH2 0x11AE JUMPI PUSH2 0xEC7 SWAP3 SWAP2 PUSH1 0x0 SWAP2 DUP4 PUSH2 0x11A3 JUMPI JUMPDEST POP POP DUP2 PUSH1 0x1 SHL SWAP2 PUSH1 0x0 NOT SWAP1 PUSH1 0x3 SHL SHR NOT AND OR SWAP1 JUMP JUMPDEST SWAP1 SSTORE JUMPDEST PUSH1 0x3 DUP7 ADD DUP6 MLOAD PUSH1 0x1 PUSH1 0x40 SHL DUP2 GT PUSH2 0x110F JUMPI DUP2 SLOAD DUP2 DUP4 SSTORE DUP1 DUP3 LT PUSH2 0x1125 JUMPI JUMPDEST POP PUSH1 0x20 DUP8 SWAP10 SWAP9 SWAP10 ADD SWAP2 PUSH1 0x0 MSTORE PUSH1 0x20 PUSH1 0x0 KECCAK256 SWAP2 PUSH1 0x0 SWAP1 JUMPDEST DUP3 DUP3 LT PUSH2 0xFE6 JUMPI POP POP POP POP PUSH1 0x4 DUP8 ADD DUP3 SWAP1 SSTORE PUSH1 0x5 DUP8 ADD DUP7 SWAP1 SSTORE PUSH1 0x6 DUP8 ADD DUP4 SWAP1 SSTORE PUSH1 0x7 DUP8 ADD DUP1 SLOAD PUSH2 0xFFFF NOT AND SWAP1 SSTORE PUSH1 0xA SWAP1 SWAP7 ADD SWAP6 PUSH1 0x0 JUMPDEST DUP6 MLOAD DUP2 LT ISZERO PUSH2 0xF7A JUMPI DUP1 PUSH2 0xF56 PUSH2 0xF4D PUSH1 0x1 SWAP4 DUP10 PUSH2 0x376E JUMP JUMPDEST MLOAD MLOAD ISZERO ISZERO PUSH2 0x38E5 JUMP JUMPDEST PUSH2 0xF6A DUP10 PUSH2 0xF64 DUP4 DUP11 PUSH2 0x376E JUMP JUMPDEST MLOAD PUSH2 0x3292 JUMP JUMPDEST DUP1 SLOAD PUSH1 0xFF NOT AND DUP4 OR SWAP1 SSTORE ADD PUSH2 0xF34 JUMP JUMPDEST POP DUP4 SWAP2 PUSH32 0xE7A0AAE5D733E07E246DEA86213A1AC1B0AA8554BDE889BB75C12752F44E53D9 SWAP2 PUSH2 0xFAF DUP9 PUSH1 0x40 MLOAD SWAP4 DUP5 SWAP4 DUP5 PUSH2 0x3931 JUMP JUMPDEST SUB SWAP1 LOG2 DUP1 PUSH2 0xFB9 JUMPI STOP JUMPDEST PUSH1 0x20 PUSH32 0x9FF79792A92B66FEE090ACB66E07837A2EDB31EE6B9780FA551FD04B79DFFCD2 SWAP2 PUSH1 0x40 MLOAD SWAP1 DUP2 MSTORE LOG2 STOP JUMPDEST DUP1 SWAP11 SWAP10 SWAP11 MLOAD DUP1 MLOAD SWAP1 PUSH1 0x1 PUSH1 0x1 PUSH1 0x40 SHL SUB DUP3 GT PUSH2 0x110F JUMPI PUSH2 0x1006 DUP7 SLOAD PUSH2 0x33CF JUMP JUMPDEST PUSH1 0x1F DUP2 GT PUSH2 0x10D2 JUMPI JUMPDEST POP PUSH1 0x20 SWAP1 PUSH1 0x1F DUP4 GT PUSH1 0x1 EQ PUSH2 0x1065 JUMPI SWAP3 PUSH2 0x1048 DUP4 PUSH1 0x1 SWAP6 SWAP5 PUSH1 0x20 SWAP5 DUP8 SWAP7 PUSH1 0x0 SWAP3 PUSH2 0x105A JUMPI POP POP DUP2 PUSH1 0x1 SHL SWAP2 PUSH1 0x0 NOT SWAP1 PUSH1 0x3 SHL SHR NOT AND OR SWAP1 JUMP JUMPDEST DUP8 SSTORE JUMPDEST ADD SWAP5 ADD SWAP2 ADD SWAP1 SWAP3 SWAP10 SWAP9 SWAP10 PUSH2 0xEFE JUMP JUMPDEST ADD MLOAD SWAP1 POP CODESIZE DUP1 PUSH2 0xEB2 JUMP JUMPDEST SWAP1 PUSH1 0x1F NOT DUP4 AND SWAP2 DUP8 PUSH1 0x0 MSTORE DUP2 PUSH1 0x0 KECCAK256 SWAP3 PUSH1 0x0 JUMPDEST DUP2 DUP2 LT PUSH2 0x10BA JUMPI POP SWAP4 PUSH1 0x20 SWAP4 PUSH1 0x1 SWAP7 SWAP4 DUP8 SWAP7 SWAP4 DUP4 DUP9 SWAP6 LT PUSH2 0x10A1 JUMPI JUMPDEST POP POP POP DUP2 SHL ADD DUP8 SSTORE PUSH2 0x104B JUMP JUMPDEST ADD MLOAD PUSH1 0x0 NOT PUSH1 0xF8 DUP5 PUSH1 0x3 SHL AND SHR NOT AND SWAP1 SSTORE CODESIZE DUP1 DUP1 PUSH2 0x1094 JUMP JUMPDEST SWAP3 SWAP4 PUSH1 0x20 PUSH1 0x1 DUP2 SWAP3 DUP8 DUP7 ADD MLOAD DUP2 SSTORE ADD SWAP6 ADD SWAP4 ADD PUSH2 0x1078 JUMP JUMPDEST PUSH2 0x10FF SWAP1 DUP8 PUSH1 0x0 MSTORE PUSH1 0x20 PUSH1 0x0 KECCAK256 PUSH1 0x1F DUP6 ADD PUSH1 0x5 SHR DUP2 ADD SWAP2 PUSH1 0x20 DUP7 LT PUSH2 0x1105 JUMPI JUMPDEST PUSH1 0x1F ADD PUSH1 0x5 SHR ADD SWAP1 PUSH2 0x3845 JUMP JUMPDEST DUP14 PUSH2 0x100F JUMP JUMPDEST SWAP1 SWAP2 POP DUP2 SWAP1 PUSH2 0x10F2 JUMP JUMPDEST PUSH4 0x4E487B71 PUSH1 0xE0 SHL PUSH1 0x0 MSTORE PUSH1 0x41 PUSH1 0x4 MSTORE PUSH1 0x24 PUSH1 0x0 REVERT JUMPDEST DUP3 PUSH1 0x0 MSTORE DUP2 PUSH1 0x20 PUSH1 0x0 KECCAK256 SWAP2 DUP3 ADD SWAP2 ADD JUMPDEST DUP2 DUP2 LT PUSH2 0x1142 JUMPI POP PUSH2 0xEE8 JUMP JUMPDEST DUP1 PUSH2 0x114F PUSH1 0x1 SWAP3 SLOAD PUSH2 0x33CF JUMP JUMPDEST DUP1 PUSH2 0x115C JUMPI JUMPDEST POP ADD PUSH2 0x1135 JUMP JUMPDEST PUSH1 0x1F DUP2 GT DUP4 EQ PUSH2 0x1172 JUMPI POP PUSH1 0x0 DUP2 SSTORE JUMPDEST DUP13 PUSH2 0x1155 JUMP JUMPDEST PUSH2 0x1190 SWAP1 DUP3 PUSH1 0x0 MSTORE DUP4 PUSH1 0x1F PUSH1 0x20 PUSH1 0x0 KECCAK256 SWAP3 ADD PUSH1 0x5 SHR DUP3 ADD SWAP2 ADD PUSH2 0x3845 JUMP JUMPDEST DUP1 PUSH1 0x0 MSTORE PUSH1 0x0 PUSH1 0x20 DUP2 KECCAK256 DUP2 DUP4 SSTORE SSTORE PUSH2 0x116C JUMP JUMPDEST ADD MLOAD SWAP1 POP DUP12 DUP1 PUSH2 0xEB2 JUMP JUMPDEST SWAP1 PUSH1 0x1F NOT DUP4 AND SWAP2 DUP5 PUSH1 0x0 MSTORE DUP2 PUSH1 0x0 KECCAK256 SWAP3 PUSH1 0x0 JUMPDEST DUP2 DUP2 LT PUSH2 0x11FD JUMPI POP SWAP1 DUP5 PUSH1 0x1 SWAP6 SWAP5 SWAP4 SWAP3 LT PUSH2 0x11E4 JUMPI JUMPDEST POP POP POP DUP2 SHL ADD SWAP1 SSTORE PUSH2 0xECA JUMP JUMPDEST ADD MLOAD PUSH1 0x0 NOT PUSH1 0xF8 DUP5 PUSH1 0x3 SHL AND SHR NOT AND SWAP1 SSTORE DUP11 DUP1 DUP1 PUSH2 0x11D7 JUMP JUMPDEST SWAP3 SWAP4 PUSH1 0x20 PUSH1 0x1 DUP2 SWAP3 DUP8 DUP7 ADD MLOAD DUP2 SSTORE ADD SWAP6 ADD SWAP4 ADD PUSH2 0x11C1 JUMP JUMPDEST PUSH2 0x1241 SWAP1 DUP5 PUSH1 0x0 MSTORE PUSH1 0x20 PUSH1 0x0 KECCAK256 PUSH1 0x1F DUP6 ADD PUSH1 0x5 SHR DUP2 ADD SWAP2 PUSH1 0x20 DUP7 LT PUSH2 0x1105 JUMPI PUSH1 0x1F ADD PUSH1 0x5 SHR ADD SWAP1 PUSH2 0x3845 JUMP JUMPDEST DUP11 PUSH2 0xE95 JUMP JUMPDEST SWAP1 POP DUP6 ADD MLOAD DUP13 PUSH2 0xE56 JUMP JUMPDEST PUSH1 0x1F NOT DUP3 AND SWAP1 DUP4 PUSH1 0x0 MSTORE DUP1 PUSH1 0x0 KECCAK256 SWAP2 PUSH1 0x0 JUMPDEST DUP2 DUP2 LT PUSH2 0x129E JUMPI POP SWAP1 DUP4 PUSH1 0x1 SWAP5 SWAP4 SWAP3 LT PUSH2 0x1285 JUMPI JUMPDEST POP POP DUP2 SHL ADD SWAP1 SSTORE PUSH2 0xE6D JUMP JUMPDEST DUP7 ADD MLOAD PUSH1 0x0 NOT PUSH1 0xF8 DUP5 PUSH1 0x3 SHL AND SHR NOT AND SWAP1 SSTORE DUP12 DUP1 PUSH2 0x1279 JUMP JUMPDEST SWAP2 SWAP3 PUSH1 0x20 PUSH1 0x1 DUP2 SWAP3 DUP7 DUP12 ADD MLOAD DUP2 SSTORE ADD SWAP5 ADD SWAP3 ADD PUSH2 0x1264 JUMP JUMPDEST PUSH2 0x12E2 SWAP1 DUP4 PUSH1 0x0 MSTORE PUSH1 0x20 PUSH1 0x0 KECCAK256 PUSH1 0x1F DUP5 ADD PUSH1 0x5 SHR DUP2 ADD SWAP2 PUSH1 0x20 DUP6 LT PUSH2 0x1105 JUMPI PUSH1 0x1F ADD PUSH1 0x5 SHR ADD SWAP1 PUSH2 0x3845 JUMP JUMPDEST DUP11 PUSH2 0xE3A JUMP JUMPDEST PUSH1 0x64 PUSH1 0x40 MLOAD PUSH3 0x461BCD PUSH1 0xE5 SHL DUP2 MSTORE PUSH1 0x20 PUSH1 0x4 DUP3 ADD MSTORE PUSH1 0x20 PUSH1 0x24 DUP3 ADD MSTORE PUSH32 0x53746172742064617465206D75737420626520696E2074686520667574757265 PUSH1 0x44 DUP3 ADD MSTORE REVERT JUMPDEST CALLVALUE PUSH2 0x324 JUMPI PUSH1 0x20 CALLDATASIZE PUSH1 0x3 NOT ADD SLT PUSH2 0x324 JUMPI PUSH1 0x4 CALLDATALOAD PUSH1 0x0 MSTORE PUSH1 0xA PUSH1 0x20 MSTORE PUSH2 0x4CE PUSH2 0x4C2 PUSH1 0x9 PUSH1 0x40 PUSH1 0x0 KECCAK256 ADD PUSH2 0x3953 JUMP JUMPDEST CALLVALUE PUSH2 0x324 JUMPI PUSH1 0x20 PUSH1 0xFF PUSH2 0x1386 PUSH2 0x1370 CALLDATASIZE PUSH2 0x323D JUMP JUMPDEST SWAP1 PUSH1 0x0 MSTORE PUSH1 0xA DUP5 MSTORE PUSH1 0xA PUSH1 0x40 PUSH1 0x0 KECCAK256 ADD SWAP1 PUSH2 0x3292 JUMP JUMPDEST SLOAD AND PUSH1 0x40 MLOAD SWAP1 ISZERO ISZERO DUP2 MSTORE RETURN JUMPDEST CALLVALUE PUSH2 0x324 JUMPI PUSH1 0x20 CALLDATASIZE PUSH1 0x3 NOT ADD SLT PUSH2 0x324 JUMPI PUSH1 0x4 CALLDATALOAD PUSH1 0x1 PUSH1 0x1 PUSH1 0x40 SHL SUB DUP2 GT PUSH2 0x324 JUMPI PUSH2 0x13C2 SWAP1 CALLDATASIZE SWAP1 PUSH1 0x4 ADD PUSH2 0x31E7 JUMP JUMPDEST DUP1 MLOAD ISZERO PUSH2 0x14CD JUMPI CALLER PUSH1 0x0 MSTORE PUSH1 0x11 PUSH1 0x20 MSTORE PUSH1 0x40 PUSH1 0x0 KECCAK256 DUP2 MLOAD PUSH1 0x1 PUSH1 0x1 PUSH1 0x40 SHL SUB DUP2 GT PUSH2 0x110F JUMPI PUSH2 0x13F1 DUP3 SLOAD PUSH2 0x33CF JUMP JUMPDEST PUSH1 0x1F DUP2 GT PUSH2 0x149B JUMPI JUMPDEST POP PUSH1 0x20 SWAP3 PUSH1 0x1F DUP3 GT PUSH1 0x1 EQ PUSH2 0x143B JUMPI PUSH2 0x142C SWAP3 SWAP4 DUP3 SWAP2 PUSH1 0x0 SWAP3 PUSH2 0x1430 JUMPI POP POP DUP2 PUSH1 0x1 SHL SWAP2 PUSH1 0x0 NOT SWAP1 PUSH1 0x3 SHL SHR NOT AND OR SWAP1 JUMP JUMPDEST SWAP1 SSTORE STOP JUMPDEST ADD MLOAD SWAP1 POP DUP5 DUP1 PUSH2 0xEB2 JUMP JUMPDEST PUSH1 0x1F NOT DUP3 AND SWAP4 DUP4 PUSH1 0x0 MSTORE DUP1 PUSH1 0x0 KECCAK256 SWAP2 PUSH1 0x0 JUMPDEST DUP7 DUP2 LT PUSH2 0x1483 JUMPI POP DUP4 PUSH1 0x1 SWAP6 SWAP7 LT PUSH2 0x146A JUMPI JUMPDEST POP POP POP DUP2 SHL ADD SWAP1 SSTORE STOP JUMPDEST ADD MLOAD PUSH1 0x0 NOT PUSH1 0xF8 DUP5 PUSH1 0x3 SHL AND SHR NOT AND SWAP1 SSTORE DUP4 DUP1 DUP1 PUSH2 0x1460 JUMP JUMPDEST SWAP2 SWAP3 PUSH1 0x20 PUSH1 0x1 DUP2 SWAP3 DUP7 DUP6 ADD MLOAD DUP2 SSTORE ADD SWAP5 ADD SWAP3 ADD PUSH2 0x144D JUMP JUMPDEST PUSH2 0x14C7 SWAP1 DUP4 PUSH1 0x0 MSTORE PUSH1 0x20 PUSH1 0x0 KECCAK256 PUSH1 0x1F DUP5 ADD PUSH1 0x5 SHR DUP2 ADD SWAP2 PUSH1 0x20 DUP6 LT PUSH2 0x1105 JUMPI PUSH1 0x1F ADD PUSH1 0x5 SHR ADD SWAP1 PUSH2 0x3845 JUMP JUMPDEST DUP4 PUSH2 0x13FA JUMP JUMPDEST PUSH1 0x40 MLOAD PUSH3 0x461BCD PUSH1 0xE5 SHL DUP2 MSTORE PUSH1 0x20 PUSH1 0x4 DUP3 ADD MSTORE PUSH1 0x18 PUSH1 0x24 DUP3 ADD MSTORE PUSH32 0x4964656E746974792063616E6E6F7420626520656D7074790000000000000000 PUSH1 0x44 DUP3 ADD MSTORE PUSH1 0x64 SWAP1 REVERT JUMPDEST CALLVALUE PUSH2 0x324 JUMPI PUSH1 0x20 CALLDATASIZE PUSH1 0x3 NOT ADD SLT PUSH2 0x324 JUMPI PUSH1 0x20 PUSH2 0x1535 PUSH2 0x1530 PUSH2 0x32B8 JUMP JUMPDEST PUSH2 0x3DF1 JUMP JUMPDEST PUSH1 0x40 MLOAD SWAP1 ISZERO ISZERO DUP2 MSTORE RETURN JUMPDEST CALLVALUE PUSH2 0x324 JUMPI PUSH1 0x20 CALLDATASIZE PUSH1 0x3 NOT ADD SLT PUSH2 0x324 JUMPI PUSH1 0x1 PUSH1 0x1 PUSH1 0xA0 SHL SUB PUSH2 0x1560 PUSH2 0x32B8 JUMP JUMPDEST AND DUP1 PUSH1 0x0 MSTORE PUSH1 0x4 PUSH1 0x20 MSTORE PUSH2 0x157B PUSH1 0xFF PUSH1 0x40 PUSH1 0x0 KECCAK256 SLOAD AND PUSH2 0x3782 JUMP JUMPDEST PUSH1 0x0 MSTORE PUSH1 0x6 PUSH1 0x20 MSTORE PUSH1 0x40 PUSH1 0x0 KECCAK256 SLOAD PUSH1 0x0 NOT DUP2 ADD SWAP1 DUP2 GT PUSH2 0x8BE JUMPI PUSH1 0x20 SWAP1 PUSH1 0x40 MLOAD SWAP1 DUP2 MSTORE RETURN JUMPDEST CALLVALUE PUSH2 0x324 JUMPI PUSH1 0x20 CALLDATASIZE PUSH1 0x3 NOT ADD SLT PUSH2 0x324 JUMPI PUSH1 0x1 PUSH1 0x1 PUSH1 0xA0 SHL SUB PUSH2 0x15C1 PUSH2 0x32B8 JUMP JUMPDEST AND PUSH1 0x0 MSTORE PUSH1 0x11 PUSH1 0x20 MSTORE PUSH2 0x4CE PUSH2 0x15DA PUSH1 0x40 PUSH1 0x0 KECCAK256 PUSH2 0x3409 JUMP JUMPDEST PUSH1 0x40 MLOAD SWAP2 DUP3 SWAP2 PUSH1 0x20 DUP4 MSTORE PUSH1 0x20 DUP4 ADD SWAP1 PUSH2 0x34AD JUMP JUMPDEST CALLVALUE PUSH2 0x324 JUMPI PUSH1 0x20 CALLDATASIZE PUSH1 0x3 NOT ADD SLT PUSH2 0x324 JUMPI PUSH1 0x1 PUSH1 0x1 PUSH1 0xA0 SHL SUB PUSH2 0x160F PUSH2 0x32B8 JUMP JUMPDEST AND DUP1 PUSH1 0x0 MSTORE PUSH1 0x5 PUSH1 0x20 MSTORE PUSH2 0x162A PUSH1 0xFF PUSH1 0x40 PUSH1 0x0 KECCAK256 SLOAD AND PUSH2 0x3D72 JUMP JUMPDEST PUSH1 0x0 MSTORE PUSH1 0x7 PUSH1 0x20 MSTORE PUSH1 0x40 PUSH1 0x0 KECCAK256 SLOAD PUSH1 0x0 NOT DUP2 ADD SWAP1 DUP2 GT PUSH2 0x8BE JUMPI PUSH1 0x20 SWAP1 PUSH1 0x40 MLOAD SWAP1 DUP2 MSTORE RETURN JUMPDEST CALLVALUE PUSH2 0x324 JUMPI PUSH1 0x40 CALLDATASIZE PUSH1 0x3 NOT ADD SLT PUSH2 0x324 JUMPI PUSH2 0x1668 PUSH2 0x32CE JUMP JUMPDEST PUSH1 0x4 CALLDATALOAD PUSH1 0x0 MSTORE PUSH1 0xB PUSH1 0x20 MSTORE PUSH1 0x40 PUSH1 0x0 KECCAK256 SWAP1 PUSH1 0x1 DUP1 PUSH1 0xA0 SHL SUB AND PUSH1 0x0 MSTORE PUSH1 0x20 MSTORE PUSH1 0x20 PUSH1 0xFF PUSH1 0x40 PUSH1 0x0 KECCAK256 SLOAD AND PUSH1 0x40 MLOAD SWAP1 ISZERO ISZERO DUP2 MSTORE RETURN JUMPDEST CALLVALUE PUSH2 0x324 JUMPI PUSH1 0x40 CALLDATASIZE PUSH1 0x3 NOT ADD SLT PUSH2 0x324 JUMPI PUSH1 0x4 CALLDATALOAD PUSH2 0x16B8 PUSH2 0x32CE JUMP JUMPDEST SWAP1 CALLER PUSH1 0x0 MSTORE PUSH1 0x1 PUSH1 0x20 MSTORE PUSH1 0xFF PUSH1 0x40 PUSH1 0x0 KECCAK256 SLOAD AND PUSH1 0x3 DUP2 LT ISZERO PUSH2 0x5E4 JUMPI PUSH1 0x2 PUSH2 0x16E0 SWAP2 EQ PUSH2 0x3567 JUMP JUMPDEST DUP1 PUSH1 0x0 MSTORE PUSH1 0xA PUSH1 0x20 MSTORE PUSH1 0x40 PUSH1 0x0 KECCAK256 PUSH2 0x16FA DUP2 SLOAD ISZERO ISZERO PUSH2 0x3623 JUMP JUMPDEST DUP2 PUSH1 0x0 MSTORE PUSH1 0xB PUSH1 0x20 MSTORE PUSH1 0x40 PUSH1 0x0 KECCAK256 PUSH1 0x1 DUP1 PUSH1 0xA0 SHL SUB DUP5 AND PUSH1 0x0 MSTORE PUSH1 0x20 MSTORE PUSH2 0x1729 PUSH1 0xFF PUSH1 0x40 PUSH1 0x0 KECCAK256 SLOAD AND ISZERO PUSH2 0x36B2 JUMP JUMPDEST PUSH1 0x0 DUP3 DUP2 MSTORE PUSH1 0xB PUSH1 0x20 DUP2 DUP2 MSTORE PUSH1 0x40 DUP1 DUP5 KECCAK256 PUSH1 0x1 PUSH1 0x1 PUSH1 0xA0 SHL SUB DUP9 AND DUP6 MSTORE DUP3 MSTORE DUP1 DUP5 KECCAK256 DUP1 SLOAD PUSH1 0xFF NOT AND PUSH1 0x1 OR SWAP1 SSTORE SWAP2 DUP5 ADD SWAP1 DUP2 SWAP1 MSTORE SWAP2 KECCAK256 SLOAD SWAP1 SWAP2 SWAP1 ISZERO PUSH2 0x17BB JUMPI JUMPDEST POP POP DUP1 PUSH32 0xF45B8429C36D478F9A6D081C4811A819B98AA5B608588BED9D406405CF282473 PUSH1 0x20 PUSH1 0x40 MLOAD SWAP5 PUSH1 0x1 DUP1 PUSH1 0xA0 SHL SUB AND SWAP5 DUP6 DUP2 MSTORE LOG2 PUSH1 0x0 DUP1 MLOAD PUSH1 0x20 PUSH2 0x416E DUP4 CODECOPY DUP2 MLOAD SWAP2 MSTORE PUSH1 0x20 PUSH1 0x40 MLOAD PUSH1 0x1 DUP2 MSTORE LOG3 STOP JUMPDEST PUSH1 0x8 ADD PUSH2 0x17C8 DUP5 DUP3 PUSH2 0x36F3 JUMP JUMPDEST SLOAD SWAP1 PUSH1 0x1 DUP1 PUSH1 0xA0 SHL SUB DUP5 AND PUSH1 0x0 MSTORE PUSH1 0x20 MSTORE PUSH1 0x40 PUSH1 0x0 KECCAK256 SSTORE DUP3 DUP1 PUSH2 0x1769 JUMP JUMPDEST CALLVALUE PUSH2 0x324 JUMPI PUSH1 0x20 PUSH2 0x180C PUSH2 0x17F9 CALLDATASIZE PUSH2 0x323D JUMP JUMPDEST SWAP1 PUSH1 0x0 MSTORE PUSH1 0xD DUP4 MSTORE PUSH1 0x40 PUSH1 0x0 KECCAK256 SWAP1 PUSH2 0x3292 JUMP JUMPDEST SLOAD PUSH1 0x40 MLOAD SWAP1 DUP2 MSTORE RETURN JUMPDEST CALLVALUE PUSH2 0x324 JUMPI PUSH1 0x20 CALLDATASIZE PUSH1 0x3 NOT ADD SLT PUSH2 0x324 JUMPI PUSH1 0x1 PUSH1 0x1 PUSH1 0xA0 SHL SUB PUSH2 0x1836 PUSH2 0x32B8 JUMP JUMPDEST AND PUSH1 0x0 MSTORE PUSH1 0x6 PUSH1 0x20 MSTORE PUSH1 0x20 PUSH1 0x40 PUSH1 0x0 KECCAK256 SLOAD PUSH1 0x40 MLOAD SWAP1 DUP2 MSTORE RETURN JUMPDEST CALLVALUE PUSH2 0x324 JUMPI PUSH1 0x40 CALLDATASIZE PUSH1 0x3 NOT ADD SLT PUSH2 0x324 JUMPI PUSH2 0x1868 PUSH2 0x32CE JUMP JUMPDEST PUSH1 0x4 CALLDATALOAD PUSH1 0x0 MSTORE PUSH1 0xC PUSH1 0x20 MSTORE PUSH1 0x40 PUSH1 0x0 KECCAK256 SWAP1 PUSH1 0x1 DUP1 PUSH1 0xA0 SHL SUB AND PUSH1 0x0 MSTORE PUSH1 0x20 MSTORE PUSH1 0x20 PUSH1 0xFF PUSH1 0x40 PUSH1 0x0 KECCAK256 SLOAD AND PUSH1 0x40 MLOAD SWAP1 ISZERO ISZERO DUP2 MSTORE RETURN JUMPDEST CALLVALUE PUSH2 0x324 JUMPI PUSH1 0x0 CALLDATASIZE PUSH1 0x3 NOT ADD SLT PUSH2 0x324 JUMPI PUSH1 0x20 PUSH1 0x12 SLOAD PUSH1 0x40 MLOAD SWAP1 DUP2 MSTORE RETURN JUMPDEST CALLVALUE PUSH2 0x324 JUMPI PUSH2 0x18C8 CALLDATASIZE PUSH2 0x34DF JUMP JUMPDEST PUSH1 0x1 PUSH1 0x1 PUSH1 0xA0 SHL SUB SWAP1 SWAP2 AND PUSH1 0x0 SWAP1 DUP2 MSTORE PUSH1 0x1 PUSH1 0x20 MSTORE PUSH1 0x40 SWAP1 KECCAK256 SLOAD PUSH1 0xFF AND PUSH1 0x3 DUP3 LT ISZERO PUSH2 0x5E4 JUMPI PUSH1 0x3 DUP2 LT ISZERO PUSH2 0x5E4 JUMPI PUSH1 0x20 SWAP2 PUSH1 0x40 MLOAD SWAP2 EQ DUP2 MSTORE RETURN JUMPDEST CALLVALUE PUSH2 0x324 JUMPI PUSH1 0x20 CALLDATASIZE PUSH1 0x3 NOT ADD SLT PUSH2 0x324 JUMPI PUSH1 0x4 CALLDATALOAD PUSH1 0x0 SWAP1 DUP1 DUP3 MSTORE PUSH1 0xA PUSH1 0x20 MSTORE PUSH2 0x1931 PUSH1 0x3 PUSH1 0x40 DUP5 KECCAK256 ADD PUSH2 0x3716 JUMP JUMPDEST DUP3 JUMPDEST DUP2 MLOAD DUP5 LT ISZERO PUSH2 0x1965 JUMPI PUSH2 0x195D PUSH1 0x1 SWAP2 DUP5 PUSH1 0x0 MSTORE PUSH1 0xD PUSH1 0x20 MSTORE PUSH2 0x444 PUSH1 0x40 PUSH1 0x0 KECCAK256 PUSH2 0xF64 DUP9 DUP8 PUSH2 0x376E JUMP JUMPDEST SWAP4 ADD SWAP3 PUSH2 0x1933 JUMP JUMPDEST PUSH1 0x20 SWAP1 PUSH1 0x40 MLOAD SWAP1 DUP2 MSTORE RETURN JUMPDEST CALLVALUE PUSH2 0x324 JUMPI PUSH1 0x20 CALLDATASIZE PUSH1 0x3 NOT ADD SLT PUSH2 0x324 JUMPI PUSH1 0x1 PUSH1 0x1 PUSH1 0xA0 SHL SUB PUSH2 0x1991 PUSH2 0x32B8 JUMP JUMPDEST AND PUSH1 0x0 MSTORE PUSH1 0x4 PUSH1 0x20 MSTORE PUSH1 0x20 PUSH1 0xFF PUSH1 0x40 PUSH1 0x0 KECCAK256 SLOAD AND PUSH1 0x40 MLOAD SWAP1 ISZERO ISZERO DUP2 MSTORE RETURN JUMPDEST CALLVALUE PUSH2 0x324 JUMPI PUSH1 0x0 CALLDATASIZE PUSH1 0x3 NOT ADD SLT PUSH2 0x324 JUMPI PUSH1 0x0 SLOAD PUSH1 0x40 MLOAD PUSH1 0x1 PUSH1 0x1 PUSH1 0xA0 SHL SUB SWAP1 SWAP2 AND DUP2 MSTORE PUSH1 0x20 SWAP1 RETURN JUMPDEST CALLVALUE PUSH2 0x324 JUMPI PUSH1 0x0 CALLDATASIZE PUSH1 0x3 NOT ADD SLT PUSH2 0x324 JUMPI PUSH1 0x40 MLOAD PUSH1 0x8 SLOAD DUP1 DUP3 MSTORE PUSH1 0x20 DUP3 ADD SWAP1 PUSH1 0x8 PUSH1 0x0 MSTORE PUSH1 0x20 PUSH1 0x0 KECCAK256 SWAP1 PUSH1 0x0 JUMPDEST DUP2 DUP2 LT PUSH2 0x1A1C JUMPI PUSH2 0x4CE DUP6 PUSH2 0x4C2 DUP2 DUP8 SUB DUP3 PUSH2 0x31C6 JUMP JUMPDEST DUP3 SLOAD PUSH1 0x1 PUSH1 0x1 PUSH1 0xA0 SHL SUB AND DUP5 MSTORE PUSH1 0x20 SWAP1 SWAP4 ADD SWAP3 PUSH1 0x1 SWAP3 DUP4 ADD SWAP3 ADD PUSH2 0x1A05 JUMP JUMPDEST CALLVALUE PUSH2 0x324 JUMPI PUSH1 0x0 CALLDATASIZE PUSH1 0x3 NOT ADD SLT PUSH2 0x324 JUMPI PUSH1 0x20 PUSH1 0x2 SLOAD PUSH1 0x40 MLOAD SWAP1 DUP2 MSTORE RETURN JUMPDEST CALLVALUE PUSH2 0x324 JUMPI PUSH1 0x20 CALLDATASIZE PUSH1 0x3 NOT ADD SLT PUSH2 0x324 JUMPI PUSH1 0x20 PUSH2 0x1535 PUSH2 0x1A77 PUSH2 0x32B8 JUMP JUMPDEST PUSH2 0x3F99 JUMP JUMPDEST CALLVALUE PUSH2 0x324 JUMPI PUSH1 0xC0 CALLDATASIZE PUSH1 0x3 NOT ADD SLT PUSH2 0x324 JUMPI PUSH1 0x4 CALLDATALOAD PUSH2 0x1A98 PUSH2 0x32CE JUMP JUMPDEST SWAP1 PUSH1 0x44 CALLDATALOAD SWAP2 PUSH1 0x1 PUSH1 0x1 PUSH1 0x40 SHL SUB DUP4 GT PUSH2 0x324 JUMPI PUSH2 0x1ABB PUSH1 0x20 SWAP4 CALLDATASIZE SWAP1 PUSH1 0x4 ADD PUSH2 0x31E7 JUMP JUMPDEST PUSH1 0x40 MLOAD PUSH2 0x1AEB DUP2 PUSH2 0x1ADD DUP8 DUP3 ADD SWAP5 PUSH1 0xA4 CALLDATALOAD SWAP1 PUSH1 0x84 CALLDATALOAD SWAP1 PUSH1 0x64 CALLDATALOAD SWAP1 DUP10 DUP12 DUP11 PUSH2 0x39B6 JUMP JUMPDEST SUB PUSH1 0x1F NOT DUP2 ADD DUP4 MSTORE DUP3 PUSH2 0x31C6 JUMP JUMPDEST MLOAD SWAP1 KECCAK256 SWAP2 PUSH1 0x0 MSTORE PUSH1 0xE DUP4 MSTORE PUSH1 0x40 PUSH1 0x0 KECCAK256 SWAP1 PUSH1 0x1 DUP1 PUSH1 0xA0 SHL SUB AND PUSH1 0x0 MSTORE DUP3 MSTORE PUSH1 0x40 PUSH1 0x0 KECCAK256 SLOAD EQ PUSH1 0x40 MLOAD SWAP1 DUP2 MSTORE RETURN JUMPDEST CALLVALUE PUSH2 0x324 JUMPI PUSH1 0x20 CALLDATASIZE PUSH1 0x3 NOT ADD SLT PUSH2 0x324 JUMPI PUSH1 0x4 CALLDATALOAD PUSH1 0x0 MSTORE PUSH1 0xA PUSH1 0x20 MSTORE PUSH1 0x20 PUSH1 0x40 PUSH1 0x0 KECCAK256 SLOAD ISZERO ISZERO PUSH1 0x40 MLOAD SWAP1 DUP2 MSTORE RETURN JUMPDEST CALLVALUE PUSH2 0x324 JUMPI PUSH1 0x20 CALLDATASIZE PUSH1 0x3 NOT ADD SLT PUSH2 0x324 JUMPI PUSH1 0x1 PUSH1 0x1 PUSH1 0xA0 SHL SUB PUSH2 0x1B67 PUSH2 0x32B8 JUMP JUMPDEST AND PUSH1 0x0 MSTORE PUSH1 0x1 PUSH1 0x20 MSTORE PUSH2 0x4CE PUSH1 0xFF PUSH1 0x40 PUSH1 0x0 KECCAK256 SLOAD AND PUSH1 0x40 MLOAD SWAP2 DUP3 SWAP2 DUP3 PUSH2 0x33BC JUMP JUMPDEST CALLVALUE PUSH2 0x324 JUMPI PUSH1 0x0 CALLDATASIZE PUSH1 0x3 NOT ADD SLT PUSH2 0x324 JUMPI PUSH2 0x1BA1 PUSH2 0x4124 JUMP JUMPDEST PUSH1 0x0 DUP1 SLOAD PUSH1 0x1 PUSH1 0x1 PUSH1 0xA0 SHL SUB NOT DUP2 AND DUP3 SSTORE PUSH1 0x1 PUSH1 0x1 PUSH1 0xA0 SHL SUB AND PUSH32 0x8BE0079C531659141344CD1FD0A4F28419497F9722A3DAAFE3B4186F6B6457E0 DUP3 DUP1 LOG3 STOP JUMPDEST CALLVALUE PUSH2 0x324 JUMPI PUSH1 0x40 CALLDATASIZE PUSH1 0x3 NOT ADD SLT PUSH2 0x324 JUMPI PUSH1 0x4 CALLDATALOAD PUSH1 0x1 PUSH1 0x1 PUSH1 0x40 SHL SUB DUP2 GT PUSH2 0x324 JUMPI PUSH2 0x1C11 SWAP1 CALLDATASIZE SWAP1 PUSH1 0x4 ADD PUSH2 0x3132 JUMP JUMPDEST SWAP1 PUSH1 0x24 CALLDATALOAD PUSH1 0x1 PUSH1 0x1 PUSH1 0x40 SHL SUB DUP2 GT PUSH2 0x324 JUMPI PUSH2 0x1C31 SWAP1 CALLDATASIZE SWAP1 PUSH1 0x4 ADD PUSH2 0x3132 JUMP JUMPDEST SWAP2 SWAP1 SWAP3 CALLER PUSH1 0x0 MSTORE PUSH1 0x1 PUSH1 0x20 MSTORE PUSH1 0xFF PUSH1 0x40 PUSH1 0x0 KECCAK256 SLOAD AND PUSH1 0x3 DUP2 LT ISZERO PUSH2 0x5E4 JUMPI PUSH1 0x2 PUSH2 0x1C5B SWAP2 EQ PUSH2 0x3567 JUMP JUMPDEST DUP3 DUP2 SUB PUSH2 0x1CA5 JUMPI PUSH1 0x0 JUMPDEST DUP2 DUP2 LT PUSH2 0x1C6E JUMPI STOP JUMPDEST PUSH2 0x1C7C PUSH2 0x946 DUP3 DUP5 DUP7 PUSH2 0x35B3 JUMP JUMPDEST SWAP1 PUSH2 0x1C88 DUP2 DUP7 DUP9 PUSH2 0x35B3 JUMP JUMPDEST CALLDATALOAD SWAP2 PUSH1 0x3 DUP4 LT ISZERO PUSH2 0x324 JUMPI PUSH1 0x1 SWAP3 PUSH2 0x1C9F SWAP2 PUSH2 0x3A02 JUMP JUMPDEST ADD PUSH2 0x1C65 JUMP JUMPDEST PUSH1 0x40 MLOAD PUSH3 0x461BCD PUSH1 0xE5 SHL DUP2 MSTORE PUSH1 0x20 PUSH1 0x4 DUP3 ADD MSTORE PUSH1 0x16 PUSH1 0x24 DUP3 ADD MSTORE PUSH22 0x82E4E4C2F2E640D8CADCCEE8D040DAD2E6DAC2E8C6D PUSH1 0x53 SHL PUSH1 0x44 DUP3 ADD MSTORE PUSH1 0x64 SWAP1 REVERT JUMPDEST CALLVALUE PUSH2 0x324 JUMPI PUSH2 0x1CF1 CALLDATASIZE PUSH2 0x34DF JUMP JUMPDEST CALLER PUSH1 0x0 MSTORE PUSH1 0x1 PUSH1 0x20 MSTORE PUSH1 0xFF PUSH1 0x40 PUSH1 0x0 KECCAK256 SLOAD AND SWAP2 PUSH1 0x3 DUP4 LT ISZERO PUSH2 0x5E4 JUMPI PUSH2 0x1D1C PUSH1 0x2 PUSH2 0x1D21 SWAP5 EQ PUSH2 0x3567 JUMP JUMPDEST PUSH2 0x3A02 JUMP JUMPDEST STOP JUMPDEST CALLVALUE PUSH2 0x324 JUMPI PUSH1 0x20 CALLDATASIZE PUSH1 0x3 NOT ADD SLT PUSH2 0x324 JUMPI PUSH1 0x4 CALLDATALOAD PUSH1 0x0 MSTORE PUSH1 0xA PUSH1 0x20 MSTORE PUSH1 0x40 PUSH1 0x0 KECCAK256 DUP1 SLOAD PUSH2 0x1D52 PUSH1 0x1 DUP4 ADD PUSH2 0x3409 JUMP JUMPDEST SWAP2 PUSH1 0xFF PUSH2 0x1D61 PUSH1 0x2 DUP4 ADD PUSH2 0x3409 JUMP JUMPDEST PUSH1 0x4 DUP4 ADD SLOAD SWAP3 PUSH1 0x5 DUP2 ADD SLOAD PUSH2 0x1DA6 PUSH1 0x7 PUSH1 0x6 DUP5 ADD SLOAD SWAP4 ADD SLOAD SWAP4 PUSH2 0x1D98 PUSH1 0x40 MLOAD SWAP10 DUP11 SWAP10 DUP11 MSTORE PUSH2 0x100 PUSH1 0x20 DUP12 ADD MSTORE PUSH2 0x100 DUP11 ADD SWAP1 PUSH2 0x34AD JUMP JUMPDEST SWAP1 DUP9 DUP3 SUB PUSH1 0x40 DUP11 ADD MSTORE PUSH2 0x34AD JUMP JUMPDEST SWAP5 PUSH1 0x60 DUP8 ADD MSTORE PUSH1 0x80 DUP7 ADD MSTORE PUSH1 0xA0 DUP6 ADD MSTORE PUSH2 0x1DC5 PUSH1 0xC0 DUP6 ADD DUP4 DUP4 AND PUSH2 0x34D2 JUMP JUMPDEST PUSH1 0x8 SHR AND ISZERO ISZERO PUSH1 0xE0 DUP4 ADD MSTORE SUB SWAP1 RETURN JUMPDEST CALLVALUE PUSH2 0x324 JUMPI PUSH1 0x0 CALLDATASIZE PUSH1 0x3 NOT ADD SLT PUSH2 0x324 JUMPI PUSH1 0x40 MLOAD PUSH1 0x3 SLOAD DUP1 DUP3 MSTORE PUSH1 0x20 DUP3 ADD SWAP1 PUSH1 0x3 PUSH1 0x0 MSTORE PUSH1 0x20 PUSH1 0x0 KECCAK256 SWAP1 PUSH1 0x0 JUMPDEST DUP2 DUP2 LT PUSH2 0x1E18 JUMPI PUSH2 0x4CE DUP6 PUSH2 0x4C2 DUP2 DUP8 SUB DUP3 PUSH2 0x31C6 JUMP JUMPDEST DUP3 SLOAD PUSH1 0x1 PUSH1 0x1 PUSH1 0xA0 SHL SUB AND DUP5 MSTORE PUSH1 0x20 SWAP1 SWAP4 ADD SWAP3 PUSH1 0x1 SWAP3 DUP4 ADD SWAP3 ADD PUSH2 0x1E01 JUMP JUMPDEST CALLVALUE PUSH2 0x324 JUMPI PUSH1 0x0 CALLDATASIZE PUSH1 0x3 NOT ADD SLT PUSH2 0x324 JUMPI PUSH1 0x20 PUSH1 0x3 SLOAD PUSH1 0x40 MLOAD SWAP1 DUP2 MSTORE RETURN JUMPDEST CALLVALUE PUSH2 0x324 JUMPI PUSH1 0x20 CALLDATASIZE PUSH1 0x3 NOT ADD SLT PUSH2 0x324 JUMPI PUSH1 0x4 CALLDATALOAD CALLER PUSH1 0x0 MSTORE PUSH1 0x1 PUSH1 0x20 MSTORE PUSH1 0xFF PUSH1 0x40 PUSH1 0x0 KECCAK256 SLOAD AND PUSH1 0x3 DUP2 LT ISZERO PUSH2 0x5E4 JUMPI PUSH32 0xF0C30B033A2B46EF251F9C587CED38E24C05AA0FFE36C196A426C6A7BD6B61EA SWAP2 PUSH2 0x1EB4 PUSH1 0x2 PUSH1 0x20 SWAP4 EQ PUSH2 0x3567 JUMP JUMPDEST DUP1 PUSH1 0x13 SSTORE PUSH1 0x40 MLOAD SWAP1 DUP2 MSTORE LOG1 STOP JUMPDEST CALLVALUE PUSH2 0x324 JUMPI PUSH1 0x20 CALLDATASIZE PUSH1 0x3 NOT ADD SLT PUSH2 0x324 JUMPI PUSH1 0x1 PUSH1 0x1 PUSH1 0xA0 SHL SUB PUSH2 0x1EE2 PUSH2 0x32B8 JUMP JUMPDEST AND PUSH1 0x0 MSTORE PUSH1 0x7 PUSH1 0x20 MSTORE PUSH1 0x20 PUSH1 0x40 PUSH1 0x0 KECCAK256 SLOAD PUSH1 0x40 MLOAD SWAP1 DUP2 MSTORE RETURN JUMPDEST CALLVALUE PUSH2 0x324 JUMPI PUSH1 0x40 CALLDATASIZE PUSH1 0x3 NOT ADD SLT PUSH2 0x324 JUMPI PUSH2 0x1F14 PUSH2 0x32CE JUMP JUMPDEST PUSH1 0x4 CALLDATALOAD PUSH1 0x0 MSTORE PUSH1 0xF PUSH1 0x20 MSTORE PUSH1 0x40 PUSH1 0x0 KECCAK256 SWAP1 PUSH1 0x1 DUP1 PUSH1 0xA0 SHL SUB AND PUSH1 0x0 MSTORE PUSH1 0x20 MSTORE PUSH1 0x20 PUSH1 0xFF PUSH1 0x40 PUSH1 0x0 KECCAK256 SLOAD AND PUSH1 0x40 MLOAD SWAP1 ISZERO ISZERO DUP2 MSTORE RETURN JUMPDEST CALLVALUE PUSH2 0x324 JUMPI PUSH1 0x80 CALLDATASIZE PUSH1 0x3 NOT ADD SLT PUSH2 0x324 JUMPI PUSH1 0x4 CALLDATALOAD PUSH1 0x24 CALLDATALOAD PUSH1 0x1 PUSH1 0x1 PUSH1 0x40 SHL SUB DUP2 GT PUSH2 0x324 JUMPI PUSH2 0x1F7B SWAP1 CALLDATASIZE SWAP1 PUSH1 0x4 ADD PUSH2 0x31E7 JUMP JUMPDEST DUP2 PUSH1 0x0 MSTORE PUSH1 0xA PUSH1 0x20 MSTORE PUSH1 0x40 PUSH1 0x0 KECCAK256 PUSH2 0x1F95 DUP2 SLOAD ISZERO ISZERO PUSH2 0x3623 JUMP JUMPDEST PUSH1 0xFF PUSH1 0x7 DUP3 ADD SLOAD AND PUSH1 0x5 DUP2 LT ISZERO PUSH2 0x5E4 JUMPI PUSH1 0x3 PUSH2 0x1FB3 SWAP2 EQ ISZERO PUSH2 0x366F JUMP JUMPDEST PUSH1 0x4 DUP2 ADD SLOAD TIMESTAMP LT ISZERO DUP1 PUSH2 0x21EA JUMPI JUMPDEST ISZERO PUSH2 0x21AE JUMPI PUSH1 0x0 DUP4 DUP2 MSTORE PUSH1 0xB PUSH1 0x20 SWAP1 DUP2 MSTORE PUSH1 0x40 DUP1 DUP4 KECCAK256 CALLER DUP5 MSTORE SWAP1 SWAP2 MSTORE SWAP1 KECCAK256 SLOAD PUSH1 0xFF AND ISZERO PUSH2 0x2172 JUMPI PUSH1 0x0 DUP4 DUP2 MSTORE PUSH1 0xC PUSH1 0x20 SWAP1 DUP2 MSTORE PUSH1 0x40 DUP1 DUP4 KECCAK256 CALLER DUP5 MSTORE SWAP1 SWAP2 MSTORE SWAP1 KECCAK256 SLOAD PUSH1 0xFF AND PUSH2 0x213D JUMPI PUSH2 0x2018 PUSH1 0xA PUSH1 0xFF SWAP3 ADD DUP4 PUSH2 0x3292 JUMP JUMPDEST SLOAD AND ISZERO PUSH2 0x2104 JUMPI DUP2 PUSH1 0x0 MSTORE PUSH1 0xD PUSH1 0x20 MSTORE PUSH2 0x2036 PUSH1 0x40 PUSH1 0x0 KECCAK256 DUP3 PUSH2 0x3292 JUMP JUMPDEST PUSH2 0x2040 DUP2 SLOAD PUSH2 0x39A7 JUMP JUMPDEST SWAP1 SSTORE PUSH1 0x0 DUP3 DUP2 MSTORE PUSH1 0xC PUSH1 0x20 SWAP1 DUP2 MSTORE PUSH1 0x40 DUP1 DUP4 KECCAK256 CALLER DUP5 MSTORE SWAP1 SWAP2 MSTORE SWAP1 KECCAK256 DUP1 SLOAD PUSH1 0xFF NOT AND PUSH1 0x1 OR SWAP1 SSTORE NUMBER PUSH1 0x0 NOT DUP2 ADD SWAP1 DUP2 GT PUSH2 0x8BE JUMPI PUSH32 0x5AE5AF2D5611B1C3F6BE5D5BF7673732D331E1418B5B6F8CDC893D1C9AA458F SWAP2 PUSH2 0x20F9 SWAP2 PUSH1 0x40 MLOAD PUSH2 0x20B8 DUP2 PUSH2 0x1ADD PUSH1 0x20 DUP3 ADD SWAP5 BLOCKHASH PUSH1 0x64 CALLDATALOAD PUSH1 0x44 CALLDATALOAD DUP9 CALLER DUP14 DUP11 PUSH2 0x39B6 JUMP JUMPDEST MLOAD SWAP1 KECCAK256 DUP5 PUSH1 0x0 MSTORE PUSH1 0xE PUSH1 0x20 MSTORE PUSH1 0x40 PUSH1 0x0 KECCAK256 PUSH1 0x1 DUP1 PUSH1 0xA0 SHL SUB CALLER AND PUSH1 0x0 MSTORE PUSH1 0x20 MSTORE DUP1 PUSH1 0x40 PUSH1 0x0 KECCAK256 SSTORE PUSH1 0x40 MLOAD SWAP3 DUP4 SWAP3 CALLER DUP5 MSTORE PUSH1 0x60 PUSH1 0x20 DUP6 ADD MSTORE PUSH1 0x60 DUP5 ADD SWAP1 PUSH2 0x34AD JUMP JUMPDEST SWAP1 PUSH1 0x40 DUP4 ADD MSTORE SUB SWAP1 LOG2 STOP JUMPDEST PUSH1 0x40 MLOAD PUSH3 0x461BCD PUSH1 0xE5 SHL DUP2 MSTORE PUSH1 0x20 PUSH1 0x4 DUP3 ADD MSTORE PUSH1 0x11 PUSH1 0x24 DUP3 ADD MSTORE PUSH17 0x496E76616C69642063616E646964617465 PUSH1 0x78 SHL PUSH1 0x44 DUP3 ADD MSTORE PUSH1 0x64 SWAP1 REVERT JUMPDEST PUSH1 0x40 MLOAD PUSH3 0x461BCD PUSH1 0xE5 SHL DUP2 MSTORE PUSH1 0x20 PUSH1 0x4 DUP3 ADD MSTORE PUSH1 0xD PUSH1 0x24 DUP3 ADD MSTORE PUSH13 0x105B1C9958591E481D9BDD1959 PUSH1 0x9A SHL PUSH1 0x44 DUP3 ADD MSTORE PUSH1 0x64 SWAP1 REVERT JUMPDEST PUSH1 0x40 MLOAD PUSH3 0x461BCD PUSH1 0xE5 SHL DUP2 MSTORE PUSH1 0x20 PUSH1 0x4 DUP3 ADD MSTORE PUSH1 0x14 PUSH1 0x24 DUP3 ADD MSTORE PUSH20 0x159BDD195C881B9BDD081C9959DA5CDD195C9959 PUSH1 0x62 SHL PUSH1 0x44 DUP3 ADD MSTORE PUSH1 0x64 SWAP1 REVERT JUMPDEST PUSH1 0x40 MLOAD PUSH3 0x461BCD PUSH1 0xE5 SHL DUP2 MSTORE PUSH1 0x20 PUSH1 0x4 DUP3 ADD MSTORE PUSH1 0x14 PUSH1 0x24 DUP3 ADD MSTORE PUSH20 0x139BDD081A5B881D9BDD1A5B99C81C195C9A5BD9 PUSH1 0x62 SHL PUSH1 0x44 DUP3 ADD MSTORE PUSH1 0x64 SWAP1 REVERT JUMPDEST POP PUSH1 0x5 DUP2 ADD SLOAD TIMESTAMP GT ISZERO PUSH2 0x1FC1 JUMP JUMPDEST CALLVALUE PUSH2 0x324 JUMPI PUSH1 0x0 CALLDATASIZE PUSH1 0x3 NOT ADD SLT PUSH2 0x324 JUMPI PUSH1 0x40 MLOAD PUSH1 0x2 SLOAD DUP1 DUP3 MSTORE PUSH1 0x20 DUP3 ADD SWAP1 PUSH1 0x2 PUSH1 0x0 MSTORE PUSH1 0x20 PUSH1 0x0 KECCAK256 SWAP1 PUSH1 0x0 JUMPDEST DUP2 DUP2 LT PUSH2 0x223C JUMPI PUSH2 0x4CE DUP6 PUSH2 0x4C2 DUP2 DUP8 SUB DUP3 PUSH2 0x31C6 JUMP JUMPDEST DUP3 SLOAD PUSH1 0x1 PUSH1 0x1 PUSH1 0xA0 SHL SUB AND DUP5 MSTORE PUSH1 0x20 SWAP1 SWAP4 ADD SWAP3 PUSH1 0x1 SWAP3 DUP4 ADD SWAP3 ADD PUSH2 0x2225 JUMP JUMPDEST CALLVALUE PUSH2 0x324 JUMPI PUSH1 0xC0 CALLDATASIZE PUSH1 0x3 NOT ADD SLT PUSH2 0x324 JUMPI PUSH1 0x4 CALLDATALOAD PUSH1 0x24 CALLDATALOAD PUSH1 0x1 PUSH1 0x1 PUSH1 0x40 SHL SUB DUP2 GT PUSH2 0x324 JUMPI PUSH2 0x228E SWAP1 CALLDATASIZE SWAP1 PUSH1 0x4 ADD PUSH2 0x31E7 JUMP JUMPDEST SWAP1 PUSH1 0x44 CALLDATALOAD PUSH1 0x1 PUSH1 0x1 PUSH1 0x40 SHL SUB DUP2 GT PUSH2 0x324 JUMPI PUSH2 0x22AE SWAP1 CALLDATASIZE SWAP1 PUSH1 0x4 ADD PUSH2 0x31E7 JUMP JUMPDEST PUSH1 0x64 CALLDATALOAD PUSH1 0x1 PUSH1 0x1 PUSH1 0x40 SHL SUB DUP2 GT PUSH2 0x324 JUMPI PUSH2 0x22CD SWAP1 CALLDATASIZE SWAP1 PUSH1 0x4 ADD PUSH2 0x32FB JUMP JUMPDEST SWAP2 PUSH1 0x84 CALLDATALOAD SWAP3 PUSH1 0xA4 CALLDATALOAD SWAP2 CALLER PUSH1 0x0 MSTORE PUSH1 0x1 PUSH1 0x20 MSTORE PUSH1 0xFF PUSH1 0x40 PUSH1 0x0 KECCAK256 SLOAD AND PUSH1 0x3 DUP2 LT ISZERO PUSH2 0x5E4 JUMPI PUSH1 0x2 PUSH2 0x22FD SWAP2 EQ PUSH2 0x3567 JUMP JUMPDEST DUP1 PUSH1 0x0 MSTORE PUSH1 0xA PUSH1 0x20 MSTORE PUSH1 0x40 PUSH1 0x0 KECCAK256 SWAP4 PUSH2 0x2318 DUP6 SLOAD ISZERO ISZERO PUSH2 0x3623 JUMP JUMPDEST PUSH1 0x4 DUP6 ADD DUP1 SLOAD TIMESTAMP LT ISZERO PUSH2 0x2817 JUMPI PUSH2 0x2330 DUP6 DUP9 LT PUSH2 0x37BD JUMP JUMPDEST DUP7 TIMESTAMP LT ISZERO PUSH2 0x27C6 JUMPI PUSH2 0x2346 PUSH1 0x2 DUP6 MLOAD LT ISZERO PUSH2 0x37F9 JUMP JUMPDEST PUSH1 0x1 DUP7 ADD DUP9 MLOAD PUSH1 0x1 PUSH1 0x1 PUSH1 0x40 SHL SUB DUP2 GT PUSH2 0x110F JUMPI PUSH2 0x2364 DUP3 SLOAD PUSH2 0x33CF JUMP JUMPDEST PUSH1 0x1F DUP2 GT PUSH2 0x2794 JUMPI JUMPDEST POP PUSH1 0x20 PUSH1 0x1F DUP3 GT PUSH1 0x1 EQ PUSH2 0x272E JUMPI SWAP1 DUP1 PUSH2 0x239C SWAP3 PUSH1 0x0 SWAP2 PUSH2 0x2723 JUMPI POP DUP2 PUSH1 0x1 SHL SWAP2 PUSH1 0x0 NOT SWAP1 PUSH1 0x3 SHL SHR NOT AND OR SWAP1 JUMP JUMPDEST SWAP1 SSTORE JUMPDEST PUSH1 0x2 DUP7 ADD DUP3 MLOAD PUSH1 0x1 PUSH1 0x1 PUSH1 0x40 SHL SUB DUP2 GT PUSH2 0x110F JUMPI DUP9 SWAP4 PUSH2 0x23BF DUP4 SLOAD PUSH2 0x33CF JUMP JUMPDEST PUSH1 0x1F DUP2 GT PUSH2 0x26F1 JUMPI JUMPDEST POP PUSH1 0x20 SWAP1 PUSH1 0x1F DUP4 GT PUSH1 0x1 EQ PUSH2 0x2680 JUMPI PUSH2 0x23F9 SWAP3 SWAP2 PUSH1 0x0 SWAP2 DUP4 PUSH2 0x2675 JUMPI POP POP DUP2 PUSH1 0x1 SHL SWAP2 PUSH1 0x0 NOT SWAP1 PUSH1 0x3 SHL SHR NOT AND OR SWAP1 JUMP JUMPDEST SWAP1 SSTORE SWAP7 SWAP6 SWAP7 JUMPDEST SSTORE DUP3 PUSH1 0x5 DUP6 ADD SSTORE PUSH1 0x0 SWAP6 PUSH1 0xA PUSH1 0x3 DUP7 ADD SWAP6 ADD SWAP7 JUMPDEST DUP6 SLOAD DUP2 LT ISZERO PUSH2 0x243B JUMPI DUP1 PUSH2 0x242D DUP10 PUSH2 0x43E PUSH1 0x1 SWAP5 DUP11 PUSH2 0x31AE JUMP JUMPDEST DUP1 SLOAD PUSH1 0xFF NOT AND SWAP1 SSTORE ADD PUSH2 0x2413 JUMP JUMPDEST POP DUP6 DUP8 SWAP6 DUP5 MLOAD PUSH1 0x1 PUSH1 0x40 SHL DUP2 GT PUSH2 0x110F JUMPI DUP2 SLOAD DUP2 DUP4 SSTORE DUP1 DUP3 LT PUSH2 0x25F7 JUMPI JUMPDEST POP PUSH1 0x20 DUP7 ADD SWAP2 PUSH1 0x0 MSTORE PUSH1 0x20 PUSH1 0x0 KECCAK256 SWAP2 PUSH1 0x0 SWAP1 JUMPDEST DUP3 DUP3 LT PUSH2 0x24EA JUMPI POP POP POP POP PUSH1 0x0 JUMPDEST DUP5 MLOAD DUP2 LT ISZERO PUSH2 0x24B1 JUMPI DUP1 PUSH2 0x2493 PUSH2 0xF4D PUSH1 0x1 SWAP4 DUP9 PUSH2 0x376E JUMP JUMPDEST PUSH2 0x24A1 DUP9 PUSH2 0xF64 DUP4 DUP10 PUSH2 0x376E JUMP JUMPDEST DUP1 SLOAD PUSH1 0xFF NOT AND DUP4 OR SWAP1 SSTORE ADD PUSH2 0x247A JUMP JUMPDEST POP SWAP1 PUSH32 0x1776E5BB56F2F683AAD361E08C5B3DBECD5E34E3D0FE6BC1D7F5C001C5F49D3 SWAP2 PUSH2 0x24E5 DUP7 PUSH1 0x40 MLOAD SWAP4 DUP5 SWAP4 DUP5 PUSH2 0x3931 JUMP JUMPDEST SUB SWAP1 LOG2 STOP JUMPDEST DUP1 MLOAD DUP1 MLOAD SWAP1 PUSH1 0x1 PUSH1 0x1 PUSH1 0x40 SHL SUB DUP3 GT PUSH2 0x110F JUMPI PUSH2 0x2507 DUP7 SLOAD PUSH2 0x33CF JUMP JUMPDEST PUSH1 0x1F DUP2 GT PUSH2 0x25C5 JUMPI JUMPDEST POP PUSH1 0x20 SWAP1 PUSH1 0x1F DUP4 GT PUSH1 0x1 EQ PUSH2 0x2558 JUMPI SWAP3 PUSH2 0x2549 DUP4 PUSH1 0x1 SWAP6 SWAP5 PUSH1 0x20 SWAP5 DUP8 SWAP7 PUSH1 0x0 SWAP3 PUSH2 0x105A JUMPI POP POP DUP2 PUSH1 0x1 SHL SWAP2 PUSH1 0x0 NOT SWAP1 PUSH1 0x3 SHL SHR NOT AND OR SWAP1 JUMP JUMPDEST DUP8 SSTORE JUMPDEST ADD SWAP5 ADD SWAP2 ADD SWAP1 SWAP3 PUSH2 0x246C JUMP JUMPDEST SWAP1 PUSH1 0x1F NOT DUP4 AND SWAP2 DUP8 PUSH1 0x0 MSTORE DUP2 PUSH1 0x0 KECCAK256 SWAP3 PUSH1 0x0 JUMPDEST DUP2 DUP2 LT PUSH2 0x25AD JUMPI POP SWAP4 PUSH1 0x20 SWAP4 PUSH1 0x1 SWAP7 SWAP4 DUP8 SWAP7 SWAP4 DUP4 DUP9 SWAP6 LT PUSH2 0x2594 JUMPI JUMPDEST POP POP POP DUP2 SHL ADD DUP8 SSTORE PUSH2 0x254C JUMP JUMPDEST ADD MLOAD PUSH1 0x0 NOT PUSH1 0xF8 DUP5 PUSH1 0x3 SHL AND SHR NOT AND SWAP1 SSTORE DUP16 DUP1 DUP1 PUSH2 0x2587 JUMP JUMPDEST SWAP3 SWAP4 PUSH1 0x20 PUSH1 0x1 DUP2 SWAP3 DUP8 DUP7 ADD MLOAD DUP2 SSTORE ADD SWAP6 ADD SWAP4 ADD PUSH2 0x256B JUMP JUMPDEST PUSH2 0x25F1 SWAP1 DUP8 PUSH1 0x0 MSTORE PUSH1 0x20 PUSH1 0x0 KECCAK256 PUSH1 0x1F DUP6 ADD PUSH1 0x5 SHR DUP2 ADD SWAP2 PUSH1 0x20 DUP7 LT PUSH2 0x1105 JUMPI PUSH1 0x1F ADD PUSH1 0x5 SHR ADD SWAP1 PUSH2 0x3845 JUMP JUMPDEST DUP13 PUSH2 0x2510 JUMP JUMPDEST DUP3 PUSH1 0x0 MSTORE DUP2 PUSH1 0x20 PUSH1 0x0 KECCAK256 SWAP2 DUP3 ADD SWAP2 ADD JUMPDEST DUP2 DUP2 LT PUSH2 0x2614 JUMPI POP PUSH2 0x2459 JUMP JUMPDEST DUP1 PUSH2 0x2621 PUSH1 0x1 SWAP3 SLOAD PUSH2 0x33CF JUMP JUMPDEST DUP1 PUSH2 0x262E JUMPI JUMPDEST POP ADD PUSH2 0x2607 JUMP JUMPDEST PUSH1 0x1F DUP2 GT DUP4 EQ PUSH2 0x2644 JUMPI POP PUSH1 0x0 DUP2 SSTORE JUMPDEST DUP12 PUSH2 0x2627 JUMP JUMPDEST PUSH2 0x2662 SWAP1 DUP3 PUSH1 0x0 MSTORE DUP4 PUSH1 0x1F PUSH1 0x20 PUSH1 0x0 KECCAK256 SWAP3 ADD PUSH1 0x5 SHR DUP3 ADD SWAP2 ADD PUSH2 0x3845 JUMP JUMPDEST DUP1 PUSH1 0x0 MSTORE PUSH1 0x0 PUSH1 0x20 DUP2 KECCAK256 DUP2 DUP4 SSTORE SSTORE PUSH2 0x263E JUMP JUMPDEST ADD MLOAD SWAP1 POP DUP13 DUP1 PUSH2 0xEB2 JUMP JUMPDEST PUSH1 0x1F SWAP6 SWAP5 SWAP4 SWAP3 SWAP2 SWAP6 NOT DUP3 AND SWAP6 DUP4 PUSH1 0x0 MSTORE DUP1 PUSH1 0x0 KECCAK256 SWAP2 PUSH1 0x0 JUMPDEST DUP9 DUP2 LT PUSH2 0x26D6 JUMPI POP DUP4 PUSH1 0x1 SWAP6 SWAP7 SWAP8 SWAP9 LT PUSH2 0x26BD JUMPI JUMPDEST POP POP POP DUP2 SHL ADD SWAP1 SSTORE SWAP7 SWAP6 SWAP7 PUSH2 0x23FF JUMP JUMPDEST ADD MLOAD PUSH1 0x0 NOT PUSH1 0xF8 DUP5 PUSH1 0x3 SHL AND SHR NOT AND SWAP1 SSTORE DUP12 DUP1 DUP1 PUSH2 0x26AD JUMP JUMPDEST DUP2 DUP4 ADD MLOAD DUP5 SSTORE DUP14 SWAP8 POP PUSH1 0x1 SWAP1 SWAP4 ADD SWAP3 PUSH1 0x20 SWAP3 DUP4 ADD SWAP3 ADD PUSH2 0x2698 JUMP JUMPDEST PUSH2 0x271D SWAP1 DUP5 PUSH1 0x0 MSTORE PUSH1 0x20 PUSH1 0x0 KECCAK256 PUSH1 0x1F DUP6 ADD PUSH1 0x5 SHR DUP2 ADD SWAP2 PUSH1 0x20 DUP7 LT PUSH2 0x1105 JUMPI PUSH1 0x1F ADD PUSH1 0x5 SHR ADD SWAP1 PUSH2 0x3845 JUMP JUMPDEST DUP12 PUSH2 0x23C8 JUMP JUMPDEST SWAP1 POP DUP12 ADD MLOAD DUP13 PUSH2 0xE56 JUMP JUMPDEST PUSH1 0x1F NOT DUP3 AND SWAP1 DUP4 PUSH1 0x0 MSTORE DUP1 PUSH1 0x0 KECCAK256 SWAP2 PUSH1 0x0 JUMPDEST DUP14 DUP3 DUP3 LT PUSH2 0x277C JUMPI POP POP SWAP1 DUP4 PUSH1 0x1 SWAP5 SWAP4 SWAP3 LT PUSH2 0x2763 JUMPI JUMPDEST POP POP DUP2 SHL ADD SWAP1 SSTORE PUSH2 0x239F JUMP JUMPDEST DUP13 ADD MLOAD PUSH1 0x0 NOT PUSH1 0xF8 DUP5 PUSH1 0x3 SHL AND SHR NOT AND SWAP1 SSTORE DUP12 DUP1 PUSH2 0x2757 JUMP JUMPDEST PUSH1 0x1 DUP5 SWAP6 PUSH1 0x20 SWAP4 SWAP6 DUP5 SWAP4 ADD MLOAD DUP2 SSTORE ADD SWAP5 ADD SWAP3 ADD PUSH2 0x2740 JUMP JUMPDEST PUSH2 0x27C0 SWAP1 DUP4 PUSH1 0x0 MSTORE PUSH1 0x20 PUSH1 0x0 KECCAK256 PUSH1 0x1F DUP5 ADD PUSH1 0x5 SHR DUP2 ADD SWAP2 PUSH1 0x20 DUP6 LT PUSH2 0x1105 JUMPI PUSH1 0x1F ADD PUSH1 0x5 SHR ADD SWAP1 PUSH2 0x3845 JUMP JUMPDEST DUP11 PUSH2 0x236D JUMP JUMPDEST PUSH1 0x40 MLOAD PUSH3 0x461BCD PUSH1 0xE5 SHL DUP2 MSTORE PUSH1 0x20 PUSH1 0x4 DUP3 ADD MSTORE PUSH1 0x24 DUP1 DUP3 ADD MSTORE PUSH32 0x4E65772073746172742064617465206D75737420626520696E20746865206675 PUSH1 0x44 DUP3 ADD MSTORE PUSH4 0x74757265 PUSH1 0xE0 SHL PUSH1 0x64 DUP3 ADD MSTORE PUSH1 0x84 SWAP1 REVERT JUMPDEST PUSH1 0x40 MLOAD PUSH3 0x461BCD PUSH1 0xE5 SHL DUP2 MSTORE PUSH1 0x20 PUSH1 0x4 DUP3 ADD MSTORE PUSH1 0x30 PUSH1 0x24 DUP3 ADD MSTORE PUSH32 0x43616E6E6F74206564697420616E20656C656374696F6E207468617420686173 PUSH1 0x44 DUP3 ADD MSTORE PUSH16 0x8185B1C9958591E481CDD185C9D1959 PUSH1 0x82 SHL PUSH1 0x64 DUP3 ADD MSTORE PUSH1 0x84 SWAP1 REVERT JUMPDEST CALLVALUE PUSH2 0x324 JUMPI PUSH1 0x20 CALLDATASIZE PUSH1 0x3 NOT ADD SLT PUSH2 0x324 JUMPI PUSH1 0x4 CALLDATALOAD PUSH1 0x3 SLOAD DUP2 LT ISZERO PUSH2 0x324 JUMPI PUSH2 0x625 PUSH1 0x20 SWAP2 PUSH2 0x3193 JUMP JUMPDEST CALLVALUE PUSH2 0x324 JUMPI PUSH1 0x20 CALLDATASIZE PUSH1 0x3 NOT ADD SLT PUSH2 0x324 JUMPI PUSH2 0x28B7 PUSH2 0x32B8 JUMP JUMPDEST CALLER PUSH1 0x0 MSTORE PUSH1 0x1 PUSH1 0x20 MSTORE PUSH1 0xFF PUSH1 0x40 PUSH1 0x0 KECCAK256 SLOAD AND PUSH1 0x3 DUP2 LT ISZERO PUSH2 0x5E4 JUMPI PUSH1 0x2 PUSH2 0x28DE SWAP2 EQ PUSH2 0x3567 JUMP JUMPDEST PUSH1 0x1 PUSH1 0x1 PUSH1 0xA0 SHL SUB DUP2 AND PUSH1 0x0 DUP2 DUP2 MSTORE PUSH1 0x1 PUSH1 0x20 MSTORE PUSH1 0x40 SWAP1 KECCAK256 SLOAD SWAP1 SWAP2 SWAP1 PUSH1 0xFF AND PUSH1 0x3 DUP2 LT ISZERO PUSH2 0x5E4 JUMPI PUSH1 0x2 PUSH2 0x2912 SWAP2 EQ PUSH2 0x3782 JUMP JUMPDEST PUSH1 0x0 SLOAD PUSH2 0x292A SWAP1 PUSH1 0x1 PUSH1 0x1 PUSH1 0xA0 SHL SUB AND DUP4 EQ ISZERO PUSH2 0x35D7 JUMP JUMPDEST PUSH2 0x2933 DUP2 PUSH2 0x3DF1 JUMP JUMPDEST PUSH2 0x2997 JUMPI PUSH2 0x2956 SWAP1 DUP3 PUSH1 0x0 MSTORE PUSH1 0x1 PUSH1 0x20 MSTORE PUSH1 0x40 PUSH1 0x0 KECCAK256 PUSH1 0xFF NOT DUP2 SLOAD AND SWAP1 SSTORE PUSH2 0x3E72 JUMP JUMPDEST PUSH1 0x0 DUP1 MLOAD PUSH1 0x20 PUSH2 0x414E DUP4 CODECOPY DUP2 MLOAD SWAP2 MSTORE PUSH1 0x20 PUSH1 0x40 MLOAD DUP4 PUSH32 0xA3B62BC36326052D97EA62D63C3D60308ED4C3EA8AC079DD8499F1E9C4F80C0F PUSH1 0x0 DUP1 LOG2 PUSH1 0x0 DUP2 MSTORE LOG2 STOP JUMPDEST PUSH1 0x40 MLOAD PUSH3 0x461BCD PUSH1 0xE5 SHL DUP2 MSTORE PUSH1 0x20 PUSH1 0x4 DUP3 ADD MSTORE PUSH1 0x1D PUSH1 0x24 DUP3 ADD MSTORE PUSH32 0x43616E6E6F742072656D6F76652068617264636F6465642061646D696E000000 PUSH1 0x44 DUP3 ADD MSTORE PUSH1 0x64 SWAP1 REVERT JUMPDEST CALLVALUE PUSH2 0x324 JUMPI PUSH1 0x20 CALLDATASIZE PUSH1 0x3 NOT ADD SLT PUSH2 0x324 JUMPI PUSH1 0x4 CALLDATALOAD CALLER PUSH1 0x0 MSTORE PUSH1 0x1 PUSH1 0x20 MSTORE PUSH1 0xFF PUSH1 0x40 PUSH1 0x0 KECCAK256 SLOAD AND PUSH1 0x3 DUP2 LT ISZERO PUSH2 0x5E4 JUMPI PUSH1 0x2 PUSH2 0x2A17 SWAP2 EQ PUSH2 0x3567 JUMP JUMPDEST DUP1 PUSH1 0x0 MSTORE PUSH1 0xA PUSH1 0x20 MSTORE PUSH1 0x40 PUSH1 0x0 KECCAK256 SWAP1 PUSH2 0x2A32 DUP3 SLOAD ISZERO ISZERO PUSH2 0x3623 JUMP JUMPDEST PUSH1 0x5 DUP3 ADD SLOAD TIMESTAMP GT ISZERO PUSH2 0x2C6C JUMPI PUSH1 0x7 DUP3 ADD SWAP2 DUP3 SLOAD PUSH1 0xFF DUP2 PUSH1 0x8 SHR AND PUSH2 0x2C27 JUMPI PUSH1 0xFF AND SWAP3 PUSH1 0x5 DUP5 LT ISZERO PUSH2 0x5E4 JUMPI PUSH1 0x3 DUP5 EQ PUSH2 0x2BD6 JUMPI PUSH2 0x2A8A SWAP2 PUSH1 0x3 SWAP2 PUSH1 0x2 PUSH1 0x0 SWAP7 SUB PUSH2 0x2B9A JUMPI JUMPDEST DUP1 SLOAD PUSH2 0xFFFF NOT AND PUSH2 0x104 OR SWAP1 SSTORE ADD PUSH2 0x3716 JUMP JUMPDEST DUP1 MLOAD SWAP1 PUSH2 0x2AAF PUSH2 0x2A99 DUP4 PUSH2 0x32E4 JUMP JUMPDEST SWAP3 PUSH2 0x2AA7 PUSH1 0x40 MLOAD SWAP5 DUP6 PUSH2 0x31C6 JUMP JUMPDEST DUP1 DUP5 MSTORE PUSH2 0x32E4 JUMP JUMPDEST PUSH1 0x20 DUP4 ADD SWAP4 SWAP1 PUSH1 0x1F NOT ADD CALLDATASIZE DUP6 CALLDATACOPY DUP5 JUMPDEST DUP3 MLOAD DUP2 LT ISZERO PUSH2 0x2AF5 JUMPI PUSH1 0x1 SWAP1 DUP3 DUP8 MSTORE PUSH1 0xD PUSH1 0x20 MSTORE PUSH2 0x2AE3 PUSH1 0x40 DUP9 KECCAK256 PUSH2 0xF64 DUP4 DUP8 PUSH2 0x376E JUMP JUMPDEST SLOAD PUSH2 0x2AEE DUP3 DUP8 PUSH2 0x376E JUMP JUMPDEST MSTORE ADD PUSH2 0x2ABE JUMP JUMPDEST POP SWAP3 DUP4 SWAP3 PUSH1 0x20 PUSH2 0x2B10 PUSH1 0x40 MLOAD SWAP5 PUSH1 0x40 DUP7 MSTORE PUSH1 0x40 DUP7 ADD SWAP1 PUSH2 0x350E JUMP JUMPDEST SWAP2 DUP5 DUP4 SUB DUP3 DUP7 ADD MSTORE MLOAD SWAP2 DUP3 DUP2 MSTORE ADD SWAP2 SWAP1 DUP7 JUMPDEST DUP2 DUP2 LT PUSH2 0x2B81 JUMPI POP POP POP SWAP1 DUP1 PUSH32 0xB7D23392EDC644174E5ADCB55C16E661D669333E04BEF69EEBE8609806531AA6 SWAP3 SUB SWAP1 LOG2 PUSH32 0xFC109E0CB0828EC465B9741A17F547DF3009F4E626AF452175FBDBF0B1B50FEF PUSH1 0x20 PUSH1 0x40 MLOAD PUSH1 0x4 DUP2 MSTORE LOG2 DUP1 RETURN JUMPDEST DUP3 MLOAD DUP5 MSTORE DUP7 SWAP6 POP PUSH1 0x20 SWAP4 DUP5 ADD SWAP4 SWAP1 SWAP3 ADD SWAP2 PUSH1 0x1 ADD PUSH2 0x2B22 JUMP JUMPDEST PUSH1 0x2 PUSH1 0xFF NOT DUP3 SLOAD AND OR DUP2 SSTORE DUP5 PUSH32 0xFC109E0CB0828EC465B9741A17F547DF3009F4E626AF452175FBDBF0B1B50FEF PUSH1 0x20 PUSH1 0x40 MLOAD PUSH1 0x2 DUP2 MSTORE LOG2 PUSH2 0x2A77 JUMP JUMPDEST PUSH1 0x40 MLOAD PUSH3 0x461BCD PUSH1 0xE5 SHL DUP2 MSTORE PUSH1 0x20 PUSH1 0x4 DUP3 ADD MSTORE PUSH1 0x23 PUSH1 0x24 DUP3 ADD MSTORE PUSH32 0x43616E6E6F742066696E616C697A6520612063616E63656C656420656C656374 PUSH1 0x44 DUP3 ADD MSTORE PUSH3 0x34B7B7 PUSH1 0xE9 SHL PUSH1 0x64 DUP3 ADD MSTORE PUSH1 0x84 SWAP1 REVERT JUMPDEST PUSH1 0x40 MLOAD PUSH3 0x461BCD PUSH1 0xE5 SHL DUP2 MSTORE PUSH1 0x20 PUSH1 0x4 DUP3 ADD MSTORE PUSH1 0x1A PUSH1 0x24 DUP3 ADD MSTORE PUSH32 0x456C656374696F6E20616C72656164792066696E616C697A6564000000000000 PUSH1 0x44 DUP3 ADD MSTORE PUSH1 0x64 SWAP1 REVERT JUMPDEST PUSH1 0x40 MLOAD PUSH3 0x461BCD PUSH1 0xE5 SHL DUP2 MSTORE PUSH1 0x20 PUSH1 0x4 DUP3 ADD MSTORE PUSH1 0x1A PUSH1 0x24 DUP3 ADD MSTORE PUSH32 0x456C656374696F6E20686173206E6F7420656E64656420796574000000000000 PUSH1 0x44 DUP3 ADD MSTORE PUSH1 0x64 SWAP1 REVERT JUMPDEST CALLVALUE PUSH2 0x324 JUMPI PUSH1 0x20 CALLDATASIZE PUSH1 0x3 NOT ADD SLT PUSH2 0x324 JUMPI PUSH1 0x4 CALLDATALOAD PUSH1 0x2 SLOAD DUP2 LT ISZERO PUSH2 0x324 JUMPI PUSH2 0x625 PUSH1 0x20 SWAP2 PUSH2 0x3162 JUMP JUMPDEST CALLVALUE PUSH2 0x324 JUMPI PUSH1 0x40 CALLDATASIZE PUSH1 0x3 NOT ADD SLT PUSH2 0x324 JUMPI PUSH1 0x4 CALLDATALOAD PUSH1 0x24 CALLDATALOAD PUSH1 0x1 PUSH1 0x1 PUSH1 0x40 SHL SUB DUP2 GT PUSH2 0x324 JUMPI PUSH2 0x2D0D SWAP1 CALLDATASIZE SWAP1 PUSH1 0x4 ADD PUSH2 0x3132 JUMP JUMPDEST SWAP1 DUP3 PUSH1 0x0 MSTORE PUSH1 0xA PUSH1 0x20 MSTORE PUSH1 0x40 PUSH1 0x0 KECCAK256 SWAP2 PUSH2 0x2D29 DUP4 SLOAD ISZERO ISZERO PUSH2 0x3623 JUMP JUMPDEST PUSH1 0xFF PUSH1 0x7 DUP5 ADD SLOAD AND PUSH1 0x5 DUP2 LT ISZERO PUSH2 0x5E4 JUMPI PUSH1 0x3 PUSH2 0x2D47 SWAP2 EQ ISZERO PUSH2 0x366F JUMP JUMPDEST PUSH1 0x5 DUP4 ADD SLOAD TIMESTAMP LT ISZERO PUSH2 0x2FB6 JUMPI PUSH1 0x0 DUP5 DUP2 MSTORE PUSH1 0xB PUSH1 0x20 SWAP1 DUP2 MSTORE PUSH1 0x40 DUP1 DUP4 KECCAK256 CALLER DUP5 MSTORE SWAP1 SWAP2 MSTORE SWAP1 KECCAK256 SLOAD PUSH2 0x2D7A SWAP1 PUSH1 0xFF AND ISZERO PUSH2 0x36B2 JUMP JUMPDEST PUSH1 0x6 DUP4 ADD SLOAD SWAP2 DUP3 PUSH2 0x2EAD JUMPI JUMPDEST POP POP POP PUSH1 0x0 DUP3 DUP2 MSTORE PUSH1 0xF PUSH1 0x20 SWAP1 DUP2 MSTORE PUSH1 0x40 DUP1 DUP4 KECCAK256 CALLER DUP5 MSTORE SWAP1 SWAP2 MSTORE SWAP1 KECCAK256 SLOAD PUSH1 0xFF AND ISZERO PUSH2 0x2E37 JUMPI JUMPDEST PUSH1 0x0 DUP3 DUP2 MSTORE PUSH1 0xB PUSH1 0x20 DUP2 DUP2 MSTORE PUSH1 0x40 DUP1 DUP5 KECCAK256 CALLER DUP6 MSTORE DUP3 MSTORE DUP1 DUP5 KECCAK256 DUP1 SLOAD PUSH1 0xFF NOT AND PUSH1 0x1 OR SWAP1 SSTORE SWAP2 DUP5 ADD SWAP1 DUP2 SWAP1 MSTORE SWAP2 KECCAK256 SLOAD SWAP1 SWAP2 SWAP1 ISZERO PUSH2 0x2E10 JUMPI JUMPDEST DUP3 PUSH32 0xF45B8429C36D478F9A6D081C4811A819B98AA5B608588BED9D406405CF282473 PUSH1 0x20 PUSH1 0x40 MLOAD CALLER DUP2 MSTORE LOG2 STOP JUMPDEST PUSH1 0x8 ADD PUSH2 0x2E1D CALLER DUP3 PUSH2 0x36F3 JUMP JUMPDEST SLOAD CALLER PUSH1 0x0 SWAP1 DUP2 MSTORE PUSH1 0x20 SWAP3 SWAP1 SWAP3 MSTORE PUSH1 0x40 SWAP1 SWAP2 KECCAK256 SSTORE DUP2 DUP1 PUSH2 0x2DE3 JUMP JUMPDEST PUSH1 0x9 DUP2 ADD PUSH2 0x2E45 CALLER DUP3 PUSH2 0x36F3 JUMP JUMPDEST SLOAD PUSH1 0x0 DUP4 DUP2 MSTORE PUSH1 0x10 PUSH1 0x20 SWAP1 DUP2 MSTORE PUSH1 0x40 DUP1 DUP4 KECCAK256 CALLER DUP1 DUP6 MSTORE SWAP1 DUP4 MSTORE DUP2 DUP5 KECCAK256 SWAP5 SWAP1 SWAP5 SSTORE DUP6 DUP4 MSTORE PUSH1 0xF DUP3 MSTORE DUP1 DUP4 KECCAK256 DUP5 DUP5 MSTORE SWAP1 SWAP2 MSTORE DUP2 KECCAK256 DUP1 SLOAD PUSH1 0xFF NOT AND PUSH1 0x1 OR SWAP1 SSTORE DUP4 SWAP1 PUSH32 0x6526C95DA41447A0D82E1C1E5011E1870C45710DA085EE1E52E342DDE015A1AE SWAP1 DUP1 LOG3 PUSH2 0x2DAC JUMP JUMPDEST PUSH1 0x40 SWAP5 SWAP2 SWAP3 SWAP4 SWAP5 MLOAD PUSH1 0x20 DUP2 ADD SWAP1 CALLER PUSH1 0x60 SHL DUP3 MSTORE PUSH1 0x14 DUP2 MSTORE PUSH2 0x2ECF PUSH1 0x34 DUP3 PUSH2 0x31C6 JUMP JUMPDEST MLOAD SWAP1 KECCAK256 SWAP1 PUSH2 0x2EDC DUP5 PUSH2 0x32E4 JUMP JUMPDEST SWAP4 PUSH2 0x2EEA PUSH1 0x40 MLOAD SWAP6 DUP7 PUSH2 0x31C6 JUMP JUMPDEST DUP1 DUP6 MSTORE PUSH1 0x20 DUP6 ADD SWAP1 PUSH1 0x5 SHL DUP3 ADD SWAP2 CALLDATASIZE DUP4 GT PUSH2 0x324 JUMPI SWAP1 JUMPDEST DUP3 DUP3 LT PUSH2 0x2FA6 JUMPI POP POP POP SWAP4 PUSH1 0x0 SWAP5 JUMPDEST DUP4 MLOAD DUP7 LT ISZERO PUSH2 0x2F57 JUMPI PUSH2 0x2F23 DUP7 DUP6 PUSH2 0x376E JUMP JUMPDEST MLOAD SWAP1 PUSH1 0x0 DUP3 DUP3 LT ISZERO PUSH2 0x2F46 JUMPI POP PUSH1 0x0 MSTORE PUSH1 0x20 MSTORE PUSH1 0x1 PUSH1 0x40 PUSH1 0x0 KECCAK256 JUMPDEST SWAP6 ADD SWAP5 PUSH2 0x2F10 JUMP JUMPDEST PUSH1 0x40 SWAP2 PUSH1 0x1 SWAP4 DUP3 MSTORE PUSH1 0x20 MSTORE KECCAK256 PUSH2 0x2F3E JUMP JUMPDEST SWAP2 SWAP5 POP SWAP3 SWAP2 POP SUB PUSH2 0x2F6A JUMPI DUP3 DUP1 DUP1 PUSH2 0x2D86 JUMP JUMPDEST PUSH1 0x40 MLOAD PUSH3 0x461BCD PUSH1 0xE5 SHL DUP2 MSTORE PUSH1 0x20 PUSH1 0x4 DUP3 ADD MSTORE PUSH1 0x14 PUSH1 0x24 DUP3 ADD MSTORE PUSH20 0x24B73B30B634B21026B2B935B63290383937B7B3 PUSH1 0x61 SHL PUSH1 0x44 DUP3 ADD MSTORE PUSH1 0x64 SWAP1 REVERT JUMPDEST DUP2 CALLDATALOAD DUP2 MSTORE PUSH1 0x20 SWAP2 DUP3 ADD SWAP2 ADD PUSH2 0x2F01 JUMP JUMPDEST PUSH1 0x40 MLOAD PUSH3 0x461BCD PUSH1 0xE5 SHL DUP2 MSTORE PUSH1 0x20 PUSH1 0x4 DUP3 ADD MSTORE PUSH1 0x1D PUSH1 0x24 DUP3 ADD MSTORE PUSH32 0x526567697374726174696F6E20706572696F642068617320656E646564000000 PUSH1 0x44 DUP3 ADD MSTORE PUSH1 0x64 SWAP1 REVERT JUMPDEST CALLVALUE PUSH2 0x324 JUMPI PUSH1 0x20 CALLDATASIZE PUSH1 0x3 NOT ADD SLT PUSH2 0x324 JUMPI PUSH1 0x4 CALLDATALOAD PUSH1 0x1 PUSH1 0x1 PUSH1 0x40 SHL SUB DUP2 GT PUSH2 0x324 JUMPI PUSH2 0x302B SWAP1 CALLDATASIZE SWAP1 PUSH1 0x4 ADD PUSH2 0x3132 JUMP JUMPDEST SWAP1 CALLER PUSH1 0x0 MSTORE PUSH1 0x1 PUSH1 0x20 MSTORE PUSH1 0xFF PUSH1 0x40 PUSH1 0x0 KECCAK256 SLOAD AND PUSH1 0x3 DUP2 LT ISZERO PUSH2 0x5E4 JUMPI PUSH1 0x2 PUSH2 0x3053 SWAP2 EQ PUSH2 0x3567 JUMP JUMPDEST PUSH1 0x0 JUMPDEST DUP3 DUP2 LT PUSH2 0x305F JUMPI STOP JUMPDEST PUSH2 0x306D PUSH2 0x946 DUP3 DUP6 DUP6 PUSH2 0x35B3 JUMP JUMPDEST PUSH1 0x1 PUSH1 0x1 PUSH1 0xA0 SHL SUB DUP2 AND PUSH1 0x0 DUP2 DUP2 MSTORE PUSH1 0x1 PUSH1 0x20 MSTORE PUSH1 0x40 SWAP1 KECCAK256 SLOAD SWAP2 SWAP3 SWAP2 PUSH1 0xFF AND PUSH1 0x3 DUP2 LT ISZERO PUSH2 0x5E4 JUMPI PUSH1 0x2 EQ PUSH2 0x30A8 JUMPI JUMPDEST POP PUSH1 0x1 SWAP2 POP ADD PUSH2 0x3056 JUMP JUMPDEST PUSH1 0x0 SLOAD PUSH2 0x30C0 SWAP1 PUSH1 0x1 PUSH1 0x1 PUSH1 0xA0 SHL SUB AND DUP3 EQ ISZERO PUSH2 0x35D7 JUMP JUMPDEST PUSH2 0x30C9 DUP4 PUSH2 0x3DF1 JUMP JUMPDEST PUSH2 0x2997 JUMPI PUSH2 0x30ED PUSH1 0x1 SWAP4 DUP3 PUSH1 0x0 MSTORE DUP5 PUSH1 0x20 MSTORE PUSH1 0x40 PUSH1 0x0 KECCAK256 PUSH1 0xFF NOT DUP2 SLOAD AND SWAP1 SSTORE PUSH2 0x3E72 JUMP JUMPDEST PUSH1 0x0 DUP1 MLOAD PUSH1 0x20 PUSH2 0x414E DUP4 CODECOPY DUP2 MLOAD SWAP2 MSTORE PUSH1 0x20 PUSH1 0x40 MLOAD DUP4 PUSH32 0xA3B62BC36326052D97EA62D63C3D60308ED4C3EA8AC079DD8499F1E9C4F80C0F PUSH1 0x0 DUP1 LOG2 PUSH1 0x0 DUP2 MSTORE LOG2 DUP5 PUSH2 0x309D JUMP JUMPDEST SWAP2 DUP2 PUSH1 0x1F DUP5 ADD SLT ISZERO PUSH2 0x324 JUMPI DUP3 CALLDATALOAD SWAP2 PUSH1 0x1 PUSH1 0x1 PUSH1 0x40 SHL SUB DUP4 GT PUSH2 0x324 JUMPI PUSH1 0x20 DUP1 DUP6 ADD SWAP5 DUP5 PUSH1 0x5 SHL ADD ADD GT PUSH2 0x324 JUMPI JUMP JUMPDEST PUSH1 0x2 SLOAD DUP2 LT ISZERO PUSH2 0x317D JUMPI PUSH1 0x2 PUSH1 0x0 MSTORE PUSH1 0x20 PUSH1 0x0 KECCAK256 ADD SWAP1 PUSH1 0x0 SWAP1 JUMP JUMPDEST PUSH4 0x4E487B71 PUSH1 0xE0 SHL PUSH1 0x0 MSTORE PUSH1 0x32 PUSH1 0x4 MSTORE PUSH1 0x24 PUSH1 0x0 REVERT JUMPDEST PUSH1 0x3 SLOAD DUP2 LT ISZERO PUSH2 0x317D JUMPI PUSH1 0x3 PUSH1 0x0 MSTORE PUSH1 0x20 PUSH1 0x0 KECCAK256 ADD SWAP1 PUSH1 0x0 SWAP1 JUMP JUMPDEST DUP1 SLOAD DUP3 LT ISZERO PUSH2 0x317D JUMPI PUSH1 0x0 MSTORE PUSH1 0x20 PUSH1 0x0 KECCAK256 ADD SWAP1 PUSH1 0x0 SWAP1 JUMP JUMPDEST SWAP1 PUSH1 0x1F DUP1 NOT SWAP2 ADD AND DUP2 ADD SWAP1 DUP2 LT PUSH1 0x1 PUSH1 0x1 PUSH1 0x40 SHL SUB DUP3 GT OR PUSH2 0x110F JUMPI PUSH1 0x40 MSTORE JUMP JUMPDEST DUP2 PUSH1 0x1F DUP3 ADD SLT ISZERO PUSH2 0x324 JUMPI DUP1 CALLDATALOAD SWAP1 PUSH1 0x1 PUSH1 0x1 PUSH1 0x40 SHL SUB DUP3 GT PUSH2 0x110F JUMPI PUSH1 0x40 MLOAD SWAP3 PUSH2 0x321B PUSH1 0x1F DUP5 ADD PUSH1 0x1F NOT AND PUSH1 0x20 ADD DUP6 PUSH2 0x31C6 JUMP JUMPDEST DUP3 DUP5 MSTORE PUSH1 0x20 DUP4 DUP4 ADD ADD GT PUSH2 0x324 JUMPI DUP2 PUSH1 0x0 SWAP3 PUSH1 0x20 DUP1 SWAP4 ADD DUP4 DUP7 ADD CALLDATACOPY DUP4 ADD ADD MSTORE SWAP1 JUMP JUMPDEST SWAP1 PUSH1 0x40 PUSH1 0x3 NOT DUP4 ADD SLT PUSH2 0x324 JUMPI PUSH1 0x4 CALLDATALOAD SWAP2 PUSH1 0x24 CALLDATALOAD SWAP1 PUSH1 0x1 PUSH1 0x1 PUSH1 0x40 SHL SUB DUP3 GT PUSH2 0x324 JUMPI PUSH2 0x326C SWAP2 PUSH1 0x4 ADD PUSH2 0x31E7 JUMP JUMPDEST SWAP1 JUMP JUMPDEST PUSH1 0x0 JUMPDEST DUP4 DUP2 LT PUSH2 0x3282 JUMPI POP POP PUSH1 0x0 SWAP2 ADD MSTORE JUMP JUMPDEST DUP2 DUP2 ADD MLOAD DUP4 DUP3 ADD MSTORE PUSH1 0x20 ADD PUSH2 0x3272 JUMP JUMPDEST PUSH1 0x20 SWAP1 PUSH2 0x32AC SWAP3 DUP3 PUSH1 0x40 MLOAD SWAP5 DUP4 DUP7 DUP1 SWAP6 MLOAD SWAP4 DUP5 SWAP3 ADD PUSH2 0x326F JUMP JUMPDEST DUP3 ADD SWAP1 DUP2 MSTORE SUB ADD SWAP1 KECCAK256 SWAP1 JUMP JUMPDEST PUSH1 0x4 CALLDATALOAD SWAP1 PUSH1 0x1 PUSH1 0x1 PUSH1 0xA0 SHL SUB DUP3 AND DUP3 SUB PUSH2 0x324 JUMPI JUMP JUMPDEST PUSH1 0x24 CALLDATALOAD SWAP1 PUSH1 0x1 PUSH1 0x1 PUSH1 0xA0 SHL SUB DUP3 AND DUP3 SUB PUSH2 0x324 JUMPI JUMP JUMPDEST PUSH1 0x1 PUSH1 0x1 PUSH1 0x40 SHL SUB DUP2 GT PUSH2 0x110F JUMPI PUSH1 0x5 SHL PUSH1 0x20 ADD SWAP1 JUMP JUMPDEST SWAP1 DUP1 PUSH1 0x1F DUP4 ADD SLT ISZERO PUSH2 0x324 JUMPI DUP2 CALLDATALOAD PUSH2 0x3312 DUP2 PUSH2 0x32E4 JUMP JUMPDEST SWAP3 PUSH2 0x3320 PUSH1 0x40 MLOAD SWAP5 DUP6 PUSH2 0x31C6 JUMP JUMPDEST DUP2 DUP5 MSTORE PUSH1 0x20 DUP1 DUP6 ADD SWAP3 PUSH1 0x5 SHL DUP3 ADD ADD SWAP2 DUP4 DUP4 GT PUSH2 0x324 JUMPI PUSH1 0x20 DUP3 ADD SWAP1 JUMPDEST DUP4 DUP3 LT PUSH2 0x334C JUMPI POP POP POP POP POP SWAP1 JUMP JUMPDEST DUP2 CALLDATALOAD PUSH1 0x1 PUSH1 0x1 PUSH1 0x40 SHL SUB DUP2 GT PUSH2 0x324 JUMPI PUSH1 0x20 SWAP2 PUSH2 0x336E DUP8 DUP5 DUP1 SWAP5 DUP9 ADD ADD PUSH2 0x31E7 JUMP JUMPDEST DUP2 MSTORE ADD SWAP2 ADD SWAP1 PUSH2 0x333D JUMP JUMPDEST PUSH1 0x20 PUSH1 0x40 DUP2 DUP4 ADD SWAP3 DUP3 DUP2 MSTORE DUP5 MLOAD DUP1 SWAP5 MSTORE ADD SWAP3 ADD SWAP1 PUSH1 0x0 JUMPDEST DUP2 DUP2 LT PUSH2 0x339D JUMPI POP POP POP SWAP1 JUMP JUMPDEST DUP3 MLOAD PUSH1 0x1 PUSH1 0x1 PUSH1 0xA0 SHL SUB AND DUP5 MSTORE PUSH1 0x20 SWAP4 DUP5 ADD SWAP4 SWAP1 SWAP3 ADD SWAP2 PUSH1 0x1 ADD PUSH2 0x3390 JUMP JUMPDEST SWAP2 SWAP1 PUSH1 0x20 DUP4 ADD SWAP3 PUSH1 0x3 DUP3 LT ISZERO PUSH2 0x5E4 JUMPI MSTORE JUMP JUMPDEST SWAP1 PUSH1 0x1 DUP3 DUP2 SHR SWAP3 AND DUP1 ISZERO PUSH2 0x33FF JUMPI JUMPDEST PUSH1 0x20 DUP4 LT EQ PUSH2 0x33E9 JUMPI JUMP JUMPDEST PUSH4 0x4E487B71 PUSH1 0xE0 SHL PUSH1 0x0 MSTORE PUSH1 0x22 PUSH1 0x4 MSTORE PUSH1 0x24 PUSH1 0x0 REVERT JUMPDEST SWAP2 PUSH1 0x7F AND SWAP2 PUSH2 0x33DE JUMP JUMPDEST SWAP1 PUSH1 0x40 MLOAD SWAP2 DUP3 PUSH1 0x0 DUP3 SLOAD SWAP3 PUSH2 0x341D DUP5 PUSH2 0x33CF JUMP JUMPDEST DUP1 DUP5 MSTORE SWAP4 PUSH1 0x1 DUP2 AND SWAP1 DUP2 ISZERO PUSH2 0x348B JUMPI POP PUSH1 0x1 EQ PUSH2 0x3444 JUMPI JUMPDEST POP PUSH2 0x3442 SWAP3 POP SUB DUP4 PUSH2 0x31C6 JUMP JUMPDEST JUMP JUMPDEST SWAP1 POP PUSH1 0x0 SWAP3 SWAP2 SWAP3 MSTORE PUSH1 0x20 PUSH1 0x0 KECCAK256 SWAP1 PUSH1 0x0 SWAP2 JUMPDEST DUP2 DUP4 LT PUSH2 0x346F JUMPI POP POP SWAP1 PUSH1 0x20 PUSH2 0x3442 SWAP3 DUP3 ADD ADD CODESIZE PUSH2 0x3435 JUMP JUMPDEST PUSH1 0x20 SWAP2 SWAP4 POP DUP1 PUSH1 0x1 SWAP2 SLOAD DUP4 DUP6 DUP10 ADD ADD MSTORE ADD SWAP2 ADD SWAP1 SWAP2 DUP5 SWAP3 PUSH2 0x3456 JUMP JUMPDEST SWAP1 POP PUSH1 0x20 SWAP3 POP PUSH2 0x3442 SWAP5 SWAP2 POP PUSH1 0xFF NOT AND DUP3 DUP5 ADD MSTORE ISZERO ISZERO PUSH1 0x5 SHL DUP3 ADD ADD CODESIZE PUSH2 0x3435 JUMP JUMPDEST SWAP1 PUSH1 0x20 SWAP2 PUSH2 0x34C6 DUP2 MLOAD DUP1 SWAP3 DUP2 DUP6 MSTORE DUP6 DUP1 DUP7 ADD SWAP2 ADD PUSH2 0x326F JUMP JUMPDEST PUSH1 0x1F ADD PUSH1 0x1F NOT AND ADD ADD SWAP1 JUMP JUMPDEST SWAP1 PUSH1 0x5 DUP3 LT ISZERO PUSH2 0x5E4 JUMPI MSTORE JUMP JUMPDEST PUSH1 0x40 SWAP1 PUSH1 0x3 NOT ADD SLT PUSH2 0x324 JUMPI PUSH1 0x4 CALLDATALOAD PUSH1 0x1 PUSH1 0x1 PUSH1 0xA0 SHL SUB DUP2 AND DUP2 SUB PUSH2 0x324 JUMPI SWAP1 PUSH1 0x24 CALLDATALOAD PUSH1 0x3 DUP2 LT ISZERO PUSH2 0x324 JUMPI SWAP1 JUMP JUMPDEST SWAP1 DUP1 PUSH1 0x20 DUP4 MLOAD SWAP2 DUP3 DUP2 MSTORE ADD SWAP2 PUSH1 0x20 DUP1 DUP4 PUSH1 0x5 SHL DUP4 ADD ADD SWAP5 ADD SWAP3 PUSH1 0x0 SWAP2 JUMPDEST DUP4 DUP4 LT PUSH2 0x353A JUMPI POP POP POP POP POP SWAP1 JUMP JUMPDEST SWAP1 SWAP2 SWAP3 SWAP4 SWAP5 PUSH1 0x20 DUP1 PUSH2 0x3558 PUSH1 0x1 SWAP4 PUSH1 0x1F NOT DUP7 DUP3 SUB ADD DUP8 MSTORE DUP10 MLOAD PUSH2 0x34AD JUMP JUMPDEST SWAP8 ADD SWAP4 ADD SWAP4 ADD SWAP2 SWAP4 SWAP3 SWAP1 PUSH2 0x352B JUMP JUMPDEST ISZERO PUSH2 0x356E JUMPI JUMP JUMPDEST PUSH1 0x40 MLOAD PUSH3 0x461BCD PUSH1 0xE5 SHL DUP2 MSTORE PUSH1 0x20 PUSH1 0x4 DUP3 ADD MSTORE PUSH1 0x17 PUSH1 0x24 DUP3 ADD MSTORE PUSH32 0x496E73756666696369656E742070726976696C65676573000000000000000000 PUSH1 0x44 DUP3 ADD MSTORE PUSH1 0x64 SWAP1 REVERT JUMPDEST SWAP2 SWAP1 DUP2 LT ISZERO PUSH2 0x317D JUMPI PUSH1 0x5 SHL ADD SWAP1 JUMP JUMPDEST CALLDATALOAD PUSH1 0x1 PUSH1 0x1 PUSH1 0xA0 SHL SUB DUP2 AND DUP2 SUB PUSH2 0x324 JUMPI SWAP1 JUMP JUMPDEST ISZERO PUSH2 0x35DE JUMPI JUMP JUMPDEST PUSH1 0x40 MLOAD PUSH3 0x461BCD PUSH1 0xE5 SHL DUP2 MSTORE PUSH1 0x20 PUSH1 0x4 DUP3 ADD MSTORE PUSH1 0x1C PUSH1 0x24 DUP3 ADD MSTORE PUSH32 0x43616E6E6F742072656D6F766520636F6E7472616374206F776E657200000000 PUSH1 0x44 DUP3 ADD MSTORE PUSH1 0x64 SWAP1 REVERT JUMPDEST ISZERO PUSH2 0x362A JUMPI JUMP JUMPDEST PUSH1 0x40 MLOAD PUSH3 0x461BCD PUSH1 0xE5 SHL DUP2 MSTORE PUSH1 0x20 PUSH1 0x4 DUP3 ADD MSTORE PUSH1 0x17 PUSH1 0x24 DUP3 ADD MSTORE PUSH32 0x456C656374696F6E20646F6573206E6F74206578697374000000000000000000 PUSH1 0x44 DUP3 ADD MSTORE PUSH1 0x64 SWAP1 REVERT JUMPDEST ISZERO PUSH2 0x3676 JUMPI JUMP JUMPDEST PUSH1 0x40 MLOAD PUSH3 0x461BCD PUSH1 0xE5 SHL DUP2 MSTORE PUSH1 0x20 PUSH1 0x4 DUP3 ADD MSTORE PUSH1 0x14 PUSH1 0x24 DUP3 ADD MSTORE PUSH20 0x115B1958DD1A5BDB881A5CC818D85B98D95B1959 PUSH1 0x62 SHL PUSH1 0x44 DUP3 ADD MSTORE PUSH1 0x64 SWAP1 REVERT JUMPDEST ISZERO PUSH2 0x36B9 JUMPI JUMP JUMPDEST PUSH1 0x40 MLOAD PUSH3 0x461BCD PUSH1 0xE5 SHL DUP2 MSTORE PUSH1 0x20 PUSH1 0x4 DUP3 ADD MSTORE PUSH1 0x12 PUSH1 0x24 DUP3 ADD MSTORE PUSH18 0x105B1C9958591E481C9959DA5CDD195C9959 PUSH1 0x72 SHL PUSH1 0x44 DUP3 ADD MSTORE PUSH1 0x64 SWAP1 REVERT JUMPDEST SWAP1 DUP2 SLOAD SWAP2 PUSH1 0x1 PUSH1 0x40 SHL DUP4 LT ISZERO PUSH2 0x110F JUMPI DUP3 PUSH2 0x80A SWAP2 PUSH1 0x1 PUSH2 0x3442 SWAP6 ADD DUP2 SSTORE PUSH2 0x31AE JUMP JUMPDEST SWAP1 DUP2 SLOAD PUSH2 0x3722 DUP2 PUSH2 0x32E4 JUMP JUMPDEST SWAP3 PUSH2 0x3730 PUSH1 0x40 MLOAD SWAP5 DUP6 PUSH2 0x31C6 JUMP JUMPDEST DUP2 DUP5 MSTORE PUSH1 0x20 DUP5 ADD SWAP1 PUSH1 0x0 MSTORE PUSH1 0x20 PUSH1 0x0 KECCAK256 PUSH1 0x0 SWAP2 JUMPDEST DUP4 DUP4 LT PUSH2 0x3751 JUMPI POP POP POP POP JUMP JUMPDEST PUSH1 0x1 PUSH1 0x20 DUP2 SWAP3 PUSH2 0x3760 DUP6 PUSH2 0x3409 JUMP JUMPDEST DUP2 MSTORE ADD SWAP3 ADD SWAP3 ADD SWAP2 SWAP1 PUSH2 0x3744 JUMP JUMPDEST DUP1 MLOAD DUP3 LT ISZERO PUSH2 0x317D JUMPI PUSH1 0x20 SWAP2 PUSH1 0x5 SHL ADD ADD SWAP1 JUMP JUMPDEST ISZERO PUSH2 0x3789 JUMPI JUMP JUMPDEST PUSH1 0x40 MLOAD PUSH3 0x461BCD PUSH1 0xE5 SHL DUP2 MSTORE PUSH1 0x20 PUSH1 0x4 DUP3 ADD MSTORE PUSH1 0xC PUSH1 0x24 DUP3 ADD MSTORE PUSH12 0x2737BA1030B71030B236B4B7 PUSH1 0xA1 SHL PUSH1 0x44 DUP3 ADD MSTORE PUSH1 0x64 SWAP1 REVERT JUMPDEST ISZERO PUSH2 0x37C4 JUMPI JUMP JUMPDEST PUSH1 0x40 MLOAD PUSH3 0x461BCD PUSH1 0xE5 SHL DUP2 MSTORE PUSH1 0x20 PUSH1 0x4 DUP3 ADD MSTORE PUSH1 0xD PUSH1 0x24 DUP3 ADD MSTORE PUSH13 0x496E76616C6964206461746573 PUSH1 0x98 SHL PUSH1 0x44 DUP3 ADD MSTORE PUSH1 0x64 SWAP1 REVERT JUMPDEST ISZERO PUSH2 0x3800 JUMPI JUMP JUMPDEST PUSH1 0x40 MLOAD PUSH3 0x461BCD PUSH1 0xE5 SHL DUP2 MSTORE PUSH1 0x20 PUSH1 0x4 DUP3 ADD MSTORE PUSH1 0x1A PUSH1 0x24 DUP3 ADD MSTORE PUSH32 0x4E656564206174206C6561737420322063616E64696461746573000000000000 PUSH1 0x44 DUP3 ADD MSTORE PUSH1 0x64 SWAP1 REVERT JUMPDEST DUP2 DUP2 LT PUSH2 0x3850 JUMPI POP POP JUMP JUMPDEST PUSH1 0x0 DUP2 SSTORE PUSH1 0x1 ADD PUSH2 0x3845 JUMP JUMPDEST SWAP1 PUSH1 0x40 MLOAD DUP1 SWAP3 PUSH1 0x0 SWAP1 DUP1 SLOAD SWAP1 PUSH2 0x3871 DUP3 PUSH2 0x33CF JUMP JUMPDEST SWAP2 PUSH1 0x1 DUP2 AND SWAP1 DUP2 ISZERO PUSH2 0x38CD JUMPI POP PUSH1 0x1 EQ PUSH2 0x3894 JUMPI JUMPDEST POP POP PUSH1 0x20 SWAP3 DUP2 MSTORE SUB ADD SWAP1 KECCAK256 SWAP1 JUMP JUMPDEST SWAP1 SWAP2 POP PUSH1 0x0 MSTORE PUSH1 0x20 PUSH1 0x0 KECCAK256 PUSH1 0x0 SWAP1 JUMPDEST DUP3 DUP3 LT PUSH2 0x38B6 JUMPI POP POP DUP2 ADD PUSH1 0x20 CODESIZE PUSH2 0x3886 JUMP JUMPDEST DUP1 SLOAD DUP3 DUP8 ADD MSTORE DUP6 SWAP4 POP PUSH1 0x20 SWAP1 SWAP2 ADD SWAP1 PUSH1 0x1 ADD PUSH2 0x38A3 JUMP JUMPDEST PUSH1 0xFF NOT AND DUP6 MSTORE POP POP DUP1 ISZERO ISZERO MUL DUP3 ADD SWAP1 POP PUSH1 0x20 CODESIZE PUSH2 0x3886 JUMP JUMPDEST ISZERO PUSH2 0x38EC JUMPI JUMP JUMPDEST PUSH1 0x40 MLOAD PUSH3 0x461BCD PUSH1 0xE5 SHL DUP2 MSTORE PUSH1 0x20 PUSH1 0x4 DUP3 ADD MSTORE PUSH1 0x1E PUSH1 0x24 DUP3 ADD MSTORE PUSH32 0x43616E646964617465206E616D652063616E6E6F7420626520656D7074790000 PUSH1 0x44 DUP3 ADD MSTORE PUSH1 0x64 SWAP1 REVERT JUMPDEST PUSH2 0x3949 PUSH1 0x40 SWAP3 SWAP6 SWAP5 SWAP4 SWAP6 PUSH1 0x60 DUP4 MSTORE PUSH1 0x60 DUP4 ADD SWAP1 PUSH2 0x34AD JUMP JUMPDEST SWAP5 PUSH1 0x20 DUP3 ADD MSTORE ADD MSTORE JUMP JUMPDEST SWAP1 PUSH1 0x40 MLOAD SWAP2 DUP3 DUP2 SLOAD SWAP2 DUP3 DUP3 MSTORE PUSH1 0x20 DUP3 ADD SWAP1 PUSH1 0x0 MSTORE PUSH1 0x20 PUSH1 0x0 KECCAK256 SWAP3 PUSH1 0x0 JUMPDEST DUP2 DUP2 LT PUSH2 0x3985 JUMPI POP POP PUSH2 0x3442 SWAP3 POP SUB DUP4 PUSH2 0x31C6 JUMP JUMPDEST DUP5 SLOAD PUSH1 0x1 PUSH1 0x1 PUSH1 0xA0 SHL SUB AND DUP4 MSTORE PUSH1 0x1 SWAP5 DUP6 ADD SWAP5 DUP8 SWAP5 POP PUSH1 0x20 SWAP1 SWAP4 ADD SWAP3 ADD PUSH2 0x3970 JUMP JUMPDEST PUSH1 0x0 NOT DUP2 EQ PUSH2 0x8BE JUMPI PUSH1 0x1 ADD SWAP1 JUMP JUMPDEST SWAP1 SWAP2 PUSH1 0x94 SWAP7 SWAP5 SWAP6 SWAP4 SWAP3 DUP3 MSTORE PUSH12 0xFFFFFFFFFFFFFFFFFFFFFFFF NOT SWAP1 PUSH1 0x60 SHL AND PUSH1 0x20 DUP3 ADD MSTORE PUSH2 0x39ED DUP3 MLOAD DUP1 SWAP4 PUSH1 0x20 PUSH1 0x34 DUP6 ADD SWAP2 ADD PUSH2 0x326F JUMP JUMPDEST ADD SWAP3 PUSH1 0x34 DUP5 ADD MSTORE PUSH1 0x54 DUP4 ADD MSTORE PUSH1 0x74 DUP3 ADD MSTORE ADD SWAP1 JUMP JUMPDEST PUSH1 0x1 PUSH1 0x1 PUSH1 0xA0 SHL SUB DUP2 AND SWAP2 SWAP1 DUP3 ISZERO PUSH2 0x3D2E JUMPI PUSH2 0x3A1D DUP2 PUSH2 0x3DF1 JUMP JUMPDEST DUP1 PUSH2 0x3D1A JUMPI JUMPDEST PUSH2 0x3CC7 JUMPI PUSH2 0x3A30 DUP2 PUSH2 0x3F99 JUMP JUMPDEST DUP1 PUSH2 0x3CB3 JUMPI JUMPDEST PUSH2 0x3C5E JUMPI DUP3 PUSH1 0x0 MSTORE PUSH1 0x1 PUSH1 0x20 MSTORE PUSH1 0xFF PUSH1 0x40 PUSH1 0x0 KECCAK256 SLOAD AND PUSH1 0x3 DUP2 LT ISZERO PUSH2 0x5E4 JUMPI PUSH1 0x2 DUP2 SUB PUSH2 0x3C49 JUMPI POP PUSH2 0x3A67 DUP2 PUSH2 0x3E72 JUMP JUMPDEST DUP3 PUSH1 0x0 MSTORE PUSH1 0x1 PUSH1 0x20 MSTORE PUSH1 0x40 PUSH1 0x0 KECCAK256 PUSH1 0x3 DUP4 LT ISZERO PUSH2 0x5E4 JUMPI PUSH1 0xFF NOT DUP2 SLOAD AND PUSH1 0xFF DUP5 AND OR SWAP1 SSTORE PUSH1 0x2 DUP3 EQ PUSH1 0x0 EQ PUSH2 0x3B64 JUMPI DUP3 PUSH1 0x0 MSTORE PUSH1 0x4 PUSH1 0x20 MSTORE PUSH1 0xFF PUSH1 0x40 PUSH1 0x0 KECCAK256 SLOAD AND ISZERO PUSH2 0x3AFA JUMPI JUMPDEST POP PUSH2 0x3AF5 PUSH1 0x0 DUP1 MLOAD PUSH1 0x20 PUSH2 0x414E DUP4 CODECOPY DUP2 MLOAD SWAP2 MSTORE SWAP2 DUP4 PUSH32 0x44D6D25963F097AD14F29F06854A01F575648A1EF82F30E562CCD3889717E339 PUSH1 0x0 DUP1 LOG2 JUMPDEST PUSH1 0x40 MLOAD SWAP2 DUP3 SWAP2 DUP3 PUSH2 0x33BC JUMP JUMPDEST SUB SWAP1 LOG2 JUMP JUMPDEST PUSH1 0x2 SLOAD SWAP2 PUSH1 0x1 PUSH1 0x40 SHL DUP4 LT ISZERO PUSH2 0x110F JUMPI PUSH2 0x3B32 PUSH2 0x3AF5 SWAP3 PUSH2 0x80A DUP6 PUSH1 0x1 PUSH1 0x0 DUP1 MLOAD PUSH1 0x20 PUSH2 0x414E DUP4 CODECOPY DUP2 MLOAD SWAP2 MSTORE SWAP8 ADD PUSH1 0x2 SSTORE PUSH1 0x2 PUSH2 0x31AE JUMP JUMPDEST PUSH1 0x2 SLOAD DUP5 PUSH1 0x0 MSTORE PUSH1 0x6 PUSH1 0x20 MSTORE PUSH1 0x40 PUSH1 0x0 KECCAK256 SSTORE DUP4 PUSH1 0x0 MSTORE PUSH1 0x4 PUSH1 0x20 MSTORE PUSH1 0x40 PUSH1 0x0 KECCAK256 PUSH1 0x1 PUSH1 0xFF NOT DUP3 SLOAD AND OR SWAP1 SSTORE SWAP2 POP PUSH2 0x3AAE JUMP JUMPDEST PUSH1 0x1 DUP3 EQ PUSH2 0x3B86 JUMPI JUMPDEST POP PUSH2 0x3AF5 PUSH1 0x0 DUP1 MLOAD PUSH1 0x20 PUSH2 0x414E DUP4 CODECOPY DUP2 MLOAD SWAP2 MSTORE SWAP2 PUSH2 0x3AE9 JUMP JUMPDEST DUP3 PUSH1 0x0 MSTORE PUSH1 0x5 PUSH1 0x20 MSTORE PUSH1 0xFF PUSH1 0x40 PUSH1 0x0 KECCAK256 SLOAD AND ISZERO PUSH2 0x3BDF JUMPI JUMPDEST POP PUSH2 0x3AF5 PUSH1 0x0 DUP1 MLOAD PUSH1 0x20 PUSH2 0x414E DUP4 CODECOPY DUP2 MLOAD SWAP2 MSTORE SWAP2 DUP4 PUSH32 0x2C31044378CC14466459F09320DD4057D7AD6E99B194C0800C78227383A25296 PUSH1 0x0 DUP1 LOG2 SWAP2 POP PUSH2 0x3B6D JUMP JUMPDEST PUSH1 0x3 SLOAD SWAP2 PUSH1 0x1 PUSH1 0x40 SHL DUP4 LT ISZERO PUSH2 0x110F JUMPI PUSH2 0x3C17 PUSH2 0x3AF5 SWAP3 PUSH2 0x80A DUP6 PUSH1 0x1 PUSH1 0x0 DUP1 MLOAD PUSH1 0x20 PUSH2 0x414E DUP4 CODECOPY DUP2 MLOAD SWAP2 MSTORE SWAP8 ADD PUSH1 0x3 SSTORE PUSH1 0x3 PUSH2 0x31AE JUMP JUMPDEST PUSH1 0x3 SLOAD DUP5 PUSH1 0x0 MSTORE PUSH1 0x7 PUSH1 0x20 MSTORE PUSH1 0x40 PUSH1 0x0 KECCAK256 SSTORE DUP4 PUSH1 0x0 MSTORE PUSH1 0x5 PUSH1 0x20 MSTORE PUSH1 0x40 PUSH1 0x0 KECCAK256 PUSH1 0x1 PUSH1 0xFF NOT DUP3 SLOAD AND OR SWAP1 SSTORE SWAP2 POP PUSH2 0x3B9E JUMP JUMPDEST PUSH1 0x1 SUB PUSH2 0x3A67 JUMPI PUSH2 0x3C59 DUP2 PUSH2 0x3FFD JUMP JUMPDEST PUSH2 0x3A67 JUMP JUMPDEST PUSH1 0x40 MLOAD PUSH3 0x461BCD PUSH1 0xE5 SHL DUP2 MSTORE PUSH1 0x20 PUSH1 0x4 DUP3 ADD MSTORE PUSH1 0x27 PUSH1 0x24 DUP3 ADD MSTORE PUSH32 0x43616E6E6F74206368616E676520726F6C65206F662068617264636F64656420 PUSH1 0x44 DUP3 ADD MSTORE PUSH7 0x30BAB234BA37B9 PUSH1 0xC9 SHL PUSH1 0x64 DUP3 ADD MSTORE PUSH1 0x84 SWAP1 REVERT JUMPDEST POP PUSH1 0x3 DUP3 LT ISZERO PUSH2 0x5E4 JUMPI PUSH1 0x1 DUP3 EQ ISZERO PUSH2 0x3A36 JUMP JUMPDEST PUSH1 0x40 MLOAD PUSH3 0x461BCD PUSH1 0xE5 SHL DUP2 MSTORE PUSH1 0x20 PUSH1 0x4 DUP3 ADD MSTORE PUSH1 0x25 PUSH1 0x24 DUP3 ADD MSTORE PUSH32 0x43616E6E6F74206368616E676520726F6C65206F662068617264636F64656420 PUSH1 0x44 DUP3 ADD MSTORE PUSH5 0x30B236B4B7 PUSH1 0xD9 SHL PUSH1 0x64 DUP3 ADD MSTORE PUSH1 0x84 SWAP1 REVERT JUMPDEST POP PUSH1 0x3 DUP3 LT ISZERO PUSH2 0x5E4 JUMPI PUSH1 0x2 DUP3 EQ ISZERO PUSH2 0x3A23 JUMP JUMPDEST PUSH1 0x40 MLOAD PUSH3 0x461BCD PUSH1 0xE5 SHL DUP2 MSTORE PUSH1 0x20 PUSH1 0x4 DUP3 ADD MSTORE PUSH1 0xF PUSH1 0x24 DUP3 ADD MSTORE PUSH15 0x496E76616C69642061646472657373 PUSH1 0x88 SHL PUSH1 0x44 DUP3 ADD MSTORE PUSH1 0x64 SWAP1 REVERT JUMPDEST SWAP2 SWAP1 DUP3 ADD DUP1 SWAP3 GT PUSH2 0x8BE JUMPI JUMP JUMPDEST ISZERO PUSH2 0x3D79 JUMPI JUMP JUMPDEST PUSH1 0x40 MLOAD PUSH3 0x461BCD PUSH1 0xE5 SHL DUP2 MSTORE PUSH1 0x20 PUSH1 0x4 DUP3 ADD MSTORE PUSH1 0xE PUSH1 0x24 DUP3 ADD MSTORE PUSH14 0x2737BA1030B71030BAB234BA37B9 PUSH1 0x91 SHL PUSH1 0x44 DUP3 ADD MSTORE PUSH1 0x64 SWAP1 REVERT JUMPDEST ISZERO PUSH2 0x3DB6 JUMPI JUMP JUMPDEST PUSH1 0x40 MLOAD PUSH3 0x461BCD PUSH1 0xE5 SHL DUP2 MSTORE PUSH1 0x20 PUSH1 0x4 DUP3 ADD MSTORE PUSH1 0x13 PUSH1 0x24 DUP3 ADD MSTORE PUSH19 0x496E646578206F7574206F6620626F756E6473 PUSH1 0x68 SHL PUSH1 0x44 DUP3 ADD MSTORE PUSH1 0x64 SWAP1 REVERT JUMPDEST PUSH1 0x8 SLOAD SWAP1 DUP2 PUSH1 0x0 JUMPDEST DUP4 DUP2 LT PUSH2 0x3E09 JUMPI POP POP POP POP PUSH1 0x0 SWAP1 JUMP JUMPDEST PUSH1 0x0 DUP3 DUP3 LT ISZERO PUSH2 0x3E5E JUMPI PUSH1 0x8 SWAP1 MSTORE PUSH32 0xF3F7A9FE364FAAB93B216DA50A3214154F22A0A2B415B23A84C8169E8B636EE3 DUP2 ADD SLOAD PUSH1 0x1 PUSH1 0x1 PUSH1 0xA0 SHL SUB DUP5 DUP2 AND SWAP2 AND EQ PUSH2 0x3E55 JUMPI PUSH1 0x1 ADD PUSH2 0x3DF9 JUMP JUMPDEST POP POP POP POP PUSH1 0x1 SWAP1 JUMP JUMPDEST PUSH4 0x4E487B71 PUSH1 0xE0 SHL DUP2 MSTORE PUSH1 0x32 PUSH1 0x4 MSTORE PUSH1 0x24 SWAP1 REVERT JUMPDEST PUSH1 0x1 PUSH1 0x1 PUSH1 0xA0 SHL SUB AND PUSH1 0x0 DUP2 DUP2 MSTORE PUSH1 0x4 PUSH1 0x20 MSTORE PUSH1 0x40 SWAP1 KECCAK256 SLOAD PUSH1 0xFF AND PUSH2 0x3E94 JUMPI POP JUMP JUMPDEST DUP1 PUSH1 0x0 MSTORE PUSH1 0x6 PUSH1 0x20 MSTORE PUSH1 0x40 PUSH1 0x0 KECCAK256 SLOAD DUP1 ISZERO PUSH2 0x3F54 JUMPI PUSH1 0x0 NOT DUP2 ADD DUP2 DUP2 GT PUSH2 0x8BE JUMPI PUSH1 0x2 SLOAD PUSH1 0x0 NOT DUP2 ADD SWAP1 DUP2 GT PUSH2 0x8BE JUMPI DUP1 DUP3 LT PUSH2 0x3F14 JUMPI JUMPDEST POP POP POP PUSH1 0x2 SLOAD DUP1 ISZERO PUSH2 0x8A8 JUMPI PUSH1 0x0 NOT ADD PUSH2 0x3EEA PUSH2 0x874 DUP3 PUSH1 0x2 PUSH2 0x31AE JUMP JUMPDEST PUSH1 0x2 SSTORE DUP1 PUSH1 0x0 MSTORE PUSH1 0x6 PUSH1 0x20 MSTORE PUSH1 0x0 PUSH1 0x40 DUP2 KECCAK256 SSTORE PUSH1 0x0 MSTORE PUSH1 0x4 PUSH1 0x20 MSTORE PUSH1 0x40 PUSH1 0x0 KECCAK256 PUSH1 0xFF NOT DUP2 SLOAD AND SWAP1 SSTORE JUMP JUMPDEST PUSH2 0x80A SWAP2 PUSH2 0x3F24 PUSH2 0x3F3E SWAP3 PUSH2 0x3162 JUMP JUMPDEST SWAP1 SLOAD PUSH1 0x3 SWAP2 SWAP1 SWAP2 SHL SHR PUSH1 0x1 PUSH1 0x1 PUSH1 0xA0 SHL SUB AND SWAP3 DUP4 SWAP2 PUSH2 0x3162 JUMP JUMPDEST PUSH1 0x0 MSTORE PUSH1 0x6 PUSH1 0x20 MSTORE PUSH1 0x40 PUSH1 0x0 KECCAK256 SSTORE CODESIZE DUP1 DUP1 PUSH2 0x3ECC JUMP JUMPDEST PUSH1 0x40 MLOAD PUSH3 0x461BCD PUSH1 0xE5 SHL DUP2 MSTORE PUSH1 0x20 PUSH1 0x4 DUP3 ADD MSTORE PUSH1 0x18 PUSH1 0x24 DUP3 ADD MSTORE PUSH32 0x41646D696E206E6F7420666F756E6420696E2061727261790000000000000000 PUSH1 0x44 DUP3 ADD MSTORE PUSH1 0x64 SWAP1 REVERT JUMPDEST PUSH1 0x9 SLOAD SWAP1 DUP2 PUSH1 0x0 JUMPDEST DUP4 DUP2 LT PUSH2 0x3FB1 JUMPI POP POP POP POP PUSH1 0x0 SWAP1 JUMP JUMPDEST PUSH1 0x0 DUP3 DUP3 LT ISZERO PUSH2 0x3E5E JUMPI PUSH1 0x9 SWAP1 MSTORE PUSH32 0x6E1540171B6C0C960B71A7020D9F60077F6AF931A8BBF590DA0223DACF75C7AF DUP2 ADD SLOAD PUSH1 0x1 PUSH1 0x1 PUSH1 0xA0 SHL SUB DUP5 DUP2 AND SWAP2 AND EQ PUSH2 0x3E55 JUMPI PUSH1 0x1 ADD PUSH2 0x3FA1 JUMP JUMPDEST PUSH1 0x1 PUSH1 0x1 PUSH1 0xA0 SHL SUB AND PUSH1 0x0 DUP2 DUP2 MSTORE PUSH1 0x5 PUSH1 0x20 MSTORE PUSH1 0x40 SWAP1 KECCAK256 SLOAD PUSH1 0xFF AND PUSH2 0x401F JUMPI POP JUMP JUMPDEST DUP1 PUSH1 0x0 MSTORE PUSH1 0x7 PUSH1 0x20 MSTORE PUSH1 0x40 PUSH1 0x0 KECCAK256 SLOAD DUP1 ISZERO PUSH2 0x40DF JUMPI PUSH1 0x0 NOT DUP2 ADD DUP2 DUP2 GT PUSH2 0x8BE JUMPI PUSH1 0x3 SLOAD PUSH1 0x0 NOT DUP2 ADD SWAP1 DUP2 GT PUSH2 0x8BE JUMPI DUP1 DUP3 LT PUSH2 0x409F JUMPI JUMPDEST POP POP POP PUSH1 0x3 SLOAD DUP1 ISZERO PUSH2 0x8A8 JUMPI PUSH1 0x0 NOT ADD PUSH2 0x4075 PUSH2 0x874 DUP3 PUSH1 0x3 PUSH2 0x31AE JUMP JUMPDEST PUSH1 0x3 SSTORE DUP1 PUSH1 0x0 MSTORE PUSH1 0x7 PUSH1 0x20 MSTORE PUSH1 0x0 PUSH1 0x40 DUP2 KECCAK256 SSTORE PUSH1 0x0 MSTORE PUSH1 0x5 PUSH1 0x20 MSTORE PUSH1 0x40 PUSH1 0x0 KECCAK256 PUSH1 0xFF NOT DUP2 SLOAD AND SWAP1 SSTORE JUMP JUMPDEST PUSH2 0x80A SWAP2 PUSH2 0x40AF PUSH2 0x40C9 SWAP3 PUSH2 0x3193 JUMP JUMPDEST SWAP1 SLOAD PUSH1 0x3 SWAP2 SWAP1 SWAP2 SHL SHR PUSH1 0x1 PUSH1 0x1 PUSH1 0xA0 SHL SUB AND SWAP3 DUP4 SWAP2 PUSH2 0x3193 JUMP JUMPDEST PUSH1 0x0 MSTORE PUSH1 0x7 PUSH1 0x20 MSTORE PUSH1 0x40 PUSH1 0x0 KECCAK256 SSTORE CODESIZE DUP1 DUP1 PUSH2 0x4057 JUMP JUMPDEST PUSH1 0x40 MLOAD PUSH3 0x461BCD PUSH1 0xE5 SHL DUP2 MSTORE PUSH1 0x20 PUSH1 0x4 DUP3 ADD MSTORE PUSH1 0x1A PUSH1 0x24 DUP3 ADD MSTORE PUSH32 0x41756469746F72206E6F7420666F756E6420696E206172726179000000000000 PUSH1 0x44 DUP3 ADD MSTORE PUSH1 0x64 SWAP1 REVERT JUMPDEST PUSH1 0x0 SLOAD PUSH1 0x1 PUSH1 0x1 PUSH1 0xA0 SHL SUB AND CALLER SUB PUSH2 0x4138 JUMPI JUMP JUMPDEST PUSH4 0x118CDAA7 PUSH1 0xE0 SHL PUSH1 0x0 MSTORE CALLER PUSH1 0x4 MSTORE PUSH1 0x24 PUSH1 0x0 REVERT INVALID BLOBBASEFEE 0xC3 PUSH16 0xA53F167CEB85964BE512E01DE2A3B8BD 0xB9 DUP7 0x2F SWAP2 PUSH30 0xA079DEEEFF689B38DCC4EDDB88499D375DE93E416C98F27776CB27E7FB5C PUSH2 0xF8C7 DUP11 0xD1 RETURNDATASIZE PUSH5 0xA8A3BCA264 PUSH10 0x7066735822122027410B 0xE7 SWAP7 PUSH2 0x3558 SHL ORIGIN PUSH4 0xE3489528 COINBASE 0xD4 DUP13 PUSH20 0xBEDE550CBFB850BFAF0F4DDBEE64736F6C634300 ADDMOD SHR STOP CALLER PREVRANDAO 0xD6 0xD2 MSIZE PUSH4 0xF097AD14 CALLCODE SWAP16 MOD DUP6 BLOBBASEFEE ADD CREATE2 PUSH22 0x648A1EF82F30E562CCD3889717E3394AC36FA53F167C 0xEB DUP6 SWAP7 0x4B 0xE5 SLT 0xE0 SAR 0xE2 LOG3 0xB8 0xBD 0xB9 DUP7 0x2F SWAP2 PUSH30 0xA079DEEEFF689B3800000000000000000000000000000000000000000000 "
        },
        "methodIdentifiers": {
          "adminIndex(address)": "a20b147d",
          "adminRegisterVoter(uint256,address)": "adb2d96b",
          "admins(uint256)": "14bfd6d0",
          "assignRole(address,uint8)": "630a195b",
          "auditorIndex(address)": "44bfd12d",
          "auditors(uint256)": "1b8b444c",
          "batchAssignRoles(address[],uint8[])": "662d6ce5",
          "batchRemoveAdmins(address[])": "07314a3f",
          "batchRemoveAuditors(address[])": "e93dea23",
          "cancelElection(uint256)": "d8fe0c2a",
          "castVote(uint256,string,bytes32,uint256)": "3e599eb6",
          "createElection(string,string,string[],uint256,uint256,bytes32)": "ce7318bd",
          "electionCount()": "997d2830",
          "electionExists(uint256)": "773e078e",
          "elections(uint256)": "5e6fef01",
          "encryptionKey()": "e03a9191",
          "finalizeElection(uint256)": "1537052e",
          "getAdminAtIndex(uint256)": "f1c4132e",
          "getAdminCount()": "8b7bf3eb",
          "getAdminIndex(address)": "bf8c6112",
          "getAdmins()": "31ae450b",
          "getApprovedVoters(uint256)": "f452130b",
          "getAuditorAtIndex(uint256)": "ef2d65c3",
          "getAuditorCount()": "52738d9a",
          "getAuditorIndex(address)": "bee6bf1a",
          "getAuditors()": "57de4a6e",
          "getCandidateVotes(uint256,string)": "a693f744",
          "getElectionCount()": "213785a0",
          "getElectionDetails(uint256)": "f6049924",
          "getHardcodedAdmins()": "8c89a8a1",
          "getHardcodedAuditors()": "de2f0d6f",
          "getRegistrationRequests(uint256)": "cb1c8727",
          "getRole(address)": "44276733",
          "getVoterTurnout(uint256)": "90b536e3",
          "hasRequestedRegistration(uint256,address)": "41260c85",
          "hasRole(address,uint8)": "95a8c58d",
          "hasVoted(uint256,address)": "43859632",
          "hasVoterVoted(uint256,address)": "a0d96f0c",
          "isAdmin(address)": "24d7806c",
          "isAdminMap(address)": "8e9a4c34",
          "isAuditor(address)": "49b90557",
          "isAuditorMap(address)": "f575afad",
          "isHardcodedAdmin(address)": "c41331ec",
          "isHardcodedAuditor(address)": "8978ae39",
          "isValidCandidate(uint256,string)": "c9be0cf7",
          "isVoterRegistered(uint256,address)": "394eaa8f",
          "owner()": "8da5cb5b",
          "registerVoter(uint256,bytes32[])": "0dd709b9",
          "registeredVoters(uint256,address)": "b83ed4c8",
          "registrationRequestIndex(uint256,address)": "dd94505f",
          "removeAdmin(address)": "1785f53c",
          "removeAuditor(address)": "e6116cfd",
          "renounceOwnership()": "715018a6",
          "setVoterEligibility(uint256,address,bool)": "ed3e8461",
          "setVoterIdentity(string)": "c9875d7b",
          "transferOwnership(address)": "f2fde38b",
          "updateElection(uint256,string,string,string[],uint256,uint256)": "1e7bbd86",
          "updateEncryptionKey(bytes32)": "478f161b",
          "updateMerkleRoot(uint256,bytes32)": "f1e33115",
          "userRoles(address)": "74d5e100",
          "verifyVote(uint256,address,string,bytes32,uint256,bytes32)": "889a9882",
          "voteHashes(uint256,address)": "f84e6f74",
          "voterIdentities(address)": "bf66f9a9",
          "votes(uint256,string)": "14f3f349"
        }
      }
    }
  }
}