{
  "contracts/Results.sol": {
    "Results": {
      "abi": [
        {
          "inputs": [
            {
              "internalType": "address",
              "name": "_votingContractAddress",
              "type": "address"
            }
          ],
          "stateMutability": "nonpayable",
          "type": "constructor"
        },
        {
          "anonymous": false,
          "inputs": [
            {
              "indexed": true,
              "internalType": "uint256",
              "name": "electionId",
              "type": "uint256"
            },
            {
              "indexed": true,
              "internalType": "address",
              "name": "accessor",
              "type": "address"
            }
          ],
          "name": "RealTimeResultsAccessed",
          "type": "event"
        },
        {
          "anonymous": false,
          "inputs": [
            {
              "indexed": true,
              "internalType": "uint256",
              "name": "electionId",
              "type": "uint256"
            },
            {
              "indexed": true,
              "internalType": "address",
              "name": "accessor",
              "type": "address"
            }
          ],
          "name": "ResultsAccessed",
          "type": "event"
        },
        {
          "inputs": [
            {
              "internalType": "uint256",
              "name": "_electionId",
              "type": "uint256"
            },
            {
              "internalType": "address",
              "name": "_address",
              "type": "address"
            }
          ],
          "name": "canAccessResults",
          "outputs": [
            {
              "internalType": "bool",
              "name": "",
              "type": "bool"
            }
          ],
          "stateMutability": "view",
          "type": "function"
        },
        {
          "inputs": [
            {
              "internalType": "uint256",
              "name": "_electionId1",
              "type": "uint256"
            },
            {
              "internalType": "uint256",
              "name": "_electionId2",
              "type": "uint256"
            }
          ],
          "name": "compareElections",
          "outputs": [
            {
              "internalType": "string",
              "name": "title1",
              "type": "string"
            },
            {
              "internalType": "string",
              "name": "title2",
              "type": "string"
            },
            {
              "internalType": "uint256",
              "name": "totalVotes1",
              "type": "uint256"
            },
            {
              "internalType": "uint256",
              "name": "totalVotes2",
              "type": "uint256"
            },
            {
              "internalType": "uint256",
              "name": "turnoutPercentage1",
              "type": "uint256"
            },
            {
              "internalType": "uint256",
              "name": "turnoutPercentage2",
              "type": "uint256"
            },
            {
              "internalType": "enum IVoting.Status",
              "name": "status1",
              "type": "uint8"
            },
            {
              "internalType": "enum IVoting.Status",
              "name": "status2",
              "type": "uint8"
            }
          ],
          "stateMutability": "view",
          "type": "function"
        },
        {
          "inputs": [
            {
              "internalType": "uint256",
              "name": "_electionId",
              "type": "uint256"
            }
          ],
          "name": "getCompleteElectionResult",
          "outputs": [
            {
              "components": [
                {
                  "internalType": "uint256",
                  "name": "electionId",
                  "type": "uint256"
                },
                {
                  "internalType": "string",
                  "name": "title",
                  "type": "string"
                },
                {
                  "internalType": "string[]",
                  "name": "candidates",
                  "type": "string[]"
                },
                {
                  "internalType": "uint256[]",
                  "name": "voteCounts",
                  "type": "uint256[]"
                },
                {
                  "internalType": "uint256",
                  "name": "totalVotes",
                  "type": "uint256"
                },
                {
                  "internalType": "uint256",
                  "name": "totalVoters",
                  "type": "uint256"
                },
                {
                  "internalType": "uint256",
                  "name": "votedCount",
                  "type": "uint256"
                },
                {
                  "internalType": "uint256",
                  "name": "turnoutPercentage",
                  "type": "uint256"
                },
                {
                  "internalType": "enum IVoting.Status",
                  "name": "status",
                  "type": "uint8"
                },
                {
                  "internalType": "bool",
                  "name": "isFinalized",
                  "type": "bool"
                },
                {
                  "internalType": "uint256",
                  "name": "endDate",
                  "type": "uint256"
                }
              ],
              "internalType": "struct Results.ElectionResult",
              "name": "result",
              "type": "tuple"
            }
          ],
          "stateMutability": "view",
          "type": "function"
        },
        {
          "inputs": [
            {
              "internalType": "uint256",
              "name": "_electionId",
              "type": "uint256"
            }
          ],
          "name": "getElectionResults",
          "outputs": [
            {
              "internalType": "string[]",
              "name": "candidates",
              "type": "string[]"
            },
            {
              "internalType": "uint256[]",
              "name": "voteCounts",
              "type": "uint256[]"
            },
            {
              "internalType": "uint256",
              "name": "totalVotes",
              "type": "uint256"
            },
            {
              "internalType": "uint256",
              "name": "totalVoters",
              "type": "uint256"
            },
            {
              "internalType": "uint256",
              "name": "votedCount",
              "type": "uint256"
            },
            {
              "internalType": "uint256",
              "name": "turnoutPercentage",
              "type": "uint256"
            }
          ],
          "stateMutability": "view",
          "type": "function"
        },
        {
          "inputs": [
            {
              "internalType": "uint256",
              "name": "_electionId",
              "type": "uint256"
            }
          ],
          "name": "getElectionStatus",
          "outputs": [
            {
              "internalType": "enum IVoting.Status",
              "name": "",
              "type": "uint8"
            }
          ],
          "stateMutability": "view",
          "type": "function"
        },
        {
          "inputs": [
            {
              "internalType": "uint256",
              "name": "_electionId",
              "type": "uint256"
            }
          ],
          "name": "getElectionSummary",
          "outputs": [
            {
              "internalType": "string",
              "name": "title",
              "type": "string"
            },
            {
              "internalType": "enum IVoting.Status",
              "name": "status",
              "type": "uint8"
            },
            {
              "internalType": "bool",
              "name": "isFinalized",
              "type": "bool"
            },
            {
              "internalType": "uint256",
              "name": "totalVotes",
              "type": "uint256"
            },
            {
              "internalType": "uint256",
              "name": "totalVoters",
              "type": "uint256"
            },
            {
              "internalType": "uint256",
              "name": "votedCount",
              "type": "uint256"
            }
          ],
          "stateMutability": "view",
          "type": "function"
        },
        {
          "inputs": [
            {
              "internalType": "uint256",
              "name": "_electionId",
              "type": "uint256"
            }
          ],
          "name": "getElectionWinner",
          "outputs": [
            {
              "components": [
                {
                  "internalType": "string",
                  "name": "winner",
                  "type": "string"
                },
                {
                  "internalType": "uint256",
                  "name": "voteCount",
                  "type": "uint256"
                },
                {
                  "internalType": "bool",
                  "name": "isTie",
                  "type": "bool"
                },
                {
                  "internalType": "string[]",
                  "name": "tiedCandidates",
                  "type": "string[]"
                }
              ],
              "internalType": "struct Results.ElectionWinner",
              "name": "winner",
              "type": "tuple"
            }
          ],
          "stateMutability": "view",
          "type": "function"
        },
        {
          "inputs": [
            {
              "internalType": "uint256",
              "name": "_electionId",
              "type": "uint256"
            }
          ],
          "name": "getRealTimeResults",
          "outputs": [
            {
              "internalType": "string[]",
              "name": "candidates",
              "type": "string[]"
            },
            {
              "internalType": "uint256[]",
              "name": "voteCounts",
              "type": "uint256[]"
            },
            {
              "internalType": "uint256",
              "name": "totalVotes",
              "type": "uint256"
            },
            {
              "internalType": "uint256",
              "name": "totalVoters",
              "type": "uint256"
            },
            {
              "internalType": "uint256",
              "name": "votedCount",
              "type": "uint256"
            },
            {
              "internalType": "uint256",
              "name": "turnoutPercentage",
              "type": "uint256"
            }
          ],
          "stateMutability": "nonpayable",
          "type": "function"
        },
        {
          "inputs": [
            {
              "internalType": "uint256",
              "name": "_electionId",
              "type": "uint256"
            }
          ],
          "name": "getTotalVotes",
          "outputs": [
            {
              "internalType": "uint256",
              "name": "",
              "type": "uint256"
            }
          ],
          "stateMutability": "view",
          "type": "function"
        },
        {
          "inputs": [
            {
              "internalType": "uint256",
              "name": "_electionId",
              "type": "uint256"
            }
          ],
          "name": "getVoterStatistics",
          "outputs": [
            {
              "internalType": "uint256",
              "name": "totalVoters",
              "type": "uint256"
            },
            {
              "internalType": "uint256",
              "name": "voted",
              "type": "uint256"
            },
            {
              "internalType": "uint256",
              "name": "turnoutPercentage",
              "type": "uint256"
            }
          ],
          "stateMutability": "view",
          "type": "function"
        },
        {
          "inputs": [
            {
              "internalType": "uint256",
              "name": "_electionId",
              "type": "uint256"
            }
          ],
          "name": "hasElectionEnded",
          "outputs": [
            {
              "internalType": "bool",
              "name": "",
              "type": "bool"
            }
          ],
          "stateMutability": "view",
          "type": "function"
        },
        {
          "inputs": [
            {
              "internalType": "uint256",
              "name": "_electionId",
              "type": "uint256"
            }
          ],
          "name": "isElectionFinalized",
          "outputs": [
            {
              "internalType": "bool",
              "name": "",
              "type": "bool"
            }
          ],
          "stateMutability": "view",
          "type": "function"
        },
        {
          "inputs": [],
          "name": "votingContract",
          "outputs": [
            {
              "internalType": "contract IVoting",
              "name": "",
              "type": "address"
            }
          ],
          "stateMutability": "view",
          "type": "function"
        }
      ],
      "evm": {
        "bytecode": {
          "linkReferences": {},
          "object": "60803460ba57601f611ee538819003918201601f19168301916001600160401b0383118484101760bf5780849260209460405283398101031260ba57516001600160a01b0381169081900360ba578015607557600080546001600160a01b031916919091179055604051611e0f90816100d68239f35b60405162461bcd60e51b815260206004820152601f60248201527f496e76616c696420766f74696e6720636f6e74726163742061646472657373006044820152606490fd5b600080fd5b634e487b7160e01b600052604160045260246000fdfe608080604052600436101561001357600080fd5b60003560e01c90816324785b9e14610e72575080632ce35e1114610d7f5780633f6037f814610ab15780634f4f3cc514610a7f5780635439931c1461098a578063aeac16d114610728578063c1fc006a146106ff578063c9635e1b146105b0578063cadc68e914610588578063d9148f731461043b578063dc2771f314610376578063e62c6ac51461030c5763e8ededa6146100ae57600080fd5b346101d45760203660031901126101d45760043560018060a01b036000541690604051633b9f03c760e11b8152816004820152602081602481865afa80156101e1576000906102d1575b6101029150611156565b604051633d81264960e21b815260048101829052600081602481865afa80156101e15760009182916102a4575b501561025f576005811015610249576002811490811561023e575b50156101ed5760209161015c82611ca2565b93909261016881611988565b9390926024604051809781936390b536e360e01b835260048301525afa80156101e1576000906101a8575b6101a494506040519687968761104c565b0390f35b506020843d6020116101d9575b816101c260209383611127565b810103126101d4576101a49351610193565b600080fd5b3d91506101b5565b6040513d6000823e3d90fd5b60405162461bcd60e51b815260206004820152602360248201527f456c656374696f6e206d75737420626520656e646564206f722066696e616c696044820152621e995960ea1b6064820152608490fd5b60049150143861014a565b634e487b7160e01b600052602160045260246000fd5b60405162461bcd60e51b815260206004820152601960248201527f526573756c7473206e6f742066696e616c697a656420796574000000000000006044820152606490fd5b90506102c1913d8091833e6102b98183611127565b81019061120f565b505095509350505050903861012f565b506020813d602011610304575b816102eb60209383611127565b810103126101d4576102ff61010291611149565b6100f8565b3d91506102de565b346101d45760203660031901126101d4576101a461032b60043561163b565b60405191829160208352606061034d82516080602087015260a0860190610f9a565b916020810151604086015260408101511515828601520151601f19848303016080850152610fbf565b346101d45760203660031901126101d457600435610392611b73565b600054604051633b9f03c760e11b81526004810183905290602090829060249082906001600160a01b03165afa9081156101e1576000916103f5575b60606103e2846103dd85611156565b611988565b9060405192835260208301526040820152f35b90506020813d602011610433575b8161041060209383611127565b810103126101d4576060916103dd61042a6103e293611149565b925050916103ce565b3d9150610403565b346101d45760203660031901126101d457600054604051633b9f03c760e11b815260048035908201819052916001600160a01b031690602081602481855afa9081156101e157600091610543575b50602491610498600092611156565b60405192838092633d81264960e21b82528660048301525afa9182156101e1576104ef92600092839284918593610514575b506104d490611988565b509290916104fa60405197889760c0895260c0890190610f9a565b956020880190610f6a565b151560408601526060850152608084015260a08301520390f35b9150925061053091506104d4933d8091833e6102b98183611127565b5096989197909550935091506104ca9050565b90506020813d602011610580575b8161055e60209383611127565b810103126101d457602491610498610577600093611149565b92505091610489565b3d9150610551565b346101d45760203660031901126101d45760206105a66004356114ac565b6040519015158152f35b346101d45760203660031901126101d4576004356105cc611b73565b600054604051633b9f03c760e11b8152600481018390526001600160a01b039091169190602081602481865afa80156101e1576000906106c4575b6106119150611156565b602461061c82611ca2565b9093602061062985611988565b9491929093604051968780926390b536e360e01b82528a60048301525afa9081156101e15760009161068e575b6101a4955060405197889733907ff709c59ccf15481d1600980d3351c6b774cf54eae4d8baee1f87794d5f869534600080a38761104c565b90506020853d6020116106bc575b816106a960209383611127565b810103126101d4576101a4945190610656565b3d915061069c565b506020813d6020116106f7575b816106de60209383611127565b810103126101d4576106f261061191611149565b610607565b3d91506106d1565b346101d45760003660031901126101d4576000546040516001600160a01b039091168152602090f35b346101d45760203660031901126101d457600435600061014060405161074d816110d8565b82815260606020820152606060408201526060808201528260808201528260a08201528260c08201528260e082015282610100820152826101208201520152610794611b73565b600054604051633b9f03c760e11b8152600481018390526001600160a01b039091169190602081602481865afa9081156101e157600091610945575b506024926107df600092611156565b60405193848092633d81264960e21b82528560048301525afa80156101e1576000928390848591869461091a575b5061081785611988565b9161082188611ca2565b906040519961082f8b6110d8565b8a5260208a019a8b5260408a0190815260608a0191825260808a0198895260a08a0192835260c08a0193845260e08a019485526101008a019560058110156102495786526101208a0196151587526101408a019788526040519a8b9a60208c525160208c01525160408b0161016090526101808b016108ad91610f9a565b90518a8203601f190160608c01526108c59190610fbf565b9051898203601f190160808b01526108dd9190611018565b965160a08901525160c08801525160e08701525161010086015251610120850161090691610f6a565b511515610140840152516101608301520390f35b935050505061093391923d8091833e6102b98183611127565b5096979695509193509091508661080d565b90506020813d602011610982575b8161096060209383611127565b810103126101d4576024926107df610979600093611149565b925050926107d0565b3d9150610953565b346101d45760203660031901126101d457600054604051633b9f03c760e11b8152600480359082018190526001600160a01b0390921691602082602481865afa9182156101e157600092610a3f575b506109e5600092611156565b602460405180948193633d81264960e21b835260048301525afa80156101e157602091600091610a1b575b506040519015158152f35b610a3091503d806000833e6102b98183611127565b50509550505050505082610a10565b91506020823d602011610a77575b81610a5a60209383611127565b810103126101d4576109e5610a70600093611149565b92506109d9565b3d9150610a4d565b346101d45760403660031901126101d4576024356001600160a01b03811681036101d4576105a660209160043561133b565b346101d45760403660031901126101d45760043560243560018060a01b036000541690604051633b9f03c760e11b8152836004820152602081602481865afa9081156101e157600091610d45575b5015610d0057604051633b9f03c760e11b815260048101829052602081602481865afa9081156101e157600091610cc6575b5015610c8157604051633d81264960e21b81526004810184905290600082602481865afa9182156101e157600093600091600094610c4f575b50600060249160405192838092633d81264960e21b82528760048301525afa9182156101e157610bde966101a494600091600094600096610c15575b5094610bec610bc4610bbb610c0b9798611988565b95915050611988565b959150506040519b8c9b6101008d526101008d0190610f9a565b908b820360208d0152610f9a565b9760408a01526060890152608088015260a087015260c0860190610f6a565b60e0840190610f6a565b610bc49650610c0b9550610bbb9350610c3b610bec913d806000833e6102b98183611127565b509d50909b50949850610ba6945050505050565b60009550610c6c919450602492503d8087833e6102b98183611127565b50979694505098935050509592949150610b6a565b60405162461bcd60e51b815260206004820152601e60248201527f5365636f6e6420656c656374696f6e20646f6573206e6f7420657869737400006044820152606490fd5b90506020813d602011610cf8575b81610ce160209383611127565b810103126101d457610cf290611149565b84610b31565b3d9150610cd4565b60405162461bcd60e51b815260206004820152601d60248201527f466972737420656c656374696f6e20646f6573206e6f742065786973740000006044820152606490fd5b90506020813d602011610d77575b81610d6060209383611127565b810103126101d457610d7190611149565b84610aff565b3d9150610d53565b346101d45760203660031901126101d457600054604051633b9f03c760e11b8152600480359082018190526001600160a01b0390921691602082602481865afa9182156101e157600092610e32575b50610dda600092611156565b602460405180948193633d81264960e21b835260048301525afa80156101e157602091600091610e0e575b50604051908152f35b610e2391503d806000833e6102b98183611127565b50965050505050505082610e05565b91506020823d602011610e6a575b81610e4d60209383611127565b810103126101d457610dda610e63600093611149565b9250610dce565b3d9150610e40565b346101d45760203660031901126101d457600054633b9f03c760e11b8252600480359083018190526001600160a01b039091169190602082602481865afa9182156101e157600092610f2a575b50610ecb600092611156565b602460405180948193633d81264960e21b835260048301525afa80156101e157602091600091610f06575b50610f046040518092610f6a565bf35b610f1b91503d806000833e6102b98183611127565b50505094505050505082610ef6565b91506020823d602011610f62575b81610f4560209383611127565b810103126101d457610ecb610f5b600093611149565b9250610ebf565b3d9150610f38565b9060058210156102495752565b60005b838110610f8a5750506000910152565b8181015183820152602001610f7a565b90602091610fb381518092818552858086019101610f77565b601f01601f1916010190565b9080602083519182815201916020808360051b8301019401926000915b838310610feb57505050505090565b9091929394602080611009600193601f198682030187528951610f9a565b97019301930191939290610fdc565b906020808351928381520192019060005b8181106110365750505090565b8251845260209384019390920191600101611029565b9295939096949160c0840160c08552885180915260e0850190602060e08260051b8801019a01916000905b8282106110ad575050505087611099918560a09798999a036020870152611018565b966040840152606083015260808201520152565b9091929a6020806110ca6001938f60df198d830301875251610f9a565b9d0192019201909291611077565b610160810190811067ffffffffffffffff8211176110f557604052565b634e487b7160e01b600052604160045260246000fd5b6080810190811067ffffffffffffffff8211176110f557604052565b90601f8019910116810190811067ffffffffffffffff8211176110f557604052565b519081151582036101d457565b1561115d57565b60405162461bcd60e51b815260206004820152601760248201527f456c656374696f6e20646f6573206e6f742065786973740000000000000000006044820152606490fd5b81601f820112156101d457805167ffffffffffffffff81116110f557604051926111d6601f8301601f191660200185611127565b818452602082840101116101d4576111f49160208085019101610f77565b90565b67ffffffffffffffff81116110f55760051b60200190565b91610120838303126101d457825167ffffffffffffffff81116101d457826112389185016111a2565b92602081015167ffffffffffffffff81116101d457836112599183016111a2565b92604082015167ffffffffffffffff81116101d45782019080601f830112156101d4578151611287816111f7565b926112956040519485611127565b81845260208085019260051b820101918383116101d45760208201905b8382106112f55750505050509160608201519160808101519160a082015160058110156101d457916112e660c08201611149565b9161010060e083015192015190565b815167ffffffffffffffff81116101d457602091611318878480948801016111a2565b8152019101906112b2565b908160209103126101d4575160038110156101d45790565b600054604051633b9f03c760e11b815260048101929092526001600160a01b03169190602081602481865afa9081156101e157600091611472575b501561146b57604051634427673360e01b81526001600160a01b0390911660048201819052602082602481865afa9182156101e157600092611439575b506020906024604051809581936349b9055760e01b835260048301525afa9182156101e1576000926113fd575b506003811015610249576002149081156113f8575090565b905090565b9091506020813d602011611431575b8161141960209383611127565b810103126101d45761142a90611149565b90386113e0565b3d915061140c565b602091925061145d90823d8411611464575b6114558183611127565b810190611323565b91906113b3565b503d61144b565b5050600090565b90506020813d6020116114a4575b8161148d60209383611127565b810103126101d45761149e90611149565b38611376565b3d9150611480565b600054604051633b9f03c760e11b8152600481018390526001600160a01b039091169190602081602481865afa9081156101e15760009161157e575b501561146b57600090602460405180948193633d81264960e21b835260048301525afa9081156101e157600090600092611558575b504211908115611543575b8115611532575090565b905060058110156102495760041490565b90506005811015610249576002811490611528565b905061156f91503d806000833e6102b98183611127565b5050509450925050503861151d565b90506020813d6020116115b0575b8161159960209383611127565b810103126101d4576115aa90611149565b386114e8565b3d915061158c565b80518210156115cc5760209160051b010190565b634e487b7160e01b600052603260045260246000fd5b60001981146115f15760010190565b634e487b7160e01b600052601160045260246000fd5b60405190611616602083611127565b600080835282815b82811061162a57505050565b80606060208093850101520161161e565b6040516116478161110b565b6060815260006020820152600060408201526060808201525060018060a01b0360005416604051633b9f03c760e11b8152826004820152602081602481855afa9081156101e157600091611943575b506024916116a5600092611156565b60405192838092633d81264960e21b82528660048301525afa9081156101e15760009161191f575b50156118e1576116dc90611ca2565b9190600090818080805b875186101561176d57816116fa878a6115b8565b511115611727575050505061170f82856115b8565b51908293600094600180955b019491959293906116e6565b90939295919484611738828a6115b8565b511480611764575b61174d575b60019061171b565b949550600161175c81976115e2565b959050611745565b50841515611740565b93969192909450841561189b576117b957505061178b9192936115b8565b5190611795611607565b90604051926117a38461110b565b8352602083015260006040830152606082015290565b915091936117c6836111f7565b926117d46040519485611127565b8084526117e3601f19916111f7565b0160005b81811061188a57505060009160005b825181101561184e578661180a82846115b8565b5114611819575b6001016117f6565b9261184660019161182a86866115b8565b5161183582896115b8565b5261184081886115b8565b506115e2565b939050611811565b50505050919091604051916118628361110b565b604051611870602082611127565b600081528352602083015260016040830152606082015290565b8060606020809388010152016117e7565b505050505090506118aa611607565b604051906118b78261110b565b6040516118c5602082611127565b6000815282526000602083015260006040830152606082015290565b60405162461bcd60e51b8152602060048201526016602482015275115b1958dd1a5bdb881b9bdd08199a5b985b1a5e995960521b6044820152606490fd5b61193491503d806000833e6102b98183611127565b505095505050505050386116cd565b90506020813d602011611980575b8161195e60209383611127565b810103126101d4576024916116a5611977600093611149565b92505091611696565b3d9150611951565b6000805460405163f452130b60e01b8152600481018490526001600160a01b039091169392909182602481875afa9182156101e157600092611ac7575b50600091825b8151811015611a78576001600160a01b036119e682846115b8565b516040516328365bc360e21b815260048101869052911660248201526020816044818a5afa9081156101e157600091611a3c575b50611a28575b6001016119cb565b92611a346001916115e2565b939050611a20565b906020823d8211611a70575b81611a5560209383611127565b81010312611a6d5750611a6790611149565b38611a1a565b80fd5b3d9150611a48565b505191935090919050811580611abe576064840290848204606414851517156115f157611aa85782900491929190565b634e487b7160e01b600052601260045260246000fd5b50600091929190565b90913d8082843e611ad88184611127565b820191602081840312611b6f5780519067ffffffffffffffff8211611b6b57019180601f84011215611b6f57825191611b10836111f7565b93611b1e6040519586611127565b83855260208086019460051b820101928311611b6f57602001925b828410611b4b575050505090386119c5565b83516001600160a01b0381168103611b6b57815260209384019301611b39565b8280fd5b5080fd5b600054604051634427673360e01b8152336004820152906001600160a01b0316602082602481845afa9081156101e157602492600092611c80575b50602090604051938480926349b9055760e01b82523360048301525afa9182156101e157600092611c44575b50600381101561024957600214908115611c3c575b5015611bf757565b60405162461bcd60e51b815260206004820152601e60248201527f52657175697265732061646d696e206f722061756469746f7220726f6c6500006044820152606490fd5b905038611bef565b9091506020813d602011611c78575b81611c6060209383611127565b810103126101d457611c7190611149565b9038611bda565b3d9150611c53565b6020919250611c9b90823d8411611464576114558183611127565b9190611bae565b60008054604051633d81264960e21b81526004810184905293926001600160a01b039091169184602481855afa9384156101e157600094611db5575b50835191611ceb836111f7565b92611cf96040519485611127565b808452611d08601f19916111f7565b0136602085013760005b8551811015611daf57611d536020611d2a83896115b8565b51604051809381926329a4fdd160e21b8352886004840152604060248401526044830190610f9a565b0381865afa9081156101e157600091611d7d575b5090600191611d7682876115b8565b5201611d12565b906020823d8211611da7575b81611d9660209383611127565b81010312611a6d5750516001611d67565b3d9150611d89565b50505090565b611dc991943d8091833e6102b98183611127565b5050505050509150509238611cde56fea2646970667358221220ad7ef54663279121eb268ac2b58a2146ff8bebe8785ce23ce3a0363cc25eb05b64736f6c634300081c0033",
          "opcodes": "PUSH1 0x80 CALLVALUE PUSH1 0xBA JUMPI PUSH1 0x1F PUSH2 0x1EE5 CODESIZE DUP2 SWAP1 SUB SWAP2 DUP3 ADD PUSH1 0x1F NOT AND DUP4 ADD SWAP2 PUSH1 0x1 PUSH1 0x1 PUSH1 0x40 SHL SUB DUP4 GT DUP5 DUP5 LT OR PUSH1 0xBF JUMPI DUP1 DUP5 SWAP3 PUSH1 0x20 SWAP5 PUSH1 0x40 MSTORE DUP4 CODECOPY DUP2 ADD SUB SLT PUSH1 0xBA JUMPI MLOAD PUSH1 0x1 PUSH1 0x1 PUSH1 0xA0 SHL SUB DUP2 AND SWAP1 DUP2 SWAP1 SUB PUSH1 0xBA JUMPI DUP1 ISZERO PUSH1 0x75 JUMPI PUSH1 0x0 DUP1 SLOAD PUSH1 0x1 PUSH1 0x1 PUSH1 0xA0 SHL SUB NOT AND SWAP2 SWAP1 SWAP2 OR SWAP1 SSTORE PUSH1 0x40 MLOAD PUSH2 0x1E0F SWAP1 DUP2 PUSH2 0xD6 DUP3 CODECOPY RETURN JUMPDEST PUSH1 0x40 MLOAD PUSH3 0x461BCD PUSH1 0xE5 SHL DUP2 MSTORE PUSH1 0x20 PUSH1 0x4 DUP3 ADD MSTORE PUSH1 0x1F PUSH1 0x24 DUP3 ADD MSTORE PUSH32 0x496E76616C696420766F74696E6720636F6E7472616374206164647265737300 PUSH1 0x44 DUP3 ADD MSTORE PUSH1 0x64 SWAP1 REVERT JUMPDEST PUSH1 0x0 DUP1 REVERT JUMPDEST PUSH4 0x4E487B71 PUSH1 0xE0 SHL PUSH1 0x0 MSTORE PUSH1 0x41 PUSH1 0x4 MSTORE PUSH1 0x24 PUSH1 0x0 REVERT INVALID PUSH1 0x80 DUP1 PUSH1 0x40 MSTORE PUSH1 0x4 CALLDATASIZE LT ISZERO PUSH2 0x13 JUMPI PUSH1 0x0 DUP1 REVERT JUMPDEST PUSH1 0x0 CALLDATALOAD PUSH1 0xE0 SHR SWAP1 DUP2 PUSH4 0x24785B9E EQ PUSH2 0xE72 JUMPI POP DUP1 PUSH4 0x2CE35E11 EQ PUSH2 0xD7F JUMPI DUP1 PUSH4 0x3F6037F8 EQ PUSH2 0xAB1 JUMPI DUP1 PUSH4 0x4F4F3CC5 EQ PUSH2 0xA7F JUMPI DUP1 PUSH4 0x5439931C EQ PUSH2 0x98A JUMPI DUP1 PUSH4 0xAEAC16D1 EQ PUSH2 0x728 JUMPI DUP1 PUSH4 0xC1FC006A EQ PUSH2 0x6FF JUMPI DUP1 PUSH4 0xC9635E1B EQ PUSH2 0x5B0 JUMPI DUP1 PUSH4 0xCADC68E9 EQ PUSH2 0x588 JUMPI DUP1 PUSH4 0xD9148F73 EQ PUSH2 0x43B JUMPI DUP1 PUSH4 0xDC2771F3 EQ PUSH2 0x376 JUMPI DUP1 PUSH4 0xE62C6AC5 EQ PUSH2 0x30C JUMPI PUSH4 0xE8EDEDA6 EQ PUSH2 0xAE JUMPI PUSH1 0x0 DUP1 REVERT JUMPDEST CALLVALUE PUSH2 0x1D4 JUMPI PUSH1 0x20 CALLDATASIZE PUSH1 0x3 NOT ADD SLT PUSH2 0x1D4 JUMPI PUSH1 0x4 CALLDATALOAD PUSH1 0x1 DUP1 PUSH1 0xA0 SHL SUB PUSH1 0x0 SLOAD AND SWAP1 PUSH1 0x40 MLOAD PUSH4 0x3B9F03C7 PUSH1 0xE1 SHL DUP2 MSTORE DUP2 PUSH1 0x4 DUP3 ADD MSTORE PUSH1 0x20 DUP2 PUSH1 0x24 DUP2 DUP7 GAS STATICCALL DUP1 ISZERO PUSH2 0x1E1 JUMPI PUSH1 0x0 SWAP1 PUSH2 0x2D1 JUMPI JUMPDEST PUSH2 0x102 SWAP2 POP PUSH2 0x1156 JUMP JUMPDEST PUSH1 0x40 MLOAD PUSH4 0x3D812649 PUSH1 0xE2 SHL DUP2 MSTORE PUSH1 0x4 DUP2 ADD DUP3 SWAP1 MSTORE PUSH1 0x0 DUP2 PUSH1 0x24 DUP2 DUP7 GAS STATICCALL DUP1 ISZERO PUSH2 0x1E1 JUMPI PUSH1 0x0 SWAP2 DUP3 SWAP2 PUSH2 0x2A4 JUMPI JUMPDEST POP ISZERO PUSH2 0x25F JUMPI PUSH1 0x5 DUP2 LT ISZERO PUSH2 0x249 JUMPI PUSH1 0x2 DUP2 EQ SWAP1 DUP2 ISZERO PUSH2 0x23E JUMPI JUMPDEST POP ISZERO PUSH2 0x1ED JUMPI PUSH1 0x20 SWAP2 PUSH2 0x15C DUP3 PUSH2 0x1CA2 JUMP JUMPDEST SWAP4 SWAP1 SWAP3 PUSH2 0x168 DUP2 PUSH2 0x1988 JUMP JUMPDEST SWAP4 SWAP1 SWAP3 PUSH1 0x24 PUSH1 0x40 MLOAD DUP1 SWAP8 DUP2 SWAP4 PUSH4 0x90B536E3 PUSH1 0xE0 SHL DUP4 MSTORE PUSH1 0x4 DUP4 ADD MSTORE GAS STATICCALL DUP1 ISZERO PUSH2 0x1E1 JUMPI PUSH1 0x0 SWAP1 PUSH2 0x1A8 JUMPI JUMPDEST PUSH2 0x1A4 SWAP5 POP PUSH1 0x40 MLOAD SWAP7 DUP8 SWAP7 DUP8 PUSH2 0x104C JUMP JUMPDEST SUB SWAP1 RETURN JUMPDEST POP PUSH1 0x20 DUP5 RETURNDATASIZE PUSH1 0x20 GT PUSH2 0x1D9 JUMPI JUMPDEST DUP2 PUSH2 0x1C2 PUSH1 0x20 SWAP4 DUP4 PUSH2 0x1127 JUMP JUMPDEST DUP2 ADD SUB SLT PUSH2 0x1D4 JUMPI PUSH2 0x1A4 SWAP4 MLOAD PUSH2 0x193 JUMP JUMPDEST PUSH1 0x0 DUP1 REVERT JUMPDEST RETURNDATASIZE SWAP2 POP PUSH2 0x1B5 JUMP JUMPDEST PUSH1 0x40 MLOAD RETURNDATASIZE PUSH1 0x0 DUP3 RETURNDATACOPY RETURNDATASIZE SWAP1 REVERT JUMPDEST PUSH1 0x40 MLOAD PUSH3 0x461BCD PUSH1 0xE5 SHL DUP2 MSTORE PUSH1 0x20 PUSH1 0x4 DUP3 ADD MSTORE PUSH1 0x23 PUSH1 0x24 DUP3 ADD MSTORE PUSH32 0x456C656374696F6E206D75737420626520656E646564206F722066696E616C69 PUSH1 0x44 DUP3 ADD MSTORE PUSH3 0x1E9959 PUSH1 0xEA SHL PUSH1 0x64 DUP3 ADD MSTORE PUSH1 0x84 SWAP1 REVERT JUMPDEST PUSH1 0x4 SWAP2 POP EQ CODESIZE PUSH2 0x14A JUMP JUMPDEST PUSH4 0x4E487B71 PUSH1 0xE0 SHL PUSH1 0x0 MSTORE PUSH1 0x21 PUSH1 0x4 MSTORE PUSH1 0x24 PUSH1 0x0 REVERT JUMPDEST PUSH1 0x40 MLOAD PUSH3 0x461BCD PUSH1 0xE5 SHL DUP2 MSTORE PUSH1 0x20 PUSH1 0x4 DUP3 ADD MSTORE PUSH1 0x19 PUSH1 0x24 DUP3 ADD MSTORE PUSH32 0x526573756C7473206E6F742066696E616C697A65642079657400000000000000 PUSH1 0x44 DUP3 ADD MSTORE PUSH1 0x64 SWAP1 REVERT JUMPDEST SWAP1 POP PUSH2 0x2C1 SWAP2 RETURNDATASIZE DUP1 SWAP2 DUP4 RETURNDATACOPY PUSH2 0x2B9 DUP2 DUP4 PUSH2 0x1127 JUMP JUMPDEST DUP2 ADD SWAP1 PUSH2 0x120F JUMP JUMPDEST POP POP SWAP6 POP SWAP4 POP POP POP POP SWAP1 CODESIZE PUSH2 0x12F JUMP JUMPDEST POP PUSH1 0x20 DUP2 RETURNDATASIZE PUSH1 0x20 GT PUSH2 0x304 JUMPI JUMPDEST DUP2 PUSH2 0x2EB PUSH1 0x20 SWAP4 DUP4 PUSH2 0x1127 JUMP JUMPDEST DUP2 ADD SUB SLT PUSH2 0x1D4 JUMPI PUSH2 0x2FF PUSH2 0x102 SWAP2 PUSH2 0x1149 JUMP JUMPDEST PUSH2 0xF8 JUMP JUMPDEST RETURNDATASIZE SWAP2 POP PUSH2 0x2DE JUMP JUMPDEST CALLVALUE PUSH2 0x1D4 JUMPI PUSH1 0x20 CALLDATASIZE PUSH1 0x3 NOT ADD SLT PUSH2 0x1D4 JUMPI PUSH2 0x1A4 PUSH2 0x32B PUSH1 0x4 CALLDATALOAD PUSH2 0x163B JUMP JUMPDEST PUSH1 0x40 MLOAD SWAP2 DUP3 SWAP2 PUSH1 0x20 DUP4 MSTORE PUSH1 0x60 PUSH2 0x34D DUP3 MLOAD PUSH1 0x80 PUSH1 0x20 DUP8 ADD MSTORE PUSH1 0xA0 DUP7 ADD SWAP1 PUSH2 0xF9A JUMP JUMPDEST SWAP2 PUSH1 0x20 DUP2 ADD MLOAD PUSH1 0x40 DUP7 ADD MSTORE PUSH1 0x40 DUP2 ADD MLOAD ISZERO ISZERO DUP3 DUP7 ADD MSTORE ADD MLOAD PUSH1 0x1F NOT DUP5 DUP4 SUB ADD PUSH1 0x80 DUP6 ADD MSTORE PUSH2 0xFBF JUMP JUMPDEST CALLVALUE PUSH2 0x1D4 JUMPI PUSH1 0x20 CALLDATASIZE PUSH1 0x3 NOT ADD SLT PUSH2 0x1D4 JUMPI PUSH1 0x4 CALLDATALOAD PUSH2 0x392 PUSH2 0x1B73 JUMP JUMPDEST PUSH1 0x0 SLOAD PUSH1 0x40 MLOAD PUSH4 0x3B9F03C7 PUSH1 0xE1 SHL DUP2 MSTORE PUSH1 0x4 DUP2 ADD DUP4 SWAP1 MSTORE SWAP1 PUSH1 0x20 SWAP1 DUP3 SWAP1 PUSH1 0x24 SWAP1 DUP3 SWAP1 PUSH1 0x1 PUSH1 0x1 PUSH1 0xA0 SHL SUB AND GAS STATICCALL SWAP1 DUP2 ISZERO PUSH2 0x1E1 JUMPI PUSH1 0x0 SWAP2 PUSH2 0x3F5 JUMPI JUMPDEST PUSH1 0x60 PUSH2 0x3E2 DUP5 PUSH2 0x3DD DUP6 PUSH2 0x1156 JUMP JUMPDEST PUSH2 0x1988 JUMP JUMPDEST SWAP1 PUSH1 0x40 MLOAD SWAP3 DUP4 MSTORE PUSH1 0x20 DUP4 ADD MSTORE PUSH1 0x40 DUP3 ADD MSTORE RETURN JUMPDEST SWAP1 POP PUSH1 0x20 DUP2 RETURNDATASIZE PUSH1 0x20 GT PUSH2 0x433 JUMPI JUMPDEST DUP2 PUSH2 0x410 PUSH1 0x20 SWAP4 DUP4 PUSH2 0x1127 JUMP JUMPDEST DUP2 ADD SUB SLT PUSH2 0x1D4 JUMPI PUSH1 0x60 SWAP2 PUSH2 0x3DD PUSH2 0x42A PUSH2 0x3E2 SWAP4 PUSH2 0x1149 JUMP JUMPDEST SWAP3 POP POP SWAP2 PUSH2 0x3CE JUMP JUMPDEST RETURNDATASIZE SWAP2 POP PUSH2 0x403 JUMP JUMPDEST CALLVALUE PUSH2 0x1D4 JUMPI PUSH1 0x20 CALLDATASIZE PUSH1 0x3 NOT ADD SLT PUSH2 0x1D4 JUMPI PUSH1 0x0 SLOAD PUSH1 0x40 MLOAD PUSH4 0x3B9F03C7 PUSH1 0xE1 SHL DUP2 MSTORE PUSH1 0x4 DUP1 CALLDATALOAD SWAP1 DUP3 ADD DUP2 SWAP1 MSTORE SWAP2 PUSH1 0x1 PUSH1 0x1 PUSH1 0xA0 SHL SUB AND SWAP1 PUSH1 0x20 DUP2 PUSH1 0x24 DUP2 DUP6 GAS STATICCALL SWAP1 DUP2 ISZERO PUSH2 0x1E1 JUMPI PUSH1 0x0 SWAP2 PUSH2 0x543 JUMPI JUMPDEST POP PUSH1 0x24 SWAP2 PUSH2 0x498 PUSH1 0x0 SWAP3 PUSH2 0x1156 JUMP JUMPDEST PUSH1 0x40 MLOAD SWAP3 DUP4 DUP1 SWAP3 PUSH4 0x3D812649 PUSH1 0xE2 SHL DUP3 MSTORE DUP7 PUSH1 0x4 DUP4 ADD MSTORE GAS STATICCALL SWAP2 DUP3 ISZERO PUSH2 0x1E1 JUMPI PUSH2 0x4EF SWAP3 PUSH1 0x0 SWAP3 DUP4 SWAP3 DUP5 SWAP2 DUP6 SWAP4 PUSH2 0x514 JUMPI JUMPDEST POP PUSH2 0x4D4 SWAP1 PUSH2 0x1988 JUMP JUMPDEST POP SWAP3 SWAP1 SWAP2 PUSH2 0x4FA PUSH1 0x40 MLOAD SWAP8 DUP9 SWAP8 PUSH1 0xC0 DUP10 MSTORE PUSH1 0xC0 DUP10 ADD SWAP1 PUSH2 0xF9A JUMP JUMPDEST SWAP6 PUSH1 0x20 DUP9 ADD SWAP1 PUSH2 0xF6A JUMP JUMPDEST ISZERO ISZERO PUSH1 0x40 DUP7 ADD MSTORE PUSH1 0x60 DUP6 ADD MSTORE PUSH1 0x80 DUP5 ADD MSTORE PUSH1 0xA0 DUP4 ADD MSTORE SUB SWAP1 RETURN JUMPDEST SWAP2 POP SWAP3 POP PUSH2 0x530 SWAP2 POP PUSH2 0x4D4 SWAP4 RETURNDATASIZE DUP1 SWAP2 DUP4 RETURNDATACOPY PUSH2 0x2B9 DUP2 DUP4 PUSH2 0x1127 JUMP JUMPDEST POP SWAP7 SWAP9 SWAP2 SWAP8 SWAP1 SWAP6 POP SWAP4 POP SWAP2 POP PUSH2 0x4CA SWAP1 POP JUMP JUMPDEST SWAP1 POP PUSH1 0x20 DUP2 RETURNDATASIZE PUSH1 0x20 GT PUSH2 0x580 JUMPI JUMPDEST DUP2 PUSH2 0x55E PUSH1 0x20 SWAP4 DUP4 PUSH2 0x1127 JUMP JUMPDEST DUP2 ADD SUB SLT PUSH2 0x1D4 JUMPI PUSH1 0x24 SWAP2 PUSH2 0x498 PUSH2 0x577 PUSH1 0x0 SWAP4 PUSH2 0x1149 JUMP JUMPDEST SWAP3 POP POP SWAP2 PUSH2 0x489 JUMP JUMPDEST RETURNDATASIZE SWAP2 POP PUSH2 0x551 JUMP JUMPDEST CALLVALUE PUSH2 0x1D4 JUMPI PUSH1 0x20 CALLDATASIZE PUSH1 0x3 NOT ADD SLT PUSH2 0x1D4 JUMPI PUSH1 0x20 PUSH2 0x5A6 PUSH1 0x4 CALLDATALOAD PUSH2 0x14AC JUMP JUMPDEST PUSH1 0x40 MLOAD SWAP1 ISZERO ISZERO DUP2 MSTORE RETURN JUMPDEST CALLVALUE PUSH2 0x1D4 JUMPI PUSH1 0x20 CALLDATASIZE PUSH1 0x3 NOT ADD SLT PUSH2 0x1D4 JUMPI PUSH1 0x4 CALLDATALOAD PUSH2 0x5CC PUSH2 0x1B73 JUMP JUMPDEST PUSH1 0x0 SLOAD PUSH1 0x40 MLOAD PUSH4 0x3B9F03C7 PUSH1 0xE1 SHL DUP2 MSTORE PUSH1 0x4 DUP2 ADD DUP4 SWAP1 MSTORE PUSH1 0x1 PUSH1 0x1 PUSH1 0xA0 SHL SUB SWAP1 SWAP2 AND SWAP2 SWAP1 PUSH1 0x20 DUP2 PUSH1 0x24 DUP2 DUP7 GAS STATICCALL DUP1 ISZERO PUSH2 0x1E1 JUMPI PUSH1 0x0 SWAP1 PUSH2 0x6C4 JUMPI JUMPDEST PUSH2 0x611 SWAP2 POP PUSH2 0x1156 JUMP JUMPDEST PUSH1 0x24 PUSH2 0x61C DUP3 PUSH2 0x1CA2 JUMP JUMPDEST SWAP1 SWAP4 PUSH1 0x20 PUSH2 0x629 DUP6 PUSH2 0x1988 JUMP JUMPDEST SWAP5 SWAP2 SWAP3 SWAP1 SWAP4 PUSH1 0x40 MLOAD SWAP7 DUP8 DUP1 SWAP3 PUSH4 0x90B536E3 PUSH1 0xE0 SHL DUP3 MSTORE DUP11 PUSH1 0x4 DUP4 ADD MSTORE GAS STATICCALL SWAP1 DUP2 ISZERO PUSH2 0x1E1 JUMPI PUSH1 0x0 SWAP2 PUSH2 0x68E JUMPI JUMPDEST PUSH2 0x1A4 SWAP6 POP PUSH1 0x40 MLOAD SWAP8 DUP9 SWAP8 CALLER SWAP1 PUSH32 0xF709C59CCF15481D1600980D3351C6B774CF54EAE4D8BAEE1F87794D5F869534 PUSH1 0x0 DUP1 LOG3 DUP8 PUSH2 0x104C JUMP JUMPDEST SWAP1 POP PUSH1 0x20 DUP6 RETURNDATASIZE PUSH1 0x20 GT PUSH2 0x6BC JUMPI JUMPDEST DUP2 PUSH2 0x6A9 PUSH1 0x20 SWAP4 DUP4 PUSH2 0x1127 JUMP JUMPDEST DUP2 ADD SUB SLT PUSH2 0x1D4 JUMPI PUSH2 0x1A4 SWAP5 MLOAD SWAP1 PUSH2 0x656 JUMP JUMPDEST RETURNDATASIZE SWAP2 POP PUSH2 0x69C JUMP JUMPDEST POP PUSH1 0x20 DUP2 RETURNDATASIZE PUSH1 0x20 GT PUSH2 0x6F7 JUMPI JUMPDEST DUP2 PUSH2 0x6DE PUSH1 0x20 SWAP4 DUP4 PUSH2 0x1127 JUMP JUMPDEST DUP2 ADD SUB SLT PUSH2 0x1D4 JUMPI PUSH2 0x6F2 PUSH2 0x611 SWAP2 PUSH2 0x1149 JUMP JUMPDEST PUSH2 0x607 JUMP JUMPDEST RETURNDATASIZE SWAP2 POP PUSH2 0x6D1 JUMP JUMPDEST CALLVALUE PUSH2 0x1D4 JUMPI PUSH1 0x0 CALLDATASIZE PUSH1 0x3 NOT ADD SLT PUSH2 0x1D4 JUMPI PUSH1 0x0 SLOAD PUSH1 0x40 MLOAD PUSH1 0x1 PUSH1 0x1 PUSH1 0xA0 SHL SUB SWAP1 SWAP2 AND DUP2 MSTORE PUSH1 0x20 SWAP1 RETURN JUMPDEST CALLVALUE PUSH2 0x1D4 JUMPI PUSH1 0x20 CALLDATASIZE PUSH1 0x3 NOT ADD SLT PUSH2 0x1D4 JUMPI PUSH1 0x4 CALLDATALOAD PUSH1 0x0 PUSH2 0x140 PUSH1 0x40 MLOAD PUSH2 0x74D DUP2 PUSH2 0x10D8 JUMP JUMPDEST DUP3 DUP2 MSTORE PUSH1 0x60 PUSH1 0x20 DUP3 ADD MSTORE PUSH1 0x60 PUSH1 0x40 DUP3 ADD MSTORE PUSH1 0x60 DUP1 DUP3 ADD MSTORE DUP3 PUSH1 0x80 DUP3 ADD MSTORE DUP3 PUSH1 0xA0 DUP3 ADD MSTORE DUP3 PUSH1 0xC0 DUP3 ADD MSTORE DUP3 PUSH1 0xE0 DUP3 ADD MSTORE DUP3 PUSH2 0x100 DUP3 ADD MSTORE DUP3 PUSH2 0x120 DUP3 ADD MSTORE ADD MSTORE PUSH2 0x794 PUSH2 0x1B73 JUMP JUMPDEST PUSH1 0x0 SLOAD PUSH1 0x40 MLOAD PUSH4 0x3B9F03C7 PUSH1 0xE1 SHL DUP2 MSTORE PUSH1 0x4 DUP2 ADD DUP4 SWAP1 MSTORE PUSH1 0x1 PUSH1 0x1 PUSH1 0xA0 SHL SUB SWAP1 SWAP2 AND SWAP2 SWAP1 PUSH1 0x20 DUP2 PUSH1 0x24 DUP2 DUP7 GAS STATICCALL SWAP1 DUP2 ISZERO PUSH2 0x1E1 JUMPI PUSH1 0x0 SWAP2 PUSH2 0x945 JUMPI JUMPDEST POP PUSH1 0x24 SWAP3 PUSH2 0x7DF PUSH1 0x0 SWAP3 PUSH2 0x1156 JUMP JUMPDEST PUSH1 0x40 MLOAD SWAP4 DUP5 DUP1 SWAP3 PUSH4 0x3D812649 PUSH1 0xE2 SHL DUP3 MSTORE DUP6 PUSH1 0x4 DUP4 ADD MSTORE GAS STATICCALL DUP1 ISZERO PUSH2 0x1E1 JUMPI PUSH1 0x0 SWAP3 DUP4 SWAP1 DUP5 DUP6 SWAP2 DUP7 SWAP5 PUSH2 0x91A JUMPI JUMPDEST POP PUSH2 0x817 DUP6 PUSH2 0x1988 JUMP JUMPDEST SWAP2 PUSH2 0x821 DUP9 PUSH2 0x1CA2 JUMP JUMPDEST SWAP1 PUSH1 0x40 MLOAD SWAP10 PUSH2 0x82F DUP12 PUSH2 0x10D8 JUMP JUMPDEST DUP11 MSTORE PUSH1 0x20 DUP11 ADD SWAP11 DUP12 MSTORE PUSH1 0x40 DUP11 ADD SWAP1 DUP2 MSTORE PUSH1 0x60 DUP11 ADD SWAP2 DUP3 MSTORE PUSH1 0x80 DUP11 ADD SWAP9 DUP10 MSTORE PUSH1 0xA0 DUP11 ADD SWAP3 DUP4 MSTORE PUSH1 0xC0 DUP11 ADD SWAP4 DUP5 MSTORE PUSH1 0xE0 DUP11 ADD SWAP5 DUP6 MSTORE PUSH2 0x100 DUP11 ADD SWAP6 PUSH1 0x5 DUP2 LT ISZERO PUSH2 0x249 JUMPI DUP7 MSTORE PUSH2 0x120 DUP11 ADD SWAP7 ISZERO ISZERO DUP8 MSTORE PUSH2 0x140 DUP11 ADD SWAP8 DUP9 MSTORE PUSH1 0x40 MLOAD SWAP11 DUP12 SWAP11 PUSH1 0x20 DUP13 MSTORE MLOAD PUSH1 0x20 DUP13 ADD MSTORE MLOAD PUSH1 0x40 DUP12 ADD PUSH2 0x160 SWAP1 MSTORE PUSH2 0x180 DUP12 ADD PUSH2 0x8AD SWAP2 PUSH2 0xF9A JUMP JUMPDEST SWAP1 MLOAD DUP11 DUP3 SUB PUSH1 0x1F NOT ADD PUSH1 0x60 DUP13 ADD MSTORE PUSH2 0x8C5 SWAP2 SWAP1 PUSH2 0xFBF JUMP JUMPDEST SWAP1 MLOAD DUP10 DUP3 SUB PUSH1 0x1F NOT ADD PUSH1 0x80 DUP12 ADD MSTORE PUSH2 0x8DD SWAP2 SWAP1 PUSH2 0x1018 JUMP JUMPDEST SWAP7 MLOAD PUSH1 0xA0 DUP10 ADD MSTORE MLOAD PUSH1 0xC0 DUP9 ADD MSTORE MLOAD PUSH1 0xE0 DUP8 ADD MSTORE MLOAD PUSH2 0x100 DUP7 ADD MSTORE MLOAD PUSH2 0x120 DUP6 ADD PUSH2 0x906 SWAP2 PUSH2 0xF6A JUMP JUMPDEST MLOAD ISZERO ISZERO PUSH2 0x140 DUP5 ADD MSTORE MLOAD PUSH2 0x160 DUP4 ADD MSTORE SUB SWAP1 RETURN JUMPDEST SWAP4 POP POP POP POP PUSH2 0x933 SWAP2 SWAP3 RETURNDATASIZE DUP1 SWAP2 DUP4 RETURNDATACOPY PUSH2 0x2B9 DUP2 DUP4 PUSH2 0x1127 JUMP JUMPDEST POP SWAP7 SWAP8 SWAP7 SWAP6 POP SWAP2 SWAP4 POP SWAP1 SWAP2 POP DUP7 PUSH2 0x80D JUMP JUMPDEST SWAP1 POP PUSH1 0x20 DUP2 RETURNDATASIZE PUSH1 0x20 GT PUSH2 0x982 JUMPI JUMPDEST DUP2 PUSH2 0x960 PUSH1 0x20 SWAP4 DUP4 PUSH2 0x1127 JUMP JUMPDEST DUP2 ADD SUB SLT PUSH2 0x1D4 JUMPI PUSH1 0x24 SWAP3 PUSH2 0x7DF PUSH2 0x979 PUSH1 0x0 SWAP4 PUSH2 0x1149 JUMP JUMPDEST SWAP3 POP POP SWAP3 PUSH2 0x7D0 JUMP JUMPDEST RETURNDATASIZE SWAP2 POP PUSH2 0x953 JUMP JUMPDEST CALLVALUE PUSH2 0x1D4 JUMPI PUSH1 0x20 CALLDATASIZE PUSH1 0x3 NOT ADD SLT PUSH2 0x1D4 JUMPI PUSH1 0x0 SLOAD PUSH1 0x40 MLOAD PUSH4 0x3B9F03C7 PUSH1 0xE1 SHL DUP2 MSTORE PUSH1 0x4 DUP1 CALLDATALOAD SWAP1 DUP3 ADD DUP2 SWAP1 MSTORE PUSH1 0x1 PUSH1 0x1 PUSH1 0xA0 SHL SUB SWAP1 SWAP3 AND SWAP2 PUSH1 0x20 DUP3 PUSH1 0x24 DUP2 DUP7 GAS STATICCALL SWAP2 DUP3 ISZERO PUSH2 0x1E1 JUMPI PUSH1 0x0 SWAP3 PUSH2 0xA3F JUMPI JUMPDEST POP PUSH2 0x9E5 PUSH1 0x0 SWAP3 PUSH2 0x1156 JUMP JUMPDEST PUSH1 0x24 PUSH1 0x40 MLOAD DUP1 SWAP5 DUP2 SWAP4 PUSH4 0x3D812649 PUSH1 0xE2 SHL DUP4 MSTORE PUSH1 0x4 DUP4 ADD MSTORE GAS STATICCALL DUP1 ISZERO PUSH2 0x1E1 JUMPI PUSH1 0x20 SWAP2 PUSH1 0x0 SWAP2 PUSH2 0xA1B JUMPI JUMPDEST POP PUSH1 0x40 MLOAD SWAP1 ISZERO ISZERO DUP2 MSTORE RETURN JUMPDEST PUSH2 0xA30 SWAP2 POP RETURNDATASIZE DUP1 PUSH1 0x0 DUP4 RETURNDATACOPY PUSH2 0x2B9 DUP2 DUP4 PUSH2 0x1127 JUMP JUMPDEST POP POP SWAP6 POP POP POP POP POP POP DUP3 PUSH2 0xA10 JUMP JUMPDEST SWAP2 POP PUSH1 0x20 DUP3 RETURNDATASIZE PUSH1 0x20 GT PUSH2 0xA77 JUMPI JUMPDEST DUP2 PUSH2 0xA5A PUSH1 0x20 SWAP4 DUP4 PUSH2 0x1127 JUMP JUMPDEST DUP2 ADD SUB SLT PUSH2 0x1D4 JUMPI PUSH2 0x9E5 PUSH2 0xA70 PUSH1 0x0 SWAP4 PUSH2 0x1149 JUMP JUMPDEST SWAP3 POP PUSH2 0x9D9 JUMP JUMPDEST RETURNDATASIZE SWAP2 POP PUSH2 0xA4D JUMP JUMPDEST CALLVALUE PUSH2 0x1D4 JUMPI PUSH1 0x40 CALLDATASIZE PUSH1 0x3 NOT ADD SLT PUSH2 0x1D4 JUMPI PUSH1 0x24 CALLDATALOAD PUSH1 0x1 PUSH1 0x1 PUSH1 0xA0 SHL SUB DUP2 AND DUP2 SUB PUSH2 0x1D4 JUMPI PUSH2 0x5A6 PUSH1 0x20 SWAP2 PUSH1 0x4 CALLDATALOAD PUSH2 0x133B JUMP JUMPDEST CALLVALUE PUSH2 0x1D4 JUMPI PUSH1 0x40 CALLDATASIZE PUSH1 0x3 NOT ADD SLT PUSH2 0x1D4 JUMPI PUSH1 0x4 CALLDATALOAD PUSH1 0x24 CALLDATALOAD PUSH1 0x1 DUP1 PUSH1 0xA0 SHL SUB PUSH1 0x0 SLOAD AND SWAP1 PUSH1 0x40 MLOAD PUSH4 0x3B9F03C7 PUSH1 0xE1 SHL DUP2 MSTORE DUP4 PUSH1 0x4 DUP3 ADD MSTORE PUSH1 0x20 DUP2 PUSH1 0x24 DUP2 DUP7 GAS STATICCALL SWAP1 DUP2 ISZERO PUSH2 0x1E1 JUMPI PUSH1 0x0 SWAP2 PUSH2 0xD45 JUMPI JUMPDEST POP ISZERO PUSH2 0xD00 JUMPI PUSH1 0x40 MLOAD PUSH4 0x3B9F03C7 PUSH1 0xE1 SHL DUP2 MSTORE PUSH1 0x4 DUP2 ADD DUP3 SWAP1 MSTORE PUSH1 0x20 DUP2 PUSH1 0x24 DUP2 DUP7 GAS STATICCALL SWAP1 DUP2 ISZERO PUSH2 0x1E1 JUMPI PUSH1 0x0 SWAP2 PUSH2 0xCC6 JUMPI JUMPDEST POP ISZERO PUSH2 0xC81 JUMPI PUSH1 0x40 MLOAD PUSH4 0x3D812649 PUSH1 0xE2 SHL DUP2 MSTORE PUSH1 0x4 DUP2 ADD DUP5 SWAP1 MSTORE SWAP1 PUSH1 0x0 DUP3 PUSH1 0x24 DUP2 DUP7 GAS STATICCALL SWAP2 DUP3 ISZERO PUSH2 0x1E1 JUMPI PUSH1 0x0 SWAP4 PUSH1 0x0 SWAP2 PUSH1 0x0 SWAP5 PUSH2 0xC4F JUMPI JUMPDEST POP PUSH1 0x0 PUSH1 0x24 SWAP2 PUSH1 0x40 MLOAD SWAP3 DUP4 DUP1 SWAP3 PUSH4 0x3D812649 PUSH1 0xE2 SHL DUP3 MSTORE DUP8 PUSH1 0x4 DUP4 ADD MSTORE GAS STATICCALL SWAP2 DUP3 ISZERO PUSH2 0x1E1 JUMPI PUSH2 0xBDE SWAP7 PUSH2 0x1A4 SWAP5 PUSH1 0x0 SWAP2 PUSH1 0x0 SWAP5 PUSH1 0x0 SWAP7 PUSH2 0xC15 JUMPI JUMPDEST POP SWAP5 PUSH2 0xBEC PUSH2 0xBC4 PUSH2 0xBBB PUSH2 0xC0B SWAP8 SWAP9 PUSH2 0x1988 JUMP JUMPDEST SWAP6 SWAP2 POP POP PUSH2 0x1988 JUMP JUMPDEST SWAP6 SWAP2 POP POP PUSH1 0x40 MLOAD SWAP12 DUP13 SWAP12 PUSH2 0x100 DUP14 MSTORE PUSH2 0x100 DUP14 ADD SWAP1 PUSH2 0xF9A JUMP JUMPDEST SWAP1 DUP12 DUP3 SUB PUSH1 0x20 DUP14 ADD MSTORE PUSH2 0xF9A JUMP JUMPDEST SWAP8 PUSH1 0x40 DUP11 ADD MSTORE PUSH1 0x60 DUP10 ADD MSTORE PUSH1 0x80 DUP9 ADD MSTORE PUSH1 0xA0 DUP8 ADD MSTORE PUSH1 0xC0 DUP7 ADD SWAP1 PUSH2 0xF6A JUMP JUMPDEST PUSH1 0xE0 DUP5 ADD SWAP1 PUSH2 0xF6A JUMP JUMPDEST PUSH2 0xBC4 SWAP7 POP PUSH2 0xC0B SWAP6 POP PUSH2 0xBBB SWAP4 POP PUSH2 0xC3B PUSH2 0xBEC SWAP2 RETURNDATASIZE DUP1 PUSH1 0x0 DUP4 RETURNDATACOPY PUSH2 0x2B9 DUP2 DUP4 PUSH2 0x1127 JUMP JUMPDEST POP SWAP14 POP SWAP1 SWAP12 POP SWAP5 SWAP9 POP PUSH2 0xBA6 SWAP5 POP POP POP POP POP JUMP JUMPDEST PUSH1 0x0 SWAP6 POP PUSH2 0xC6C SWAP2 SWAP5 POP PUSH1 0x24 SWAP3 POP RETURNDATASIZE DUP1 DUP8 DUP4 RETURNDATACOPY PUSH2 0x2B9 DUP2 DUP4 PUSH2 0x1127 JUMP JUMPDEST POP SWAP8 SWAP7 SWAP5 POP POP SWAP9 SWAP4 POP POP POP SWAP6 SWAP3 SWAP5 SWAP2 POP PUSH2 0xB6A JUMP JUMPDEST PUSH1 0x40 MLOAD PUSH3 0x461BCD PUSH1 0xE5 SHL DUP2 MSTORE PUSH1 0x20 PUSH1 0x4 DUP3 ADD MSTORE PUSH1 0x1E PUSH1 0x24 DUP3 ADD MSTORE PUSH32 0x5365636F6E6420656C656374696F6E20646F6573206E6F742065786973740000 PUSH1 0x44 DUP3 ADD MSTORE PUSH1 0x64 SWAP1 REVERT JUMPDEST SWAP1 POP PUSH1 0x20 DUP2 RETURNDATASIZE PUSH1 0x20 GT PUSH2 0xCF8 JUMPI JUMPDEST DUP2 PUSH2 0xCE1 PUSH1 0x20 SWAP4 DUP4 PUSH2 0x1127 JUMP JUMPDEST DUP2 ADD SUB SLT PUSH2 0x1D4 JUMPI PUSH2 0xCF2 SWAP1 PUSH2 0x1149 JUMP JUMPDEST DUP5 PUSH2 0xB31 JUMP JUMPDEST RETURNDATASIZE SWAP2 POP PUSH2 0xCD4 JUMP JUMPDEST PUSH1 0x40 MLOAD PUSH3 0x461BCD PUSH1 0xE5 SHL DUP2 MSTORE PUSH1 0x20 PUSH1 0x4 DUP3 ADD MSTORE PUSH1 0x1D PUSH1 0x24 DUP3 ADD MSTORE PUSH32 0x466972737420656C656374696F6E20646F6573206E6F74206578697374000000 PUSH1 0x44 DUP3 ADD MSTORE PUSH1 0x64 SWAP1 REVERT JUMPDEST SWAP1 POP PUSH1 0x20 DUP2 RETURNDATASIZE PUSH1 0x20 GT PUSH2 0xD77 JUMPI JUMPDEST DUP2 PUSH2 0xD60 PUSH1 0x20 SWAP4 DUP4 PUSH2 0x1127 JUMP JUMPDEST DUP2 ADD SUB SLT PUSH2 0x1D4 JUMPI PUSH2 0xD71 SWAP1 PUSH2 0x1149 JUMP JUMPDEST DUP5 PUSH2 0xAFF JUMP JUMPDEST RETURNDATASIZE SWAP2 POP PUSH2 0xD53 JUMP JUMPDEST CALLVALUE PUSH2 0x1D4 JUMPI PUSH1 0x20 CALLDATASIZE PUSH1 0x3 NOT ADD SLT PUSH2 0x1D4 JUMPI PUSH1 0x0 SLOAD PUSH1 0x40 MLOAD PUSH4 0x3B9F03C7 PUSH1 0xE1 SHL DUP2 MSTORE PUSH1 0x4 DUP1 CALLDATALOAD SWAP1 DUP3 ADD DUP2 SWAP1 MSTORE PUSH1 0x1 PUSH1 0x1 PUSH1 0xA0 SHL SUB SWAP1 SWAP3 AND SWAP2 PUSH1 0x20 DUP3 PUSH1 0x24 DUP2 DUP7 GAS STATICCALL SWAP2 DUP3 ISZERO PUSH2 0x1E1 JUMPI PUSH1 0x0 SWAP3 PUSH2 0xE32 JUMPI JUMPDEST POP PUSH2 0xDDA PUSH1 0x0 SWAP3 PUSH2 0x1156 JUMP JUMPDEST PUSH1 0x24 PUSH1 0x40 MLOAD DUP1 SWAP5 DUP2 SWAP4 PUSH4 0x3D812649 PUSH1 0xE2 SHL DUP4 MSTORE PUSH1 0x4 DUP4 ADD MSTORE GAS STATICCALL DUP1 ISZERO PUSH2 0x1E1 JUMPI PUSH1 0x20 SWAP2 PUSH1 0x0 SWAP2 PUSH2 0xE0E JUMPI JUMPDEST POP PUSH1 0x40 MLOAD SWAP1 DUP2 MSTORE RETURN JUMPDEST PUSH2 0xE23 SWAP2 POP RETURNDATASIZE DUP1 PUSH1 0x0 DUP4 RETURNDATACOPY PUSH2 0x2B9 DUP2 DUP4 PUSH2 0x1127 JUMP JUMPDEST POP SWAP7 POP POP POP POP POP POP POP DUP3 PUSH2 0xE05 JUMP JUMPDEST SWAP2 POP PUSH1 0x20 DUP3 RETURNDATASIZE PUSH1 0x20 GT PUSH2 0xE6A JUMPI JUMPDEST DUP2 PUSH2 0xE4D PUSH1 0x20 SWAP4 DUP4 PUSH2 0x1127 JUMP JUMPDEST DUP2 ADD SUB SLT PUSH2 0x1D4 JUMPI PUSH2 0xDDA PUSH2 0xE63 PUSH1 0x0 SWAP4 PUSH2 0x1149 JUMP JUMPDEST SWAP3 POP PUSH2 0xDCE JUMP JUMPDEST RETURNDATASIZE SWAP2 POP PUSH2 0xE40 JUMP JUMPDEST CALLVALUE PUSH2 0x1D4 JUMPI PUSH1 0x20 CALLDATASIZE PUSH1 0x3 NOT ADD SLT PUSH2 0x1D4 JUMPI PUSH1 0x0 SLOAD PUSH4 0x3B9F03C7 PUSH1 0xE1 SHL DUP3 MSTORE PUSH1 0x4 DUP1 CALLDATALOAD SWAP1 DUP4 ADD DUP2 SWAP1 MSTORE PUSH1 0x1 PUSH1 0x1 PUSH1 0xA0 SHL SUB SWAP1 SWAP2 AND SWAP2 SWAP1 PUSH1 0x20 DUP3 PUSH1 0x24 DUP2 DUP7 GAS STATICCALL SWAP2 DUP3 ISZERO PUSH2 0x1E1 JUMPI PUSH1 0x0 SWAP3 PUSH2 0xF2A JUMPI JUMPDEST POP PUSH2 0xECB PUSH1 0x0 SWAP3 PUSH2 0x1156 JUMP JUMPDEST PUSH1 0x24 PUSH1 0x40 MLOAD DUP1 SWAP5 DUP2 SWAP4 PUSH4 0x3D812649 PUSH1 0xE2 SHL DUP4 MSTORE PUSH1 0x4 DUP4 ADD MSTORE GAS STATICCALL DUP1 ISZERO PUSH2 0x1E1 JUMPI PUSH1 0x20 SWAP2 PUSH1 0x0 SWAP2 PUSH2 0xF06 JUMPI JUMPDEST POP PUSH2 0xF04 PUSH1 0x40 MLOAD DUP1 SWAP3 PUSH2 0xF6A JUMP JUMPDEST RETURN JUMPDEST PUSH2 0xF1B SWAP2 POP RETURNDATASIZE DUP1 PUSH1 0x0 DUP4 RETURNDATACOPY PUSH2 0x2B9 DUP2 DUP4 PUSH2 0x1127 JUMP JUMPDEST POP POP POP SWAP5 POP POP POP POP POP DUP3 PUSH2 0xEF6 JUMP JUMPDEST SWAP2 POP PUSH1 0x20 DUP3 RETURNDATASIZE PUSH1 0x20 GT PUSH2 0xF62 JUMPI JUMPDEST DUP2 PUSH2 0xF45 PUSH1 0x20 SWAP4 DUP4 PUSH2 0x1127 JUMP JUMPDEST DUP2 ADD SUB SLT PUSH2 0x1D4 JUMPI PUSH2 0xECB PUSH2 0xF5B PUSH1 0x0 SWAP4 PUSH2 0x1149 JUMP JUMPDEST SWAP3 POP PUSH2 0xEBF JUMP JUMPDEST RETURNDATASIZE SWAP2 POP PUSH2 0xF38 JUMP JUMPDEST SWAP1 PUSH1 0x5 DUP3 LT ISZERO PUSH2 0x249 JUMPI MSTORE JUMP JUMPDEST PUSH1 0x0 JUMPDEST DUP4 DUP2 LT PUSH2 0xF8A JUMPI POP POP PUSH1 0x0 SWAP2 ADD MSTORE JUMP JUMPDEST DUP2 DUP2 ADD MLOAD DUP4 DUP3 ADD MSTORE PUSH1 0x20 ADD PUSH2 0xF7A JUMP JUMPDEST SWAP1 PUSH1 0x20 SWAP2 PUSH2 0xFB3 DUP2 MLOAD DUP1 SWAP3 DUP2 DUP6 MSTORE DUP6 DUP1 DUP7 ADD SWAP2 ADD PUSH2 0xF77 JUMP JUMPDEST PUSH1 0x1F ADD PUSH1 0x1F NOT AND ADD ADD SWAP1 JUMP JUMPDEST SWAP1 DUP1 PUSH1 0x20 DUP4 MLOAD SWAP2 DUP3 DUP2 MSTORE ADD SWAP2 PUSH1 0x20 DUP1 DUP4 PUSH1 0x5 SHL DUP4 ADD ADD SWAP5 ADD SWAP3 PUSH1 0x0 SWAP2 JUMPDEST DUP4 DUP4 LT PUSH2 0xFEB JUMPI POP POP POP POP POP SWAP1 JUMP JUMPDEST SWAP1 SWAP2 SWAP3 SWAP4 SWAP5 PUSH1 0x20 DUP1 PUSH2 0x1009 PUSH1 0x1 SWAP4 PUSH1 0x1F NOT DUP7 DUP3 SUB ADD DUP8 MSTORE DUP10 MLOAD PUSH2 0xF9A JUMP JUMPDEST SWAP8 ADD SWAP4 ADD SWAP4 ADD SWAP2 SWAP4 SWAP3 SWAP1 PUSH2 0xFDC JUMP JUMPDEST SWAP1 PUSH1 0x20 DUP1 DUP4 MLOAD SWAP3 DUP4 DUP2 MSTORE ADD SWAP3 ADD SWAP1 PUSH1 0x0 JUMPDEST DUP2 DUP2 LT PUSH2 0x1036 JUMPI POP POP POP SWAP1 JUMP JUMPDEST DUP3 MLOAD DUP5 MSTORE PUSH1 0x20 SWAP4 DUP5 ADD SWAP4 SWAP1 SWAP3 ADD SWAP2 PUSH1 0x1 ADD PUSH2 0x1029 JUMP JUMPDEST SWAP3 SWAP6 SWAP4 SWAP1 SWAP7 SWAP5 SWAP2 PUSH1 0xC0 DUP5 ADD PUSH1 0xC0 DUP6 MSTORE DUP9 MLOAD DUP1 SWAP2 MSTORE PUSH1 0xE0 DUP6 ADD SWAP1 PUSH1 0x20 PUSH1 0xE0 DUP3 PUSH1 0x5 SHL DUP9 ADD ADD SWAP11 ADD SWAP2 PUSH1 0x0 SWAP1 JUMPDEST DUP3 DUP3 LT PUSH2 0x10AD JUMPI POP POP POP POP DUP8 PUSH2 0x1099 SWAP2 DUP6 PUSH1 0xA0 SWAP8 SWAP9 SWAP10 SWAP11 SUB PUSH1 0x20 DUP8 ADD MSTORE PUSH2 0x1018 JUMP JUMPDEST SWAP7 PUSH1 0x40 DUP5 ADD MSTORE PUSH1 0x60 DUP4 ADD MSTORE PUSH1 0x80 DUP3 ADD MSTORE ADD MSTORE JUMP JUMPDEST SWAP1 SWAP2 SWAP3 SWAP11 PUSH1 0x20 DUP1 PUSH2 0x10CA PUSH1 0x1 SWAP4 DUP16 PUSH1 0xDF NOT DUP14 DUP4 SUB ADD DUP8 MSTORE MLOAD PUSH2 0xF9A JUMP JUMPDEST SWAP14 ADD SWAP3 ADD SWAP3 ADD SWAP1 SWAP3 SWAP2 PUSH2 0x1077 JUMP JUMPDEST PUSH2 0x160 DUP2 ADD SWAP1 DUP2 LT PUSH8 0xFFFFFFFFFFFFFFFF DUP3 GT OR PUSH2 0x10F5 JUMPI PUSH1 0x40 MSTORE JUMP JUMPDEST PUSH4 0x4E487B71 PUSH1 0xE0 SHL PUSH1 0x0 MSTORE PUSH1 0x41 PUSH1 0x4 MSTORE PUSH1 0x24 PUSH1 0x0 REVERT JUMPDEST PUSH1 0x80 DUP2 ADD SWAP1 DUP2 LT PUSH8 0xFFFFFFFFFFFFFFFF DUP3 GT OR PUSH2 0x10F5 JUMPI PUSH1 0x40 MSTORE JUMP JUMPDEST SWAP1 PUSH1 0x1F DUP1 NOT SWAP2 ADD AND DUP2 ADD SWAP1 DUP2 LT PUSH8 0xFFFFFFFFFFFFFFFF DUP3 GT OR PUSH2 0x10F5 JUMPI PUSH1 0x40 MSTORE JUMP JUMPDEST MLOAD SWAP1 DUP2 ISZERO ISZERO DUP3 SUB PUSH2 0x1D4 JUMPI JUMP JUMPDEST ISZERO PUSH2 0x115D JUMPI JUMP JUMPDEST PUSH1 0x40 MLOAD PUSH3 0x461BCD PUSH1 0xE5 SHL DUP2 MSTORE PUSH1 0x20 PUSH1 0x4 DUP3 ADD MSTORE PUSH1 0x17 PUSH1 0x24 DUP3 ADD MSTORE PUSH32 0x456C656374696F6E20646F6573206E6F74206578697374000000000000000000 PUSH1 0x44 DUP3 ADD MSTORE PUSH1 0x64 SWAP1 REVERT JUMPDEST DUP2 PUSH1 0x1F DUP3 ADD SLT ISZERO PUSH2 0x1D4 JUMPI DUP1 MLOAD PUSH8 0xFFFFFFFFFFFFFFFF DUP2 GT PUSH2 0x10F5 JUMPI PUSH1 0x40 MLOAD SWAP3 PUSH2 0x11D6 PUSH1 0x1F DUP4 ADD PUSH1 0x1F NOT AND PUSH1 0x20 ADD DUP6 PUSH2 0x1127 JUMP JUMPDEST DUP2 DUP5 MSTORE PUSH1 0x20 DUP3 DUP5 ADD ADD GT PUSH2 0x1D4 JUMPI PUSH2 0x11F4 SWAP2 PUSH1 0x20 DUP1 DUP6 ADD SWAP2 ADD PUSH2 0xF77 JUMP JUMPDEST SWAP1 JUMP JUMPDEST PUSH8 0xFFFFFFFFFFFFFFFF DUP2 GT PUSH2 0x10F5 JUMPI PUSH1 0x5 SHL PUSH1 0x20 ADD SWAP1 JUMP JUMPDEST SWAP2 PUSH2 0x120 DUP4 DUP4 SUB SLT PUSH2 0x1D4 JUMPI DUP3 MLOAD PUSH8 0xFFFFFFFFFFFFFFFF DUP2 GT PUSH2 0x1D4 JUMPI DUP3 PUSH2 0x1238 SWAP2 DUP6 ADD PUSH2 0x11A2 JUMP JUMPDEST SWAP3 PUSH1 0x20 DUP2 ADD MLOAD PUSH8 0xFFFFFFFFFFFFFFFF DUP2 GT PUSH2 0x1D4 JUMPI DUP4 PUSH2 0x1259 SWAP2 DUP4 ADD PUSH2 0x11A2 JUMP JUMPDEST SWAP3 PUSH1 0x40 DUP3 ADD MLOAD PUSH8 0xFFFFFFFFFFFFFFFF DUP2 GT PUSH2 0x1D4 JUMPI DUP3 ADD SWAP1 DUP1 PUSH1 0x1F DUP4 ADD SLT ISZERO PUSH2 0x1D4 JUMPI DUP2 MLOAD PUSH2 0x1287 DUP2 PUSH2 0x11F7 JUMP JUMPDEST SWAP3 PUSH2 0x1295 PUSH1 0x40 MLOAD SWAP5 DUP6 PUSH2 0x1127 JUMP JUMPDEST DUP2 DUP5 MSTORE PUSH1 0x20 DUP1 DUP6 ADD SWAP3 PUSH1 0x5 SHL DUP3 ADD ADD SWAP2 DUP4 DUP4 GT PUSH2 0x1D4 JUMPI PUSH1 0x20 DUP3 ADD SWAP1 JUMPDEST DUP4 DUP3 LT PUSH2 0x12F5 JUMPI POP POP POP POP POP SWAP2 PUSH1 0x60 DUP3 ADD MLOAD SWAP2 PUSH1 0x80 DUP2 ADD MLOAD SWAP2 PUSH1 0xA0 DUP3 ADD MLOAD PUSH1 0x5 DUP2 LT ISZERO PUSH2 0x1D4 JUMPI SWAP2 PUSH2 0x12E6 PUSH1 0xC0 DUP3 ADD PUSH2 0x1149 JUMP JUMPDEST SWAP2 PUSH2 0x100 PUSH1 0xE0 DUP4 ADD MLOAD SWAP3 ADD MLOAD SWAP1 JUMP JUMPDEST DUP2 MLOAD PUSH8 0xFFFFFFFFFFFFFFFF DUP2 GT PUSH2 0x1D4 JUMPI PUSH1 0x20 SWAP2 PUSH2 0x1318 DUP8 DUP5 DUP1 SWAP5 DUP9 ADD ADD PUSH2 0x11A2 JUMP JUMPDEST DUP2 MSTORE ADD SWAP2 ADD SWAP1 PUSH2 0x12B2 JUMP JUMPDEST SWAP1 DUP2 PUSH1 0x20 SWAP2 SUB SLT PUSH2 0x1D4 JUMPI MLOAD PUSH1 0x3 DUP2 LT ISZERO PUSH2 0x1D4 JUMPI SWAP1 JUMP JUMPDEST PUSH1 0x0 SLOAD PUSH1 0x40 MLOAD PUSH4 0x3B9F03C7 PUSH1 0xE1 SHL DUP2 MSTORE PUSH1 0x4 DUP2 ADD SWAP3 SWAP1 SWAP3 MSTORE PUSH1 0x1 PUSH1 0x1 PUSH1 0xA0 SHL SUB AND SWAP2 SWAP1 PUSH1 0x20 DUP2 PUSH1 0x24 DUP2 DUP7 GAS STATICCALL SWAP1 DUP2 ISZERO PUSH2 0x1E1 JUMPI PUSH1 0x0 SWAP2 PUSH2 0x1472 JUMPI JUMPDEST POP ISZERO PUSH2 0x146B JUMPI PUSH1 0x40 MLOAD PUSH4 0x44276733 PUSH1 0xE0 SHL DUP2 MSTORE PUSH1 0x1 PUSH1 0x1 PUSH1 0xA0 SHL SUB SWAP1 SWAP2 AND PUSH1 0x4 DUP3 ADD DUP2 SWAP1 MSTORE PUSH1 0x20 DUP3 PUSH1 0x24 DUP2 DUP7 GAS STATICCALL SWAP2 DUP3 ISZERO PUSH2 0x1E1 JUMPI PUSH1 0x0 SWAP3 PUSH2 0x1439 JUMPI JUMPDEST POP PUSH1 0x20 SWAP1 PUSH1 0x24 PUSH1 0x40 MLOAD DUP1 SWAP6 DUP2 SWAP4 PUSH4 0x49B90557 PUSH1 0xE0 SHL DUP4 MSTORE PUSH1 0x4 DUP4 ADD MSTORE GAS STATICCALL SWAP2 DUP3 ISZERO PUSH2 0x1E1 JUMPI PUSH1 0x0 SWAP3 PUSH2 0x13FD JUMPI JUMPDEST POP PUSH1 0x3 DUP2 LT ISZERO PUSH2 0x249 JUMPI PUSH1 0x2 EQ SWAP1 DUP2 ISZERO PUSH2 0x13F8 JUMPI POP SWAP1 JUMP JUMPDEST SWAP1 POP SWAP1 JUMP JUMPDEST SWAP1 SWAP2 POP PUSH1 0x20 DUP2 RETURNDATASIZE PUSH1 0x20 GT PUSH2 0x1431 JUMPI JUMPDEST DUP2 PUSH2 0x1419 PUSH1 0x20 SWAP4 DUP4 PUSH2 0x1127 JUMP JUMPDEST DUP2 ADD SUB SLT PUSH2 0x1D4 JUMPI PUSH2 0x142A SWAP1 PUSH2 0x1149 JUMP JUMPDEST SWAP1 CODESIZE PUSH2 0x13E0 JUMP JUMPDEST RETURNDATASIZE SWAP2 POP PUSH2 0x140C JUMP JUMPDEST PUSH1 0x20 SWAP2 SWAP3 POP PUSH2 0x145D SWAP1 DUP3 RETURNDATASIZE DUP5 GT PUSH2 0x1464 JUMPI JUMPDEST PUSH2 0x1455 DUP2 DUP4 PUSH2 0x1127 JUMP JUMPDEST DUP2 ADD SWAP1 PUSH2 0x1323 JUMP JUMPDEST SWAP2 SWAP1 PUSH2 0x13B3 JUMP JUMPDEST POP RETURNDATASIZE PUSH2 0x144B JUMP JUMPDEST POP POP PUSH1 0x0 SWAP1 JUMP JUMPDEST SWAP1 POP PUSH1 0x20 DUP2 RETURNDATASIZE PUSH1 0x20 GT PUSH2 0x14A4 JUMPI JUMPDEST DUP2 PUSH2 0x148D PUSH1 0x20 SWAP4 DUP4 PUSH2 0x1127 JUMP JUMPDEST DUP2 ADD SUB SLT PUSH2 0x1D4 JUMPI PUSH2 0x149E SWAP1 PUSH2 0x1149 JUMP JUMPDEST CODESIZE PUSH2 0x1376 JUMP JUMPDEST RETURNDATASIZE SWAP2 POP PUSH2 0x1480 JUMP JUMPDEST PUSH1 0x0 SLOAD PUSH1 0x40 MLOAD PUSH4 0x3B9F03C7 PUSH1 0xE1 SHL DUP2 MSTORE PUSH1 0x4 DUP2 ADD DUP4 SWAP1 MSTORE PUSH1 0x1 PUSH1 0x1 PUSH1 0xA0 SHL SUB SWAP1 SWAP2 AND SWAP2 SWAP1 PUSH1 0x20 DUP2 PUSH1 0x24 DUP2 DUP7 GAS STATICCALL SWAP1 DUP2 ISZERO PUSH2 0x1E1 JUMPI PUSH1 0x0 SWAP2 PUSH2 0x157E JUMPI JUMPDEST POP ISZERO PUSH2 0x146B JUMPI PUSH1 0x0 SWAP1 PUSH1 0x24 PUSH1 0x40 MLOAD DUP1 SWAP5 DUP2 SWAP4 PUSH4 0x3D812649 PUSH1 0xE2 SHL DUP4 MSTORE PUSH1 0x4 DUP4 ADD MSTORE GAS STATICCALL SWAP1 DUP2 ISZERO PUSH2 0x1E1 JUMPI PUSH1 0x0 SWAP1 PUSH1 0x0 SWAP3 PUSH2 0x1558 JUMPI JUMPDEST POP TIMESTAMP GT SWAP1 DUP2 ISZERO PUSH2 0x1543 JUMPI JUMPDEST DUP2 ISZERO PUSH2 0x1532 JUMPI POP SWAP1 JUMP JUMPDEST SWAP1 POP PUSH1 0x5 DUP2 LT ISZERO PUSH2 0x249 JUMPI PUSH1 0x4 EQ SWAP1 JUMP JUMPDEST SWAP1 POP PUSH1 0x5 DUP2 LT ISZERO PUSH2 0x249 JUMPI PUSH1 0x2 DUP2 EQ SWAP1 PUSH2 0x1528 JUMP JUMPDEST SWAP1 POP PUSH2 0x156F SWAP2 POP RETURNDATASIZE DUP1 PUSH1 0x0 DUP4 RETURNDATACOPY PUSH2 0x2B9 DUP2 DUP4 PUSH2 0x1127 JUMP JUMPDEST POP POP POP SWAP5 POP SWAP3 POP POP POP CODESIZE PUSH2 0x151D JUMP JUMPDEST SWAP1 POP PUSH1 0x20 DUP2 RETURNDATASIZE PUSH1 0x20 GT PUSH2 0x15B0 JUMPI JUMPDEST DUP2 PUSH2 0x1599 PUSH1 0x20 SWAP4 DUP4 PUSH2 0x1127 JUMP JUMPDEST DUP2 ADD SUB SLT PUSH2 0x1D4 JUMPI PUSH2 0x15AA SWAP1 PUSH2 0x1149 JUMP JUMPDEST CODESIZE PUSH2 0x14E8 JUMP JUMPDEST RETURNDATASIZE SWAP2 POP PUSH2 0x158C JUMP JUMPDEST DUP1 MLOAD DUP3 LT ISZERO PUSH2 0x15CC JUMPI PUSH1 0x20 SWAP2 PUSH1 0x5 SHL ADD ADD SWAP1 JUMP JUMPDEST PUSH4 0x4E487B71 PUSH1 0xE0 SHL PUSH1 0x0 MSTORE PUSH1 0x32 PUSH1 0x4 MSTORE PUSH1 0x24 PUSH1 0x0 REVERT JUMPDEST PUSH1 0x0 NOT DUP2 EQ PUSH2 0x15F1 JUMPI PUSH1 0x1 ADD SWAP1 JUMP JUMPDEST PUSH4 0x4E487B71 PUSH1 0xE0 SHL PUSH1 0x0 MSTORE PUSH1 0x11 PUSH1 0x4 MSTORE PUSH1 0x24 PUSH1 0x0 REVERT JUMPDEST PUSH1 0x40 MLOAD SWAP1 PUSH2 0x1616 PUSH1 0x20 DUP4 PUSH2 0x1127 JUMP JUMPDEST PUSH1 0x0 DUP1 DUP4 MSTORE DUP3 DUP2 JUMPDEST DUP3 DUP2 LT PUSH2 0x162A JUMPI POP POP POP JUMP JUMPDEST DUP1 PUSH1 0x60 PUSH1 0x20 DUP1 SWAP4 DUP6 ADD ADD MSTORE ADD PUSH2 0x161E JUMP JUMPDEST PUSH1 0x40 MLOAD PUSH2 0x1647 DUP2 PUSH2 0x110B JUMP JUMPDEST PUSH1 0x60 DUP2 MSTORE PUSH1 0x0 PUSH1 0x20 DUP3 ADD MSTORE PUSH1 0x0 PUSH1 0x40 DUP3 ADD MSTORE PUSH1 0x60 DUP1 DUP3 ADD MSTORE POP PUSH1 0x1 DUP1 PUSH1 0xA0 SHL SUB PUSH1 0x0 SLOAD AND PUSH1 0x40 MLOAD PUSH4 0x3B9F03C7 PUSH1 0xE1 SHL DUP2 MSTORE DUP3 PUSH1 0x4 DUP3 ADD MSTORE PUSH1 0x20 DUP2 PUSH1 0x24 DUP2 DUP6 GAS STATICCALL SWAP1 DUP2 ISZERO PUSH2 0x1E1 JUMPI PUSH1 0x0 SWAP2 PUSH2 0x1943 JUMPI JUMPDEST POP PUSH1 0x24 SWAP2 PUSH2 0x16A5 PUSH1 0x0 SWAP3 PUSH2 0x1156 JUMP JUMPDEST PUSH1 0x40 MLOAD SWAP3 DUP4 DUP1 SWAP3 PUSH4 0x3D812649 PUSH1 0xE2 SHL DUP3 MSTORE DUP7 PUSH1 0x4 DUP4 ADD MSTORE GAS STATICCALL SWAP1 DUP2 ISZERO PUSH2 0x1E1 JUMPI PUSH1 0x0 SWAP2 PUSH2 0x191F JUMPI JUMPDEST POP ISZERO PUSH2 0x18E1 JUMPI PUSH2 0x16DC SWAP1 PUSH2 0x1CA2 JUMP JUMPDEST SWAP2 SWAP1 PUSH1 0x0 SWAP1 DUP2 DUP1 DUP1 DUP1 JUMPDEST DUP8 MLOAD DUP7 LT ISZERO PUSH2 0x176D JUMPI DUP2 PUSH2 0x16FA DUP8 DUP11 PUSH2 0x15B8 JUMP JUMPDEST MLOAD GT ISZERO PUSH2 0x1727 JUMPI POP POP POP POP PUSH2 0x170F DUP3 DUP6 PUSH2 0x15B8 JUMP JUMPDEST MLOAD SWAP1 DUP3 SWAP4 PUSH1 0x0 SWAP5 PUSH1 0x1 DUP1 SWAP6 JUMPDEST ADD SWAP5 SWAP2 SWAP6 SWAP3 SWAP4 SWAP1 PUSH2 0x16E6 JUMP JUMPDEST SWAP1 SWAP4 SWAP3 SWAP6 SWAP2 SWAP5 DUP5 PUSH2 0x1738 DUP3 DUP11 PUSH2 0x15B8 JUMP JUMPDEST MLOAD EQ DUP1 PUSH2 0x1764 JUMPI JUMPDEST PUSH2 0x174D JUMPI JUMPDEST PUSH1 0x1 SWAP1 PUSH2 0x171B JUMP JUMPDEST SWAP5 SWAP6 POP PUSH1 0x1 PUSH2 0x175C DUP2 SWAP8 PUSH2 0x15E2 JUMP JUMPDEST SWAP6 SWAP1 POP PUSH2 0x1745 JUMP JUMPDEST POP DUP5 ISZERO ISZERO PUSH2 0x1740 JUMP JUMPDEST SWAP4 SWAP7 SWAP2 SWAP3 SWAP1 SWAP5 POP DUP5 ISZERO PUSH2 0x189B JUMPI PUSH2 0x17B9 JUMPI POP POP PUSH2 0x178B SWAP2 SWAP3 SWAP4 PUSH2 0x15B8 JUMP JUMPDEST MLOAD SWAP1 PUSH2 0x1795 PUSH2 0x1607 JUMP JUMPDEST SWAP1 PUSH1 0x40 MLOAD SWAP3 PUSH2 0x17A3 DUP5 PUSH2 0x110B JUMP JUMPDEST DUP4 MSTORE PUSH1 0x20 DUP4 ADD MSTORE PUSH1 0x0 PUSH1 0x40 DUP4 ADD MSTORE PUSH1 0x60 DUP3 ADD MSTORE SWAP1 JUMP JUMPDEST SWAP2 POP SWAP2 SWAP4 PUSH2 0x17C6 DUP4 PUSH2 0x11F7 JUMP JUMPDEST SWAP3 PUSH2 0x17D4 PUSH1 0x40 MLOAD SWAP5 DUP6 PUSH2 0x1127 JUMP JUMPDEST DUP1 DUP5 MSTORE PUSH2 0x17E3 PUSH1 0x1F NOT SWAP2 PUSH2 0x11F7 JUMP JUMPDEST ADD PUSH1 0x0 JUMPDEST DUP2 DUP2 LT PUSH2 0x188A JUMPI POP POP PUSH1 0x0 SWAP2 PUSH1 0x0 JUMPDEST DUP3 MLOAD DUP2 LT ISZERO PUSH2 0x184E JUMPI DUP7 PUSH2 0x180A DUP3 DUP5 PUSH2 0x15B8 JUMP JUMPDEST MLOAD EQ PUSH2 0x1819 JUMPI JUMPDEST PUSH1 0x1 ADD PUSH2 0x17F6 JUMP JUMPDEST SWAP3 PUSH2 0x1846 PUSH1 0x1 SWAP2 PUSH2 0x182A DUP7 DUP7 PUSH2 0x15B8 JUMP JUMPDEST MLOAD PUSH2 0x1835 DUP3 DUP10 PUSH2 0x15B8 JUMP JUMPDEST MSTORE PUSH2 0x1840 DUP2 DUP9 PUSH2 0x15B8 JUMP JUMPDEST POP PUSH2 0x15E2 JUMP JUMPDEST SWAP4 SWAP1 POP PUSH2 0x1811 JUMP JUMPDEST POP POP POP POP SWAP2 SWAP1 SWAP2 PUSH1 0x40 MLOAD SWAP2 PUSH2 0x1862 DUP4 PUSH2 0x110B JUMP JUMPDEST PUSH1 0x40 MLOAD PUSH2 0x1870 PUSH1 0x20 DUP3 PUSH2 0x1127 JUMP JUMPDEST PUSH1 0x0 DUP2 MSTORE DUP4 MSTORE PUSH1 0x20 DUP4 ADD MSTORE PUSH1 0x1 PUSH1 0x40 DUP4 ADD MSTORE PUSH1 0x60 DUP3 ADD MSTORE SWAP1 JUMP JUMPDEST DUP1 PUSH1 0x60 PUSH1 0x20 DUP1 SWAP4 DUP9 ADD ADD MSTORE ADD PUSH2 0x17E7 JUMP JUMPDEST POP POP POP POP POP SWAP1 POP PUSH2 0x18AA PUSH2 0x1607 JUMP JUMPDEST PUSH1 0x40 MLOAD SWAP1 PUSH2 0x18B7 DUP3 PUSH2 0x110B JUMP JUMPDEST PUSH1 0x40 MLOAD PUSH2 0x18C5 PUSH1 0x20 DUP3 PUSH2 0x1127 JUMP JUMPDEST PUSH1 0x0 DUP2 MSTORE DUP3 MSTORE PUSH1 0x0 PUSH1 0x20 DUP4 ADD MSTORE PUSH1 0x0 PUSH1 0x40 DUP4 ADD MSTORE PUSH1 0x60 DUP3 ADD MSTORE SWAP1 JUMP JUMPDEST PUSH1 0x40 MLOAD PUSH3 0x461BCD PUSH1 0xE5 SHL DUP2 MSTORE PUSH1 0x20 PUSH1 0x4 DUP3 ADD MSTORE PUSH1 0x16 PUSH1 0x24 DUP3 ADD MSTORE PUSH22 0x115B1958DD1A5BDB881B9BDD08199A5B985B1A5E9959 PUSH1 0x52 SHL PUSH1 0x44 DUP3 ADD MSTORE PUSH1 0x64 SWAP1 REVERT JUMPDEST PUSH2 0x1934 SWAP2 POP RETURNDATASIZE DUP1 PUSH1 0x0 DUP4 RETURNDATACOPY PUSH2 0x2B9 DUP2 DUP4 PUSH2 0x1127 JUMP JUMPDEST POP POP SWAP6 POP POP POP POP POP POP CODESIZE PUSH2 0x16CD JUMP JUMPDEST SWAP1 POP PUSH1 0x20 DUP2 RETURNDATASIZE PUSH1 0x20 GT PUSH2 0x1980 JUMPI JUMPDEST DUP2 PUSH2 0x195E PUSH1 0x20 SWAP4 DUP4 PUSH2 0x1127 JUMP JUMPDEST DUP2 ADD SUB SLT PUSH2 0x1D4 JUMPI PUSH1 0x24 SWAP2 PUSH2 0x16A5 PUSH2 0x1977 PUSH1 0x0 SWAP4 PUSH2 0x1149 JUMP JUMPDEST SWAP3 POP POP SWAP2 PUSH2 0x1696 JUMP JUMPDEST RETURNDATASIZE SWAP2 POP PUSH2 0x1951 JUMP JUMPDEST PUSH1 0x0 DUP1 SLOAD PUSH1 0x40 MLOAD PUSH4 0xF452130B PUSH1 0xE0 SHL DUP2 MSTORE PUSH1 0x4 DUP2 ADD DUP5 SWAP1 MSTORE PUSH1 0x1 PUSH1 0x1 PUSH1 0xA0 SHL SUB SWAP1 SWAP2 AND SWAP4 SWAP3 SWAP1 SWAP2 DUP3 PUSH1 0x24 DUP2 DUP8 GAS STATICCALL SWAP2 DUP3 ISZERO PUSH2 0x1E1 JUMPI PUSH1 0x0 SWAP3 PUSH2 0x1AC7 JUMPI JUMPDEST POP PUSH1 0x0 SWAP2 DUP3 JUMPDEST DUP2 MLOAD DUP2 LT ISZERO PUSH2 0x1A78 JUMPI PUSH1 0x1 PUSH1 0x1 PUSH1 0xA0 SHL SUB PUSH2 0x19E6 DUP3 DUP5 PUSH2 0x15B8 JUMP JUMPDEST MLOAD PUSH1 0x40 MLOAD PUSH4 0x28365BC3 PUSH1 0xE2 SHL DUP2 MSTORE PUSH1 0x4 DUP2 ADD DUP7 SWAP1 MSTORE SWAP2 AND PUSH1 0x24 DUP3 ADD MSTORE PUSH1 0x20 DUP2 PUSH1 0x44 DUP2 DUP11 GAS STATICCALL SWAP1 DUP2 ISZERO PUSH2 0x1E1 JUMPI PUSH1 0x0 SWAP2 PUSH2 0x1A3C JUMPI JUMPDEST POP PUSH2 0x1A28 JUMPI JUMPDEST PUSH1 0x1 ADD PUSH2 0x19CB JUMP JUMPDEST SWAP3 PUSH2 0x1A34 PUSH1 0x1 SWAP2 PUSH2 0x15E2 JUMP JUMPDEST SWAP4 SWAP1 POP PUSH2 0x1A20 JUMP JUMPDEST SWAP1 PUSH1 0x20 DUP3 RETURNDATASIZE DUP3 GT PUSH2 0x1A70 JUMPI JUMPDEST DUP2 PUSH2 0x1A55 PUSH1 0x20 SWAP4 DUP4 PUSH2 0x1127 JUMP JUMPDEST DUP2 ADD SUB SLT PUSH2 0x1A6D JUMPI POP PUSH2 0x1A67 SWAP1 PUSH2 0x1149 JUMP JUMPDEST CODESIZE PUSH2 0x1A1A JUMP JUMPDEST DUP1 REVERT JUMPDEST RETURNDATASIZE SWAP2 POP PUSH2 0x1A48 JUMP JUMPDEST POP MLOAD SWAP2 SWAP4 POP SWAP1 SWAP2 SWAP1 POP DUP2 ISZERO DUP1 PUSH2 0x1ABE JUMPI PUSH1 0x64 DUP5 MUL SWAP1 DUP5 DUP3 DIV PUSH1 0x64 EQ DUP6 ISZERO OR ISZERO PUSH2 0x15F1 JUMPI PUSH2 0x1AA8 JUMPI DUP3 SWAP1 DIV SWAP2 SWAP3 SWAP2 SWAP1 JUMP JUMPDEST PUSH4 0x4E487B71 PUSH1 0xE0 SHL PUSH1 0x0 MSTORE PUSH1 0x12 PUSH1 0x4 MSTORE PUSH1 0x24 PUSH1 0x0 REVERT JUMPDEST POP PUSH1 0x0 SWAP2 SWAP3 SWAP2 SWAP1 JUMP JUMPDEST SWAP1 SWAP2 RETURNDATASIZE DUP1 DUP3 DUP5 RETURNDATACOPY PUSH2 0x1AD8 DUP2 DUP5 PUSH2 0x1127 JUMP JUMPDEST DUP3 ADD SWAP2 PUSH1 0x20 DUP2 DUP5 SUB SLT PUSH2 0x1B6F JUMPI DUP1 MLOAD SWAP1 PUSH8 0xFFFFFFFFFFFFFFFF DUP3 GT PUSH2 0x1B6B JUMPI ADD SWAP2 DUP1 PUSH1 0x1F DUP5 ADD SLT ISZERO PUSH2 0x1B6F JUMPI DUP3 MLOAD SWAP2 PUSH2 0x1B10 DUP4 PUSH2 0x11F7 JUMP JUMPDEST SWAP4 PUSH2 0x1B1E PUSH1 0x40 MLOAD SWAP6 DUP7 PUSH2 0x1127 JUMP JUMPDEST DUP4 DUP6 MSTORE PUSH1 0x20 DUP1 DUP7 ADD SWAP5 PUSH1 0x5 SHL DUP3 ADD ADD SWAP3 DUP4 GT PUSH2 0x1B6F JUMPI PUSH1 0x20 ADD SWAP3 JUMPDEST DUP3 DUP5 LT PUSH2 0x1B4B JUMPI POP POP POP POP SWAP1 CODESIZE PUSH2 0x19C5 JUMP JUMPDEST DUP4 MLOAD PUSH1 0x1 PUSH1 0x1 PUSH1 0xA0 SHL SUB DUP2 AND DUP2 SUB PUSH2 0x1B6B JUMPI DUP2 MSTORE PUSH1 0x20 SWAP4 DUP5 ADD SWAP4 ADD PUSH2 0x1B39 JUMP JUMPDEST DUP3 DUP1 REVERT JUMPDEST POP DUP1 REVERT JUMPDEST PUSH1 0x0 SLOAD PUSH1 0x40 MLOAD PUSH4 0x44276733 PUSH1 0xE0 SHL DUP2 MSTORE CALLER PUSH1 0x4 DUP3 ADD MSTORE SWAP1 PUSH1 0x1 PUSH1 0x1 PUSH1 0xA0 SHL SUB AND PUSH1 0x20 DUP3 PUSH1 0x24 DUP2 DUP5 GAS STATICCALL SWAP1 DUP2 ISZERO PUSH2 0x1E1 JUMPI PUSH1 0x24 SWAP3 PUSH1 0x0 SWAP3 PUSH2 0x1C80 JUMPI JUMPDEST POP PUSH1 0x20 SWAP1 PUSH1 0x40 MLOAD SWAP4 DUP5 DUP1 SWAP3 PUSH4 0x49B90557 PUSH1 0xE0 SHL DUP3 MSTORE CALLER PUSH1 0x4 DUP4 ADD MSTORE GAS STATICCALL SWAP2 DUP3 ISZERO PUSH2 0x1E1 JUMPI PUSH1 0x0 SWAP3 PUSH2 0x1C44 JUMPI JUMPDEST POP PUSH1 0x3 DUP2 LT ISZERO PUSH2 0x249 JUMPI PUSH1 0x2 EQ SWAP1 DUP2 ISZERO PUSH2 0x1C3C JUMPI JUMPDEST POP ISZERO PUSH2 0x1BF7 JUMPI JUMP JUMPDEST PUSH1 0x40 MLOAD PUSH3 0x461BCD PUSH1 0xE5 SHL DUP2 MSTORE PUSH1 0x20 PUSH1 0x4 DUP3 ADD MSTORE PUSH1 0x1E PUSH1 0x24 DUP3 ADD MSTORE PUSH32 0x52657175697265732061646D696E206F722061756469746F7220726F6C650000 PUSH1 0x44 DUP3 ADD MSTORE PUSH1 0x64 SWAP1 REVERT JUMPDEST SWAP1 POP CODESIZE PUSH2 0x1BEF JUMP JUMPDEST SWAP1 SWAP2 POP PUSH1 0x20 DUP2 RETURNDATASIZE PUSH1 0x20 GT PUSH2 0x1C78 JUMPI JUMPDEST DUP2 PUSH2 0x1C60 PUSH1 0x20 SWAP4 DUP4 PUSH2 0x1127 JUMP JUMPDEST DUP2 ADD SUB SLT PUSH2 0x1D4 JUMPI PUSH2 0x1C71 SWAP1 PUSH2 0x1149 JUMP JUMPDEST SWAP1 CODESIZE PUSH2 0x1BDA JUMP JUMPDEST RETURNDATASIZE SWAP2 POP PUSH2 0x1C53 JUMP JUMPDEST PUSH1 0x20 SWAP2 SWAP3 POP PUSH2 0x1C9B SWAP1 DUP3 RETURNDATASIZE DUP5 GT PUSH2 0x1464 JUMPI PUSH2 0x1455 DUP2 DUP4 PUSH2 0x1127 JUMP JUMPDEST SWAP2 SWAP1 PUSH2 0x1BAE JUMP JUMPDEST PUSH1 0x0 DUP1 SLOAD PUSH1 0x40 MLOAD PUSH4 0x3D812649 PUSH1 0xE2 SHL DUP2 MSTORE PUSH1 0x4 DUP2 ADD DUP5 SWAP1 MSTORE SWAP4 SWAP3 PUSH1 0x1 PUSH1 0x1 PUSH1 0xA0 SHL SUB SWAP1 SWAP2 AND SWAP2 DUP5 PUSH1 0x24 DUP2 DUP6 GAS STATICCALL SWAP4 DUP5 ISZERO PUSH2 0x1E1 JUMPI PUSH1 0x0 SWAP5 PUSH2 0x1DB5 JUMPI JUMPDEST POP DUP4 MLOAD SWAP2 PUSH2 0x1CEB DUP4 PUSH2 0x11F7 JUMP JUMPDEST SWAP3 PUSH2 0x1CF9 PUSH1 0x40 MLOAD SWAP5 DUP6 PUSH2 0x1127 JUMP JUMPDEST DUP1 DUP5 MSTORE PUSH2 0x1D08 PUSH1 0x1F NOT SWAP2 PUSH2 0x11F7 JUMP JUMPDEST ADD CALLDATASIZE PUSH1 0x20 DUP6 ADD CALLDATACOPY PUSH1 0x0 JUMPDEST DUP6 MLOAD DUP2 LT ISZERO PUSH2 0x1DAF JUMPI PUSH2 0x1D53 PUSH1 0x20 PUSH2 0x1D2A DUP4 DUP10 PUSH2 0x15B8 JUMP JUMPDEST MLOAD PUSH1 0x40 MLOAD DUP1 SWAP4 DUP2 SWAP3 PUSH4 0x29A4FDD1 PUSH1 0xE2 SHL DUP4 MSTORE DUP9 PUSH1 0x4 DUP5 ADD MSTORE PUSH1 0x40 PUSH1 0x24 DUP5 ADD MSTORE PUSH1 0x44 DUP4 ADD SWAP1 PUSH2 0xF9A JUMP JUMPDEST SUB DUP2 DUP7 GAS STATICCALL SWAP1 DUP2 ISZERO PUSH2 0x1E1 JUMPI PUSH1 0x0 SWAP2 PUSH2 0x1D7D JUMPI JUMPDEST POP SWAP1 PUSH1 0x1 SWAP2 PUSH2 0x1D76 DUP3 DUP8 PUSH2 0x15B8 JUMP JUMPDEST MSTORE ADD PUSH2 0x1D12 JUMP JUMPDEST SWAP1 PUSH1 0x20 DUP3 RETURNDATASIZE DUP3 GT PUSH2 0x1DA7 JUMPI JUMPDEST DUP2 PUSH2 0x1D96 PUSH1 0x20 SWAP4 DUP4 PUSH2 0x1127 JUMP JUMPDEST DUP2 ADD SUB SLT PUSH2 0x1A6D JUMPI POP MLOAD PUSH1 0x1 PUSH2 0x1D67 JUMP JUMPDEST RETURNDATASIZE SWAP2 POP PUSH2 0x1D89 JUMP JUMPDEST POP POP POP SWAP1 JUMP JUMPDEST PUSH2 0x1DC9 SWAP2 SWAP5 RETURNDATASIZE DUP1 SWAP2 DUP4 RETURNDATACOPY PUSH2 0x2B9 DUP2 DUP4 PUSH2 0x1127 JUMP JUMPDEST POP POP POP POP POP POP SWAP2 POP POP SWAP3 CODESIZE PUSH2 0x1CDE JUMP INVALID LOG2 PUSH5 0x6970667358 0x22 SLT KECCAK256 0xAD PUSH31 0xF54663279121EB268AC2B58A2146FF8BEBE8785CE23CE3A0363CC25EB05B64 PUSH20 0x6F6C634300081C00330000000000000000000000 "
        },
        "methodIdentifiers": {
          "canAccessResults(uint256,address)": "4f4f3cc5",
          "compareElections(uint256,uint256)": "3f6037f8",
          "getCompleteElectionResult(uint256)": "aeac16d1",
          "getElectionResults(uint256)": "e8ededa6",
          "getElectionStatus(uint256)": "24785b9e",
          "getElectionSummary(uint256)": "d9148f73",
          "getElectionWinner(uint256)": "e62c6ac5",
          "getRealTimeResults(uint256)": "c9635e1b",
          "getTotalVotes(uint256)": "2ce35e11",
          "getVoterStatistics(uint256)": "dc2771f3",
          "hasElectionEnded(uint256)": "cadc68e9",
          "isElectionFinalized(uint256)": "5439931c",
          "votingContract()": "c1fc006a"
        }
      }
    }
  }
}