{
  "contracts/AccessControl.sol": {
    "AccessControl": {
      "abi": [
        {
          "inputs": [],
          "stateMutability": "nonpayable",
          "type": "constructor"
        },
        {
          "inputs": [
            {
              "internalType": "address",
              "name": "owner",
              "type": "address"
            }
          ],
          "name": "OwnableInvalidOwner",
          "type": "error"
        },
        {
          "inputs": [
            {
              "internalType": "address",
              "name": "account",
              "type": "address"
            }
          ],
          "name": "OwnableUnauthorizedAccount",
          "type": "error"
        },
        {
          "anonymous": false,
          "inputs": [
            {
              "indexed": true,
              "internalType": "address",
              "name": "admin",
              "type": "address"
            }
          ],
          "name": "AdminAdded",
          "type": "event"
        },
        {
          "anonymous": false,
          "inputs": [
            {
              "indexed": true,
              "internalType": "address",
              "name": "admin",
              "type": "address"
            }
          ],
          "name": "AdminRemoved",
          "type": "event"
        },
        {
          "anonymous": false,
          "inputs": [
            {
              "indexed": true,
              "internalType": "address",
              "name": "auditor",
              "type": "address"
            }
          ],
          "name": "AuditorAdded",
          "type": "event"
        },
        {
          "anonymous": false,
          "inputs": [
            {
              "indexed": true,
              "internalType": "address",
              "name": "auditor",
              "type": "address"
            }
          ],
          "name": "AuditorRemoved",
          "type": "event"
        },
        {
          "anonymous": false,
          "inputs": [
            {
              "indexed": true,
              "internalType": "address",
              "name": "previousOwner",
              "type": "address"
            },
            {
              "indexed": true,
              "internalType": "address",
              "name": "newOwner",
              "type": "address"
            }
          ],
          "name": "OwnershipTransferred",
          "type": "event"
        },
        {
          "anonymous": false,
          "inputs": [
            {
              "indexed": true,
              "internalType": "address",
              "name": "user",
              "type": "address"
            },
            {
              "indexed": false,
              "internalType": "enum AccessControl.Role",
              "name": "role",
              "type": "uint8"
            }
          ],
          "name": "RoleAssigned",
          "type": "event"
        },
        {
          "inputs": [
            {
              "internalType": "address",
              "name": "",
              "type": "address"
            }
          ],
          "name": "adminIndex",
          "outputs": [
            {
              "internalType": "uint256",
              "name": "",
              "type": "uint256"
            }
          ],
          "stateMutability": "view",
          "type": "function"
        },
        {
          "inputs": [
            {
              "internalType": "uint256",
              "name": "",
              "type": "uint256"
            }
          ],
          "name": "admins",
          "outputs": [
            {
              "internalType": "address",
              "name": "",
              "type": "address"
            }
          ],
          "stateMutability": "view",
          "type": "function"
        },
        {
          "inputs": [
            {
              "internalType": "address",
              "name": "_user",
              "type": "address"
            },
            {
              "internalType": "enum AccessControl.Role",
              "name": "_role",
              "type": "uint8"
            }
          ],
          "name": "assignRole",
          "outputs": [],
          "stateMutability": "nonpayable",
          "type": "function"
        },
        {
          "inputs": [
            {
              "internalType": "address",
              "name": "",
              "type": "address"
            }
          ],
          "name": "auditorIndex",
          "outputs": [
            {
              "internalType": "uint256",
              "name": "",
              "type": "uint256"
            }
          ],
          "stateMutability": "view",
          "type": "function"
        },
        {
          "inputs": [
            {
              "internalType": "uint256",
              "name": "",
              "type": "uint256"
            }
          ],
          "name": "auditors",
          "outputs": [
            {
              "internalType": "address",
              "name": "",
              "type": "address"
            }
          ],
          "stateMutability": "view",
          "type": "function"
        },
        {
          "inputs": [
            {
              "internalType": "address[]",
              "name": "_users",
              "type": "address[]"
            },
            {
              "internalType": "enum AccessControl.Role[]",
              "name": "_roles",
              "type": "uint8[]"
            }
          ],
          "name": "batchAssignRoles",
          "outputs": [],
          "stateMutability": "nonpayable",
          "type": "function"
        },
        {
          "inputs": [
            {
              "internalType": "address[]",
              "name": "_admins",
              "type": "address[]"
            }
          ],
          "name": "batchRemoveAdmins",
          "outputs": [],
          "stateMutability": "nonpayable",
          "type": "function"
        },
        {
          "inputs": [
            {
              "internalType": "address[]",
              "name": "_auditors",
              "type": "address[]"
            }
          ],
          "name": "batchRemoveAuditors",
          "outputs": [],
          "stateMutability": "nonpayable",
          "type": "function"
        },
        {
          "inputs": [
            {
              "internalType": "uint256",
              "name": "_index",
              "type": "uint256"
            }
          ],
          "name": "getAdminAtIndex",
          "outputs": [
            {
              "internalType": "address",
              "name": "",
              "type": "address"
            }
          ],
          "stateMutability": "view",
          "type": "function"
        },
        {
          "inputs": [],
          "name": "getAdminCount",
          "outputs": [
            {
              "internalType": "uint256",
              "name": "",
              "type": "uint256"
            }
          ],
          "stateMutability": "view",
          "type": "function"
        },
        {
          "inputs": [
            {
              "internalType": "address",
              "name": "_admin",
              "type": "address"
            }
          ],
          "name": "getAdminIndex",
          "outputs": [
            {
              "internalType": "uint256",
              "name": "",
              "type": "uint256"
            }
          ],
          "stateMutability": "view",
          "type": "function"
        },
        {
          "inputs": [],
          "name": "getAdmins",
          "outputs": [
            {
              "internalType": "address[]",
              "name": "",
              "type": "address[]"
            }
          ],
          "stateMutability": "view",
          "type": "function"
        },
        {
          "inputs": [
            {
              "internalType": "uint256",
              "name": "_index",
              "type": "uint256"
            }
          ],
          "name": "getAuditorAtIndex",
          "outputs": [
            {
              "internalType": "address",
              "name": "",
              "type": "address"
            }
          ],
          "stateMutability": "view",
          "type": "function"
        },
        {
          "inputs": [],
          "name": "getAuditorCount",
          "outputs": [
            {
              "internalType": "uint256",
              "name": "",
              "type": "uint256"
            }
          ],
          "stateMutability": "view",
          "type": "function"
        },
        {
          "inputs": [
            {
              "internalType": "address",
              "name": "_auditor",
              "type": "address"
            }
          ],
          "name": "getAuditorIndex",
          "outputs": [
            {
              "internalType": "uint256",
              "name": "",
              "type": "uint256"
            }
          ],
          "stateMutability": "view",
          "type": "function"
        },
        {
          "inputs": [],
          "name": "getAuditors",
          "outputs": [
            {
              "internalType": "address[]",
              "name": "",
              "type": "address[]"
            }
          ],
          "stateMutability": "view",
          "type": "function"
        },
        {
          "inputs": [],
          "name": "getHardcodedAdmins",
          "outputs": [
            {
              "internalType": "address[]",
              "name": "",
              "type": "address[]"
            }
          ],
          "stateMutability": "view",
          "type": "function"
        },
        {
          "inputs": [],
          "name": "getHardcodedAuditors",
          "outputs": [
            {
              "internalType": "address[]",
              "name": "",
              "type": "address[]"
            }
          ],
          "stateMutability": "view",
          "type": "function"
        },
        {
          "inputs": [
            {
              "internalType": "address",
              "name": "_address",
              "type": "address"
            }
          ],
          "name": "getRole",
          "outputs": [
            {
              "internalType": "enum AccessControl.Role",
              "name": "",
              "type": "uint8"
            }
          ],
          "stateMutability": "view",
          "type": "function"
        },
        {
          "inputs": [
            {
              "internalType": "address",
              "name": "_address",
              "type": "address"
            },
            {
              "internalType": "enum AccessControl.Role",
              "name": "_role",
              "type": "uint8"
            }
          ],
          "name": "hasRole",
          "outputs": [
            {
              "internalType": "bool",
              "name": "",
              "type": "bool"
            }
          ],
          "stateMutability": "view",
          "type": "function"
        },
        {
          "inputs": [
            {
              "internalType": "address",
              "name": "_address",
              "type": "address"
            }
          ],
          "name": "isAdmin",
          "outputs": [
            {
              "internalType": "bool",
              "name": "",
              "type": "bool"
            }
          ],
          "stateMutability": "view",
          "type": "function"
        },
        {
          "inputs": [
            {
              "internalType": "address",
              "name": "",
              "type": "address"
            }
          ],
          "name": "isAdminMap",
          "outputs": [
            {
              "internalType": "bool",
              "name": "",
              "type": "bool"
            }
          ],
          "stateMutability": "view",
          "type": "function"
        },
        {
          "inputs": [
            {
              "internalType": "address",
              "name": "_address",
              "type": "address"
            }
          ],
          "name": "isAuditor",
          "outputs": [
            {
              "internalType": "bool",
              "name": "",
              "type": "bool"
            }
          ],
          "stateMutability": "view",
          "type": "function"
        },
        {
          "inputs": [
            {
              "internalType": "address",
              "name": "",
              "type": "address"
            }
          ],
          "name": "isAuditorMap",
          "outputs": [
            {
              "internalType": "bool",
              "name": "",
              "type": "bool"
            }
          ],
          "stateMutability": "view",
          "type": "function"
        },
        {
          "inputs": [
            {
              "internalType": "address",
              "name": "_address",
              "type": "address"
            }
          ],
          "name": "isHardcodedAdmin",
          "outputs": [
            {
              "internalType": "bool",
              "name": "",
              "type": "bool"
            }
          ],
          "stateMutability": "view",
          "type": "function"
        },
        {
          "inputs": [
            {
              "internalType": "address",
              "name": "_address",
              "type": "address"
            }
          ],
          "name": "isHardcodedAuditor",
          "outputs": [
            {
              "internalType": "bool",
              "name": "",
              "type": "bool"
            }
          ],
          "stateMutability": "view",
          "type": "function"
        },
        {
          "inputs": [],
          "name": "owner",
          "outputs": [
            {
              "internalType": "address",
              "name": "",
              "type": "address"
            }
          ],
          "stateMutability": "view",
          "type": "function"
        },
        {
          "inputs": [
            {
              "internalType": "address",
              "name": "_admin",
              "type": "address"
            }
          ],
          "name": "removeAdmin",
          "outputs": [],
          "stateMutability": "nonpayable",
          "type": "function"
        },
        {
          "inputs": [
            {
              "internalType": "address",
              "name": "_auditor",
              "type": "address"
            }
          ],
          "name": "removeAuditor",
          "outputs": [],
          "stateMutability": "nonpayable",
          "type": "function"
        },
        {
          "inputs": [],
          "name": "renounceOwnership",
          "outputs": [],
          "stateMutability": "nonpayable",
          "type": "function"
        },
        {
          "inputs": [
            {
              "internalType": "address",
              "name": "newOwner",
              "type": "address"
            }
          ],
          "name": "transferOwnership",
          "outputs": [],
          "stateMutability": "nonpayable",
          "type": "function"
        },
        {
          "inputs": [
            {
              "internalType": "address",
              "name": "",
              "type": "address"
            }
          ],
          "name": "userRoles",
          "outputs": [
            {
              "internalType": "enum AccessControl.Role",
              "name": "",
              "type": "uint8"
            }
          ],
          "stateMutability": "view",
          "type": "function"
        }
      ],
      "evm": {
        "bytecode": {
          "linkReferences": {},
          "object": "6080604052346104ee5733156104d85760008054336001600160a01b0319821681178355916001600160a01b03909116907f8be0079c531659141344cd1fd0a4f28419497f9722a3daafe3b4186f6b6457e09080a361005c6104f3565b73ae428d52d40f4028ff54d3de45643bece675b6058152600854600160085580600110610476575b50600860005260206000209060005b60018110610459576100a36104f3565b739359c6a8aaa407923aaf421d92a8eec48e7c872281526009546001600955806001106103f7575b50600960005260206000209060005b600181106103da573360005260016020526040600020600260ff1982541617905561010433610576565b60405160028152600080516020611f1a83398151915260203392a233600080516020611efa833981519152600080a260005b60085481101561023b578061014c600192610512565b838060a01b0391549060031b1c16151580610219575b61016d575b01610136565b61017681610512565b838060a01b0391549060031b1c16600052816020526040600020600260ff198254161790556101ba6101a782610512565b848060a01b0391549060031b1c16610576565b6101c381610512565b838060a01b0391549060031b1c16600080516020611f1a833981519152602060405160028152a26101f381610512565b838060a01b0391549060031b1c16600080516020611efa833981519152600080a2610167565b5061022381610512565b903391848060a01b0391549060031b1c161415610162565b60005b6009548110156103cb5761025181610543565b905460039190911b1c6001600160a01b0316610270575b60010161023e565b61027981610543565b60018060a01b0391549060031b1c1660005260016020526040600020600160ff198254161790556102a981610543565b60018060a01b0391549060031b1c169081600052600560205260ff6040600020541615610347575b600191506102de81610543565b838060a01b0391549060031b1c16600080516020611f1a8339815191526020604051858152a261030d81610543565b838060a01b0391549060031b1c167f2c31044378cc14466459f09320dd4057d7ad6e99b194c0800c78227383a25296600080a29050610268565b60035491680100000000000000008310156103b55761036f836001809501600355600361055e565b81549060031b9083821b91868060a01b03901b1916179055600354816000526007602052604060002055600052600560205260406000208260ff198254161790556102d1565b634e487b7160e01b600052604160045260246000fd5b6040516118f590816106058239f35b81516001600160a01b0316818401556020909101906001016100da565b60096000527f6e1540171b6c0c960b71a7020d9f60077f6af931a8bbf590da0223dacf75c7af017f6e1540171b6c0c960b71a7020d9f60077f6af931a8bbf590da0223dacf75c7b05b81811061044d57506100cb565b60008155600101610440565b81516001600160a01b031681840155602090910190600101610093565b60086000527ff3f7a9fe364faab93b216da50a3214154f22a0a2b415b23a84c8169e8b636ee3017ff3f7a9fe364faab93b216da50a3214154f22a0a2b415b23a84c8169e8b636ee45b8181106104cc5750610084565b600081556001016104bf565b631e4fbdf760e01b600052600060045260246000fd5b600080fd5b60405190602082016001600160401b038111838210176103b557604052565b60085481101561052d57600860005260206000200190600090565b634e487b7160e01b600052603260045260246000fd5b60095481101561052d57600960005260206000200190600090565b805482101561052d5760005260206000200190600090565b6001600160a01b031660008181526004602052604090205460ff16156105995750565b600254680100000000000000008110156103b5578060016105bf9201600255600261055e565b81549060031b9083821b9160018060a01b03901b191617905560025481600052600660205260406000205560005260046020526040600020600160ff1982541617905556fe6080604052600436101561001257600080fd5b60003560e01c806307314a3f14610db357806314bfd6d014610d8a5780631785f53c14610c4c5780631b8b444c14610c2357806324d7806c1461075d57806331ae450b14610b8157806344276733146108a857806344bfd12d14610b4757806349b905571461017c57806352738d9a14610b2957806357de4a6e14610a87578063630a195b14610a47578063662d6ce514610943578063715018a6146108ea57806374d5e100146108a85780638978ae39146108855780638b7bf3eb146108675780638c89a8a1146107c55780638da5cb5b1461079c5780638e9a4c341461075d57806395a8c58d14610714578063a20b147d146106da578063bee6bf1a14610679578063bf8c611214610602578063c41331ec146105d5578063de2f0d6f14610519578063e6116cfd14610438578063e93dea23146102b8578063ef2d65c31461028d578063f1c4132e14610249578063f2fde38b146101c05763f575afad1461017c57600080fd5b346101bb5760203660031901126101bb576001600160a01b0361019d610f80565b166000526005602052602060ff604060002054166040519015158152f35b600080fd5b346101bb5760203660031901126101bb576101d9610f80565b6101e1611876565b6001600160a01b0316801561023357600080546001600160a01b03198116831782556001600160a01b0316907f8be0079c531659141344cd1fd0a4f28419497f9722a3daafe3b4186f6b6457e09080a3005b631e4fbdf760e01b600052600060045260246000fd5b346101bb5760203660031901126101bb57602061027460043561026f60025482106114d6565b610f1c565b905460405160039290921b1c6001600160a01b03168152f35b346101bb5760203660031901126101bb5760206102746004356102b360035482106114d6565b610f4d565b346101bb5760203660031901126101bb5760043567ffffffffffffffff81116101bb576102e9903690600401610eeb565b9033600052600160205260ff604060002054166003811015610422576002610311911461101b565b60005b82811061031d57005b61033061032b828585611067565b611077565b6001600160a01b03811660008181526001602052604090205491929160ff1660038110156104225760011461036b575b506001915001610314565b610374836116eb565b6103dd576103986001938260005284602052604060002060ff19815416905561174f565b6000805160206118a08339815191526020604051837fd3e803f2dfdacd206b7d19aa46d847206386d84e3dc6b8de0926e54affa6fddc600080a260008152a284610360565b60405162461bcd60e51b815260206004820152601f60248201527f43616e6e6f742072656d6f76652068617264636f6465642061756469746f72006044820152606490fd5b634e487b7160e01b600052602160045260246000fd5b346101bb5760203660031901126101bb57610451610f80565b33600052600160205260ff604060002054166003811015610422576002610478911461101b565b6001600160a01b03811660008181526001602052604090205490919060ff1660038110156104225760016104ac9114611499565b6104b5816116eb565b6103dd576104d890826000526001602052604060002060ff19815416905561174f565b6000805160206118a08339815191526020604051837fd3e803f2dfdacd206b7d19aa46d847206386d84e3dc6b8de0926e54affa6fddc600080a260008152a2005b346101bb5760003660031901126101bb5760405180602060095491828152019060096000527f6e1540171b6c0c960b71a7020d9f60077f6af931a8bbf590da0223dacf75c7af9060005b8181106105b657505050819003601f01601f191681019067ffffffffffffffff8211818310176105a05761059c82918260405282610f96565b0390f35b634e487b7160e01b600052604160045260246000fd5b82546001600160a01b0316845260209093019260019283019201610563565b346101bb5760203660031901126101bb5760206105f86105f3610f80565b611518565b6040519015158152f35b346101bb5760203660031901126101bb576001600160a01b03610623610f80565b1680600052600460205261063e60ff604060002054166110d7565b6000526006602052604060002054600019810190811161066357602090604051908152f35b634e487b7160e01b600052601160045260246000fd5b346101bb5760203660031901126101bb576001600160a01b0361069a610f80565b168060005260056020526106b560ff60406000205416611499565b6000526007602052604060002054600019810190811161066357602090604051908152f35b346101bb5760203660031901126101bb576001600160a01b036106fb610f80565b1660005260066020526020604060002054604051908152f35b346101bb5761072236610fec565b6001600160a01b0390911660009081526001602052604090205460ff1660038210156104225760038110156104225760209160405191148152f35b346101bb5760203660031901126101bb576001600160a01b0361077e610f80565b166000526004602052602060ff604060002054166040519015158152f35b346101bb5760003660031901126101bb576000546040516001600160a01b039091168152602090f35b346101bb5760003660031901126101bb5760405180602060085491828152019060086000527ff3f7a9fe364faab93b216da50a3214154f22a0a2b415b23a84c8169e8b636ee39060005b81811061084857505050819003601f01601f191681019067ffffffffffffffff8211818310176105a05761059c82918260405282610f96565b82546001600160a01b031684526020909301926001928301920161080f565b346101bb5760003660031901126101bb576020600254604051908152f35b346101bb5760203660031901126101bb5760206105f86108a3610f80565b6116eb565b346101bb5760203660031901126101bb576001600160a01b036108c9610f80565b16600052600160205261059c60ff6040600020541660405191829182610fd9565b346101bb5760003660031901126101bb57610903611876565b600080546001600160a01b0319811682556001600160a01b03167f8be0079c531659141344cd1fd0a4f28419497f9722a3daafe3b4186f6b6457e08280a3005b346101bb5760403660031901126101bb5760043567ffffffffffffffff81116101bb57610974903690600401610eeb565b9060243567ffffffffffffffff81116101bb57610995903690600401610eeb565b91909233600052600160205260ff6040600020541660038110156104225760026109bf911461101b565b828103610a095760005b8181106109d257005b6109e061032b828486611067565b906109ec818688611067565b359160038310156101bb57600192610a0391611112565b016109c9565b60405162461bcd60e51b8152602060048201526016602482015275082e4e4c2f2e640d8cadccee8d040dad2e6dac2e8c6d60531b6044820152606490fd5b346101bb57610a5536610fec565b33600052600160205260ff6040600020541691600383101561042257610a806002610a85941461101b565b611112565b005b346101bb5760003660031901126101bb5760405180602060035491828152019060036000527fc2575a0e9e593c00f959f8c92f12db2869c3395a3b0502d05e2516446f71f85b9060005b818110610b0a57505050819003601f01601f191681019067ffffffffffffffff8211818310176105a05761059c82918260405282610f96565b82546001600160a01b0316845260209093019260019283019201610ad1565b346101bb5760003660031901126101bb576020600354604051908152f35b346101bb5760203660031901126101bb576001600160a01b03610b68610f80565b1660005260076020526020604060002054604051908152f35b346101bb5760003660031901126101bb5760405180602060025491828152019060026000527f405787fa12a823e0f2b7631cc41b3ba8828b3321ca811111fa75cd3aa3bb5ace9060005b818110610c0457505050819003601f01601f191681019067ffffffffffffffff8211818310176105a05761059c82918260405282610f96565b82546001600160a01b0316845260209093019260019283019201610bcb565b346101bb5760203660031901126101bb576004356003548110156101bb57610274602091610f4d565b346101bb5760203660031901126101bb57610c65610f80565b33600052600160205260ff604060002054166003811015610422576002610c8c911461101b565b6001600160a01b03811660008181526001602052604090205490919060ff166003811015610422576002610cc091146110d7565b600054610cd8906001600160a01b031683141561108b565b610ce181611518565b610d4557610d0490826000526001602052604060002060ff198154169055611599565b6000805160206118a08339815191526020604051837fa3b62bc36326052d97ea62d63c3d60308ed4c3ea8ac079dd8499f1e9c4f80c0f600080a260008152a2005b60405162461bcd60e51b815260206004820152601d60248201527f43616e6e6f742072656d6f76652068617264636f6465642061646d696e0000006044820152606490fd5b346101bb5760203660031901126101bb576004356002548110156101bb57610274602091610f1c565b346101bb5760203660031901126101bb5760043567ffffffffffffffff81116101bb57610de4903690600401610eeb565b9033600052600160205260ff604060002054166003811015610422576002610e0c911461101b565b60005b828110610e1857005b610e2661032b828585611067565b6001600160a01b03811660008181526001602052604090205491929160ff16600381101561042257600214610e61575b506001915001610e0f565b600054610e79906001600160a01b031682141561108b565b610e8283611518565b610d4557610ea66001938260005284602052604060002060ff198154169055611599565b6000805160206118a08339815191526020604051837fa3b62bc36326052d97ea62d63c3d60308ed4c3ea8ac079dd8499f1e9c4f80c0f600080a260008152a284610e56565b9181601f840112156101bb5782359167ffffffffffffffff83116101bb576020808501948460051b0101116101bb57565b600254811015610f3757600260005260206000200190600090565b634e487b7160e01b600052603260045260246000fd5b600354811015610f3757600360005260206000200190600090565b8054821015610f375760005260206000200190600090565b600435906001600160a01b03821682036101bb57565b602060408183019282815284518094520192019060005b818110610fba5750505090565b82516001600160a01b0316845260209384019390920191600101610fad565b9190602083019260038210156104225752565b60409060031901126101bb576004356001600160a01b03811681036101bb579060243560038110156101bb5790565b1561102257565b60405162461bcd60e51b815260206004820152601760248201527f496e73756666696369656e742070726976696c656765730000000000000000006044820152606490fd5b9190811015610f375760051b0190565b356001600160a01b03811681036101bb5790565b1561109257565b60405162461bcd60e51b815260206004820152601c60248201527f43616e6e6f742072656d6f766520636f6e7472616374206f776e6572000000006044820152606490fd5b156110de57565b60405162461bcd60e51b815260206004820152600c60248201526b2737ba1030b71030b236b4b760a11b6044820152606490fd5b6001600160a01b038116919082156114625761112d81611518565b8061144e575b6113fb57611140816116eb565b806113e7575b6113925782600052600160205260ff604060002054166003811015610422576002810361137d575061117781611599565b826000526001602052604060002060038310156104225760ff1981541660ff8416179055600282146000146112985782600052600460205260ff604060002054161561120a575b506112056000805160206118a083398151915291837f44d6d25963f097ad14f29f06854a01f575648a1ef82f30e562ccd3889717e339600080a25b60405191829182610fd9565b0390a2565b60025491600160401b8310156105a057611266611205926112428560016000805160206118a083398151915297016002556002610f68565b81546001600160a01b0393841660039290921b91821b9390911b1916919091179055565b6002548460005260066020526040600020558360005260046020526040600020600160ff1982541617905591506111be565b600182146112ba575b506112056000805160206118a0833981519152916111f9565b82600052600560205260ff6040600020541615611313575b506112056000805160206118a083398151915291837f2c31044378cc14466459f09320dd4057d7ad6e99b194c0800c78227383a25296600080a291506112a1565b60035491600160401b8310156105a05761134b611205926112428560016000805160206118a083398151915297016003556003610f68565b6003548460005260076020526040600020558360005260056020526040600020600160ff1982541617905591506112d2565b6001036111775761138d8161174f565b611177565b60405162461bcd60e51b815260206004820152602760248201527f43616e6e6f74206368616e676520726f6c65206f662068617264636f6465642060448201526630bab234ba37b960c91b6064820152608490fd5b506003821015610422576001821415611146565b60405162461bcd60e51b815260206004820152602560248201527f43616e6e6f74206368616e676520726f6c65206f662068617264636f6465642060448201526430b236b4b760d91b6064820152608490fd5b506003821015610422576002821415611133565b60405162461bcd60e51b815260206004820152600f60248201526e496e76616c6964206164647265737360881b6044820152606490fd5b156114a057565b60405162461bcd60e51b815260206004820152600e60248201526d2737ba1030b71030bab234ba37b960911b6044820152606490fd5b156114dd57565b60405162461bcd60e51b8152602060048201526013602482015272496e646578206f7574206f6620626f756e647360681b6044820152606490fd5b600854908160005b8381106115305750505050600090565b60008282101561158557600890527ff3f7a9fe364faab93b216da50a3214154f22a0a2b415b23a84c8169e8b636ee38101546001600160a01b0384811691161461157c57600101611520565b50505050600190565b634e487b7160e01b81526032600452602490fd5b6001600160a01b031660008181526004602052604090205460ff166115bb5750565b80600052600660205260406000205480156116a657600019810181811161066357600254600019810190811161066357808210611666575b50505060025480156116505760001901611626611611826002610f68565b81549060018060a01b039060031b1b19169055565b600255806000526006602052600060408120556000526004602052604060002060ff198154169055565b634e487b7160e01b600052603160045260246000fd5b6112429161167661169092610f1c565b905460039190911b1c6001600160a01b0316928391610f1c565b60005260066020526040600020553880806115f3565b60405162461bcd60e51b815260206004820152601860248201527f41646d696e206e6f7420666f756e6420696e20617272617900000000000000006044820152606490fd5b600954908160005b8381106117035750505050600090565b60008282101561158557600990527f6e1540171b6c0c960b71a7020d9f60077f6af931a8bbf590da0223dacf75c7af8101546001600160a01b0384811691161461157c576001016116f3565b6001600160a01b031660008181526005602052604090205460ff166117715750565b8060005260076020526040600020548015611831576000198101818111610663576003546000198101908111610663578082106117f1575b505050600354801561165057600019016117c7611611826003610f68565b600355806000526007602052600060408120556000526005602052604060002060ff198154169055565b6112429161180161181b92610f4d565b905460039190911b1c6001600160a01b0316928391610f4d565b60005260076020526040600020553880806117a9565b60405162461bcd60e51b815260206004820152601a60248201527f41756469746f72206e6f7420666f756e6420696e2061727261790000000000006044820152606490fd5b6000546001600160a01b0316330361188a57565b63118cdaa760e01b6000523360045260246000fdfe4ac36fa53f167ceb85964be512e01de2a3b8bdb9862f917da079deeeff689b38a2646970667358221220b238527f4ef8fb610a51e0bc0f14e0bb8704798fdceac3038696ba02278a01e464736f6c634300081c003344d6d25963f097ad14f29f06854a01f575648a1ef82f30e562ccd3889717e3394ac36fa53f167ceb85964be512e01de2a3b8bdb9862f917da079deeeff689b38",
          "opcodes": "PUSH1 0x80 PUSH1 0x40 MSTORE CALLVALUE PUSH2 0x4EE JUMPI CALLER ISZERO PUSH2 0x4D8 JUMPI PUSH1 0x0 DUP1 SLOAD CALLER PUSH1 0x1 PUSH1 0x1 PUSH1 0xA0 SHL SUB NOT DUP3 AND DUP2 OR DUP4 SSTORE SWAP2 PUSH1 0x1 PUSH1 0x1 PUSH1 0xA0 SHL SUB SWAP1 SWAP2 AND SWAP1 PUSH32 0x8BE0079C531659141344CD1FD0A4F28419497F9722A3DAAFE3B4186F6B6457E0 SWAP1 DUP1 LOG3 PUSH2 0x5C PUSH2 0x4F3 JUMP JUMPDEST PUSH20 0xAE428D52D40F4028FF54D3DE45643BECE675B605 DUP2 MSTORE PUSH1 0x8 SLOAD PUSH1 0x1 PUSH1 0x8 SSTORE DUP1 PUSH1 0x1 LT PUSH2 0x476 JUMPI JUMPDEST POP PUSH1 0x8 PUSH1 0x0 MSTORE PUSH1 0x20 PUSH1 0x0 KECCAK256 SWAP1 PUSH1 0x0 JUMPDEST PUSH1 0x1 DUP2 LT PUSH2 0x459 JUMPI PUSH2 0xA3 PUSH2 0x4F3 JUMP JUMPDEST PUSH20 0x9359C6A8AAA407923AAF421D92A8EEC48E7C8722 DUP2 MSTORE PUSH1 0x9 SLOAD PUSH1 0x1 PUSH1 0x9 SSTORE DUP1 PUSH1 0x1 LT PUSH2 0x3F7 JUMPI JUMPDEST POP PUSH1 0x9 PUSH1 0x0 MSTORE PUSH1 0x20 PUSH1 0x0 KECCAK256 SWAP1 PUSH1 0x0 JUMPDEST PUSH1 0x1 DUP2 LT PUSH2 0x3DA JUMPI CALLER PUSH1 0x0 MSTORE PUSH1 0x1 PUSH1 0x20 MSTORE PUSH1 0x40 PUSH1 0x0 KECCAK256 PUSH1 0x2 PUSH1 0xFF NOT DUP3 SLOAD AND OR SWAP1 SSTORE PUSH2 0x104 CALLER PUSH2 0x576 JUMP JUMPDEST PUSH1 0x40 MLOAD PUSH1 0x2 DUP2 MSTORE PUSH1 0x0 DUP1 MLOAD PUSH1 0x20 PUSH2 0x1F1A DUP4 CODECOPY DUP2 MLOAD SWAP2 MSTORE PUSH1 0x20 CALLER SWAP3 LOG2 CALLER PUSH1 0x0 DUP1 MLOAD PUSH1 0x20 PUSH2 0x1EFA DUP4 CODECOPY DUP2 MLOAD SWAP2 MSTORE PUSH1 0x0 DUP1 LOG2 PUSH1 0x0 JUMPDEST PUSH1 0x8 SLOAD DUP2 LT ISZERO PUSH2 0x23B JUMPI DUP1 PUSH2 0x14C PUSH1 0x1 SWAP3 PUSH2 0x512 JUMP JUMPDEST DUP4 DUP1 PUSH1 0xA0 SHL SUB SWAP2 SLOAD SWAP1 PUSH1 0x3 SHL SHR AND ISZERO ISZERO DUP1 PUSH2 0x219 JUMPI JUMPDEST PUSH2 0x16D JUMPI JUMPDEST ADD PUSH2 0x136 JUMP JUMPDEST PUSH2 0x176 DUP2 PUSH2 0x512 JUMP JUMPDEST DUP4 DUP1 PUSH1 0xA0 SHL SUB SWAP2 SLOAD SWAP1 PUSH1 0x3 SHL SHR AND PUSH1 0x0 MSTORE DUP2 PUSH1 0x20 MSTORE PUSH1 0x40 PUSH1 0x0 KECCAK256 PUSH1 0x2 PUSH1 0xFF NOT DUP3 SLOAD AND OR SWAP1 SSTORE PUSH2 0x1BA PUSH2 0x1A7 DUP3 PUSH2 0x512 JUMP JUMPDEST DUP5 DUP1 PUSH1 0xA0 SHL SUB SWAP2 SLOAD SWAP1 PUSH1 0x3 SHL SHR AND PUSH2 0x576 JUMP JUMPDEST PUSH2 0x1C3 DUP2 PUSH2 0x512 JUMP JUMPDEST DUP4 DUP1 PUSH1 0xA0 SHL SUB SWAP2 SLOAD SWAP1 PUSH1 0x3 SHL SHR AND PUSH1 0x0 DUP1 MLOAD PUSH1 0x20 PUSH2 0x1F1A DUP4 CODECOPY DUP2 MLOAD SWAP2 MSTORE PUSH1 0x20 PUSH1 0x40 MLOAD PUSH1 0x2 DUP2 MSTORE LOG2 PUSH2 0x1F3 DUP2 PUSH2 0x512 JUMP JUMPDEST DUP4 DUP1 PUSH1 0xA0 SHL SUB SWAP2 SLOAD SWAP1 PUSH1 0x3 SHL SHR AND PUSH1 0x0 DUP1 MLOAD PUSH1 0x20 PUSH2 0x1EFA DUP4 CODECOPY DUP2 MLOAD SWAP2 MSTORE PUSH1 0x0 DUP1 LOG2 PUSH2 0x167 JUMP JUMPDEST POP PUSH2 0x223 DUP2 PUSH2 0x512 JUMP JUMPDEST SWAP1 CALLER SWAP2 DUP5 DUP1 PUSH1 0xA0 SHL SUB SWAP2 SLOAD SWAP1 PUSH1 0x3 SHL SHR AND EQ ISZERO PUSH2 0x162 JUMP JUMPDEST PUSH1 0x0 JUMPDEST PUSH1 0x9 SLOAD DUP2 LT ISZERO PUSH2 0x3CB JUMPI PUSH2 0x251 DUP2 PUSH2 0x543 JUMP JUMPDEST SWAP1 SLOAD PUSH1 0x3 SWAP2 SWAP1 SWAP2 SHL SHR PUSH1 0x1 PUSH1 0x1 PUSH1 0xA0 SHL SUB AND PUSH2 0x270 JUMPI JUMPDEST PUSH1 0x1 ADD PUSH2 0x23E JUMP JUMPDEST PUSH2 0x279 DUP2 PUSH2 0x543 JUMP JUMPDEST PUSH1 0x1 DUP1 PUSH1 0xA0 SHL SUB SWAP2 SLOAD SWAP1 PUSH1 0x3 SHL SHR AND PUSH1 0x0 MSTORE PUSH1 0x1 PUSH1 0x20 MSTORE PUSH1 0x40 PUSH1 0x0 KECCAK256 PUSH1 0x1 PUSH1 0xFF NOT DUP3 SLOAD AND OR SWAP1 SSTORE PUSH2 0x2A9 DUP2 PUSH2 0x543 JUMP JUMPDEST PUSH1 0x1 DUP1 PUSH1 0xA0 SHL SUB SWAP2 SLOAD SWAP1 PUSH1 0x3 SHL SHR AND SWAP1 DUP2 PUSH1 0x0 MSTORE PUSH1 0x5 PUSH1 0x20 MSTORE PUSH1 0xFF PUSH1 0x40 PUSH1 0x0 KECCAK256 SLOAD AND ISZERO PUSH2 0x347 JUMPI JUMPDEST PUSH1 0x1 SWAP2 POP PUSH2 0x2DE DUP2 PUSH2 0x543 JUMP JUMPDEST DUP4 DUP1 PUSH1 0xA0 SHL SUB SWAP2 SLOAD SWAP1 PUSH1 0x3 SHL SHR AND PUSH1 0x0 DUP1 MLOAD PUSH1 0x20 PUSH2 0x1F1A DUP4 CODECOPY DUP2 MLOAD SWAP2 MSTORE PUSH1 0x20 PUSH1 0x40 MLOAD DUP6 DUP2 MSTORE LOG2 PUSH2 0x30D DUP2 PUSH2 0x543 JUMP JUMPDEST DUP4 DUP1 PUSH1 0xA0 SHL SUB SWAP2 SLOAD SWAP1 PUSH1 0x3 SHL SHR AND PUSH32 0x2C31044378CC14466459F09320DD4057D7AD6E99B194C0800C78227383A25296 PUSH1 0x0 DUP1 LOG2 SWAP1 POP PUSH2 0x268 JUMP JUMPDEST PUSH1 0x3 SLOAD SWAP2 PUSH9 0x10000000000000000 DUP4 LT ISZERO PUSH2 0x3B5 JUMPI PUSH2 0x36F DUP4 PUSH1 0x1 DUP1 SWAP6 ADD PUSH1 0x3 SSTORE PUSH1 0x3 PUSH2 0x55E JUMP JUMPDEST DUP2 SLOAD SWAP1 PUSH1 0x3 SHL SWAP1 DUP4 DUP3 SHL SWAP2 DUP7 DUP1 PUSH1 0xA0 SHL SUB SWAP1 SHL NOT AND OR SWAP1 SSTORE PUSH1 0x3 SLOAD DUP2 PUSH1 0x0 MSTORE PUSH1 0x7 PUSH1 0x20 MSTORE PUSH1 0x40 PUSH1 0x0 KECCAK256 SSTORE PUSH1 0x0 MSTORE PUSH1 0x5 PUSH1 0x20 MSTORE PUSH1 0x40 PUSH1 0x0 KECCAK256 DUP3 PUSH1 0xFF NOT DUP3 SLOAD AND OR SWAP1 SSTORE PUSH2 0x2D1 JUMP JUMPDEST PUSH4 0x4E487B71 PUSH1 0xE0 SHL PUSH1 0x0 MSTORE PUSH1 0x41 PUSH1 0x4 MSTORE PUSH1 0x24 PUSH1 0x0 REVERT JUMPDEST PUSH1 0x40 MLOAD PUSH2 0x18F5 SWAP1 DUP2 PUSH2 0x605 DUP3 CODECOPY RETURN JUMPDEST DUP2 MLOAD PUSH1 0x1 PUSH1 0x1 PUSH1 0xA0 SHL SUB AND DUP2 DUP5 ADD SSTORE PUSH1 0x20 SWAP1 SWAP2 ADD SWAP1 PUSH1 0x1 ADD PUSH2 0xDA JUMP JUMPDEST PUSH1 0x9 PUSH1 0x0 MSTORE PUSH32 0x6E1540171B6C0C960B71A7020D9F60077F6AF931A8BBF590DA0223DACF75C7AF ADD PUSH32 0x6E1540171B6C0C960B71A7020D9F60077F6AF931A8BBF590DA0223DACF75C7B0 JUMPDEST DUP2 DUP2 LT PUSH2 0x44D JUMPI POP PUSH2 0xCB JUMP JUMPDEST PUSH1 0x0 DUP2 SSTORE PUSH1 0x1 ADD PUSH2 0x440 JUMP JUMPDEST DUP2 MLOAD PUSH1 0x1 PUSH1 0x1 PUSH1 0xA0 SHL SUB AND DUP2 DUP5 ADD SSTORE PUSH1 0x20 SWAP1 SWAP2 ADD SWAP1 PUSH1 0x1 ADD PUSH2 0x93 JUMP JUMPDEST PUSH1 0x8 PUSH1 0x0 MSTORE PUSH32 0xF3F7A9FE364FAAB93B216DA50A3214154F22A0A2B415B23A84C8169E8B636EE3 ADD PUSH32 0xF3F7A9FE364FAAB93B216DA50A3214154F22A0A2B415B23A84C8169E8B636EE4 JUMPDEST DUP2 DUP2 LT PUSH2 0x4CC JUMPI POP PUSH2 0x84 JUMP JUMPDEST PUSH1 0x0 DUP2 SSTORE PUSH1 0x1 ADD PUSH2 0x4BF JUMP JUMPDEST PUSH4 0x1E4FBDF7 PUSH1 0xE0 SHL PUSH1 0x0 MSTORE PUSH1 0x0 PUSH1 0x4 MSTORE PUSH1 0x24 PUSH1 0x0 REVERT JUMPDEST PUSH1 0x0 DUP1 REVERT JUMPDEST PUSH1 0x40 MLOAD SWAP1 PUSH1 0x20 DUP3 ADD PUSH1 0x1 PUSH1 0x1 PUSH1 0x40 SHL SUB DUP2 GT DUP4 DUP3 LT OR PUSH2 0x3B5 JUMPI PUSH1 0x40 MSTORE JUMP JUMPDEST PUSH1 0x8 SLOAD DUP2 LT ISZERO PUSH2 0x52D JUMPI PUSH1 0x8 PUSH1 0x0 MSTORE PUSH1 0x20 PUSH1 0x0 KECCAK256 ADD SWAP1 PUSH1 0x0 SWAP1 JUMP JUMPDEST PUSH4 0x4E487B71 PUSH1 0xE0 SHL PUSH1 0x0 MSTORE PUSH1 0x32 PUSH1 0x4 MSTORE PUSH1 0x24 PUSH1 0x0 REVERT JUMPDEST PUSH1 0x9 SLOAD DUP2 LT ISZERO PUSH2 0x52D JUMPI PUSH1 0x9 PUSH1 0x0 MSTORE PUSH1 0x20 PUSH1 0x0 KECCAK256 ADD SWAP1 PUSH1 0x0 SWAP1 JUMP JUMPDEST DUP1 SLOAD DUP3 LT ISZERO PUSH2 0x52D JUMPI PUSH1 0x0 MSTORE PUSH1 0x20 PUSH1 0x0 KECCAK256 ADD SWAP1 PUSH1 0x0 SWAP1 JUMP JUMPDEST PUSH1 0x1 PUSH1 0x1 PUSH1 0xA0 SHL SUB AND PUSH1 0x0 DUP2 DUP2 MSTORE PUSH1 0x4 PUSH1 0x20 MSTORE PUSH1 0x40 SWAP1 KECCAK256 SLOAD PUSH1 0xFF AND ISZERO PUSH2 0x599 JUMPI POP JUMP JUMPDEST PUSH1 0x2 SLOAD PUSH9 0x10000000000000000 DUP2 LT ISZERO PUSH2 0x3B5 JUMPI DUP1 PUSH1 0x1 PUSH2 0x5BF SWAP3 ADD PUSH1 0x2 SSTORE PUSH1 0x2 PUSH2 0x55E JUMP JUMPDEST DUP2 SLOAD SWAP1 PUSH1 0x3 SHL SWAP1 DUP4 DUP3 SHL SWAP2 PUSH1 0x1 DUP1 PUSH1 0xA0 SHL SUB SWAP1 SHL NOT AND OR SWAP1 SSTORE PUSH1 0x2 SLOAD DUP2 PUSH1 0x0 MSTORE PUSH1 0x6 PUSH1 0x20 MSTORE PUSH1 0x40 PUSH1 0x0 KECCAK256 SSTORE PUSH1 0x0 MSTORE PUSH1 0x4 PUSH1 0x20 MSTORE PUSH1 0x40 PUSH1 0x0 KECCAK256 PUSH1 0x1 PUSH1 0xFF NOT DUP3 SLOAD AND OR SWAP1 SSTORE JUMP INVALID PUSH1 0x80 PUSH1 0x40 MSTORE PUSH1 0x4 CALLDATASIZE LT ISZERO PUSH2 0x12 JUMPI PUSH1 0x0 DUP1 REVERT JUMPDEST PUSH1 0x0 CALLDATALOAD PUSH1 0xE0 SHR DUP1 PUSH4 0x7314A3F EQ PUSH2 0xDB3 JUMPI DUP1 PUSH4 0x14BFD6D0 EQ PUSH2 0xD8A JUMPI DUP1 PUSH4 0x1785F53C EQ PUSH2 0xC4C JUMPI DUP1 PUSH4 0x1B8B444C EQ PUSH2 0xC23 JUMPI DUP1 PUSH4 0x24D7806C EQ PUSH2 0x75D JUMPI DUP1 PUSH4 0x31AE450B EQ PUSH2 0xB81 JUMPI DUP1 PUSH4 0x44276733 EQ PUSH2 0x8A8 JUMPI DUP1 PUSH4 0x44BFD12D EQ PUSH2 0xB47 JUMPI DUP1 PUSH4 0x49B90557 EQ PUSH2 0x17C JUMPI DUP1 PUSH4 0x52738D9A EQ PUSH2 0xB29 JUMPI DUP1 PUSH4 0x57DE4A6E EQ PUSH2 0xA87 JUMPI DUP1 PUSH4 0x630A195B EQ PUSH2 0xA47 JUMPI DUP1 PUSH4 0x662D6CE5 EQ PUSH2 0x943 JUMPI DUP1 PUSH4 0x715018A6 EQ PUSH2 0x8EA JUMPI DUP1 PUSH4 0x74D5E100 EQ PUSH2 0x8A8 JUMPI DUP1 PUSH4 0x8978AE39 EQ PUSH2 0x885 JUMPI DUP1 PUSH4 0x8B7BF3EB EQ PUSH2 0x867 JUMPI DUP1 PUSH4 0x8C89A8A1 EQ PUSH2 0x7C5 JUMPI DUP1 PUSH4 0x8DA5CB5B EQ PUSH2 0x79C JUMPI DUP1 PUSH4 0x8E9A4C34 EQ PUSH2 0x75D JUMPI DUP1 PUSH4 0x95A8C58D EQ PUSH2 0x714 JUMPI DUP1 PUSH4 0xA20B147D EQ PUSH2 0x6DA JUMPI DUP1 PUSH4 0xBEE6BF1A EQ PUSH2 0x679 JUMPI DUP1 PUSH4 0xBF8C6112 EQ PUSH2 0x602 JUMPI DUP1 PUSH4 0xC41331EC EQ PUSH2 0x5D5 JUMPI DUP1 PUSH4 0xDE2F0D6F EQ PUSH2 0x519 JUMPI DUP1 PUSH4 0xE6116CFD EQ PUSH2 0x438 JUMPI DUP1 PUSH4 0xE93DEA23 EQ PUSH2 0x2B8 JUMPI DUP1 PUSH4 0xEF2D65C3 EQ PUSH2 0x28D JUMPI DUP1 PUSH4 0xF1C4132E EQ PUSH2 0x249 JUMPI DUP1 PUSH4 0xF2FDE38B EQ PUSH2 0x1C0 JUMPI PUSH4 0xF575AFAD EQ PUSH2 0x17C JUMPI PUSH1 0x0 DUP1 REVERT JUMPDEST CALLVALUE PUSH2 0x1BB JUMPI PUSH1 0x20 CALLDATASIZE PUSH1 0x3 NOT ADD SLT PUSH2 0x1BB JUMPI PUSH1 0x1 PUSH1 0x1 PUSH1 0xA0 SHL SUB PUSH2 0x19D PUSH2 0xF80 JUMP JUMPDEST AND PUSH1 0x0 MSTORE PUSH1 0x5 PUSH1 0x20 MSTORE PUSH1 0x20 PUSH1 0xFF PUSH1 0x40 PUSH1 0x0 KECCAK256 SLOAD AND PUSH1 0x40 MLOAD SWAP1 ISZERO ISZERO DUP2 MSTORE RETURN JUMPDEST PUSH1 0x0 DUP1 REVERT JUMPDEST CALLVALUE PUSH2 0x1BB JUMPI PUSH1 0x20 CALLDATASIZE PUSH1 0x3 NOT ADD SLT PUSH2 0x1BB JUMPI PUSH2 0x1D9 PUSH2 0xF80 JUMP JUMPDEST PUSH2 0x1E1 PUSH2 0x1876 JUMP JUMPDEST PUSH1 0x1 PUSH1 0x1 PUSH1 0xA0 SHL SUB AND DUP1 ISZERO PUSH2 0x233 JUMPI PUSH1 0x0 DUP1 SLOAD PUSH1 0x1 PUSH1 0x1 PUSH1 0xA0 SHL SUB NOT DUP2 AND DUP4 OR DUP3 SSTORE PUSH1 0x1 PUSH1 0x1 PUSH1 0xA0 SHL SUB AND SWAP1 PUSH32 0x8BE0079C531659141344CD1FD0A4F28419497F9722A3DAAFE3B4186F6B6457E0 SWAP1 DUP1 LOG3 STOP JUMPDEST PUSH4 0x1E4FBDF7 PUSH1 0xE0 SHL PUSH1 0x0 MSTORE PUSH1 0x0 PUSH1 0x4 MSTORE PUSH1 0x24 PUSH1 0x0 REVERT JUMPDEST CALLVALUE PUSH2 0x1BB JUMPI PUSH1 0x20 CALLDATASIZE PUSH1 0x3 NOT ADD SLT PUSH2 0x1BB JUMPI PUSH1 0x20 PUSH2 0x274 PUSH1 0x4 CALLDATALOAD PUSH2 0x26F PUSH1 0x2 SLOAD DUP3 LT PUSH2 0x14D6 JUMP JUMPDEST PUSH2 0xF1C JUMP JUMPDEST SWAP1 SLOAD PUSH1 0x40 MLOAD PUSH1 0x3 SWAP3 SWAP1 SWAP3 SHL SHR PUSH1 0x1 PUSH1 0x1 PUSH1 0xA0 SHL SUB AND DUP2 MSTORE RETURN JUMPDEST CALLVALUE PUSH2 0x1BB JUMPI PUSH1 0x20 CALLDATASIZE PUSH1 0x3 NOT ADD SLT PUSH2 0x1BB JUMPI PUSH1 0x20 PUSH2 0x274 PUSH1 0x4 CALLDATALOAD PUSH2 0x2B3 PUSH1 0x3 SLOAD DUP3 LT PUSH2 0x14D6 JUMP JUMPDEST PUSH2 0xF4D JUMP JUMPDEST CALLVALUE PUSH2 0x1BB JUMPI PUSH1 0x20 CALLDATASIZE PUSH1 0x3 NOT ADD SLT PUSH2 0x1BB JUMPI PUSH1 0x4 CALLDATALOAD PUSH8 0xFFFFFFFFFFFFFFFF DUP2 GT PUSH2 0x1BB JUMPI PUSH2 0x2E9 SWAP1 CALLDATASIZE SWAP1 PUSH1 0x4 ADD PUSH2 0xEEB JUMP JUMPDEST SWAP1 CALLER PUSH1 0x0 MSTORE PUSH1 0x1 PUSH1 0x20 MSTORE PUSH1 0xFF PUSH1 0x40 PUSH1 0x0 KECCAK256 SLOAD AND PUSH1 0x3 DUP2 LT ISZERO PUSH2 0x422 JUMPI PUSH1 0x2 PUSH2 0x311 SWAP2 EQ PUSH2 0x101B JUMP JUMPDEST PUSH1 0x0 JUMPDEST DUP3 DUP2 LT PUSH2 0x31D JUMPI STOP JUMPDEST PUSH2 0x330 PUSH2 0x32B DUP3 DUP6 DUP6 PUSH2 0x1067 JUMP JUMPDEST PUSH2 0x1077 JUMP JUMPDEST PUSH1 0x1 PUSH1 0x1 PUSH1 0xA0 SHL SUB DUP2 AND PUSH1 0x0 DUP2 DUP2 MSTORE PUSH1 0x1 PUSH1 0x20 MSTORE PUSH1 0x40 SWAP1 KECCAK256 SLOAD SWAP2 SWAP3 SWAP2 PUSH1 0xFF AND PUSH1 0x3 DUP2 LT ISZERO PUSH2 0x422 JUMPI PUSH1 0x1 EQ PUSH2 0x36B JUMPI JUMPDEST POP PUSH1 0x1 SWAP2 POP ADD PUSH2 0x314 JUMP JUMPDEST PUSH2 0x374 DUP4 PUSH2 0x16EB JUMP JUMPDEST PUSH2 0x3DD JUMPI PUSH2 0x398 PUSH1 0x1 SWAP4 DUP3 PUSH1 0x0 MSTORE DUP5 PUSH1 0x20 MSTORE PUSH1 0x40 PUSH1 0x0 KECCAK256 PUSH1 0xFF NOT DUP2 SLOAD AND SWAP1 SSTORE PUSH2 0x174F JUMP JUMPDEST PUSH1 0x0 DUP1 MLOAD PUSH1 0x20 PUSH2 0x18A0 DUP4 CODECOPY DUP2 MLOAD SWAP2 MSTORE PUSH1 0x20 PUSH1 0x40 MLOAD DUP4 PUSH32 0xD3E803F2DFDACD206B7D19AA46D847206386D84E3DC6B8DE0926E54AFFA6FDDC PUSH1 0x0 DUP1 LOG2 PUSH1 0x0 DUP2 MSTORE LOG2 DUP5 PUSH2 0x360 JUMP JUMPDEST PUSH1 0x40 MLOAD PUSH3 0x461BCD PUSH1 0xE5 SHL DUP2 MSTORE PUSH1 0x20 PUSH1 0x4 DUP3 ADD MSTORE PUSH1 0x1F PUSH1 0x24 DUP3 ADD MSTORE PUSH32 0x43616E6E6F742072656D6F76652068617264636F6465642061756469746F7200 PUSH1 0x44 DUP3 ADD MSTORE PUSH1 0x64 SWAP1 REVERT JUMPDEST PUSH4 0x4E487B71 PUSH1 0xE0 SHL PUSH1 0x0 MSTORE PUSH1 0x21 PUSH1 0x4 MSTORE PUSH1 0x24 PUSH1 0x0 REVERT JUMPDEST CALLVALUE PUSH2 0x1BB JUMPI PUSH1 0x20 CALLDATASIZE PUSH1 0x3 NOT ADD SLT PUSH2 0x1BB JUMPI PUSH2 0x451 PUSH2 0xF80 JUMP JUMPDEST CALLER PUSH1 0x0 MSTORE PUSH1 0x1 PUSH1 0x20 MSTORE PUSH1 0xFF PUSH1 0x40 PUSH1 0x0 KECCAK256 SLOAD AND PUSH1 0x3 DUP2 LT ISZERO PUSH2 0x422 JUMPI PUSH1 0x2 PUSH2 0x478 SWAP2 EQ PUSH2 0x101B JUMP JUMPDEST PUSH1 0x1 PUSH1 0x1 PUSH1 0xA0 SHL SUB DUP2 AND PUSH1 0x0 DUP2 DUP2 MSTORE PUSH1 0x1 PUSH1 0x20 MSTORE PUSH1 0x40 SWAP1 KECCAK256 SLOAD SWAP1 SWAP2 SWAP1 PUSH1 0xFF AND PUSH1 0x3 DUP2 LT ISZERO PUSH2 0x422 JUMPI PUSH1 0x1 PUSH2 0x4AC SWAP2 EQ PUSH2 0x1499 JUMP JUMPDEST PUSH2 0x4B5 DUP2 PUSH2 0x16EB JUMP JUMPDEST PUSH2 0x3DD JUMPI PUSH2 0x4D8 SWAP1 DUP3 PUSH1 0x0 MSTORE PUSH1 0x1 PUSH1 0x20 MSTORE PUSH1 0x40 PUSH1 0x0 KECCAK256 PUSH1 0xFF NOT DUP2 SLOAD AND SWAP1 SSTORE PUSH2 0x174F JUMP JUMPDEST PUSH1 0x0 DUP1 MLOAD PUSH1 0x20 PUSH2 0x18A0 DUP4 CODECOPY DUP2 MLOAD SWAP2 MSTORE PUSH1 0x20 PUSH1 0x40 MLOAD DUP4 PUSH32 0xD3E803F2DFDACD206B7D19AA46D847206386D84E3DC6B8DE0926E54AFFA6FDDC PUSH1 0x0 DUP1 LOG2 PUSH1 0x0 DUP2 MSTORE LOG2 STOP JUMPDEST CALLVALUE PUSH2 0x1BB JUMPI PUSH1 0x0 CALLDATASIZE PUSH1 0x3 NOT ADD SLT PUSH2 0x1BB JUMPI PUSH1 0x40 MLOAD DUP1 PUSH1 0x20 PUSH1 0x9 SLOAD SWAP2 DUP3 DUP2 MSTORE ADD SWAP1 PUSH1 0x9 PUSH1 0x0 MSTORE PUSH32 0x6E1540171B6C0C960B71A7020D9F60077F6AF931A8BBF590DA0223DACF75C7AF SWAP1 PUSH1 0x0 JUMPDEST DUP2 DUP2 LT PUSH2 0x5B6 JUMPI POP POP POP DUP2 SWAP1 SUB PUSH1 0x1F ADD PUSH1 0x1F NOT AND DUP2 ADD SWAP1 PUSH8 0xFFFFFFFFFFFFFFFF DUP3 GT DUP2 DUP4 LT OR PUSH2 0x5A0 JUMPI PUSH2 0x59C DUP3 SWAP2 DUP3 PUSH1 0x40 MSTORE DUP3 PUSH2 0xF96 JUMP JUMPDEST SUB SWAP1 RETURN JUMPDEST PUSH4 0x4E487B71 PUSH1 0xE0 SHL PUSH1 0x0 MSTORE PUSH1 0x41 PUSH1 0x4 MSTORE PUSH1 0x24 PUSH1 0x0 REVERT JUMPDEST DUP3 SLOAD PUSH1 0x1 PUSH1 0x1 PUSH1 0xA0 SHL SUB AND DUP5 MSTORE PUSH1 0x20 SWAP1 SWAP4 ADD SWAP3 PUSH1 0x1 SWAP3 DUP4 ADD SWAP3 ADD PUSH2 0x563 JUMP JUMPDEST CALLVALUE PUSH2 0x1BB JUMPI PUSH1 0x20 CALLDATASIZE PUSH1 0x3 NOT ADD SLT PUSH2 0x1BB JUMPI PUSH1 0x20 PUSH2 0x5F8 PUSH2 0x5F3 PUSH2 0xF80 JUMP JUMPDEST PUSH2 0x1518 JUMP JUMPDEST PUSH1 0x40 MLOAD SWAP1 ISZERO ISZERO DUP2 MSTORE RETURN JUMPDEST CALLVALUE PUSH2 0x1BB JUMPI PUSH1 0x20 CALLDATASIZE PUSH1 0x3 NOT ADD SLT PUSH2 0x1BB JUMPI PUSH1 0x1 PUSH1 0x1 PUSH1 0xA0 SHL SUB PUSH2 0x623 PUSH2 0xF80 JUMP JUMPDEST AND DUP1 PUSH1 0x0 MSTORE PUSH1 0x4 PUSH1 0x20 MSTORE PUSH2 0x63E PUSH1 0xFF PUSH1 0x40 PUSH1 0x0 KECCAK256 SLOAD AND PUSH2 0x10D7 JUMP JUMPDEST PUSH1 0x0 MSTORE PUSH1 0x6 PUSH1 0x20 MSTORE PUSH1 0x40 PUSH1 0x0 KECCAK256 SLOAD PUSH1 0x0 NOT DUP2 ADD SWAP1 DUP2 GT PUSH2 0x663 JUMPI PUSH1 0x20 SWAP1 PUSH1 0x40 MLOAD SWAP1 DUP2 MSTORE RETURN JUMPDEST PUSH4 0x4E487B71 PUSH1 0xE0 SHL PUSH1 0x0 MSTORE PUSH1 0x11 PUSH1 0x4 MSTORE PUSH1 0x24 PUSH1 0x0 REVERT JUMPDEST CALLVALUE PUSH2 0x1BB JUMPI PUSH1 0x20 CALLDATASIZE PUSH1 0x3 NOT ADD SLT PUSH2 0x1BB JUMPI PUSH1 0x1 PUSH1 0x1 PUSH1 0xA0 SHL SUB PUSH2 0x69A PUSH2 0xF80 JUMP JUMPDEST AND DUP1 PUSH1 0x0 MSTORE PUSH1 0x5 PUSH1 0x20 MSTORE PUSH2 0x6B5 PUSH1 0xFF PUSH1 0x40 PUSH1 0x0 KECCAK256 SLOAD AND PUSH2 0x1499 JUMP JUMPDEST PUSH1 0x0 MSTORE PUSH1 0x7 PUSH1 0x20 MSTORE PUSH1 0x40 PUSH1 0x0 KECCAK256 SLOAD PUSH1 0x0 NOT DUP2 ADD SWAP1 DUP2 GT PUSH2 0x663 JUMPI PUSH1 0x20 SWAP1 PUSH1 0x40 MLOAD SWAP1 DUP2 MSTORE RETURN JUMPDEST CALLVALUE PUSH2 0x1BB JUMPI PUSH1 0x20 CALLDATASIZE PUSH1 0x3 NOT ADD SLT PUSH2 0x1BB JUMPI PUSH1 0x1 PUSH1 0x1 PUSH1 0xA0 SHL SUB PUSH2 0x6FB PUSH2 0xF80 JUMP JUMPDEST AND PUSH1 0x0 MSTORE PUSH1 0x6 PUSH1 0x20 MSTORE PUSH1 0x20 PUSH1 0x40 PUSH1 0x0 KECCAK256 SLOAD PUSH1 0x40 MLOAD SWAP1 DUP2 MSTORE RETURN JUMPDEST CALLVALUE PUSH2 0x1BB JUMPI PUSH2 0x722 CALLDATASIZE PUSH2 0xFEC JUMP JUMPDEST PUSH1 0x1 PUSH1 0x1 PUSH1 0xA0 SHL SUB SWAP1 SWAP2 AND PUSH1 0x0 SWAP1 DUP2 MSTORE PUSH1 0x1 PUSH1 0x20 MSTORE PUSH1 0x40 SWAP1 KECCAK256 SLOAD PUSH1 0xFF AND PUSH1 0x3 DUP3 LT ISZERO PUSH2 0x422 JUMPI PUSH1 0x3 DUP2 LT ISZERO PUSH2 0x422 JUMPI PUSH1 0x20 SWAP2 PUSH1 0x40 MLOAD SWAP2 EQ DUP2 MSTORE RETURN JUMPDEST CALLVALUE PUSH2 0x1BB JUMPI PUSH1 0x20 CALLDATASIZE PUSH1 0x3 NOT ADD SLT PUSH2 0x1BB JUMPI PUSH1 0x1 PUSH1 0x1 PUSH1 0xA0 SHL SUB PUSH2 0x77E PUSH2 0xF80 JUMP JUMPDEST AND PUSH1 0x0 MSTORE PUSH1 0x4 PUSH1 0x20 MSTORE PUSH1 0x20 PUSH1 0xFF PUSH1 0x40 PUSH1 0x0 KECCAK256 SLOAD AND PUSH1 0x40 MLOAD SWAP1 ISZERO ISZERO DUP2 MSTORE RETURN JUMPDEST CALLVALUE PUSH2 0x1BB JUMPI PUSH1 0x0 CALLDATASIZE PUSH1 0x3 NOT ADD SLT PUSH2 0x1BB JUMPI PUSH1 0x0 SLOAD PUSH1 0x40 MLOAD PUSH1 0x1 PUSH1 0x1 PUSH1 0xA0 SHL SUB SWAP1 SWAP2 AND DUP2 MSTORE PUSH1 0x20 SWAP1 RETURN JUMPDEST CALLVALUE PUSH2 0x1BB JUMPI PUSH1 0x0 CALLDATASIZE PUSH1 0x3 NOT ADD SLT PUSH2 0x1BB JUMPI PUSH1 0x40 MLOAD DUP1 PUSH1 0x20 PUSH1 0x8 SLOAD SWAP2 DUP3 DUP2 MSTORE ADD SWAP1 PUSH1 0x8 PUSH1 0x0 MSTORE PUSH32 0xF3F7A9FE364FAAB93B216DA50A3214154F22A0A2B415B23A84C8169E8B636EE3 SWAP1 PUSH1 0x0 JUMPDEST DUP2 DUP2 LT PUSH2 0x848 JUMPI POP POP POP DUP2 SWAP1 SUB PUSH1 0x1F ADD PUSH1 0x1F NOT AND DUP2 ADD SWAP1 PUSH8 0xFFFFFFFFFFFFFFFF DUP3 GT DUP2 DUP4 LT OR PUSH2 0x5A0 JUMPI PUSH2 0x59C DUP3 SWAP2 DUP3 PUSH1 0x40 MSTORE DUP3 PUSH2 0xF96 JUMP JUMPDEST DUP3 SLOAD PUSH1 0x1 PUSH1 0x1 PUSH1 0xA0 SHL SUB AND DUP5 MSTORE PUSH1 0x20 SWAP1 SWAP4 ADD SWAP3 PUSH1 0x1 SWAP3 DUP4 ADD SWAP3 ADD PUSH2 0x80F JUMP JUMPDEST CALLVALUE PUSH2 0x1BB JUMPI PUSH1 0x0 CALLDATASIZE PUSH1 0x3 NOT ADD SLT PUSH2 0x1BB JUMPI PUSH1 0x20 PUSH1 0x2 SLOAD PUSH1 0x40 MLOAD SWAP1 DUP2 MSTORE RETURN JUMPDEST CALLVALUE PUSH2 0x1BB JUMPI PUSH1 0x20 CALLDATASIZE PUSH1 0x3 NOT ADD SLT PUSH2 0x1BB JUMPI PUSH1 0x20 PUSH2 0x5F8 PUSH2 0x8A3 PUSH2 0xF80 JUMP JUMPDEST PUSH2 0x16EB JUMP JUMPDEST CALLVALUE PUSH2 0x1BB JUMPI PUSH1 0x20 CALLDATASIZE PUSH1 0x3 NOT ADD SLT PUSH2 0x1BB JUMPI PUSH1 0x1 PUSH1 0x1 PUSH1 0xA0 SHL SUB PUSH2 0x8C9 PUSH2 0xF80 JUMP JUMPDEST AND PUSH1 0x0 MSTORE PUSH1 0x1 PUSH1 0x20 MSTORE PUSH2 0x59C PUSH1 0xFF PUSH1 0x40 PUSH1 0x0 KECCAK256 SLOAD AND PUSH1 0x40 MLOAD SWAP2 DUP3 SWAP2 DUP3 PUSH2 0xFD9 JUMP JUMPDEST CALLVALUE PUSH2 0x1BB JUMPI PUSH1 0x0 CALLDATASIZE PUSH1 0x3 NOT ADD SLT PUSH2 0x1BB JUMPI PUSH2 0x903 PUSH2 0x1876 JUMP JUMPDEST PUSH1 0x0 DUP1 SLOAD PUSH1 0x1 PUSH1 0x1 PUSH1 0xA0 SHL SUB NOT DUP2 AND DUP3 SSTORE PUSH1 0x1 PUSH1 0x1 PUSH1 0xA0 SHL SUB AND PUSH32 0x8BE0079C531659141344CD1FD0A4F28419497F9722A3DAAFE3B4186F6B6457E0 DUP3 DUP1 LOG3 STOP JUMPDEST CALLVALUE PUSH2 0x1BB JUMPI PUSH1 0x40 CALLDATASIZE PUSH1 0x3 NOT ADD SLT PUSH2 0x1BB JUMPI PUSH1 0x4 CALLDATALOAD PUSH8 0xFFFFFFFFFFFFFFFF DUP2 GT PUSH2 0x1BB JUMPI PUSH2 0x974 SWAP1 CALLDATASIZE SWAP1 PUSH1 0x4 ADD PUSH2 0xEEB JUMP JUMPDEST SWAP1 PUSH1 0x24 CALLDATALOAD PUSH8 0xFFFFFFFFFFFFFFFF DUP2 GT PUSH2 0x1BB JUMPI PUSH2 0x995 SWAP1 CALLDATASIZE SWAP1 PUSH1 0x4 ADD PUSH2 0xEEB JUMP JUMPDEST SWAP2 SWAP1 SWAP3 CALLER PUSH1 0x0 MSTORE PUSH1 0x1 PUSH1 0x20 MSTORE PUSH1 0xFF PUSH1 0x40 PUSH1 0x0 KECCAK256 SLOAD AND PUSH1 0x3 DUP2 LT ISZERO PUSH2 0x422 JUMPI PUSH1 0x2 PUSH2 0x9BF SWAP2 EQ PUSH2 0x101B JUMP JUMPDEST DUP3 DUP2 SUB PUSH2 0xA09 JUMPI PUSH1 0x0 JUMPDEST DUP2 DUP2 LT PUSH2 0x9D2 JUMPI STOP JUMPDEST PUSH2 0x9E0 PUSH2 0x32B DUP3 DUP5 DUP7 PUSH2 0x1067 JUMP JUMPDEST SWAP1 PUSH2 0x9EC DUP2 DUP7 DUP9 PUSH2 0x1067 JUMP JUMPDEST CALLDATALOAD SWAP2 PUSH1 0x3 DUP4 LT ISZERO PUSH2 0x1BB JUMPI PUSH1 0x1 SWAP3 PUSH2 0xA03 SWAP2 PUSH2 0x1112 JUMP JUMPDEST ADD PUSH2 0x9C9 JUMP JUMPDEST PUSH1 0x40 MLOAD PUSH3 0x461BCD PUSH1 0xE5 SHL DUP2 MSTORE PUSH1 0x20 PUSH1 0x4 DUP3 ADD MSTORE PUSH1 0x16 PUSH1 0x24 DUP3 ADD MSTORE PUSH22 0x82E4E4C2F2E640D8CADCCEE8D040DAD2E6DAC2E8C6D PUSH1 0x53 SHL PUSH1 0x44 DUP3 ADD MSTORE PUSH1 0x64 SWAP1 REVERT JUMPDEST CALLVALUE PUSH2 0x1BB JUMPI PUSH2 0xA55 CALLDATASIZE PUSH2 0xFEC JUMP JUMPDEST CALLER PUSH1 0x0 MSTORE PUSH1 0x1 PUSH1 0x20 MSTORE PUSH1 0xFF PUSH1 0x40 PUSH1 0x0 KECCAK256 SLOAD AND SWAP2 PUSH1 0x3 DUP4 LT ISZERO PUSH2 0x422 JUMPI PUSH2 0xA80 PUSH1 0x2 PUSH2 0xA85 SWAP5 EQ PUSH2 0x101B JUMP JUMPDEST PUSH2 0x1112 JUMP JUMPDEST STOP JUMPDEST CALLVALUE PUSH2 0x1BB JUMPI PUSH1 0x0 CALLDATASIZE PUSH1 0x3 NOT ADD SLT PUSH2 0x1BB JUMPI PUSH1 0x40 MLOAD DUP1 PUSH1 0x20 PUSH1 0x3 SLOAD SWAP2 DUP3 DUP2 MSTORE ADD SWAP1 PUSH1 0x3 PUSH1 0x0 MSTORE PUSH32 0xC2575A0E9E593C00F959F8C92F12DB2869C3395A3B0502D05E2516446F71F85B SWAP1 PUSH1 0x0 JUMPDEST DUP2 DUP2 LT PUSH2 0xB0A JUMPI POP POP POP DUP2 SWAP1 SUB PUSH1 0x1F ADD PUSH1 0x1F NOT AND DUP2 ADD SWAP1 PUSH8 0xFFFFFFFFFFFFFFFF DUP3 GT DUP2 DUP4 LT OR PUSH2 0x5A0 JUMPI PUSH2 0x59C DUP3 SWAP2 DUP3 PUSH1 0x40 MSTORE DUP3 PUSH2 0xF96 JUMP JUMPDEST DUP3 SLOAD PUSH1 0x1 PUSH1 0x1 PUSH1 0xA0 SHL SUB AND DUP5 MSTORE PUSH1 0x20 SWAP1 SWAP4 ADD SWAP3 PUSH1 0x1 SWAP3 DUP4 ADD SWAP3 ADD PUSH2 0xAD1 JUMP JUMPDEST CALLVALUE PUSH2 0x1BB JUMPI PUSH1 0x0 CALLDATASIZE PUSH1 0x3 NOT ADD SLT PUSH2 0x1BB JUMPI PUSH1 0x20 PUSH1 0x3 SLOAD PUSH1 0x40 MLOAD SWAP1 DUP2 MSTORE RETURN JUMPDEST CALLVALUE PUSH2 0x1BB JUMPI PUSH1 0x20 CALLDATASIZE PUSH1 0x3 NOT ADD SLT PUSH2 0x1BB JUMPI PUSH1 0x1 PUSH1 0x1 PUSH1 0xA0 SHL SUB PUSH2 0xB68 PUSH2 0xF80 JUMP JUMPDEST AND PUSH1 0x0 MSTORE PUSH1 0x7 PUSH1 0x20 MSTORE PUSH1 0x20 PUSH1 0x40 PUSH1 0x0 KECCAK256 SLOAD PUSH1 0x40 MLOAD SWAP1 DUP2 MSTORE RETURN JUMPDEST CALLVALUE PUSH2 0x1BB JUMPI PUSH1 0x0 CALLDATASIZE PUSH1 0x3 NOT ADD SLT PUSH2 0x1BB JUMPI PUSH1 0x40 MLOAD DUP1 PUSH1 0x20 PUSH1 0x2 SLOAD SWAP2 DUP3 DUP2 MSTORE ADD SWAP1 PUSH1 0x2 PUSH1 0x0 MSTORE PUSH32 0x405787FA12A823E0F2B7631CC41B3BA8828B3321CA811111FA75CD3AA3BB5ACE SWAP1 PUSH1 0x0 JUMPDEST DUP2 DUP2 LT PUSH2 0xC04 JUMPI POP POP POP DUP2 SWAP1 SUB PUSH1 0x1F ADD PUSH1 0x1F NOT AND DUP2 ADD SWAP1 PUSH8 0xFFFFFFFFFFFFFFFF DUP3 GT DUP2 DUP4 LT OR PUSH2 0x5A0 JUMPI PUSH2 0x59C DUP3 SWAP2 DUP3 PUSH1 0x40 MSTORE DUP3 PUSH2 0xF96 JUMP JUMPDEST DUP3 SLOAD PUSH1 0x1 PUSH1 0x1 PUSH1 0xA0 SHL SUB AND DUP5 MSTORE PUSH1 0x20 SWAP1 SWAP4 ADD SWAP3 PUSH1 0x1 SWAP3 DUP4 ADD SWAP3 ADD PUSH2 0xBCB JUMP JUMPDEST CALLVALUE PUSH2 0x1BB JUMPI PUSH1 0x20 CALLDATASIZE PUSH1 0x3 NOT ADD SLT PUSH2 0x1BB JUMPI PUSH1 0x4 CALLDATALOAD PUSH1 0x3 SLOAD DUP2 LT ISZERO PUSH2 0x1BB JUMPI PUSH2 0x274 PUSH1 0x20 SWAP2 PUSH2 0xF4D JUMP JUMPDEST CALLVALUE PUSH2 0x1BB JUMPI PUSH1 0x20 CALLDATASIZE PUSH1 0x3 NOT ADD SLT PUSH2 0x1BB JUMPI PUSH2 0xC65 PUSH2 0xF80 JUMP JUMPDEST CALLER PUSH1 0x0 MSTORE PUSH1 0x1 PUSH1 0x20 MSTORE PUSH1 0xFF PUSH1 0x40 PUSH1 0x0 KECCAK256 SLOAD AND PUSH1 0x3 DUP2 LT ISZERO PUSH2 0x422 JUMPI PUSH1 0x2 PUSH2 0xC8C SWAP2 EQ PUSH2 0x101B JUMP JUMPDEST PUSH1 0x1 PUSH1 0x1 PUSH1 0xA0 SHL SUB DUP2 AND PUSH1 0x0 DUP2 DUP2 MSTORE PUSH1 0x1 PUSH1 0x20 MSTORE PUSH1 0x40 SWAP1 KECCAK256 SLOAD SWAP1 SWAP2 SWAP1 PUSH1 0xFF AND PUSH1 0x3 DUP2 LT ISZERO PUSH2 0x422 JUMPI PUSH1 0x2 PUSH2 0xCC0 SWAP2 EQ PUSH2 0x10D7 JUMP JUMPDEST PUSH1 0x0 SLOAD PUSH2 0xCD8 SWAP1 PUSH1 0x1 PUSH1 0x1 PUSH1 0xA0 SHL SUB AND DUP4 EQ ISZERO PUSH2 0x108B JUMP JUMPDEST PUSH2 0xCE1 DUP2 PUSH2 0x1518 JUMP JUMPDEST PUSH2 0xD45 JUMPI PUSH2 0xD04 SWAP1 DUP3 PUSH1 0x0 MSTORE PUSH1 0x1 PUSH1 0x20 MSTORE PUSH1 0x40 PUSH1 0x0 KECCAK256 PUSH1 0xFF NOT DUP2 SLOAD AND SWAP1 SSTORE PUSH2 0x1599 JUMP JUMPDEST PUSH1 0x0 DUP1 MLOAD PUSH1 0x20 PUSH2 0x18A0 DUP4 CODECOPY DUP2 MLOAD SWAP2 MSTORE PUSH1 0x20 PUSH1 0x40 MLOAD DUP4 PUSH32 0xA3B62BC36326052D97EA62D63C3D60308ED4C3EA8AC079DD8499F1E9C4F80C0F PUSH1 0x0 DUP1 LOG2 PUSH1 0x0 DUP2 MSTORE LOG2 STOP JUMPDEST PUSH1 0x40 MLOAD PUSH3 0x461BCD PUSH1 0xE5 SHL DUP2 MSTORE PUSH1 0x20 PUSH1 0x4 DUP3 ADD MSTORE PUSH1 0x1D PUSH1 0x24 DUP3 ADD MSTORE PUSH32 0x43616E6E6F742072656D6F76652068617264636F6465642061646D696E000000 PUSH1 0x44 DUP3 ADD MSTORE PUSH1 0x64 SWAP1 REVERT JUMPDEST CALLVALUE PUSH2 0x1BB JUMPI PUSH1 0x20 CALLDATASIZE PUSH1 0x3 NOT ADD SLT PUSH2 0x1BB JUMPI PUSH1 0x4 CALLDATALOAD PUSH1 0x2 SLOAD DUP2 LT ISZERO PUSH2 0x1BB JUMPI PUSH2 0x274 PUSH1 0x20 SWAP2 PUSH2 0xF1C JUMP JUMPDEST CALLVALUE PUSH2 0x1BB JUMPI PUSH1 0x20 CALLDATASIZE PUSH1 0x3 NOT ADD SLT PUSH2 0x1BB JUMPI PUSH1 0x4 CALLDATALOAD PUSH8 0xFFFFFFFFFFFFFFFF DUP2 GT PUSH2 0x1BB JUMPI PUSH2 0xDE4 SWAP1 CALLDATASIZE SWAP1 PUSH1 0x4 ADD PUSH2 0xEEB JUMP JUMPDEST SWAP1 CALLER PUSH1 0x0 MSTORE PUSH1 0x1 PUSH1 0x20 MSTORE PUSH1 0xFF PUSH1 0x40 PUSH1 0x0 KECCAK256 SLOAD AND PUSH1 0x3 DUP2 LT ISZERO PUSH2 0x422 JUMPI PUSH1 0x2 PUSH2 0xE0C SWAP2 EQ PUSH2 0x101B JUMP JUMPDEST PUSH1 0x0 JUMPDEST DUP3 DUP2 LT PUSH2 0xE18 JUMPI STOP JUMPDEST PUSH2 0xE26 PUSH2 0x32B DUP3 DUP6 DUP6 PUSH2 0x1067 JUMP JUMPDEST PUSH1 0x1 PUSH1 0x1 PUSH1 0xA0 SHL SUB DUP2 AND PUSH1 0x0 DUP2 DUP2 MSTORE PUSH1 0x1 PUSH1 0x20 MSTORE PUSH1 0x40 SWAP1 KECCAK256 SLOAD SWAP2 SWAP3 SWAP2 PUSH1 0xFF AND PUSH1 0x3 DUP2 LT ISZERO PUSH2 0x422 JUMPI PUSH1 0x2 EQ PUSH2 0xE61 JUMPI JUMPDEST POP PUSH1 0x1 SWAP2 POP ADD PUSH2 0xE0F JUMP JUMPDEST PUSH1 0x0 SLOAD PUSH2 0xE79 SWAP1 PUSH1 0x1 PUSH1 0x1 PUSH1 0xA0 SHL SUB AND DUP3 EQ ISZERO PUSH2 0x108B JUMP JUMPDEST PUSH2 0xE82 DUP4 PUSH2 0x1518 JUMP JUMPDEST PUSH2 0xD45 JUMPI PUSH2 0xEA6 PUSH1 0x1 SWAP4 DUP3 PUSH1 0x0 MSTORE DUP5 PUSH1 0x20 MSTORE PUSH1 0x40 PUSH1 0x0 KECCAK256 PUSH1 0xFF NOT DUP2 SLOAD AND SWAP1 SSTORE PUSH2 0x1599 JUMP JUMPDEST PUSH1 0x0 DUP1 MLOAD PUSH1 0x20 PUSH2 0x18A0 DUP4 CODECOPY DUP2 MLOAD SWAP2 MSTORE PUSH1 0x20 PUSH1 0x40 MLOAD DUP4 PUSH32 0xA3B62BC36326052D97EA62D63C3D60308ED4C3EA8AC079DD8499F1E9C4F80C0F PUSH1 0x0 DUP1 LOG2 PUSH1 0x0 DUP2 MSTORE LOG2 DUP5 PUSH2 0xE56 JUMP JUMPDEST SWAP2 DUP2 PUSH1 0x1F DUP5 ADD SLT ISZERO PUSH2 0x1BB JUMPI DUP3 CALLDATALOAD SWAP2 PUSH8 0xFFFFFFFFFFFFFFFF DUP4 GT PUSH2 0x1BB JUMPI PUSH1 0x20 DUP1 DUP6 ADD SWAP5 DUP5 PUSH1 0x5 SHL ADD ADD GT PUSH2 0x1BB JUMPI JUMP JUMPDEST PUSH1 0x2 SLOAD DUP2 LT ISZERO PUSH2 0xF37 JUMPI PUSH1 0x2 PUSH1 0x0 MSTORE PUSH1 0x20 PUSH1 0x0 KECCAK256 ADD SWAP1 PUSH1 0x0 SWAP1 JUMP JUMPDEST PUSH4 0x4E487B71 PUSH1 0xE0 SHL PUSH1 0x0 MSTORE PUSH1 0x32 PUSH1 0x4 MSTORE PUSH1 0x24 PUSH1 0x0 REVERT JUMPDEST PUSH1 0x3 SLOAD DUP2 LT ISZERO PUSH2 0xF37 JUMPI PUSH1 0x3 PUSH1 0x0 MSTORE PUSH1 0x20 PUSH1 0x0 KECCAK256 ADD SWAP1 PUSH1 0x0 SWAP1 JUMP JUMPDEST DUP1 SLOAD DUP3 LT ISZERO PUSH2 0xF37 JUMPI PUSH1 0x0 MSTORE PUSH1 0x20 PUSH1 0x0 KECCAK256 ADD SWAP1 PUSH1 0x0 SWAP1 JUMP JUMPDEST PUSH1 0x4 CALLDATALOAD SWAP1 PUSH1 0x1 PUSH1 0x1 PUSH1 0xA0 SHL SUB DUP3 AND DUP3 SUB PUSH2 0x1BB JUMPI JUMP JUMPDEST PUSH1 0x20 PUSH1 0x40 DUP2 DUP4 ADD SWAP3 DUP3 DUP2 MSTORE DUP5 MLOAD DUP1 SWAP5 MSTORE ADD SWAP3 ADD SWAP1 PUSH1 0x0 JUMPDEST DUP2 DUP2 LT PUSH2 0xFBA JUMPI POP POP POP SWAP1 JUMP JUMPDEST DUP3 MLOAD PUSH1 0x1 PUSH1 0x1 PUSH1 0xA0 SHL SUB AND DUP5 MSTORE PUSH1 0x20 SWAP4 DUP5 ADD SWAP4 SWAP1 SWAP3 ADD SWAP2 PUSH1 0x1 ADD PUSH2 0xFAD JUMP JUMPDEST SWAP2 SWAP1 PUSH1 0x20 DUP4 ADD SWAP3 PUSH1 0x3 DUP3 LT ISZERO PUSH2 0x422 JUMPI MSTORE JUMP JUMPDEST PUSH1 0x40 SWAP1 PUSH1 0x3 NOT ADD SLT PUSH2 0x1BB JUMPI PUSH1 0x4 CALLDATALOAD PUSH1 0x1 PUSH1 0x1 PUSH1 0xA0 SHL SUB DUP2 AND DUP2 SUB PUSH2 0x1BB JUMPI SWAP1 PUSH1 0x24 CALLDATALOAD PUSH1 0x3 DUP2 LT ISZERO PUSH2 0x1BB JUMPI SWAP1 JUMP JUMPDEST ISZERO PUSH2 0x1022 JUMPI JUMP JUMPDEST PUSH1 0x40 MLOAD PUSH3 0x461BCD PUSH1 0xE5 SHL DUP2 MSTORE PUSH1 0x20 PUSH1 0x4 DUP3 ADD MSTORE PUSH1 0x17 PUSH1 0x24 DUP3 ADD MSTORE PUSH32 0x496E73756666696369656E742070726976696C65676573000000000000000000 PUSH1 0x44 DUP3 ADD MSTORE PUSH1 0x64 SWAP1 REVERT JUMPDEST SWAP2 SWAP1 DUP2 LT ISZERO PUSH2 0xF37 JUMPI PUSH1 0x5 SHL ADD SWAP1 JUMP JUMPDEST CALLDATALOAD PUSH1 0x1 PUSH1 0x1 PUSH1 0xA0 SHL SUB DUP2 AND DUP2 SUB PUSH2 0x1BB JUMPI SWAP1 JUMP JUMPDEST ISZERO PUSH2 0x1092 JUMPI JUMP JUMPDEST PUSH1 0x40 MLOAD PUSH3 0x461BCD PUSH1 0xE5 SHL DUP2 MSTORE PUSH1 0x20 PUSH1 0x4 DUP3 ADD MSTORE PUSH1 0x1C PUSH1 0x24 DUP3 ADD MSTORE PUSH32 0x43616E6E6F742072656D6F766520636F6E7472616374206F776E657200000000 PUSH1 0x44 DUP3 ADD MSTORE PUSH1 0x64 SWAP1 REVERT JUMPDEST ISZERO PUSH2 0x10DE JUMPI JUMP JUMPDEST PUSH1 0x40 MLOAD PUSH3 0x461BCD PUSH1 0xE5 SHL DUP2 MSTORE PUSH1 0x20 PUSH1 0x4 DUP3 ADD MSTORE PUSH1 0xC PUSH1 0x24 DUP3 ADD MSTORE PUSH12 0x2737BA1030B71030B236B4B7 PUSH1 0xA1 SHL PUSH1 0x44 DUP3 ADD MSTORE PUSH1 0x64 SWAP1 REVERT JUMPDEST PUSH1 0x1 PUSH1 0x1 PUSH1 0xA0 SHL SUB DUP2 AND SWAP2 SWAP1 DUP3 ISZERO PUSH2 0x1462 JUMPI PUSH2 0x112D DUP2 PUSH2 0x1518 JUMP JUMPDEST DUP1 PUSH2 0x144E JUMPI JUMPDEST PUSH2 0x13FB JUMPI PUSH2 0x1140 DUP2 PUSH2 0x16EB JUMP JUMPDEST DUP1 PUSH2 0x13E7 JUMPI JUMPDEST PUSH2 0x1392 JUMPI DUP3 PUSH1 0x0 MSTORE PUSH1 0x1 PUSH1 0x20 MSTORE PUSH1 0xFF PUSH1 0x40 PUSH1 0x0 KECCAK256 SLOAD AND PUSH1 0x3 DUP2 LT ISZERO PUSH2 0x422 JUMPI PUSH1 0x2 DUP2 SUB PUSH2 0x137D JUMPI POP PUSH2 0x1177 DUP2 PUSH2 0x1599 JUMP JUMPDEST DUP3 PUSH1 0x0 MSTORE PUSH1 0x1 PUSH1 0x20 MSTORE PUSH1 0x40 PUSH1 0x0 KECCAK256 PUSH1 0x3 DUP4 LT ISZERO PUSH2 0x422 JUMPI PUSH1 0xFF NOT DUP2 SLOAD AND PUSH1 0xFF DUP5 AND OR SWAP1 SSTORE PUSH1 0x2 DUP3 EQ PUSH1 0x0 EQ PUSH2 0x1298 JUMPI DUP3 PUSH1 0x0 MSTORE PUSH1 0x4 PUSH1 0x20 MSTORE PUSH1 0xFF PUSH1 0x40 PUSH1 0x0 KECCAK256 SLOAD AND ISZERO PUSH2 0x120A JUMPI JUMPDEST POP PUSH2 0x1205 PUSH1 0x0 DUP1 MLOAD PUSH1 0x20 PUSH2 0x18A0 DUP4 CODECOPY DUP2 MLOAD SWAP2 MSTORE SWAP2 DUP4 PUSH32 0x44D6D25963F097AD14F29F06854A01F575648A1EF82F30E562CCD3889717E339 PUSH1 0x0 DUP1 LOG2 JUMPDEST PUSH1 0x40 MLOAD SWAP2 DUP3 SWAP2 DUP3 PUSH2 0xFD9 JUMP JUMPDEST SUB SWAP1 LOG2 JUMP JUMPDEST PUSH1 0x2 SLOAD SWAP2 PUSH1 0x1 PUSH1 0x40 SHL DUP4 LT ISZERO PUSH2 0x5A0 JUMPI PUSH2 0x1266 PUSH2 0x1205 SWAP3 PUSH2 0x1242 DUP6 PUSH1 0x1 PUSH1 0x0 DUP1 MLOAD PUSH1 0x20 PUSH2 0x18A0 DUP4 CODECOPY DUP2 MLOAD SWAP2 MSTORE SWAP8 ADD PUSH1 0x2 SSTORE PUSH1 0x2 PUSH2 0xF68 JUMP JUMPDEST DUP2 SLOAD PUSH1 0x1 PUSH1 0x1 PUSH1 0xA0 SHL SUB SWAP4 DUP5 AND PUSH1 0x3 SWAP3 SWAP1 SWAP3 SHL SWAP2 DUP3 SHL SWAP4 SWAP1 SWAP2 SHL NOT AND SWAP2 SWAP1 SWAP2 OR SWAP1 SSTORE JUMP JUMPDEST PUSH1 0x2 SLOAD DUP5 PUSH1 0x0 MSTORE PUSH1 0x6 PUSH1 0x20 MSTORE PUSH1 0x40 PUSH1 0x0 KECCAK256 SSTORE DUP4 PUSH1 0x0 MSTORE PUSH1 0x4 PUSH1 0x20 MSTORE PUSH1 0x40 PUSH1 0x0 KECCAK256 PUSH1 0x1 PUSH1 0xFF NOT DUP3 SLOAD AND OR SWAP1 SSTORE SWAP2 POP PUSH2 0x11BE JUMP JUMPDEST PUSH1 0x1 DUP3 EQ PUSH2 0x12BA JUMPI JUMPDEST POP PUSH2 0x1205 PUSH1 0x0 DUP1 MLOAD PUSH1 0x20 PUSH2 0x18A0 DUP4 CODECOPY DUP2 MLOAD SWAP2 MSTORE SWAP2 PUSH2 0x11F9 JUMP JUMPDEST DUP3 PUSH1 0x0 MSTORE PUSH1 0x5 PUSH1 0x20 MSTORE PUSH1 0xFF PUSH1 0x40 PUSH1 0x0 KECCAK256 SLOAD AND ISZERO PUSH2 0x1313 JUMPI JUMPDEST POP PUSH2 0x1205 PUSH1 0x0 DUP1 MLOAD PUSH1 0x20 PUSH2 0x18A0 DUP4 CODECOPY DUP2 MLOAD SWAP2 MSTORE SWAP2 DUP4 PUSH32 0x2C31044378CC14466459F09320DD4057D7AD6E99B194C0800C78227383A25296 PUSH1 0x0 DUP1 LOG2 SWAP2 POP PUSH2 0x12A1 JUMP JUMPDEST PUSH1 0x3 SLOAD SWAP2 PUSH1 0x1 PUSH1 0x40 SHL DUP4 LT ISZERO PUSH2 0x5A0 JUMPI PUSH2 0x134B PUSH2 0x1205 SWAP3 PUSH2 0x1242 DUP6 PUSH1 0x1 PUSH1 0x0 DUP1 MLOAD PUSH1 0x20 PUSH2 0x18A0 DUP4 CODECOPY DUP2 MLOAD SWAP2 MSTORE SWAP8 ADD PUSH1 0x3 SSTORE PUSH1 0x3 PUSH2 0xF68 JUMP JUMPDEST PUSH1 0x3 SLOAD DUP5 PUSH1 0x0 MSTORE PUSH1 0x7 PUSH1 0x20 MSTORE PUSH1 0x40 PUSH1 0x0 KECCAK256 SSTORE DUP4 PUSH1 0x0 MSTORE PUSH1 0x5 PUSH1 0x20 MSTORE PUSH1 0x40 PUSH1 0x0 KECCAK256 PUSH1 0x1 PUSH1 0xFF NOT DUP3 SLOAD AND OR SWAP1 SSTORE SWAP2 POP PUSH2 0x12D2 JUMP JUMPDEST PUSH1 0x1 SUB PUSH2 0x1177 JUMPI PUSH2 0x138D DUP2 PUSH2 0x174F JUMP JUMPDEST PUSH2 0x1177 JUMP JUMPDEST PUSH1 0x40 MLOAD PUSH3 0x461BCD PUSH1 0xE5 SHL DUP2 MSTORE PUSH1 0x20 PUSH1 0x4 DUP3 ADD MSTORE PUSH1 0x27 PUSH1 0x24 DUP3 ADD MSTORE PUSH32 0x43616E6E6F74206368616E676520726F6C65206F662068617264636F64656420 PUSH1 0x44 DUP3 ADD MSTORE PUSH7 0x30BAB234BA37B9 PUSH1 0xC9 SHL PUSH1 0x64 DUP3 ADD MSTORE PUSH1 0x84 SWAP1 REVERT JUMPDEST POP PUSH1 0x3 DUP3 LT ISZERO PUSH2 0x422 JUMPI PUSH1 0x1 DUP3 EQ ISZERO PUSH2 0x1146 JUMP JUMPDEST PUSH1 0x40 MLOAD PUSH3 0x461BCD PUSH1 0xE5 SHL DUP2 MSTORE PUSH1 0x20 PUSH1 0x4 DUP3 ADD MSTORE PUSH1 0x25 PUSH1 0x24 DUP3 ADD MSTORE PUSH32 0x43616E6E6F74206368616E676520726F6C65206F662068617264636F64656420 PUSH1 0x44 DUP3 ADD MSTORE PUSH5 0x30B236B4B7 PUSH1 0xD9 SHL PUSH1 0x64 DUP3 ADD MSTORE PUSH1 0x84 SWAP1 REVERT JUMPDEST POP PUSH1 0x3 DUP3 LT ISZERO PUSH2 0x422 JUMPI PUSH1 0x2 DUP3 EQ ISZERO PUSH2 0x1133 JUMP JUMPDEST PUSH1 0x40 MLOAD PUSH3 0x461BCD PUSH1 0xE5 SHL DUP2 MSTORE PUSH1 0x20 PUSH1 0x4 DUP3 ADD MSTORE PUSH1 0xF PUSH1 0x24 DUP3 ADD MSTORE PUSH15 0x496E76616C69642061646472657373 PUSH1 0x88 SHL PUSH1 0x44 DUP3 ADD MSTORE PUSH1 0x64 SWAP1 REVERT JUMPDEST ISZERO PUSH2 0x14A0 JUMPI JUMP JUMPDEST PUSH1 0x40 MLOAD PUSH3 0x461BCD PUSH1 0xE5 SHL DUP2 MSTORE PUSH1 0x20 PUSH1 0x4 DUP3 ADD MSTORE PUSH1 0xE PUSH1 0x24 DUP3 ADD MSTORE PUSH14 0x2737BA1030B71030BAB234BA37B9 PUSH1 0x91 SHL PUSH1 0x44 DUP3 ADD MSTORE PUSH1 0x64 SWAP1 REVERT JUMPDEST ISZERO PUSH2 0x14DD JUMPI JUMP JUMPDEST PUSH1 0x40 MLOAD PUSH3 0x461BCD PUSH1 0xE5 SHL DUP2 MSTORE PUSH1 0x20 PUSH1 0x4 DUP3 ADD MSTORE PUSH1 0x13 PUSH1 0x24 DUP3 ADD MSTORE PUSH19 0x496E646578206F7574206F6620626F756E6473 PUSH1 0x68 SHL PUSH1 0x44 DUP3 ADD MSTORE PUSH1 0x64 SWAP1 REVERT JUMPDEST PUSH1 0x8 SLOAD SWAP1 DUP2 PUSH1 0x0 JUMPDEST DUP4 DUP2 LT PUSH2 0x1530 JUMPI POP POP POP POP PUSH1 0x0 SWAP1 JUMP JUMPDEST PUSH1 0x0 DUP3 DUP3 LT ISZERO PUSH2 0x1585 JUMPI PUSH1 0x8 SWAP1 MSTORE PUSH32 0xF3F7A9FE364FAAB93B216DA50A3214154F22A0A2B415B23A84C8169E8B636EE3 DUP2 ADD SLOAD PUSH1 0x1 PUSH1 0x1 PUSH1 0xA0 SHL SUB DUP5 DUP2 AND SWAP2 AND EQ PUSH2 0x157C JUMPI PUSH1 0x1 ADD PUSH2 0x1520 JUMP JUMPDEST POP POP POP POP PUSH1 0x1 SWAP1 JUMP JUMPDEST PUSH4 0x4E487B71 PUSH1 0xE0 SHL DUP2 MSTORE PUSH1 0x32 PUSH1 0x4 MSTORE PUSH1 0x24 SWAP1 REVERT JUMPDEST PUSH1 0x1 PUSH1 0x1 PUSH1 0xA0 SHL SUB AND PUSH1 0x0 DUP2 DUP2 MSTORE PUSH1 0x4 PUSH1 0x20 MSTORE PUSH1 0x40 SWAP1 KECCAK256 SLOAD PUSH1 0xFF AND PUSH2 0x15BB JUMPI POP JUMP JUMPDEST DUP1 PUSH1 0x0 MSTORE PUSH1 0x6 PUSH1 0x20 MSTORE PUSH1 0x40 PUSH1 0x0 KECCAK256 SLOAD DUP1 ISZERO PUSH2 0x16A6 JUMPI PUSH1 0x0 NOT DUP2 ADD DUP2 DUP2 GT PUSH2 0x663 JUMPI PUSH1 0x2 SLOAD PUSH1 0x0 NOT DUP2 ADD SWAP1 DUP2 GT PUSH2 0x663 JUMPI DUP1 DUP3 LT PUSH2 0x1666 JUMPI JUMPDEST POP POP POP PUSH1 0x2 SLOAD DUP1 ISZERO PUSH2 0x1650 JUMPI PUSH1 0x0 NOT ADD PUSH2 0x1626 PUSH2 0x1611 DUP3 PUSH1 0x2 PUSH2 0xF68 JUMP JUMPDEST DUP2 SLOAD SWAP1 PUSH1 0x1 DUP1 PUSH1 0xA0 SHL SUB SWAP1 PUSH1 0x3 SHL SHL NOT AND SWAP1 SSTORE JUMP JUMPDEST PUSH1 0x2 SSTORE DUP1 PUSH1 0x0 MSTORE PUSH1 0x6 PUSH1 0x20 MSTORE PUSH1 0x0 PUSH1 0x40 DUP2 KECCAK256 SSTORE PUSH1 0x0 MSTORE PUSH1 0x4 PUSH1 0x20 MSTORE PUSH1 0x40 PUSH1 0x0 KECCAK256 PUSH1 0xFF NOT DUP2 SLOAD AND SWAP1 SSTORE JUMP JUMPDEST PUSH4 0x4E487B71 PUSH1 0xE0 SHL PUSH1 0x0 MSTORE PUSH1 0x31 PUSH1 0x4 MSTORE PUSH1 0x24 PUSH1 0x0 REVERT JUMPDEST PUSH2 0x1242 SWAP2 PUSH2 0x1676 PUSH2 0x1690 SWAP3 PUSH2 0xF1C JUMP JUMPDEST SWAP1 SLOAD PUSH1 0x3 SWAP2 SWAP1 SWAP2 SHL SHR PUSH1 0x1 PUSH1 0x1 PUSH1 0xA0 SHL SUB AND SWAP3 DUP4 SWAP2 PUSH2 0xF1C JUMP JUMPDEST PUSH1 0x0 MSTORE PUSH1 0x6 PUSH1 0x20 MSTORE PUSH1 0x40 PUSH1 0x0 KECCAK256 SSTORE CODESIZE DUP1 DUP1 PUSH2 0x15F3 JUMP JUMPDEST PUSH1 0x40 MLOAD PUSH3 0x461BCD PUSH1 0xE5 SHL DUP2 MSTORE PUSH1 0x20 PUSH1 0x4 DUP3 ADD MSTORE PUSH1 0x18 PUSH1 0x24 DUP3 ADD MSTORE PUSH32 0x41646D696E206E6F7420666F756E6420696E2061727261790000000000000000 PUSH1 0x44 DUP3 ADD MSTORE PUSH1 0x64 SWAP1 REVERT JUMPDEST PUSH1 0x9 SLOAD SWAP1 DUP2 PUSH1 0x0 JUMPDEST DUP4 DUP2 LT PUSH2 0x1703 JUMPI POP POP POP POP PUSH1 0x0 SWAP1 JUMP JUMPDEST PUSH1 0x0 DUP3 DUP3 LT ISZERO PUSH2 0x1585 JUMPI PUSH1 0x9 SWAP1 MSTORE PUSH32 0x6E1540171B6C0C960B71A7020D9F60077F6AF931A8BBF590DA0223DACF75C7AF DUP2 ADD SLOAD PUSH1 0x1 PUSH1 0x1 PUSH1 0xA0 SHL SUB DUP5 DUP2 AND SWAP2 AND EQ PUSH2 0x157C JUMPI PUSH1 0x1 ADD PUSH2 0x16F3 JUMP JUMPDEST PUSH1 0x1 PUSH1 0x1 PUSH1 0xA0 SHL SUB AND PUSH1 0x0 DUP2 DUP2 MSTORE PUSH1 0x5 PUSH1 0x20 MSTORE PUSH1 0x40 SWAP1 KECCAK256 SLOAD PUSH1 0xFF AND PUSH2 0x1771 JUMPI POP JUMP JUMPDEST DUP1 PUSH1 0x0 MSTORE PUSH1 0x7 PUSH1 0x20 MSTORE PUSH1 0x40 PUSH1 0x0 KECCAK256 SLOAD DUP1 ISZERO PUSH2 0x1831 JUMPI PUSH1 0x0 NOT DUP2 ADD DUP2 DUP2 GT PUSH2 0x663 JUMPI PUSH1 0x3 SLOAD PUSH1 0x0 NOT DUP2 ADD SWAP1 DUP2 GT PUSH2 0x663 JUMPI DUP1 DUP3 LT PUSH2 0x17F1 JUMPI JUMPDEST POP POP POP PUSH1 0x3 SLOAD DUP1 ISZERO PUSH2 0x1650 JUMPI PUSH1 0x0 NOT ADD PUSH2 0x17C7 PUSH2 0x1611 DUP3 PUSH1 0x3 PUSH2 0xF68 JUMP JUMPDEST PUSH1 0x3 SSTORE DUP1 PUSH1 0x0 MSTORE PUSH1 0x7 PUSH1 0x20 MSTORE PUSH1 0x0 PUSH1 0x40 DUP2 KECCAK256 SSTORE PUSH1 0x0 MSTORE PUSH1 0x5 PUSH1 0x20 MSTORE PUSH1 0x40 PUSH1 0x0 KECCAK256 PUSH1 0xFF NOT DUP2 SLOAD AND SWAP1 SSTORE JUMP JUMPDEST PUSH2 0x1242 SWAP2 PUSH2 0x1801 PUSH2 0x181B SWAP3 PUSH2 0xF4D JUMP JUMPDEST SWAP1 SLOAD PUSH1 0x3 SWAP2 SWAP1 SWAP2 SHL SHR PUSH1 0x1 PUSH1 0x1 PUSH1 0xA0 SHL SUB AND SWAP3 DUP4 SWAP2 PUSH2 0xF4D JUMP JUMPDEST PUSH1 0x0 MSTORE PUSH1 0x7 PUSH1 0x20 MSTORE PUSH1 0x40 PUSH1 0x0 KECCAK256 SSTORE CODESIZE DUP1 DUP1 PUSH2 0x17A9 JUMP JUMPDEST PUSH1 0x40 MLOAD PUSH3 0x461BCD PUSH1 0xE5 SHL DUP2 MSTORE PUSH1 0x20 PUSH1 0x4 DUP3 ADD MSTORE PUSH1 0x1A PUSH1 0x24 DUP3 ADD MSTORE PUSH32 0x41756469746F72206E6F7420666F756E6420696E206172726179000000000000 PUSH1 0x44 DUP3 ADD MSTORE PUSH1 0x64 SWAP1 REVERT JUMPDEST PUSH1 0x0 SLOAD PUSH1 0x1 PUSH1 0x1 PUSH1 0xA0 SHL SUB AND CALLER SUB PUSH2 0x188A JUMPI JUMP JUMPDEST PUSH4 0x118CDAA7 PUSH1 0xE0 SHL PUSH1 0x0 MSTORE CALLER PUSH1 0x4 MSTORE PUSH1 0x24 PUSH1 0x0 REVERT INVALID BLOBBASEFEE 0xC3 PUSH16 0xA53F167CEB85964BE512E01DE2A3B8BD 0xB9 DUP7 0x2F SWAP2 PUSH30 0xA079DEEEFF689B38A2646970667358221220B238527F4EF8FB610A51E0BC 0xF EQ 0xE0 0xBB DUP8 DIV PUSH26 0x8FDCEAC3038696BA02278A01E464736F6C634300081C003344D6 0xD2 MSIZE PUSH4 0xF097AD14 CALLCODE SWAP16 MOD DUP6 BLOBBASEFEE ADD CREATE2 PUSH22 0x648A1EF82F30E562CCD3889717E3394AC36FA53F167C 0xEB DUP6 SWAP7 0x4B 0xE5 SLT 0xE0 SAR 0xE2 LOG3 0xB8 0xBD 0xB9 DUP7 0x2F SWAP2 PUSH30 0xA079DEEEFF689B3800000000000000000000000000000000000000000000 "
        },
        "methodIdentifiers": {
          "adminIndex(address)": "a20b147d",
          "admins(uint256)": "14bfd6d0",
          "assignRole(address,uint8)": "630a195b",
          "auditorIndex(address)": "44bfd12d",
          "auditors(uint256)": "1b8b444c",
          "batchAssignRoles(address[],uint8[])": "662d6ce5",
          "batchRemoveAdmins(address[])": "07314a3f",
          "batchRemoveAuditors(address[])": "e93dea23",
          "getAdminAtIndex(uint256)": "f1c4132e",
          "getAdminCount()": "8b7bf3eb",
          "getAdminIndex(address)": "bf8c6112",
          "getAdmins()": "31ae450b",
          "getAuditorAtIndex(uint256)": "ef2d65c3",
          "getAuditorCount()": "52738d9a",
          "getAuditorIndex(address)": "bee6bf1a",
          "getAuditors()": "57de4a6e",
          "getHardcodedAdmins()": "8c89a8a1",
          "getHardcodedAuditors()": "de2f0d6f",
          "getRole(address)": "44276733",
          "hasRole(address,uint8)": "95a8c58d",
          "isAdmin(address)": "24d7806c",
          "isAdminMap(address)": "8e9a4c34",
          "isAuditor(address)": "49b90557",
          "isAuditorMap(address)": "f575afad",
          "isHardcodedAdmin(address)": "c41331ec",
          "isHardcodedAuditor(address)": "8978ae39",
          "owner()": "8da5cb5b",
          "removeAdmin(address)": "1785f53c",
          "removeAuditor(address)": "e6116cfd",
          "renounceOwnership()": "715018a6",
          "transferOwnership(address)": "f2fde38b",
          "userRoles(address)": "74d5e100"
        }
      }
    }
  }
}